S01B00006275696C642F72656C656173652F7A69676265652E73333714
S21400600008100020998D000079D00000E5020300FA
S214006010E502030081D0000089D00000E5020300FD
S214006020E5020300E5020300E5020300E5020300C3
S2140060308DD0000018430400E5020300E5020300CB
S214006040E5020300E5020300E5020300698800009C
S214006050E5020300E5020300E5020300E502030093
S214006060E5020300E5020300E5020300E502030083
S214006070F9D50000E5020300E5020300E50203008F
S214006080E5020300E5020300E5020300E502030063
S214006090E5020300E5020300E5020300E502030053
S2140060A0E50203006191000041910000E502030053
S2140060B0E5020300910E0200E5020300F518020057
S2140060C0ED5C0300E95C0300D1100200035D0300F1
S2140060D0F15C0300C5180200F55C030035190200E8
S2140060E0A11F02009DFC0100A1190200E5020300A9
S2140060F0E5020300E5020300E5020300E5020300F3
S214006100E5020300E5020300E5020300E5020300E2
S214006110E5020300E5020300E5020300E5020300D2
S214006120E5020300E5020300E5020300E5020300C2
S214006130E5020300E5020300E5020300E5020300B2
S21400614082B030BF074BD3F8F030DB0704D500230E
S2140061500193019B052B01DD02B07047019B0133C3
S214006160F6E700BF00ED00E0F0B5114A114C124E04
S21400617000F00105E3695F0713D40DB9334213D16C
S21400618003EA00078F4207D10B4A1A40002A14BFC1
S2140061906FF001000020F0BD013AEBD16FF0020075
S2140061A0F9E74FF0FF30F6E76FF00100F3E700BFC6
S2140061B08096980000000350020001000B4B70B55B
S2140061C0D96911F480310DD101244FF48072084E44
S2140061D0084DF46020462C641A61FFF7C5FF34644E
S2140061E0EC6070BD6FF00100FBE700BF00000350DD
S2140061F000100350002003504FF4003238B50F4B08
S2140062000F4C9A6641F671330122E569E3630D4B44
S2140062100021DA60022360612120236105F48035C5
S214006220FFF7A2FF10B92120FFF79EFF0122064BC1
S214006230DA600DB10023E36338BD00BF0090005064
S21400624000000350001003500020035070B5134C9C
S2140062506061E3695B071ED40E4656F8043B8D1852
S214006260A361AE420BD10423002121202361FFF756
S2140062707BFF58B9BDE870402120FFF775BF0821A5
S2140062800846FFF771FF10B10423236170BD56F86E
S214006290043BA361E5E74FF0FF30F7E7000003504B
S2140062A02DE9F84316464FF40032184B89469A6695
S2140062B003F51C33DA69074602F4803841F671327A
S2140062C0DA63012203F58053114DDA6066B9304671
S2140062D00122104BDA60B8F1000F03D00022A3F5BC
S2140062E00053DA63BDE8F88307F500542C40E41B3E
S2140062F0B44228BF3446494622463846FFF7A6FF32
S2140063000028E5D12744A144361BDFE70090005063
S20C00631000E0FFFF002003502F
S2140063182DE9F04F4FF0FD0BC9B09A460DF11B0959
S2140063289DF8503108AFCDF80C90CDF808B001971D
S214006338059303890446009383790E469046418860
S2140063488288407811F00CF8054650B10090A38872
S214006358002062883C4911F043FB284649B0BDE856
S214006368F08F99F800002CF02EFE38B12846A38846
S2140063786288364911F034FB8D25EEE75A463946D1
S21400638899F800002CF0C7FD8346002855D0529B8C
S2140063981BB1BDF84C3198424FD8002399F80090AD
S2140063A80793A9F14102012A5FFA8BFC36D83846D2
S2140063B80CF1FF3C5FFA8CFE254ADFF89CC073455B
S2140063C825DB059B07A94FF0040C0A6043BB18237E
S2140063D89FED1B7B5E431F48624683190836304490
S2140063E883ED027B2FF040F8B8F1000F01D088F853
S2140063F80090BAF1000F01D0AAF800B0529B002B0B
S214006408ABD05A46394618462FF02EF8A5E710F8AE
S214006418011F013351400CFB01F2D0E7059B3BB14D
S21400642823464A466146384600960EF031FF94E702
S214006438BCF1080FD8D83946C9E701258DE700BF53
S21400644800000000000000000EEC030043EC030010
S214006458C59D1C81801000209301000100000000EB
S2140064682DE9F04F93B0CDE90A32DDE91C630E93AF
S21400647853EC102BCDE90801104619468DED060B96
S2140064881E9D15F083FB80B1DDE906014FF0FF3253
S214006498C74B15F0A3FB40B9DDE906014FF0FF3204
S2140064A86FF4801315F07CFB70B1DDE908019DEDF3
S2140064B8060B0E9B1E95CDE91C63DDE90A3213B068
S2140064C8BDE8F04F00F08CB90022DDE90601002394
S2140064D815F066FB002800F03781DDE906A303F116
S2140064E8004BCBF30A5015F48063A0F2FF3008BFC8
S2140064F806260F9315F078F89DA3D3E9002315F028
S214006508DDF89DA3D3E9002314F022FFCBF3130490
S214006518894644F07F5180460022A64B504641F4F7
S214006528401114F013FF96A3D3E9002315F0C6F81C
S21400653802460B464046494614F00AFF15F058FB3B
S214006548044615F051F890A3D3E9002380468946FF
S21400655815F0B4F80022984B14F0FAFE15F048FB34
S2140065688BA3D3E9002307464946404615F0A6F80C
S21400657880463846894615F037F887A3D3E90023BE
S21400658815F09CF802460B464046494614F0DEFED7
S21400659802460B46CDE90C2315F090F8DDE90C23EE
S2140065A8804689461046194614F0D2FE0022CDE9E8
S2140065B81001824B4046494615F0AAF90022804B46
S2140065C814F0C6FE02460B464046494615F0A0F9AA
S2140065D800227C4B14F0BCFE02460B464046494659
S2140065E815F096F9DDE90C238046894600204FF021
S2140065F8804114F0ABFE02460B464046494614F06E
S214006608A7FE02460B46DDE9100115F081F907F2F0
S214006618FF3700226C4B14F09BFE00223B0515F05A
S2140066284DF852465B468046894615F0D7FA00284C
S21400663840F08D80CDE90C8904F16303C62B8CBF2E
S2140066480527042729051FD555A3D3E90023504657
S214006658594615F0B9FA002800F0838052A3D3E90A
S21400666800235046594615F09BFA002879D0A642D2
S214006678D8BF00244FF00007C4BF341B04F1FF3412
S21400668826463C4645F480650E9B9F422CBF4FF03D
S2140066980008A3EB070815F0020903D0002F18BF5F
S2140066A84FF000083CB1DDE90C235046594615F07A
S2140066B82FF982468B46DDE906010022002315F0F5
S2140066C86FFA10B10BF100439B46DDE9080125F48B
S2140066D80063CDE90183DDE90A324BEC10AB009686
S2140066E800F07EF802465FB3DDE9091315F0200FC7
S2140066F8089E00F101050CBF65204520B047DDE97E
S21400670808010523002205930A23002CCDE902324E
S21400671807F1FF374FEAD473B8BF64422A4601939D
S21400672804970A9B00942EF054FB0246B9F1000F1A
S21400673806D00B9BC41A0B9B1A190E9BA34245D86E
S214006748104613B0BDE8F08FDDE906ABC9E60022B7
S214006758404649461A4B15F0DBF8013CCDE90C01DA
S2140067686AE7002E90D00F9B002B8DD0013E8BE75A
S214006778FB799F501344D33FB3C8608B288AC63F23
S21400678861436F63A787D23F71A379094F930A4085
S2140067981655B5BBB16B0240EF39FAFE422EE63FFE
S2140067A82D431CEBE2361A3F0000000080842E4181
S2140067B8FFFFEF7F0000F83F0000E03F00002C409E
S2140067C800002440000018400000F03F2020DDE9CB
S2140067D80913089DA8470134ADE700BF0000000074
S2140067E82DE9F04F5BEC10AB97B0CDE90501DDE97C
S2140067F82048CDE90723504652465B465946229F15
S21400680815F0C4F970B90323CDE902870193A44BA8
S2140068180093DDE90501DDE907232EF00CFA17B031
S214006828BDE8F08F4FF0FF326FF48013504659469C
S21400683815F0B6F928B10423CDE902870193994BE0
S214006848E6E74FF0FF3250465946974B15F0C6F923
S21400685850B178074CBF04220322CDE902874CBF0B
S214006868924B934B0192D3E7504689A3D3E9002372
S214006878594615F0B3F938B987A3D3E9002350462B
S214006888594615F08DF968B1DDE90723DDE90501FC
S2140068984BEC10ABCDE92187209417B0BDE8F04F3C
S2140068A8FFF7DEBD002200235046594615F078F95A
S2140068B8B8B15B4652460020002114F047FD01237C
S2140068C882468B46099317F4806F08BF062430214A
S2140068D823460EAAA4F12009092B04D89946E41ADF
S2140068E807E00990EFE7013B4B4502F8011BF3D19F
S2140068F820245946504615F07BF96E4B054603EBA7
S214006908C90393ED007B8DED0A7B14F06DFE0246FD
S2140069180B465046594614F019FDDDE90A2314F0D3
S214006928CDFE02460B46CDE90C2315F089F906463E
S21400693814F04AFE02460B46DDE90C0114F006FD8B
S21400694802460B46CDE90C2300225B4B15F046F9B0
S214006958B8B10136304614F037FE02460B46DDE97C
S2140069680A0115F027F908B100260135B9F1000F1C
S21400697814D00A210EAB1A19202C40D13022A1447B
S21400698850E00022DDE90C014B4B15F009F9002810
S214006998ECD10EB1F107E9D50136E7E7284614F041
S2140069A823FE02460B465046594614F0CFFC0022FA
S2140069B8414B15F0F5F810B9013525F001050A2107
S2140069C80EAB1A19202C0AD095FBF1F001FB1055D6
S2140069D8303502F8015B013405460028F2D107F08D
S2140069E80302012A38D1B8F1000F35D0099A12B936
S2140069F817F00C0F01D008F1FF38302223E0B6FB61
S214006A08F1F001FB1063092E03F1300309F1FF3999
S214006A1804F1010402F8013BB0D90646ACE70EA91A
S214006A280A551C46202CCAD04C4504F10103F6D161
S214006A3804F158020DEB02042E2204F8202C1C4602
S214006A48BDE71A550134A04506D9202CF9D1CDE961
S214006A58028701940EABDBE6202CF8D0099B3BB1ED
S214006A682D2204F158036B4403F8202C0134EEE77A
S214006A787A0704D504F158032B226B44F4E73B0746
S214006A88E5D504F1580320226B44EDE7AFF3008008
S214006A980000000065CDCD410000000065CDCDC1E9
S214006AA8370904003B090400FFFFEF7F2E090400A6
S214006AB833090400085204000000E03F000000000C
S214006AC870B58EB02C22002103A82EF0A7FC6423F4
S214006AD84FF002320893CDE905230B2301218DF8E8
S214006AE834305B4B8DF810101D880D4040F0A9809F
S214006AF8084632F0A3FB0A22564B574C1A704FF43E
S214006B082873ADF812304FF0FF332360534B5449C7
S214006B181B8820460B82534B534A1B68CD828B61D9
S214006B28524B0D621B884B82514B1B68CB611AF087
S214006B38FFFF20B14FF41B714E4833F0A9FB052127
S214006B4820682FF075F920B140F27D21494833F0CE
S214006B589FFB206814F0B6FB474B206819682EF098
S214006B68E1FC0C2532F0D2FF6843099032F0CEFFE4
S214006B7868430DEB05010790206815F09BFB20B1D4
S214006B8840F295213B4833F083FB25681DF0FAFB5D
S214006B980022014628462EF03DFD20B140F29721FE
S214006BA8344833F075FB40F20353344D344E2B8093
S214006BB8052396F90000AB707F2801D11BF0A0FAD8
S214006BC83378EB7032F0A2FF00EB80008000A880DC
S214006BD832F09CFF0023C0004FF0FF31E880AB6026
S214006BE84FF0FF3018A3D3E9002332F079FC25498B
S214006BF820682EF0C8FC206802A92FF0C0F920B142
S214006C084FF434711B4833F043FB042220680DEB25
S214006C1802012EF05CFC042804D040F2D721154867
S214006C2833F036FB01A901202DF05DFE06F064FA6C
S214006C3801201BF0E9FE2AF0B1F81BF00FFF1BF04D
S214006C48F7F90EB070BD00BF0A0020FF420300002F
S214006C58BA510020E3580020E04B0020BE6B040029
S214006C68FC5F0020C46B04006D920300BC6B04003C
S214006C78C06B040000420400385D0020D44B00209E
S214006C88C3620020E192030010B5054C237833B99F
S214006C98044B13B10448AFF300800123237010BDE2
S214006CA89852002000000000DCA6040008B5034B3C
S214006CB81BB103490348AFF3008008BD000000007D
S214006CC8B8150020DCA60400A3F5803A704700BF7C
S214006CD8154B002B08BF114B9D46FFF7F5FF00210B
S214006CE88B460F461148124A121A2EF097FB0C4B89
S214006CF8002B00D098470B4B002B00D0984700205D
S214006D08002104000D000B482EF059FB15F08EF9F3
S214006D182000290029F079F914F0CCFF00000800BB
S214006D2800000000000000000810002008100020E6
S214006D38385900207DC0010038B500F0F5FE01285E
S214006D4805D000F0F1FE022801D000F005FF064D40
S214006D582B783BB900F0E8FE0128044602D129F05A
S214006D684BF92C7038BD00BF9952002070B50C4600
S214006D78088800F0D7FC94F844300546834214D0BF
S214006D8804F11C06304629F0D3F884F8445029F05C
S214006D98D3F83221A064304629F0C5F894F8441098
S214006DA80248BDE8704014F0B9B970BDF0A60300FB
S214006DB810B50446008800F0B5FCA37884F84400B3
S214006DC8834202BF0123E3702371074B04F11C00C2
S214006DD8C4E9073400F084FD224620880349BDE84C
S214006DE8104000F0B7BC00BF0BFD0200756D000038
S214006DF870B5C37804460D461646002B32D1C1B18D
S214006E081F4814F08BF9E36CA6600BB1E06D984749
S214006E18E368F61A63699E4221D2217E1948013139
S214006E28C9B2217614F07AF9A36D13B1217EE06D0C
S214006E389847E57029F080F80DB32379FBB9A26866
S214006E48238A801A83421AD201230F48237114F02A
S214006E5865F9236D9BB1E06DBDE8704018470123C6
S214006E682376E6E70029E4D1084814F057F9636D5D
S214006E78E6602571002BDCD0E06D9847D9E770BD39
S214006E880DA703001EA703004CA7030039A703009D
S214006E98F8B51E46838804460D4617460BB186800D
S214006EA8F8BD8178008828F04DFF0123E370084B71
S214006EB8E5802781A680C4E903340C34204600F018
S214006EC80FFD29462046BDE8F84029F02CB800BF3B
S214006ED857FD0200816810B5B1FA81F104464909E8
S214006EE8008828F0A6FFA168A088B1FA81F14909B0
S214006EF828F09FFF034B1A68A24204BF00221A60BC
S214006F0810BD00BFD015002070B50446D0E900308B
S214006F18E2680F4E002A18BF1846336804F11005B9
S214006F2813B10C4B1B7863B1217A80B228F081FF2D
S214006F386421094B346023612846BDE8704028F078
S214006F48F2BF064814F0EAF8054B32212361F3E74E
S214006F58D01500209A520020DD6E000062A70300BC
S214006F68116F000010B50446E0B10F4814F0D6F8CB
S214006F780123E360636853B9217A208828F059FF13
S214006F88A36B7BB1E06B0121BDE810401847204693
S214006F98FFF7A0FF04F1100028F0CAFF2046FFF70D
S214006FA8B3FFEDE710BD00BF98A7030010B5044671
S214006FB8F8B1104814F0B2F80023E36063686BB9C0
S214006FC8A1682088B1FA81F1490928F032FFA36B3D
S214006FD87BB1E06B0021BDE8104018472046FFF75C
S214006FE879FF04F1100028F0A3FF2046FFF78CFF76
S214006FF8EDE710BDA3A7030010B5044668B107481F
S21400700814F08CF8E36820461BB1BDE81040FFF783
S214007018CDBFBDE81040FFF7A5BF10BDAFA7030062
S21400702810B50E4C0E48214614F078F882210D480B
S21400703814F074F882210220A21E00F007FC014614
S21400704830B134F8022C0848BDE8104014F066B891
S2140070580648BDE8104014F061B800BF264D002071
S214007068BEA70300D9A70300E4A7030028A80300C7
S21400707838B5114C82212246022000F0D7FBA51C09
S214007088014688B122880D4814F048F82A460C4B69
S21400709803F12C0153F8040B8B4242F8040BF9D188
S2140070A81B7813702C23238035F8021C054A0648E3
S2140070B8BDE8384014F032B8244D002033A8030049
S2140070C8B3A80300264D002091A8030010B5044677
S2140070D80146084814F022F8012C074805D128F084
S2140070E88EFEBDE8104000F0E1BEBDE8104028F076
S2140070F888BE00BFE0A803009C5C002070B5002492
S214007108184D194E3378A34217DC0024174D184E35
S2140071183378A34217DC0024164D174E3378A34263
S21400712817DC00F001FD0128144818D128F067FE86
S214007138BDE87040124800F009BD2846FFF738FE43
S21400714801346035DEE7284628F03FFE0134343542
S214007158DEE7284628F072FE01344035DEE728F0E0
S21400716850FEE5E7A81C00209E520020881E00203E
S2140071789F520020681B00209D5200209C5C002027
S214007188D57000002DE9F04FDFF8FC8285B0FFF7D8
S2140071986FFF03A8CDF80C8028F074FE05462EF085
S2140071A870F9A84CC2B21F2A627004D9A64813F018
S2140071B8B5FF00F057FA2946A01C2EF055F903A88B
S2140071C828F060FE05462EF05CF9C2B21F2A84F845
S2140071D8212001D99D48EAE7294604F122002EF02D
S2140071E843F903A828F04EFE002604462578002D0D
S2140071F855D1DFF89892964FFFF780FF99F8002050
S2140072083978944813F08AFF99F800303E78DFF80A
S2140072184CB21E44F6B2012E38BF01265B46DA464B
S2140072284FF482714FF6FF720135B5421D705980D2
S2140072389A8003F10C03F7DB0C25874C87498148B5
S214007248CAF8084000F02CFDDAF808309AF807006B
S21400725805FB003000F038FB9AF807308048013309
S2140072688AF8073000233A789A4200F3738100259B
S2140072784FF00C0B7B4B99F80020AA4200F37D8157
S2140072883146764800F092FB039B43451A4640F089
S2140072988E81754805B0BDE8F04F13F03FBF532DFB
S2140072A80FD163784C2B40F0F380A378502B40F036
S2140072B8EF8001226D4B1A7003A828F0E3FD044600
S2140072C894E729D8412DF7D9423D102DF4D801A3CB
S2140072D853F825F04D730000C1720000C17200001B
S2140072E8C1720000C1720000C1720000C1720000C5
S2140072F8CF730000C1720000C172000089730000DD
S21400730833730000C1720000C1720000C172000031
S214007318C1720000FB740000692DCDD1601C28F0F6
S214007328BEFD80B228F0F1FDC6E7494B012019786A
S21400733800234B4A994202F1A402BDDD02F8A20CD2
S2140073480133F7E7601C00F059FA0546E01C28F000
S214007358C5FD01210246284600F09EF960224448F1
S214007368444C03785A43A118A5524FF4FA620A828D
S2140073784FF448724A61404A01330A6503709BE736
S214007388601C00F03BFA0022342681463B4F11462B
S21400739800F082F93B783A4D734325F80390E818D5
S2140073A8E378693B18BF0123837028F00EFD3B780D
S2140073B8002106FB03550126324A33441560516006
S2140073C816743B7078E7601C00F018FA0022114625
S2140073D8814600F061F93422284D294F2B78534313
S2140073E827F80390F818E378693B18BF01238370E1
S2140073F828F0EBFC1B4A00231146906BB8B93422E0
S21400740801EB83112B7802FB03738B635EB91D4A6D
S2140074183346114652F8040B78B934202A7800FB14
S214007428027241F823202B7801332B7044E701338E
S214007438042B02F14002E0D1E8E70133042BE9D13E
S214007448F1E700BFBC5B0020FFA8030016A90300F5
S2140074589C52002026A903004C160020D4150020B4
S214007468CC180020CC1700205BA903009A520020F5
S2140074789E520020A81C002077FE02009F52002083
S214007488881E00209C5C0020264D00209B52002071
S214007498601C00F0B3F90546E01C28F01FFD01212A
S2140074A80246284600F0F8F86023454C454A2178FD
S2140074B8A4204B43D718D5524FF44873424D3B820D
S2140074C87B612B78DFF818C158430CEB00020CF8E8
S2140074D800304FF4007050800320107190713220F5
S2140074E80133DBB201315371976082F8A000217036
S2140074F89BE7601C00F082F900228146334F114654
S21400750800F0CAF83B78324D990145F80190012100
S21400751805EB83129160E2785AB1E01C00F06EF930
S21400752800220446114600F0B7F83B7805EB8312B4
S2140075385460284928480A7805EB83154FEA821CC8
S21400754800EB821400F80C200133013265633B70AF
S2140075580A70B1E62BB11BF8052C05FB0244CBF8E4
S214007568084059460193009000F020FF019B0098C0
S2140075780133A4300BF10C0B75E63978184629440C
S2140075884A1E0BFB02A2D2790BFB01A10BFB02449D
S21400759800938C6000F01CFD3978104829440BFBDA
S2140075A801A100F06BFC009B0135403363E613F83D
S2140075B8011D00297FF469AE3B2102F8011C64E630
S2140075C89E520020A81C00209C5200209D5200209D
S2140075D8681B00209B520020CC1700205C1B002054
S2140075E8CC18002007B5022101200DF1060200F094
S2140075F81DF938B9044813F091FDBDF8060003B02C
S2140076085DF804FB0020FAE778A9030007B5022115
S214007618ADF806000DF10602012000F017F9014644
S21400762810B1034813F07AFD03B05DF804FB00BF01
S21400763899A9030010B5FFF7D5FF04460146074889
S21400764813F06CFD0121064813F068FD24B9BDE867
S21400765810400120FFF7DABF10BD00BFC9A903001C
S214007668DBA9030008B5044813F058FD00F0FEF83F
S21400767828F04FFC28F04AFCF1A9030010B5044C8A
S214007688237823B9034832F0A0FD0123237010BDE8
S214007698A15200201445040073B506460D4614464C
S2140076A8FFF7ECFF0E4A330AD35C8DF805608DF8B9
S2140076B804307DB1012C04D0032C09D0002201210E
S2140076C801E02246022101A801F01AFC02B070BDB2
S2140076D80022F7E704212A460DEB0100F4E700BF75
S2140076E8F742040007B5064A030AD35C8DF805007E
S2140076F801A88DF8043001F037FC03B05DF804FBF0
S214007708F742040007B5064A030AD35C8DF805005D
S21400771801A88DF8043001F053FC03B05DF804FBB3
S214007728F742040007B50A4A030AD35C8DF8050039
S2140077388DF8043000230DF1030101A88DF80330FD
S21400774801F06AFC9DF8030003B05DF804FB00BF77
S214007758F74204002DE9F043214C85B006468846DA
S2140077689146FFF78BFF23781BB901F0ADFB012389
S21400777823701C4A330AD35C30228DF80C30002361
S214007788194F8DF80D6002FB03F4395DE51901BB4E
S21400779801233B554FF0FF3304F1100013493844DA
S2140077A8AB606E80C5F80480C5F80C9008F0D4FB72
S2140077B804F10801042239440D4B009503A801F092
S2140077C859FCA96802460B4813F0A8FC05B0BDE8AA
S2140077D8F0830133102BD6D1074813F09FFCF5E74A
S2140077E8A0520020F74204008C1F0020C5FE0200AD
S2140077F8D7FE0200FEA903002CAA030080B1027877
S214007808A2F14103032B0BD840783038C0B20828C1
S21400781806D8054B134413F8413C40EA032070474A
S2140078284FF6FF70704700BFF742040008B50B46D6
S21400783842B101460448006802F072FDBDE80840FF
S21400784828F05DBB022008BD305D002008B50B4659
S21400785842B101460448006802F0EEFEBDE8084062
S21400786828F04DBB022008BD305D00202DE9F04110
S2140078784FF000088CB0134F02AEFF2300930A2285
S21400788843463146386829F03AF8C0B1354606EB23
S214007898800405E055F8043B434528BF03F101087A
S2140078A8AC423868E9D9296803F04EF80028F1D0C8
S2140078B82D28EFD00CB0BDE8F04128F020BB0CB066
S2140078C8BDE8F081305D002028B1034B0360034B10
S2140078D8436000238360704719000003B05C0020F3
S2140078E8FF2307B50021044A0093083008F0B6FACB
S2140078F803B05DF804FB00BF29FF02000B460449ED
S214007908024608680349097808B128F01CBB704786
S21400791894220020A3520020F8B50C4618B1222164
S2140079280F4832F0B5FC0F4813F0F8FB24682368BC
S2140079385E795F8830463946FFF7E0FF08B9812050
S214007948F8BD8568002DFAD0A368E27C3046F9B207
S214007958A84704460028F2D12CF07CF82046EFE72A
S21400796854AA0300C1AA0300F8B515460D4A0446F2
S21400797810680D4A0B46117850B1224628F0E3FAF3
S214007988034628B100210C27C678B14201DB002047
S214007998F8BD07FB01F45A681019125BAA42F7D023
S2140079A80131F2E794220020A35200202DE9F74F78
S2140079B804460D460026444B444F1860444B197045
S2140079C833010021F85C01360FF0B8FA0C2EF7D117
S2140079D80C2D28BF0C254FF0000901953B4EDFF80B
S2140079E8FCA03C4DDFF8F880019B4B4502DC03B059
S2140079F8BDE8F08F23784FF0000B337063887380F0
S214007A08A388B380A379C6F80880B371E379C8F869
S214007A18005088F804304FF00003A768A8F806302E
S214007A28E3795B450ADC012116F8100B0FF086FA9D
S214007A3808F1080809F101090C34D5E74FF00003EE
S214007A4838886B812880F9784FF0000C2981BB783C
S214007A58C5F804A0002B00930CBF802340232B738B
S214007A687A680AF10C03614512DC0C2303FB01AAB1
S214007A78BB6843B1009A4FF6FF71B2FA82F2164B12
S214007A8852092BF077FF14350BF1010B0C37C7E7BB
S214007A98B2F800E00CF1010C23F80CEC92F802E0C6
S214007AA80C3303F816EC92F804E00C3203F815ECE5
S214007AB812F809ECBEF1010F14BF4FF0100E4FF08C
S214007AC8110E03F814ECCEE7942200208C3900201F
S214007AD8A352002098280020217900009822002030
S214007AE8182B0020014B1860704700BF902200201A
S214007AF870B5128805460E46FFF736FF044670B185
S214007B080279049980682DF070FC064B1B680BB947
S214007B18002070BD28462288F1B29847F8E78620EC
S214007B28F7E700BF9022002008B50EF0ADFA02284D
S214007B3806D0012806D0044B18784000C0B208BD0D
S214007B480120FCE70220FAE7A2520020014B186049
S214007B58704700BF8C220020034B1A781AB90122FE
S214007B681A700AF025BB7047A25200200022064B66
S214007B7810B51A70054B1C682CB1FFF7D5FF2346C5
S214007B88BDE81040184710BDA25200208C220020E5
S214007B9837B50446002832D00EF076FA022830D1DF
S214007BA860892CF0B7FAE079237A003818BF0120EC
S214007BB8012B637A08BF40F008000BB140F01000B4
S214007BC863890BB140F00400257CA188A2790DB129
S214007BD8E36873B90C4B0FF08DFD217808460FF05B
S214007BE805FE2BF0C0FD002814BF0320002003B0BC
S214007BF830BDCDE90035054B0FF07CFDEDE70220E2
S214007C08F5E70120F3E700BF5BF80300F4C70300BD
S214007C18034B044A5B7C012103201370FFF716BE52
S214007C289C5C0020A452002010B50446FFF7F0FF25
S214007C38B4F57F4F10D10D4B1A88134400229A7062
S214007C48FFF7EEF90A48FFF74BFEBDE810404FF481
S214007C589671074828F067B94FF601739C4204D11D
S214007C68BDE81040034828F0B2B810BD244D0020E7
S214007C78D45C00209C5C002010B5074C01212246ED
S214007C880320FFF7D3FD28B92378044A003B18BF22
S214007C980123537410BD00BFA45200209C5C002032
S214007CA80822F8B54A4B32241A7030229A703522C8
S214007CB81A7131225A71DA711A724FF400125C7016
S214007CC8DC709C71434C4264C464434C01220465D6
S214007CD8424C85188465424CC567C465414C424D84
S214007CE84466424CC0F880508466414C80F8482070
S214007CF80467404C80F854204467202480F8784075
S214007D0880F8844000F12104C0F888403A4C80F896
S214007D186020C0F88C40394C80F86C20C0F894403D
S214007D28374C80F89020C0F89840364CC0F8B830E9
S214007D38354BC0F8A440C0F8BC300F24022380F8A6
S214007D48A84080F8C030314C314BC0F8AC40C0F881
S214007D58C430304C304BC0F8B040C0F8C8300924A6
S214007D6882232E4D80F8B44080F8CC302C7C2C4BE7
S214007D7880F89C20C0F8A000C0F8D03044B1294B49
S214007D8880F8D820C0F8D43005F11103C0F8DC30EC
S214007D980C224FF0000CCB798F685A4327F802C0A4
S214007DA8BE180122443013440C347060B270F4706C
S214007DB8CB71FFF761FFFFF7B7FE012806D12B7CD2
S214007DC823B1BDE8F840154828F001B8F8BD00BF53
S214007DD8A552002010430400010020000F430400B1
S214007DE8020020000E4304000500420003002000A5
S214007DF80D43040004004200070030000C43040052
S214007E081200100100404200FDFF2100FB42040062
S214007E180A4304000600420000FF44019C5C002060
S214007E28244D002001FF100170B50D460646144685
S214007E3813460A4601460D4813F070F925B9204640
S214007E48BDE87040FFF7F0BE072D05D12146304645
S214007E58BDE8704000F070BA062D05D121463046C0
S214007E68BDE8704000F06EB870BD00BFD7AA03002A
S214007E780148FFF737BE00BF317E00004FF4C0133D
S214007E8830B5036001230C220371064B8C688360AF
S214007E98CB795A43A518686003480133A050CB71C4
S214007EA830BD00BF114304000400010138B50024AA
S214007EB8044D55F8040B08B128F0BCF801340A2C18
S214007EC8F7D138BD782B00200229024608B50ED017
S214007ED804D839B9104628F0D8F806E04029F9D071
S214007EE8412907D1104628F0C6F8002008BD28F01A
S214007EF8D6F8FAE7014813F011F9F6E70AAB0300DB
S214007F0808B511461A46034B53F82000FFF7DCFF66
S214007F18002008BD782B0020426B094BD2681A70E7
S214007F2882785A70C2789A70826B12B190F83C20A8
S214007F38DA70007804210930014AC0B2FFF786BC1F
S214007F48AE520020024B53F8200028F0C4B800BFF9
S214007F58782B002038B504460078084D09302A46A4
S214007F680421C0B2FFF762FC30B96B78A370AB7817
S214007F78E370EB7884F83C3038BD00BFAE52002082
S214007F8838B504460078114D09302A460421C0B297
S214007F98FFF74CFCC8B9A3782A78022B0CD004D873
S214007FA863B9204628F071F801E0FF2B0AD0204676
S214007FB8BDE8384028F03EB8002AF2D1204628F01E
S214007FC85AF8F4E7002AF9D1EBE738BDAE5200209C
S214007FD8F8B504460B78224A0D4642F8230043704B
S214007FE8FFF7B8FF636B1F4ADC639A632046FFF708
S214007FF8C7FF204628F01EF84FF48013636004235A
S2140080082372636BA06B0C33E360174BA21C2361CF
S2140080180123A261237560B1144A84F82030E26116
S214008028E21C6262124A84F82C3004F13C03A26215
S21400803823630C210627EB79AE685943002877524C
S21400804806EB01020CBF02210421D17001219170B8
S21400805808490434013354609160EB71F8BD00BFE1
S214008068782B0020BB0003000340300101FF3001DD
S21400807802FF1001097F000002464179D3780848BC
S2140080880139042B00EB811008D8012B04D80BB952
S21400809827F0F1BF27F0F9BF28F001B8704700BFF6
S2140080A8CC17002002464179D37808480139042BBA
S2140080B800EB811008D8012B04D80BB927F0E5BFD0
S2140080C827F0D9BF27F0EBBF704700BFCC170020BA
S2140080D830B587B004464579FFF726FD012822D13A
S2140080E8E2786B1E042A1ED8DFE802F00431031F6C
S2140080F82800104663784FF480728DF804304FF4E9
S2140081088273ADF806300623ADF8083001238DF8E3
S2140081180B3000238DF80A0001A8CDE903238DF85B
S2140081281430FFF735FD07B030BD0A4A02EB83135B
S2140081385B6BD868003818BF0120DBE7054A02EBFE
S21400814883135B6BD868B0FA80F04009D2E700204A
S214008158D0E700BFCC17002030B587B00446457975
S214008168FFF7E2FC012829D1E3786A1E042B25D8FC
S214008178DFE803F00B0B0B032600164B03EB82130A
S2140081885B6BDB68003B18BF012362788DF80A300A
S2140081988DF804204FF482720123ADF806200622DB
S2140081A88DF80B30ADF8082000234FF4807201A834
S2140081B8CDE903238DF81430FFF7EAFC07B030BD8D
S2140081C8044B03EB82135B6BDB68B3FA83F35B0940
S2140081D8DBE700BFCC17002010B586B00446FFF7D3
S2140081E8A3FC012812D16378094A8DF804304FF4AD
S2140081F88273ADF806304FF48073CDE9022300236E
S21400820801A804938DF81430FFF7C2FC06B010BD21
S2140082180800070110B586B00446FFF785FC01285C
S21400822820D16278104B8DF804204FF4827294F8AF
S214008238A01094F8A10059701870ADF806200493A1
S2140082484FF480720223094901A88DF81430CDE94D
S2140082580212FFF79DFC94F8A130013B18BF0123DA
S21400826884F8A13006B010BDB252002008000501FF
S21400827810B583780446E3B10379022B06D1437917
S2140082880C48013B00EB831027F009FFA379022B6B
S21400829802D12046FFF71CFF2046FFF7BBFF02234C
S2140082A86078A4F86C305522BDE81040122127F0FB
S2140082B86CBE10BDCC1700204388094A08211380DD
S2140082C88388538083681B8A938090F8A0309371C4
S2140082D88379D37100780430C0B2FFF7B7BA00BF0D
S2140082E8A64D002038B50D4604460178104812F011
S2140082F815FF4FF602739D420CD163791BB10D4AE8
S21400830812789A4201D2012363712046BDE83840AC
S214008318FFF7D2BFB5F57F4FF7D1204627F03DFFD0
S214008328A278A368022A0CBF012200229A70ECE702
S21400833820AB03009B520020024B53F82000FFF7A7
S214008348D1BF00BFA02B002038B504460078134DD7
S21400835804302A460821C0B2FFF768FA20B1BDE803
S21400836838400F4812F0DABE2B8863806B88E978AD
S214008378A380AA88A3681A82AB7984F8A030EB7920
S214008388A37119B1074B1B788B4205D2064812F029
S214008398C5FE23780133637138BD00BFA64D0020A3
S2140083A83AAB03009B52002063AB0300F8B50446C3
S2140083B80B784A4A0D4642F823004370FFF7C4FF7D
S2140083C8A268474B0227D364464B0C265365464B98
S2140083D8A11C1365454B4648C2E916344FF44013B2
S2140083E8E36001236161E16242491032216322653C
S2140083F8211D414AA1634149626504F1A002A061BA
S214008408E163E265E01C611D3D4A206261643D4807
S2140084183D492266A21D2374237784F8283084F801
S214008428343084F84030A16484F84C7084F85830AE
S21400843884F864306062A266E879AA6806FB00F1F0
S21400844804EB060E02EB010CCCF804E04FF0060E27
S214008458DFF8C4C042F801C0C118C9B2714342F877
S21400846801E002EB010C0021CCF80410DFF8ACC0E8
S21400847884F88030C4F870C084F89830DFF8A0C05C
S214008488224BC4F878C0C4F89C30DFF898C0831C28
S214008498DBB2C4F87CC07343DFF88CC084F8747011
S2140084A884F88C7004F16C07C4F884C0C4F8907023
S2140084B8DFF878C0164FC4F888C0C4F89470D71888
S2140084C870347C60134CD450C31CDBB2734308264C
S2140084D8D4180430D6506160E871F8BDA02B00208F
S2140084E80F01030051010300798200000501030013
S2140084F81000300101FF300104FF200102FF2001B7
S21400850805FF300100FF300103FF2101144304007A
S2140085186F00180012000104070001084A00210035
S21400852812430400510010001543040055002100B2
S21400853800239B6AB3F5C04F03D21968064A9142D6
S21400854803D00023037083607047012202709A6884
S2140085589B694260F7E700BF07B0CD5E024B034A4F
S2140085681A6028F0E1BF00BF0000002002020FF0EA
S21400857873B5534B04461A781AB102221A7002B021
S21400858870BDCDE900220028F9D001261E7031F012
S214008598FBFD4C4D4C4B186016F0D4FA2B785BB9A3
S2140085A802F076FA40B949480823494A494900681A
S2140085B801F0B6FE00B92E70474B5A6E62619B6E8C
S2140085C8464AA3614FF40043936603F1884359680B
S2140085D8E16143499960196E2160596E6160D3F86C
S2140085E87011A160196CE160596C21613D49086CF5
S2140085F81864496C5964012151664FF4005191661C
S2140086081A6E560436D53849CA68D407FCD45B6E49
S2140086185A0434D5354AD36B13F0430FFBD1344B89
S2140086281A68531C31D04FF400139340314A13662E
S2140086380423304C684623664FF480632366102371
S21400864823664FF4005323664FF0804323664FF4A7
S214008658804301A9636627F0B8FD009B2366019B4B
S21400866863662B78002B8AD0194B1A6822665B68DB
S214008678636684E72049CA68D007FCD4C7E71F4A60
S214008688D36B13F0430FFBD1C9E71D4B1B78002BA8
S214008698CED14FF48072114B5A661A4A52681AB9EC
S2140086A84FF40011134A11664FF400725A66164BBF
S2140086B85B68002BBCD14FF480020E4B1A66B7E7F6
S2140086C8B5520020B6520020E82B0020305D00206E
S2140086D8EC2B00200071080000800050009000502D
S2140086E855CEAC0000C00054000004400000024C08
S2140086F8FC5C002000900044000004500000025C6F
S214008708B452002000C005500000065070B52C4D2D
S21400871804462E78012E02D001232B7070BD002847
S214008728FCD027F077FD01300BD027F073FD40F220
S2140087380113984205D0234B234A5E66D368DE07AA
S214008748FCD4224B22491B6E13F0040F4FF400533F
S21400875814BF1C4A1F4A9366CA6B12F04302FBD129
S21400876821681A4B196661685966A168C3F87011C2
S214008778E168196421695964E169C80748BF9A60C5
S214008788154B1A6801320DD1144A127852B9144999
S2140087984968C90748BF1A60124A5268D20744BFD8
S2140087A801221A606269104B5A66A2699A6616F028
S2140087B8D1F90E4B186831F0E2FC0023ADE700BF94
S2140087C8B55200200090004000000440008000449D
S2140087D80000024C00900050FC5C0020B4520020C0
S2140087E800C005500000065000800050E82B00200E
S2140087F870B50024A36AB3F5C04F23D21A68134B8A
S2140088089A421FD1124E337813F0FD0518D14FF453
S21400881880341048FFF7ACFE032004F019FA0E4B1C
S2140088280320DC6004F0F8F90C4B1C61AB6ADB69CA
S214008838984704460748FFF769FF0CB901233370C9
S214008848204670BD4FF48174FAE700BF07B0CD5ECE
S214008858B4520020C82B002000A00044009000441A
S21400886813B5204B1B7803B9FEE700231E4CCDE951
S21400887800336A4608231D49206801F051FDF8B9FF
S2140088881B4AD2F84031D2F840211F2B4FF0010383
S21400889811D9203A9340019A1A43019208236A464E
S2140088A81249206801F0C8FE124B134A1A6028F0D5
S2140088B83BFE02B010BD9340009A1A430092EDE7C3
S2140088C82D28F1D10A4AD2F84031D2F840211F2B80
S2140088D84FF0010385BF203A93409340019398BF19
S2140088E80093DBE7B5520020305D002000710800D9
S2140088F800800044000000200B020FF038B5002569
S214008908AB6A0446B3F5C04F10D21B6BB3F5C04F25
S2140089180CD20748FFF72CFEAB6A20461B6B5B6839
S2140089289847BDE838400248FFF7F0BE38BD00BF9C
S214008938F42B002013B50024A36A0190B3F5C04FAA
S21400894813D21B6BB3F5C04F0FD20948FFF710FEC2
S214008958A36A01211B6B01A89B6998470446044833
S214008968FFF7D4FE204602B010BD4FF48174F9E735
S214008978F42B002070B50026B36A0446B3F5C04F42
S2140089880D4612D21B6BB3F5C04F0ED20848FFF740
S214008998EFFDB36A20461B6B29469B699847044639
S2140089A80348FFF7B3FE204670BD4FF48174FAE71C
S2140089B8F42B002070B50026B36A0446B3F5C04F02
S2140089C80D4612D21B6BB3F5C04F0ED20848FFF700
S2140089D8CFFDB36A20461B6B2946DB6998470446D9
S2140089E80348FFF793FE204670BD4FF48174FAE7FC
S2140089F8F42B0020F8B50027BB6A0446B3F5C04F31
S214008A080D46164611D21B6B7BB10948FFF7B0FD21
S214008A18BB6A20461B6B324629465B6A9847044663
S214008A280348FFF773FE2046F8BD4FF40174FAE7D3
S214008A38F42B002070B50026B36A0446B3F5C04F81
S214008A480D4612D21B6BB3F5C04F0ED20848FFF77F
S214008A588FFDB36A20461B6B29469B6A98470446D7
S214008A680348FFF753FE204670BD4FF40174FAE73B
S214008A78F42B0020F0B50027BB6A0446B3F5C04FB8
S214008A880D461646ADF5177D20D21B6BB3F5C04FC5
S214008A981CD21048FFF76CFDBB6A20461B6B40F2E1
S214008AA851225B6A01A99847044630B10948FFF786
S214008AB82DFE20460DF5177DF0BD836A32461B6BEA
S214008AC82946DB6A01A898470446EFE74FF4017485
S214008AD8EFE700BFF42B002010B50024A36AB3F517
S214008AE8C04F10D21B6BB3F5C04F0CD20748FFF728
S214008AF83FFDA36A1B6B1B6B984704460348FFF7AA
S214008B0805FE204610BD0124FBE700BFF42B00201D
S214008B18F0B58FB0044601A80E461546FFF7EEFEE0
S214008B289DF80C30012B12D1B5F5002F27D8B4F5D7
S214008B38002F24D86319B3F5002F20D821462A46DB
S214008B4830462CF091FC002420460FB0F0BD0027DC
S214008B58BB6AB3F5C04F15D21B6BB3F5C04F11D225
S214008B680A48FFF705FDBB6A2A461B6B31462046B6
S214008B785B6B984704460548FFF7C8FDE4E740F2F4
S214008B880244E1E740F20114DEE700BFF42B0020C0
S214008B98F0B58FB0044601A80E461546FFF7AEFEA0
S214008BA89DF80C30012B1FD1B5F5002F06D8B4F56B
S214008BB8002F03D86319B3F5002F13D940F20244E7
S214008BC820460FB0F0BDE258013225D104339D424D
S214008BD8F9D82A463146204600F082F80028EDD01B
S214008BE80024EDE70023F2E70027BB6AB3F5C04F81
S214008BF815D21B6BB3F5C04F11D20A48FFF7B8FC65
S214008C08BB6A2A461B6B314620469B6B9847044630
S214008C180448FFF77BFDD3E740F20344D0E740F271
S214008C280114CDE7F42B002070B58EB0044601A8D9
S214008C380D46FFF763FE9DF80C30012B22D144EA5F
S214008C480503C3F30C03002B33D1B5F5002F04D965
S214008C5840F2024420460EB070BDB4F5002FF7D897
S214008C682544B5F5002FF3D8204604F5005400F047
S214008C7829F8AC4202D00028F6D1E9E70028E7D068
S214008C880024E7E70026B36AB3F5C04F14D21B6B7F
S214008C98B3F5C04F10D20A48FFF76AFCB36A2946F4
S214008CA81B6B2046DB6B984704460548FFF72EFDEE
S214008CB8D0E740F20444CDE740F20114CAE700BF0B
S214008CC8F42B00204FF4003208B5044B9A6631F0B6
S214008CD8FFFCB0FA80F0400908BD00BF00900050C5
S214008CE8134610B562B103439B070BD14FF400340B
S214008CF8054B9C6631F0F0FCB0FA80F0400910BDD8
S214008D080120FCE70020FAE700900050BFF34F8FE1
S214008D180549064BCA6802F4E0621343CB60BFF30A
S214008D284F8F00BFFDE700BF00ED00E00400FA0526
S214008D3870B5D0B1C9B10E4E431E013913F8014FB4
S214008D482046325D02F00302012A11F8012F08BFFF
S214008D5804F12000B55C05F00305012D08BF20329C
S214008D68801A01D1002CE9D170BD0120FCE700BFB4
S214008D78BB6A04000348044A0449121A921027F0F2
S214008D88AEBA00BF4061000018630000D459002046
S214008D9808B5154B83F30A8800F030F8FFF7EAFFAA
S214008DA8124B13498B4212D30020124B12498B42A6
S214008DB818D3FDF78DFF186850F82240586840F819
S214008DC82240013298688242F5D30C33EAE7002243
S214008DD8F8E71C6844F8220001325C68A242F8D31F
S214008DE80833E4E70022F8E708000020E4A60400B9
S214008DF8F0A60400F0A60400F0A604004FF4004114
S214008E08134B144A70B59A60D3F88820124D42F472
S214008E187002C3F88820114A05F5005491664FF091
S214008E28FF3222664FF6DF7262660222C3F8D0204F
S214008E38BFF34F8FBFF36F8F4FF44036032003F016
S214008E4807FF0320E66003F0E7FE2E6170BD00BF53
S214008E5800ED00E000600000008000440090005034
S214008E68054B1860054B1B6F03F00703032B01D156
S214008E782FF0D8BA704700BF0C5D00200080005065
S214008E882DE9F04104464FF001080C250D4E0CB9AB
S214008E98BDE8F08194FAA4F0B0FA80F00F2808FA3A
S214008EA800F2C8BF103824EA0204CABF05FB0062F5
S214008EB805FB0062B4325768002FE8D09168C0B24C
S214008EC8B847E4E7142C002008B50C4831F07DF9C3
S214008ED8192003F0AFFE28B1192003F0B9FE1920B7
S214008EE803F09AFE1A2003F0A5FE28B11A2003F014
S214008EF8AFFE1A2003F090FE002008BD14450400BB
S214008F082DE9F0410E461746054618B30F2923D813
S214008F180378DBB1013BDBB2022B19D8104AD35CCD
S214008F286A78D340DB0717D50E4BD3F81043ACB995
S214008F3831F02AF980463A462846314602F0DAFDEC
S214008F48404631F01CF92046BDE8F0817F23E7E76C
S214008F580023E5E72224F6E72124F4E70224F2E7D3
S214008F686843040000C0035010B5044610B30378E5
S214008F78E3B1013BDBB2022B1AD8104AD35C627805
S214008F88D340DB0718D531F0FFF801226178237843
S214008F988A4030214B4341F2100103F1A04303F508
S214008FA870335A5031F0EBF8002010BD7F23E6E707
S214008FB80023E4E72220F8E72120F6E768430400C8
S214008FC810B5044610B30378E3B1013BDBB2022BBD
S214008FD81AD8104AD35C6278D340DB0718D531F02C
S214008FE8D3F80122617823788A4030214B4342F235
S214008FF8100103F1A04303F570335A5031F0BFF85F
S214009008002010BD7F23E6E70023E4E72220F8E7E8
S2140090182120F6E76843040038B50D46044618B321
S21400902811B30378E3B1013BDBB2022B1AD8104A1E
S214009038D35C6278D340DB0718D531F0A5F8302228
S2140090482378534303F1A04303F570335B696278D2
S214009058D34003F001032B7031F091F8002038BD9F
S2140090687F23E6E70023E4E72220F8E72120F6E757
S214009078684304002DE9F0410D4616461F4604468F
S21400908800284DD000294BD0017800293ED04B1E31
S214009098DBB2022B3CD8244AD25C6378DA40D0078D
S2140090A801D4FF293ED1022E01D9042E3AD131F03F
S2140090B86BF823788046FF2B05D032462046296871
S2140090C802F05EFD28602868421C0BD12378FF2B2F
S2140090D820D1164B6078D3F8241427F04AFE431C98
S2140090E8286017D00C22124B02FB0033069A5F60EA
S2140090F89A602378FF2B04D001230E4A8340C2F8D7
S2140091082434404631F03BF8002007E07F22C4E7CD
S2140091180022C2E7404631F032F82D20BDE8F08143
S2140091282220FBE72120F9E76843040000C003502B
S214009138142C002000D0035008B502F0D1FC054BD3
S21400914800F0553020F05020C3F82004BDE8084051
S214009158FFF796BE00E0035008B502F0C1FC054BC9
S21400916800F0AA3020F0A020C3F82004BDE808408C
S214009178FFF786BE00E003502DE9F04F144606467A
S2140091880F4689B00393C36B01225B6904A9606824
S2140091989847F36B01225B6905A93846984704A8E7
S2140091A827F09CFC054650B10023A37563754FF065
S2140091B8FF33A3600025284609B0BDE8F08F05A850
S2140091C827F099FC0123A375237E04EBC303DF6114
S2140091D81D846368BB420ED1206005A827F0ACFC4E
S2140091E84FF0FF332075A360237D043B022B26D85F
S2140091F80023A375DEE723681A1A53425341A37562
S21400920805A827F099FC237D834218BFA57505A8F5
S21400921827F075FC804604A827F071FC804518BF27
S214009228002305A818BFA37527F070FC804604A87D
S21400923827F06CFC80451CBF0023A375D4E705A85F
S21400924827F05DFC80B1F36B022238465B6906A9FD
S214009258984706A827F061FC0346207D032839D8DE
S214009268DFE800F03838040905A8F3E7CC22237EA7
S21400927804EBC3031A8401F083FC129B187005A83C
S21400928894F8188027F02FFC04EBC80888F822000A
S214009298237E05A804EBC303B3F820A093F8228026
S2140092A827F02DFC814605A827F030FC8346B9F147
S2140092B8000F14D0F36B022238465B6906A998475C
S2140092C806A827F0F0FB607568B90023A3754FF071
S2140092D800093CE0227E04EBC2021384CBE705A813
S2140092E827F0CCFBEFE794F81690B9F1000FEED014
S2140092F8BAF1000F0DD1B8F1000F1DD00123E375A8
S214009308637E002B3FD1B8F1010F30D184F8198065
S21400931814E0736C07EB0B015A4287EA010010420F
S2140093281CBF0022A2755A1E0A409B1A9A45CCD822
S214009338A37D002BDFD1CAE7E37D43B94FF00009D0
S21400934853465A463946304627F013F9A060A37D9F
S21400935813B12269524422611F49227E097891423C
S2140093681AD901322276039ACAB91D4623E796F817
S21400937834307BB9F36A0133E2D1B8F1030FDFD199
S2140093880123A376DAE7B8F1010FE0D0B8F1030FAE
S214009398D4D1F5E79946D3E70023A3750BE7002B4E
S2140093A83FF409AFE57D002DDFD0B9F1000F11D1EC
S2140093B8B8F1030F3FF4FFAEA1684B1C3FF4FBAEB9
S2140093C8129B2246009330460123FFF7D5FE05463A
S2140093D8A075F0E64D46EEE68C4304002DE9F04F06
S2140093E80E46984600238BB004464FF0FF311046D1
S2140093F817468DF8133001F0ADFBB6F5801F20D266
S214009408314605AA04F1080027F0BAFA451C0146B9
S21400941803D1237CBBB92D2010E0384601F09AFB17
S2140094280122394620460DF1130327F0F4F80028E8
S214009438EFD09DF8133088F8003000200BB0BDE858
S214009448F08FB01CE5D1E56A691C36D12046616A02
S21400945826F0D5FF0546B31C18BF0123DFF8CC90CD
S2140094680193636A626C0293236805A902FB053AB6
S214009478E36B05225B695046984705A827F0C8FBAA
S21400948827F0EBFB504627F0F3FB4FF0000B824625
S21400949801464B1C05D0636C81EA0A025B42134204
S2140094A811D02946204626F0AAFF029BAB422CD0B4
S2140094B8BBF1000F2CD10546D3E72368ED1A636C81
S2140094C8B5FBF3F5C7E7484601F044FB0DF1130377
S2140094D849462046019A27F09EF8034690B1B21CEA
S2140094E803D0D9F80020B2420CD19DF8132003937C
S2140094F80D4B88F8002049461A6838462BF0B4FF0A
S214009508039B9B46D9F80810C3E7BBF1000F82D02F
S214009518B6F5801F91D2314698F800307A6804F183
S214009528080001F045FA88E788430400F033002075
S2140095382DE9F3410446174698460E46184D816AAB
S214009548E36A8B4201D04B1C02D102B0BDE8F08121
S214009558284601F0FFFA0122294620460DF10703A6
S21400956827F059F838B14346294620469DF8072083
S214009578B8470028E9D0A9684A1C04D1696820467B
S21400958826F0CAFF0146012EDAD16B6881EA03028B
S214009598636C5B421A4218BF4FF0FF31D0E700BF3A
S2140095A8C43300202DE9F04F4FF0FF334FF6FF721B
S2140095B80025044600F108068BB0C0E90923C362FB
S2140095C8056205633046884627F0ABF9204626F044
S2140095D8E6FE60BB2046414626F061FF204626F0A0
S2140095E8DEFE60BB5E200BB0BDE8F08F2368E26B42
S2140095F8606C576900FB0530052205A9B84705A821
S21400960827F006FB012807460CD12946204626F0F7
S21400961817FF012F024600D101322946204626F0C0
S214009628DDFE03E027F01EFB0028EED10135E369D6
S2140096389D42DBD3204626F0B2FE0028CAD000257D
S2140096484FF0FF394FF6FF73CA46A846C4E90853D9
S214009658E36998450AD3A5EB0905012D2CD84FF6E2
S214009668FF72636A93423CD16720BCE72368E26BCB
S214009678606C576900FB0830052205A9B84705A89D
S21400968827F0C6FA834605A827F099FA07465846EB
S21400969827F0E3FA68B1574538BFC4F82480B945BF
S2140096A828BFB946BD4238BF3D46BA46236A01338D
S2140096B8236208F10108CBE74FF6FF7300256362C3
S2140096C8E3699D42CBD2676C2068E36B052207FBF3
S2140096D805005B6905A9984705A827F070FA0135C3
S2140096E8EEE7E26B676C2068694607FB030055697E
S2140096F80522A847684627F062FA626A2368606C03
S2140097084B4D00FB023027F0B3FA4FF0FF33A06250
S214009718E3622A466FF00101204605ABFFF75EFEBE
S214009728002846D1AD6829462046E56226F013FE95
S214009738206320B92046E16A26F0EEFEE06229465C
S214009748204626F0E9FE0546A36A9D4233D1204608
S21400975826F0D4FD00278046B946E36999453CD3F0
S214009768B84559D92046616A26F049FE00260546BE
S21400977804F1400AB74212D8626C2368694602FBB5
S2140097880539E36B05225B6948469847684627F023
S21400979816FA534602464946E06B27F06BFA294606
S2140097A8204626F02CFE0136B0450546E2D1642058
S2140097B819E7A56AB7E72946204626F0CCFD236BAD
S2140097C82946034407462363204626F0A5FE054699
S2140097D8002FB9D1C4E90B07B6E7636C25680522E4
S2140097E803FB0955E36B05A95B692846984705A856
S2140097F827F00EFA27F031FA58B1284627F038FA3B
S2140098080146204626F0A7FD636C143B984208BF25
S214009818013709F10109A0E7304627F082F800234E
S21400982820461946034AFFF783FE0020DBE600BF02
S2140098381C3400200D0603002DE9F041036B90460A
S214009848826B90B09A4288BF8363426C436A07680B
S2140098580E4602FB0377C36B01A905225B69044623
S2140098683846984701A827F0D3F9012801463070F2
S21400987857D0656CE26B2368606AD2F814C005FBA3
S2140098880030052206A9E04706A827F0C1F90128F6
S2140098984FF0000523D0D4E90A3201219342CDE9DE
S2140098A80B458DF834800E958DF83C102AD1194654
S2140098B8204626F031FE236B626C14339B1AE06256
S2140098C823630C9B53B99DF83C303BB1626A616CCC
S2140098D82368E06B01FB023127F052F90C9DE36B1D
S2140098E805225B6901A93846984701A827F090F930
S2140098F830702846236BA26B9A4288BFA36310B0C9
S214009908BDE8F081237C33B91C490BAA04F1080092
S21400991801F09CF8D5E72046194A0BABFFF708FE7E
S214009928CFE7237C23BB2246164904F1080001F042
S2140099388DF8616A204626F083FD616A421C20463F
S21400994826F04CFD054620B9236B626C1344143B85
S21400995823632046A16A26F0DFFD2368A062C01AAA
S214009968636CB0FBF3F06062204626F018FEB6E79C
S21400997800232046044AFFF7DBFDDAE7E5A00000EF
S21400998861A00000A70603004306030073B50D4652
S214009998D11E4A421C461B7E4A419A4226D1296855
S2140099A82368994222D3636899421FD8114E0DF155
S2140099B807033246FFF712FDC0B972686B689A4211
S2140099C814D19DF80730DA1E53425341227E934243
S2140099D80CD1636901336361D4E90323934205D24A
S2140099E82968A26842F8231001332361012002B0D7
S2140099F870BD00BF1C3400202DE9F04F9A468BB08E
S214009A089DF85030DFF850B10293DBF810308046EE
S214009A1853450D461646C0F09880D146DBF804300C
S214009A280193B9F1000F00F08C80D8F83C30012281
S214009A385B6907A90198984707A827F05CF8DBF840
S214009A480030984240F0848007A827F05FF8042882
S214009A58074614D107A827F060F8019B029A044627
S214009A683B44002A3ED1864212D91446361A40464E
S214009A78019926F051FDA9EB04090190D1E7D8F821
S214009A883C3002225B69019808A9984708A8E2E7D3
S214009A98841B544528BF5446032C03EB0607AAEB41
S214009AA8040A1DD9D8F83C30294638465B69A2080E
S214009AB8984724F0030304F003061F441D44002EB1
S214009AC8D5D0D8F83C3001225B6908A938469847B3
S214009AD83246284608A935442BF0C6FC0026C6E7B9
S214009AE82646ECE7074600F00302039203442A18CA
S214009AF804920593049BDD1B059BD81B039B9F4282
S214009B080FD1002FB3D0D8F83C30012208A95B69E2
S214009B1898473A46284608A92BF057FC78B93D449A
S214009B28A5E7D8F83C30012208A95B6998470422C3
S214009B38284608A92BF049FC08B9043FDAE74FF095
S214009B48360948460BB0BDE8F08F4FF06309F8E7D2
S214009B584FF06F09F5E700BF483400202DE9F041C3
S214009B680F4616469846044688B060B390F83450B8
S214009B78FDB1012126F008FC00210E9BCDE9051158
S214009B88CDE902379DF83C30CDF804808DF81C30BE
S214009B98237C04968BB90D4901AA04F1080000F04D
S214009BA855FFDDE90553E06B002E08BF1D4626F07D
S214009BB884FD284608B0BDE8F0812046044A01AB7B
S214009BC8FFF7B6FCEDE70546F3E700BF71060300AE
S214009BD8959900007FB590F84260044601920DF111
S214009BE80B030A463046114926F06FFD012E05463E
S214009BF8E36B17D132465B6903A998479DF80B10AB
S214009C08039B019A59B19BB243EA024301222846B4
S214009C180393E36B03A99B69984704B070BD62F38E
S214009C280F03F3E701229B6901A9F5E748340020F2
S214009C382DE9F04F99B0CDE90B230E460A69416C21
S214009C48D31D1439B3FBF1F3013302EBC302036BE4
S214009C5804469342C0F0FB810023DFF8F8930A938A
S214009C68E36A48461946079300F074FFD6E90337B7
S214009C7805930C9B022B1CD1CC2F40F074810B9BB8
S214009C888BB13146204626F076FD656C14900B9B0A
S214009C9863B1E36B01225B69706816A9984716A83A
S214009CA826F02DFF0CE0059B1B68149308230E93E3
S214009CB80DE0782F656CEAD80B9B002BE9D1F07D78
S214009CC800280CBF04230823782F0E9328D90123D5
S214009CD80025089308230393336808990C98C9F855
S214009CE80030C9F8107026F02BFF00230F930D9351
S214009CF806930993039BDDF81CA09B0889F81400BB
S214009D081193616C03984A1E0AEA02028B1AEFB195
S214009D180544AB421CD8236B5B1A1344236386E0C6
S214009D28079A6B1E1340EB1A3A1D934207D257B197
S214009D38082BCCD80023042508930395CCE70025E8
S214009D4804230895C7E704250897F6E78342E2D375
S214009D58039AB8469B1A9F4228BF984652449F4289
S214009D68049278D90123D9F8102089F81730974239
S214009D7876D1C9F804A0069399F81730002B71D04D
S214009D8899F818200699D31C09EBC3030132C3F8C7
S214009D9804A0A3F80880997289F81820B8F1000F73
S214009DA814D00C9B022B60D10F9B7BB90D9B4344B0
S214009DB8032B0BD9E36B01229B69049814A99847D7
S214009DC80546002840F0D58001230F93069B16A869
S214009DD80193089B009399F814204346316800F0D5
S214009DE86FFEE36B50469B69119A16A99847051EA5
S214009DF80A9B18BF5346039A0A9351464346204681
S214009E0826F0B7FB236B039AC9F808009B1A08F1DB
S214009E18030222F003029B1A2363002D40F0A98058
S214009E280D9BDDF810A04344A7EB08070D93514699
S214009E38204626F071FB00258246002F7FF461AF8E
S214009E48844A3168936804F10800E36252680C9B00
S214009E5800F0AEFD89E0069B002B18BF03238AE7B7
S214009E68022388E7C9F804A098E70B9B002B30D19B
S214009E78059BB8F1030F03EB080B27D9DDE90401AE
S214009E88E36B4FEA98029B6998470546002864D119
S214009E9818F003025ED0059B28F003052B440593B3
S214009EA8049B1D444FF0FF33059915A815932BF016
S214009EB8DBFAE36B284601229B6915A998470546F5
S214009EC8CDF814B0002D81D0049B94E74246049D3B
S214009ED8E8E706F12003DDF810B01093F37D70680C
S214009EE89BB10023357E099AD9B28D4211D91099B3
S214009EF803F1010C31F83310914225D90E9906EB7F
S214009F08C303D8690A44104403E00E9B099A134415
S214009F181844E36B01225B6915A99847159B012233
S214009F281393099B584604330993E36B13A99B695B
S214009F389847049B05464344A3EB0B03042B06D91A
S214009F4870B90BF1040BC9E76346521ACCE7CDF893
S214009F5810B0B7E7CDF814B038E7CDF814B0B3E7CB
S214009F68CDF810B0B0E770252F46384619B0BDE8D2
S214009F78F08F3D2DF8D104F1080303932368079A60
S214009F88606CA2EB030ABAFBF0FA00FB0A3026F074
S214009F986FFEE16A8046204626F0BEFAA36A216B69
S214009FA88342626C45D0D9F80830571E3B40891A60
S214009FB80B44276823630A9BE062DF1BB7FBF2F7B4
S214009FC8BA4533D1079BB3EB080A12D0E36B4FEAC6
S214009FD89A0241469B6998478346E36A079A534420
S214009FE8E362236B03989B1A4344236326F099FC89
S214009FF8DA462368616CE06B01FB073126F0ADFD9D
S21400A008204626F0CCF9204626F0C9FA3269616C5B
S21400A018D31D1439B3FBF1F30133206302EBC302FB
S21400A028BAF1000F05D09042A8D29DE74FF0000A7B
S21400A038DFE73269616CD31D1439B3FBF1F30133E2
S21400A04802EBC302236B9342BFF40AAE8CE71C27CD
S21400A0588BE700BFF0330020032A2DE9F3410646BC
S21400A0680D4617461C4606D1237A012B23D001201D
S21400A07802B0BDE8F081DFF86080096842460DF15D
S21400A0880703FFF7ABF960600028EDD19DF80730AD
S21400A098032BE9D0D8F804206B689A42E4D1237AD7
S21400A0A82969012BD4F80CC007D172690CEB01039F
S21400A0B8934202D92074207CDAE708316144E160D3
S21400A0C83B46012229463046FFF7B2FD606000286D
S21400A0D8CAD00020CCE700BF1C3400202DE9F3418D
S21400A0E8032A1746089C06D1237A012B25D001207F
S21400A0F802B0BDE8F0812668DFF890803046424618
S21400A1080DF10703FFF76AF960600028ECD12568AF
S21400A118D8F80400A96A6A6C4840534210EA030C4F
S21400A128E2D1237A012B0AD1E068D8F8103003442C
S21400A1387069834203D984F810C0207CD8E7286861
S21400A148EB6A1B1A081AB3FBF2F3B0FBF2F0834271
S21400A1580BD1706CF36A421E1340326B121A13440A
S21400A1682846336326F0D8F9E862D8F81020E36862
S21400A17808321344E36001223B4604492068FFF78F
S21400A18857FD60600028AFD00020B1E71C340020DF
S21400A1982DE9F0410025604B0E46D3F800800446B2
S21400A1A81D6018B921252846BDE8F08190F834705E
S21400A1B807B30A6803689A4240F0A4804A6843686E
S21400A1C89A4240F09F808A6883689A4240F09A8054
S21400A1D8CA68C3689A4240F095800A6943699A42F9
S21400A1E840F090808A69C36B9A4240F08B804B6936
S21400A1F88361D8E768223946856B2BF00FF9D6E9D4
S21400A2080212336804F1080023607368A56363606C
S21400A218336963617369A36126F095FBB36904F13A
S21400A2284000E3639B68984720B9676C17B163687A
S21400A238B3FBF7F794F84330E761002BB2D000235E
S21400A248656C2366002D65D0002F63D02368B3FBAA
S21400A258F5F205FB1233002B56D16668B6FBF5F30C
S21400A26805FB1363002B4FD1204626F064F8A3693C
S21400A278043303449E4249D340F634726369CC3BA8
S21400A288934245D8B5F5805F44D30321204626F08F
S21400A2987BF8D4E90001E36B1B6898470546E36B37
S21400A2A80220DB689847D5B941462046FFF77AF979
S21400A2B86428054604D141462046FFF773F905464B
S21400A2C86DB9636C226A143B204602FB03F626F03F
S21400A2D832F8A369043303449E4238BF5A25002D3A
S21400A2E80CBF0123002384F8343007D1D4E90001D9
S21400A2F80A4A13680133136026F0BFFBE06B26F0AA
S21400A308DCF950E75D254EE759254CE75A254AE71C
S21400A3185F2548E75B2546E7802D00207C2D00203A
S21400A3282DE9FF410C4616461F46054688B390F8A9
S21400A338343083B3B1F5801F2FD2DFF86480012153
S21400A34826F022F84246214628460DF10F03FFF76D
S21400A35845F80246C8B99DF80F30012B10D1D8F839
S21400A3681030BB4213D1009031462846FFF744FB15
S21400A3780446E86B26F0A1F9204604B0BDE8F08153
S21400A388022B0CBF60242D24F3E72D24F1E7632469
S21400A398EFE72124F0E71124EEE72924ECE700BFD5
S21400A3A8483400202DE9F04385B00E4617461C4673
S21400A3B80546DDF83080A0B390F834309BB3B1F58D
S21400A3C8801F32D2DFF86890012125F0DDFF4A466B
S21400A3D8314628460DF10F03FFF700F8E8B99DF857
S21400A3E80F30012B14D1D9F8102004EB08039A4239
S21400A3F815D322460090434639462846FFF7FCFA0E
S21400A4080446E86B26F059F9204605B0BDE8F08307
S21400A418022B0CBF60242D24F3E72D24F1E76324D8
S21400A428EFE72124F0E71124EEE72924ECE700BF44
S21400A4384834002073B50C461646054630B390F8E7
S21400A44834302BB3B1F5801F24D2012125F09CFFB0
S21400A45821462846104A0DF10703FEF7BFFF0446BB
S21400A46880B99DF80730032B0CD0022B0CD1284658
S21400A478094926F080F93060E86B26F01EF9204678
S21400A48802B070BD2D24F7E76124F5E72124F6E72E
S21400A4981124F4E72924F2E7483400202DE9F34193
S21400A4A81E4600230C4617460546336050B390F800
S21400A4B834304BB3B1F5801F28D2DFF85480012121
S21400A4C825F062FF2146424628460DF10703FEF7AF
S21400A4D885FF0446A0B99DF80730032B10D0022B41
S21400A4E803BF01233B600423D8F8103018BF386038
S21400A4F83360E86B26F0E1F8204602B0BDE8F0814C
S21400A5082D24F6E72124F7E71124F5E72924F3E7B5
S21400A5184834002073B50446056B25F00CFF636EBF
S21400A52803449D422CBF00230123854294BF002587
S21400A5382D1A207C84F85030656584F85800A8B138
S21400A54800230C4E1A4619462046009626F0D7F9E0
S21400A558002305461A4619462046009626F0D8F9DE
S21400A568E3682844984294BF0020C01AE06502B009
S21400A57870BD00BFFFFF0F002DE9F3471E46436975
S21400A5880446B342884617469DF828904ED30025C1
S21400A5988DF80750204625F0CEFED4F830A0824528
S21400A5A80AD2236AB5EB430F06D2002220460DF1E5
S21400A5B80701FFF741F9B8B39DF80730012B05D11D
S21400A5C8002220460DF10701FFF736F9B9F1030F0F
S21400A5D806D03146204625F09EFE256B854227D3B9
S21400A5E8144D4FF0FF31284600F0B4FA4B46294682
S21400A5F800222046C5E90376C5F80080FFF718FB59
S21400A608236E054663B12046FFF784FF94F8503062
S21400A61813B994F858301BB1236E04F150009847CC
S21400A628284602B0BDE8F0870135B3E76225F7E7AC
S21400A6381C25F5E71C3400202DE9FF410F469046FF
S21400A6481E46054698B390F8343093B3B1F5801F8C
S21400A65831D21A4C022125F097FE22463946284662
S21400A6680DF10F03FEF7BAFE024678B10123424603
S21400A6780093394633462846FFF77EFF0446E86BC4
S21400A68826F01BF8204604B0BDE8F0819DF80F3090
S21400A698012BEBD12169B142E8D1009341463346FC
S21400A6A82846FFF7A9F904460028DFD1E7E7212462
S21400A6B8E8E71124E6E72924E4E700BF4834002049
S21400A6C82DE9F04390F8423087B0012B05460391F8
S21400A6D8A1EB020840F0B080B8F1FF0F01D81F4682
S21400A6E800E003276426002445E00127012B4FF0ED
S21400A6F83206F8D0002432223FE0284605AB224630
S21400A708504926F016F895F842300598012B3FD1A7
S21400A7184FF6FF7290422BD1264664225FFA84F9E0
S21400A728921BBA4218D3012F4BD10022012BCDF829
S21400A73814808DF8132038D1082205A90DF11300CE
S21400A74826F0B2FA9DF81330059A42EA03223146FB
S21400A7582846FFF73FFA40B102233A4900932846B5
S21400A768CC23096803AAFFF707FF07B0BDE8F08304
S21400A778C0B258B10134012364229442BDD3012BE0
S21400A78814BF322264225FFA86F9C9E70334F2E777
S21400A798421C04D1264632225FFA84F9C0E780B20A
S21400A7A808B10134A7E70234A5E7102205A90DF180
S21400A7B8130026F079FA9DF81330059A42EA034208
S21400A7C8C5E7039A012B059225D10823202205A95F
S21400A7D80DF113008DF8133026F066FA9DF8132055
S21400A7E8120231462846FFF7F5F995F8423009F186
S21400A7F80101012BC9B21BD10028ADD12846BDF8EE
S21400A8081420FFF7E7F90028A6D109F10201BDF8E0
S21400A8181620C9B29CE71023202205A90DF11300C3
S21400A8288DF8133026F040FA9DF813201204D8E766
S21400A838002891D1059A8BE7B8F5803FFFF455AF0D
S21400A848022753E74834002070B586B00E46054602
S21400A8580392A0B390F834309BB3B1F5801F32D280
S21400A868022125F091FD31462846184A0DF11703B6
S21400A878FEF7B4FD044618B99DF81730032B0ED121
S21400A8880223314600932846CC2303AAFFF774FE1A
S21400A8980446E86B25F011FF204606B070BD022B73
S21400A8A80BD10A49284625F066FF039902468142DD
S21400A8B8EFD02846FFF704FFEAE76124E9E72124FA
S21400A8C8EAE71124E8E72924E6E700BF4834002031
S21400A8D8F7B50C461646054668B390F8343063B3A9
S21400A8E8B1F5801F2BD2022125F04EFD21462846C1
S21400A8F8144A0DF10703FEF771FDC0B99DF807303D
S21400A908032B14D0022B14D10E49284625F033FF0A
S21400A918471C024639462846FFF7D2FE044606B1CB
S21400A9283760E86B25F0C9FE204603B0F0BD2D243D
S21400A938F7E76124F5E72124F6E71124F4E729244C
S21400A948F2E700BF4834002030B50C46054685B00F
S21400A95828B390F8343023B3B1F5801F23D20221F0
S21400A96825F012FD0DF10F03214628460F4AFEF783
S21400A97835FD034688B99DF80F20032A0DD003221B
S21400A9882146009202462846FFF7F6FD0446E86B85
S21400A99825F093FE204605B030BD2D24F7E7212488
S21400A9A8F8E71124F6E72924F4E700BF4834002026
S21400A9B82DE9F043466886B3056898464FF0000CC4
S21400A9C8A946AE4655F83C400CF1010CC4F31307F3
S21400A9D8013401D0B94217D0B4450EF1080EF1D1B2
S21400A9E82F46002403E0B44207F1080712D055F8B2
S21400A9F8343001340133F6D1C1F3130141EA08516A
S21400AA08C7E90012BDE8F08341EA0851CEE9001212
S21400AA18BDE8F083B8F1030F03D101230372BDE844
S21400AA28F083002303E0B34209F10809F5D055F88E
S21400AA3833400133C4F30754032CF4D1C1F3130392
S21400AA4843EA0853C9E90032BDE8F0832DE9F0412E
S21400AA580646406882B0B8B10F4690460024336870
S21400AA6853F8345003EBC403C5F30752C5F3130178
S21400AA78013506D05B683046CDF80080B84718B177
S21400AA88706801348442EAD302B0BDE8F08100BFA2
S21400AA98024B1968024B1868FFF77ABB105D002056
S21400AAA8305D002008B52FF062FB014B186008BD2A
S21400AAB874340020014B18682FF054BB74340020FF
S21400AAC873B504462248012A00EAC1119DF81850B9
S21400AAD823F07C4007D9961E012E28D9073303F0A9
S21400AAE87F03194308E09DF81C300A43DB0603F091
S21400AAF8C053134343F060410023C4E900108DF8A7
S21400AB080730B5B1202221460DF1070026F0CCF813
S21400AB181A220DF10700211D26F0C6F808206368E2
S21400AB289DF8072043EA8263636002B070BD114354
S21400AB38E2E71B220DF10700214626F0B5F8236848
S21400AB489DF80720042043EAC2632360EDE700BFB0
S21400AB5880FFFF0738B5094B0D461A6800210446E2
S21400AB682AF05CFC00234FF0FF322383C4E900255B
S21400AB782361A260E382A37638BD00BF8843040041
S21400AB880138C0B205289ABF014B185C01207047EF
S21400AB988D4304002DE9F0410746154600240E466D
S21400ABA8596888B0490A012922464FEA510104F13A
S21400ABB80104F8D8DC78997824031B88C90201F4C4
S21400ABC8006104F480540C43C3F30A03520323447D
S21400ABD892B24FF000089C18274B6FEA0444039380
S21400ABE825F07843ED4302A90DF107001B220293D6
S21400ABF88DF8078026F058F89DF80720029B02A9D2
S21400AC0843EAC2630DF107001B2225F0784504933A
S21400AC1802958DF8078026F047F89DF80720029BD6
S21400AC286FEA144443EAC26305934FF0FF33079470
S21400AC38069307A9BB69012206F110009847BB696D
S21400AC4805A90446012206F108009847BB69404555
S21400AC5818BF044604A90122301D98470122404522
S21400AC6818BF0446BB69304603A99847404508BF45
S21400AC78204608B0BDE8F08101009AB2044BD3F82C
S21400AC888420D206FBD4D3F88400C0F38110704722
S21400AC980040005038B5184B0546D3F824010C463A
S21400ACA800F00700062823D8DFE800F0040A121A86
S21400ACB81E0E1600012305B1286004B1236038BDB6
S21400ACC82DF090FB0523F6E72DF08CFB0623F2E724
S21400ACD82DF0C2FB0323EEE72DF0BEFB0423EAE7C4
S21400ACE82DF0B6FB0223E6E72FF054FA0723E2E737
S21400ACF800231846DFE700BF0080005038B5104B29
S21400AD080546D3F800310C4603F00303022B0BD09C
S21400AD18032B0DD0012B0FD12DF09EFB032305B17D
S21400AD28286004B1236038BD2DF09CFB0823F6E7A5
S21400AD382FF030FA0723F2E701230020EFE700BFE1
S21400AD480080005038B5104B0546D3F820310C4625
S21400AD5803F00303022B0BD0032B0DD0012B0FD1CE
S21400AD682DF040FB052305B1286004B1236038BDEB
S21400AD782DF072FB0323F6E72DF06AFB0223F2E7B9
S21400AD8801230020EFE700BF0080005038B5104BC5
S21400AD980546D3F840310C4603F00303022B0BD0CC
S21400ADA8032B0DD0012B0FD12FF0F6F9092305B18F
S21400ADB8286004B1236038BD2DF054FB0823F6E75D
S21400ADC82FF0EDF90B23F2E701230020EFE700BF91
S21400ADD80080005038B5104B0546D3F860310C4655
S21400ADE803F00303022B0BD0032B0DD0012B0FD13E
S21400ADF82FF0D2F9092305B1286004B1236038BDC5
S21400AE082DF030FB0823F6E72FF0C9F90B23F2E7FD
S21400AE1801230020EFE700BF0080005038B5104B34
S21400AE280546D3F840320C4603F00303022B0BD03A
S21400AE38032B0DD0012B0FD12FF0AEF9092305B146
S21400AE48286004B1236038BD2DF00CFB0823F6E714
S21400AE582FF0A5F90B23F2E700231846EFE700BF0B
S21400AE680080005038B5144B0546D3F800020C464F
S21400AE7800F0070004281BD8DFE800F003090D11CE
S21400AE881500012305B1286004B1236038BD2FF0F2
S21400AE9883F90923F6E72DF0E5FA0823F2E72FF001
S21400AEA87EF90B23EEE72DF0BDFA0E23800AE9E7BC
S21400AEB800231846E6E700BF00800050B0F5207F64
S21400AEC81FD009D8B0F5007F15D003D868B1B0F503
S21400AED8C07F0AD000200CE0B0F5607FFAD10B4B9B
S21400AEE8D3F88000C0F3011003E0084B186FC0F3D6
S21400AEF8033001307047054BD3F89000C0F3046068
S21400AF08F7E7024B186FC0F38020F2E70080005086
S21400AF184FF400320E4B014610B500209A66FFF734
S21400AF28CDFF484341F671320A490B4B884294BF1D
S21400AF3800200120DC69DA639A6822F4401242EAAB
S21400AF4800529A60E20344BF0022DA6310BD00BFD5
S21400AF5800900050005A6202000003505F2898BF15
S21400AF68094B4FEA501294BF53F82230074B00F0B3
S21400AF781F0029B103F58053012282401A607047EA
S21400AF8803F50053F8E700BF9443040060820050BE
S21400AF981FB50021B0F5807F0446019100F020819E
S21400AFA800F29D80612800F295801F2805D80028A9
S21400AFB840F092802DF036FAE5E0A0F12004412C0E
S21400AFC800F28A8001A353F824F000BFBDAF00004A
S21400AFD893B10000BDAF000093B10000B3B100000C
S21400AFE8B3B10000B3B10000B3B1000093B10000E4
S21400AFF893B100005BB1000015B10000CFB10000AE
S21400B00809B2000015B1000093B1000093B100002A
S21400B01893B10000E1B00000E1B00000E1B000002C
S21400B028E1B00000E1B00000E1B00000BDB10000F2
S21400B03837B1000093B1000093B1000093B100004F
S21400B0481DB2000013B2000093B10000E1B000008A
S21400B058E1B00000E1B00000E1B00000E1B000009F
S21400B068E1B00000E1B00000E1B00000E1B000008F
S21400B078E1B00000E1B00000E1B00000E1B000007F
S21400B088BDAF0000E1B00000BDAF0000BDAF0000DE
S21400B098BDAF0000B3B10000E1B00000E1B00000B1
S21400B0A8E1B00000E1B00000E1B00000E1B000004F
S21400B0B8E1B00000E1B00000E1B00000E1B000003F
S21400B0C8E1B00000E1B00000E1B00000BDAF000054
S21400B0D8BDAF0000802854D0019804B010BDB0F56C
S21400B0E8A06F67D028D8B0F5607F59D019D8B0F5CA
S21400B0F8007F55D004D8B0F5C07F3FF45BAFEBE7D0
S21400B108B0F5207F41D0B0F5407FE5D12DF08AF923
S21400B11802464FF42070FFF7D1FEB2FBF0F2520859
S21400B1283CE0B0F5806F40D0B0F5906FD4D10021E8
S21400B13801A8FFF7AFFDCFE7B0F5E06F65D016D8EA
S21400B148B0F5C06F3FD0B0F5D06F59D0B0F5B06F3E
S21400B158C2D10021324B0391D3F8803103F00303A8
S21400B168012B35D0022B37D0039B0193B4E7B0F5FB
S21400B178F06F4FD0B0F5086FAED101A8FFF7BEFD4F
S21400B188AAE72DF035F90190A6E72DF04BF902460F
S21400B1984FF42070FFF792FEB2FBF0F201929BE7A5
S21400B1A82DF026F902462046F4E7002101A8FFF70D
S21400B1B8C9FD91E71A4BD3F8203203F00303012B9D
S21400B1C8F3D0022B88D1002101A8FFF7DFFD83E723
S21400B1D803A8FFF7B7FDC7E72DF03AF90390C3E7D2
S21400B1E84FF0E02302911B695B0704D52DF01AF98E
S21400B1F80290029BB9E703A902A8FFF7C7FDF8E784
S21400B208002101A8FFF72EFE66E7002101A8FFF738
S21400B21805FE61E7002101A8FFF7DCFD5CE700BF3B
S21400B2280080005008B58020FFF7B2FE034B984216
S21400B2389EBF4FF48032024B1A6708BD005A62025E
S21400B24800A000501FB503460020B3F5807F01908C
S21400B2587FD027D8382B00F092800BD8243B092BB8
S21400B26810D8092B0ED8DFE803F06F6F6F6F0D0D3F
S21400B2785A0D3685522B67D007D83D2B3AD03E2B31
S21400B28800F08680019804B010BD802BFAD1434B9D
S21400B2981B6F03F00703013B032BF3D8DFE803F02B
S21400B2A83D36393BB3F5D06F64D019D8B3F5A06FE7
S21400B2B865D00AD8B3F5806F46D0B3F5906FE1D164
S21400B2C8002001A9FFF7E6FCDCE7B3F5B06F26D04F
S21400B2D8B3F5C06FD6D1002001A9FFF757FDD1E717
S21400B2E8B3F5006FECD00AD8B3F5E06F50D0B3F5DD
S21400B2F8F06FC7D1002001A9FFF76CFDC2E7B3F5D0
S21400B308086FBFD101A9FFF7F9FCBBE70523019336
S21400B318B8E70323FBE70723F9E70223F7E71F4B02
S21400B328D3F8804104F00304012C04D0022C08D082
S21400B33800240194A6E7002103A8FFF703FD0F24C5
S21400B348F7E72DF085F8F4E7002001A9FFF7FAFCE7
S21400B35898E74FF0E02302901B695B0705D52DF0B0
S21400B36861F80C230393039BD1E703A902A8FFF710
S21400B3780DFDF8E7002001A9FFF774FD82E7074BEB
S21400B388D3F8203203F00303012BDDD0022BA1E70C
S21400B398002001A9FFF742FD74E700BF00800050B7
S21400B3A84FF40022034B5A66012203F580439A6243
S21400B3B8704700BF0090005070B504468020FFF725
S21400B3C841FF032800F082804FF40022444B0221FC
S21400B3D85A6645F60E03434AC2F88030424B9962D5
S21400B3E8012103F580539962936DD903FCD4D4E9FF
S21400B3F800131B0543EA0163E17B94F823500B43D3
S21400B408217B43EA0143617B43EA0133A17B43EA9C
S21400B418811313619169D4E904031B0643EA806328
S21400B42801F000410B43A17EE07E0B43217E43EAF8
S21400B4380143617E43EA01239361E169136A0029A7
S21400B44823F00D0343EA010314BF0121002143EA58
S21400B458800343EAC103136294F8203094F822006C
S21400B468916A4FEA431332D194F8216021F03301F0
S21400B47843EA06130B4343F0010393621B49194B37
S21400B4889A6D31EA0202FBD1022217498A621A65CE
S21400B4989A6D5200FCD41A69A16822F4700242EA36
S21400B4A801521A614FF000420F4B9A6118B90222F6
S21400B4B803F580539A6215B901220D4B9A6294F8E7
S21400B4C824301BB1074B0B4AC3F8802070BD21F00F
S21400B4D8330129430B4343EA40039362EFE700BF77
S21400B4E80090005000C0005000D0005003000140FB
S21400B4F800E00050F1A7FFFF014B93F900007047EA
S21400B508B8520020014B1880704700BF2C620020FC
S21400B518B0F5207F10B50C4642D008D8B0F5007FAD
S21400B52833D003D888B1B0F5C07F0ED010BDB0F5C3
S21400B538607FFBD11F4A4C1ED2F8803023F03003C0
S21400B54843EA0413C2F88030F0E725F0CBFB25F079
S21400B558D7FB4FF48031184B164A1967136F013C16
S21400B56823F4704343EA043313672CF05BFF044666
S21400B578FFF784FBC0F10201204625F0BBFB00F074
S21400B58835F8BDE81040FFF74DBE0A4A4C1ED2F803
S21400B598903023F0F85343EA0463C2F89030C5E7C6
S21400B5A8044A4C1E136F23F4806343EA842313670C
S21400B5B8BCE700BF008000500090005008B501218D
S21400B5C8022000F0E1F84FF42070FFF777FC054BF7
S21400B5D8187025F087FB25F093FB4FF48032024B5A
S21400B5E81A6708BDB75200200090005008B54FF4FF
S21400B5F8C070FFF7CDFCBDE808400449884294BFF8
S21400B608012102214FF42070FFF782BF80F0FA0272
S21400B61838B504462CF006FF0546FFF72FFBC0F1A9
S21400B6280201284625F066FB0121002000F0ECF810
S21400B6382CB1FFF7DBFFBDE83840FFF7F3BD034B3F
S21400B6484FF420701978FFF763FFF4E7B75200202D
S21400B65810B5224B70B94FF40031214A1860516674
S21400B66802F598325268012A03D11E4AD2F8002100
S21400B6781A6010BD1B68002BFBD01B4A5268012AB3
S21400B688F7D0184A8020C2F80031FFF7DBFD0528FE
S21400B6981FD14FF4C070FFF711FC0128044604D1EF
S21400B6A802214FF4C070FFF733FF07220F4B1A61D1
S21400B6B80122A3F580535A600B4A1369DB07FCD5B1
S21400B6C8012CD6D12146BDE810404FF4C070FFF7D4
S21400B6D81FBF0122064B5A60CBE700BF7834002014
S21400B6E8009000500080005000C0015000E001505B
S21400B6F800D00150044A4178536F23F4407343EA5C
S21400B70801235367704700BF0040005010B5044639
S21400B71810B10020FFF79CFF124A136943F0040398
S21400B72813612DF0F5F925F0F0FA0F4B5B6E5B010F
S21400B73842BF0E4B0E4AC3F820242EF018FD2EF0FA
S21400B748CFFF2EF00FFD25F0E1FA01F061FE1CB9DF
S21400B758BDE810402CF066BE0120BDE81040FFF79B
S21400B76877BF00BF00ED00E00080005000E0035007
S21400B7780000FF0F034A0179D36E23F030030B4312
S21400B788D366704700400050F8B504461C4BD3F803
S21400B7988420D106FBD4D3F88430C3F381139C42AB
S21400B7A82CD02CF025FE012C064602D1214625F089
S21400B7B8A1FA2EF0DCFC4FF00072124B07465A66D0
S21400B7C8204625F0AAFA4FF480630D4D621E93407A
S21400B7D82B676B6E9A0103D4D5F884309B060AD57E
S21400B7E838462EF0BFFC022C08D13046BDE8F8409B
S21400B7F8002125F07FBAD5F88430EAE7F8BD00BF07
S21400B808004000500060005010B50C4608B92CF0F7
S21400B818EFFD074B21461B783BB1064B984204D8F0
S21400B8280120BDE81040FFF7AFBF0220F9E700BFD0
S21400B838B9520020005A62020278034B0121002008
S21400B8481A70FFF7E1BF00BFB95200204FF0004260
S21400B85838B5264B26495A6601224A604AF6CD3143
S21400B86803F50B235D6C1964154030BB9968C9074E
S21400B8780BD4002401221F4B5A6015B11E4B1F4AD9
S21400B8881A6429F01BFE204638BD1A498A601C4AED
S21400B898D96ACC0705D4904201D10724EAE70130DB
S21400B8A8F6E79042E5D1F8E70132DC6A14F00804BE
S21400B8B806D08A42F8D10724DFE700221049F4E7C9
