S01B00006275696C642F72656C656173652F7A69676265652E73333714
S21400400008100020517A0000DDBC00005BFE0200B4
S2140040105BFE0200E5BC0000EDBC00005BFE02009B
S2140040205BFE02005BFE02005BFE02005BFE02001F
S214004030F1BC00000C4004005BFE02005BFE0200C8
S2140040405BFE02005BFE02005BFE0200697500007C
S2140040505BFE02005BFE02005BFE02005BFE0200EF
S2140040605BFE02005BFE0200F1C100005BFE020088
S2140040705BFE02005BFE02005BFE02005BFE0200CF
S2140040805BFE02005BFE02005BFE02005BFE0200BF
S2140040905BFE02005BFE02005BFE02005BFE0200AF
S2140040A05BFE0200197E0000FD7D00005BFE020044
S2140040B05BFE02005BFE02005BFE0200CD15020006
S2140040C03758030033580300310D02004D580300E3
S2140040D03B5803008D1502003F580300C1F901004C
S2140040E00D1602005BFE02005BFE02005BFE020095
S2140040F05BFE02005BFE02005BFE02005BFE02004F
S2140041005BFE02005BFE02005BFE02005BFE02003E
S2140041105BFE02005BFE02005BFE02005BFE02002E
S2140041205BFE02005BFE02005BFE02005BFE02001E
S2080041305BFE02002B
S214004134F0B5114A114C124E00F00105E3695F0711
S21400414413D40DB9334213D103EA00078F4207D1C3
S2140041540B4A1A40002A14BF6FF001000020F0BD7D
S214004164013AEBD16FF00200F9E74FF0FF30F6E7C3
S2140041746FF00100F3E700BF80969800000003503C
S214004184020001000B4B70B5D96911F480310DD1D2
S21400419401244FF48072084E084DF46020462C64C7
S2140041A41A61FFF7C5FF3464EC6070BD6FF0010060
S2140041B4FBE700BF0000035000100350002003502C
S2140041C438B541F6713301220C4C0021E569E363EE
S2140041D40B4B05F48035DA600223606121202361ED
S2140041E4FFF7A6FF10B92120FFF7A2FF0122054B17
S2140041F4DA600DB10023E36338BD00BF000003504E
S214004204001003500020035070B5134C6061E3693E
S2140042145B071ED40E4656F8043B8D18A361AE42C7
S2140042240BD10423002121202361FFF781FF58B915
S214004234BDE870402120FFF77BBF08210846FFF742
S21400424477FF10B10423236170BD56F8043BA361C5
S214004254E5E74FF0FF30F7E7000003502DE9F84399
S214004264154641F67132164B8946DF69DA63012238
S214004274064603F58053DFF8508007F48037DA608B
S21400428455B9284601220F4BDA601FB10022A3F568
S2140042940053DA63BDE8F88306F5005404EA08041C
S2140042A4A41BAC4228BF2C46494622463046FFF79C
S2140042B4ABFF0028E6D12644A1442D1BE0E700BF4F
S2100042C4000003500020035000E0FFFF45
S2140042D02DE9F04F4FF0FD0BC9B09A460DF11B09C2
S2140042E09DF8503108AFCDF80C90CDF808B0019786
S2140042F0059303890446009383790E4690464188C9
S2140043008288407811F0AEFE054650B10090A38832
S214004310002062883A4912F0E9F9284649B0BDE81B
S214004320F08F99F800002EF0D8FD38B12846A38803
S2140043306288344912F0DAF98D25EEE75A46394696
S21400434099F800002EF071FD8346002851D0529B4C
S2140043501BB1BDF84C3198424BD8002399F8009019
S2140043600793A9F14102012A5FFA8BF123D8384658
S2140043700139254ADFF898C05FFA81FE734513DBE2
S214004380059B04210792C3B907AF18221F489FED6B
S2140043901A7B02FB060420460A460830394684ED9E
S2140043A0027B16F0CBFE11E010F8011F01335140DE
S2140043B00CFB01F2E2E7059B33B123464A4638463A
S2140043C000960FF0D1FDA8E70829DED9B8F1000F56
S2140043D001D088F80090BAF1000F01D0AAF800B01A
S2140043E0529B002B99D05A46184608A916F0A6FEEE
S2140043F093E7012591E700BF0000000000000000E1
S21400440002E9030037E90300C59D1C8180100020E7
S21400441093010001000000002DE9F04F93B0CDE9B4
S2140044200A32DDE91C530E9353EC102BCDE908013C
S214004430104619468DED060B1E9E16F009F980B142
S214004440DDE906014FF0FF32C54B16F029F940B9F9
S214004450DDE906014FF0FF326FF4801316F002F923
S21400446070B1DDE908019DED060B0E9B1E96CDE9A9
S2140044701C53DDE90A3213B0BDE8F04F00F088B9EE
S2140044800022DDE90601002316F0ECF8002800F013
S2140044903381DDE906A303F1004BCBF30A5016F493
S2140044A08063A0F2FF3008BF06250F9315F0FEFDCF
S2140044B09BA3D3E9002315F063FE9BA3D3E9002357
S2140044C015F0A8FCCBF31304894644F07F518046D0
S2140044D00022A44B504641F4401115F099FC94A3D9
S2140044E0D3E9002315F04CFE02460B4640464946EB
S2140044F015F090FC16F0DEF8044615F0D7FD8EA3F6
S214004500D3E900238046894615F03AFE0022964BF2
S21400451015F080FC16F0CEF889A3D3E900230746F1
S2140045204946404615F02CFE80463846894615F02A
S214004530BDFD85A3D3E9002315F022FE02460B46F7
S2140045404046494615F064FC02460B46CDE90C236E
S21400455015F016FEDDE90C238046894610461946FE
S21400456015F058FC0022CDE91001804B4046494624
S21400457015F030FF00227E4B15F04CFC02460B4631
S2140045804046494615F026FF00227A4B15F042FCBD
S21400459002460B464046494615F01CFFDDE90C2353
S2140045A08046894600204FF0804115F031FC0246D7
S2140045B00B464046494615F02DFC02460B46DDE903
S2140045C0100115F007FF07F2FF3700226A4B15F0BF
S2140045D021FC00223B0515F0D3FD52465B46804683
S2140045E0894616F05DF8002840F08980CDE90C89F0
S2140045F004F16303C62B8CBF0527042731051BD5A2
S21400460053A3D3E900235046594616F03FF8002836
S2140046107FD051A3D3E900235046594616F022F81E
S214004620002876D00027A542C6BF2C1B04F1FF3514
S21400463000253C4646F480660E9B9F422CBF4FF0FA
S2140046400008A3EB070816F0020903D0002F18BFD6
S2140046504FF000083CB1DDE90C235046594615F0F2
S214004660B9FE82468B46DDE906010022002315F0DE
S214004670F9FF10B10BF100439B46DDE9080126F473
S2140046800063CDE90183DDE90A324BEC10AB0095FF
S21400469000F07EF802465FB3DDE9091316F0200F3E
S2140046A000F10105089E0CBF65204520B047DDE9F6
S2140046B008010523002205930A23002CCDE90232C7
S2140046C007F1FF374FEAD473B8BF64422A46019316
S2140046D004970A9B009430F01CFA0246B9F1000FCA
S2140046E006D00B9BC41A0B9B1A190E9BA34245D8E7
S2140046F0104613B0BDE8F08FDDE906ABCDE600222C
S214004700404649461A4B15F065FE013CCDE90C01C2
S2140047106EE7002D90D00F9B002B8DD0013D8BE7D0
S214004720FB799F501344D33FB3C8608B288AC63F9B
S21400473061436F63A787D23F71A379094F930A40FD
S2140047401655B5BBB16B0240EF39FAFE422EE63F76
S2140047502D431CEBE2361A3F0000000080842E41F9
S214004760FFFFEF7F0000F83F0000E03F00002C4016
S21400477000002440000018400000F03F2020DDE943
S2140047800913089DA8470134ADE700BF00000000EC
S2140047902DE9F04F5BEC10AB97B0CDE90501DDE9F4
S2140047A02058CDE90723504652465B465946229F7D
S2140047B015F04EFF70B90323CDE902870193AA4B8B
S2140047C00093DDE90501DDE9072330F0D4F817B0E2
S2140047D0BDE8F08F4FF0FF326FF480135046594615
S2140047E015F040FF28B10423CDE9028701939F4BC3
S2140047F0E6E74FF0FF32504659469D4B15F050FF06
S21400480068B19C4A07F00403002B08BF03229A4BAA
S2140048101CBF13460422CDE902870192D0E750461A
S2140048208DA3D3E90023594615F03AFF38B98CA377
S214004830D3E900235046594615F014FF68B1DDE968
S2140048400723DDE905014BEC10ABCDE92187209568
S21400485017B0BDE8F04FFFF7DFBD0022002350463B
S214004860594615F0FFFE002800F091805B46524640
S2140048700020002115F0CCFA012382468B460993CE
S21400488017F4806400F08580092D40F285800024AE
S21400489030210EABA5F109020134202C03F8011BD0
S2140048A0A5EB040901D09442F6D15946504615F0BE
S2140048B001FF724B054603EBC90393ED007B8DEDBC
S2140048C00A7B15F0F3FB02460B465046594615F098
S2140048D09FFADDE90A2315F053FC02460B46CDE9A4
S2140048E00C2315F00FFF064615F0D0FB02460B46CC
S2140048F0DDE90C0115F08CFA02460B46CDE90C23D7
S21400490000225F4B15F0CCFE002848D0013630461A
S21400491015F0BCFB02460B46DDE90A0115F0ACFEBD
S21400492008B100260135B9F1000F45D1284615F02B
S214004930BDFB02460B465046594615F069FA002262
S2140049404F4B15F08FFE10B9E90700D501350A2147
S2140049500EAB1A19202C0AD095FBF1F001FB10556E
S214004960303502F8015B013405460028F2D107F025
S2140049700302012A55D1B8F1000F52D0099A12B994
S21400498017F00C0F01D008F1FF38302240E00990F4
S21400499076E74FF0060988E7A946002485E7002257
S2140049A0DDE90C01364B15F05DFE0028BBD10EB1DB
S2140049B0F007B8D50136B6E70A210EAB1A19202C37
S2140049C00DD0B6FBF1F001FB1063092E03F13003A6
S2140049D009F1FF3904F1010402F8013B11D8302136
S2140049E0A1440EAA202CB2D04C4504F101030AD1F2
S2140049F004F158020DEB02042E2204F8202C1C466B
S214004A00A5E70646DBE7A1541C46EBE71A5501343A
S214004A10444506D2202CF9D1CDE9028701940EAB8D
S214004A20CEE6202CF8D0099B3BB12D2204F158038A
S214004A306B4403F8202C0134EEE77A0704D504F122
S214004A4058032B226B44F4E73B07E5D504F15803E3
S214004A5020226B44EDE700BF0000000065CDCD418D
S214004A600000000065CDCDC125060400290604001F
S214004A70FFFFEF7F1C06040021060400404F0400E1
S214004A800000E03F0000000070B58EB02C22002130
S214004A9003A816F0C3F964234FF002320893CDE959
S214004AA005230B2301218DF834305B4B8DF8101055
S214004AB01D880D4040F0A980084634F085F80A228B
S214004AC0564B574C1A704FF42873ADF812304FF00F
S214004AD0FF332360534B54491B8820460B82534BAD
S214004AE0534A1B68CD828B61524B0D621B884B82EA
S214004AF0514B1B68CB611CF0FFFD20B14FF41B71BE
S214004B004E4835F0F9F80521206830F0F5F920B167
S214004B1040F27D21494835F0EFF8206815F034F969
S214004B20474B2068196830F0AAFA0C2534F0B4FC1C
S214004B306843099034F0B0FC68430DEB050107901C
S214004B40206817F02DF820B140F295213B4835F04B
S214004B50D3F825681FF008F800220146284630F0F2
S214004B6006FB20B140F29721344835F0C5F840F2F4
S214004B700353344D344E2B80052396F90000AB705A
S214004B807F2801D11CF0AEFE3378EB7034F084FC45
S214004B9000EB80008000A88034F07EFC0023C0007C
S214004BA04FF0FF31E880AB604FF0FF3018A3D3E939
S214004BB0002334F05BF92549206830F091FA20682C
S214004BC002A930F0ADFE20B14FF434711B4835F029
S214004BD093F8042220680DEB020130F025FA042831
S214004BE004D040F2D721154835F086F801A90120F7
S214004BF02FF026FE07F0B6F801201DF0F7FA2BF08E
S214004C0088FE1DF01DFB1CF005FE0EB070BD00BF3B
S214004C100A0020FF42030000EE5900201961002020
S214004C2014540020EE680400CC670020F4680400EA
S214004C30F18B0300EC680400F0680400EE3E04000C
S214004C401465002008540020A06A0020658C03002C
S214004C500348044B834202D0034B03B11847704706
S214004C60CC6A0020CC6A002000000000064B0749F2
S214004C70C91A891048BF0131491003D0044B0BB143
S214004C8001481847704700BFCC6A0020CC6A002055
S214004C900000000010B5064C237843B9FFF7D8FF94
S214004CA0044B13B10448AFF300800123237010BDFA
S214004CB0B015002000000000748C040008B5044BFA
S214004CC01BB104490448AFF30080BDE80840CDE7B7
S214004CD000000000B4150020748C0400A3F5803A90
S214004CE0704700BF154B002B08BF114B9D46FFF7C2
S214004CF0F5FF00218B460F461148124A121A16F08D
S214004D008DF80C4B002B00D098470B4B002B00D097
S214004D1098470020002104000D000B4816F0C4FB45
S214004D2016F054F8200029002AF0D3FD16F0AAFB4E
S214004D30000008000000000000000000081000202E
S214004D40081000207061002011B5010007B5012190
S214004D5020200DF1070200F02FFF58B10223012199
S214004D6020200DF107028DF8073000F035FF03B064
S214004D705DF804FB9DF807100229F8D002220948C6
S214004D8014F03AFF022301210DF1070220208DF8CE
S214004D90073000F021FF2AF0F5FC4FF4FA6000F02F
S214004DA01BFEE4E728A1030038B501F0C5FE01F0BC
S214004DB0A1F8012805D001F09DF8022801D001F0E5
S214004DC0B1F8064D2B783BB901F094F8012804465B
S214004DD002D12AF05EFD2C7038BD00BFCC5A0020F0
S214004DE010B50446008800F063FEA37884F84400FB
S214004DF0834202BF0123E3702371074B04F11C00BA
S214004E00C4E9073400F02EFF224620880349BDE897
S214004E10104000F065BE00BF67F5020031F50200E5
S214004E2070B5C37804460D461646002B34D1D1B172
S214004E30214814F0E1FE0123E370E36CA6600BB199
S214004E40E06D9847E368F61A63699E4221D2217E98
S214004E501A480131C9B2217614F0CEFEA36D13B103
S214004E60217EE06D9847E5702AF09FFC15B3237904
S214004E7003BBA268238A801A83421BD801231048EA
S214004E80237114F0B9FE236DA3B1E06DBDE8704048
S214004E90184701232376E6E70029E4D1094814F0F1
S214004EA0ABFE636DE660E5702571002BDBD0E06D30
S214004EB09847D8E770BD00BF50A1030061A103006A
S214004EC08FA103007CA10300F8B51E468388044624
S214004ED00D4617460BB18680F8BD817800882AF00B
S214004EE063FB0123E370084BE5802781A680C4E9B5
S214004EF003340C34204600F0B5FE29462046BDE8B3
S214004F00F8402AF049BC00BFB3F5020010B501799D
S214004F100446B1FA81F1008849092AF0BCFB2179E0
S214004F206088B1FA81F149092AF0B5FB034B1A688B
S214004F30A24204BF00221A6010BD00BFCC1500209C
S214004F4070B543790446A3B100880E4E04F10805F7
S214004F50336813B10C4B1B786BB121792AF09BFB9D
S214004F6064210A4B3460A3602846BDE870402AF0EE
S214004F7013BC4088E9E7064814F03EFE054B322194
S214004F80A360F1E7CC150020CD5A00200D4F00009D
S214004F90A5A10300414F000010B50446E0B10F483C
S214004FA014F02AFE01236371A37953B9217920886E
S214004FB02AF071FB236B7BB1606B0121BDE81040CA
S214004FC018472046FFF7A2FF04F108002AF0E9FB85
S214004FD02046FFF7B5FFEDE710BD00BFDBA10300DD
S214004FE010B50446F8B1104814F006FE00236371AD
S214004FF0A3796BB921792088B1FA81F149092AF0A1
S2140050004AFB236B7BB1606B0021BDE8104018475C
S2140050102046FFF77BFF04F108002AF0C2FB20467B
S214005020FFF78EFFEDE710BDE6A1030010B50446BE
S21400503068B1074814F0E0FD637920461BB1BDE86F
S2140050401040FFF7CDBFBDE81040FFF7A5BF10BD6D
S214005050F2A1030010B50E4C0E48214614F0CCFD0C
S21400506082210D4814F0C8FD82210220A21E00F005
S214005070B3FD014630B134F8022C0848BDE81040B4
S21400508014F0BABD0648BDE8104014F0B5BD00BF28
S2140050905A55002001A203001CA2030027A2030009
S2140050A06BA2030038B5104C82212246022000F085
S2140050B083FDA51C014678B122880C4814F09CFD9F
S2140050C02A460B4B03F1340153F8040B8B4242F88B
S2140050D0040BF9D13323238035F8021C054A064811
S2140050E0BDE8384014F088BD5855002076A203006D
S2140050F0F6A203005A550020D4A20300034B1B78E7
S2140051001BB18B4201D82AF03DBB7047466A00208F
S21400511010B5044601460D4814F06EFD012C0FD163
S2140051200B4B0C481A884FF6FF739A421EBF00229C
S214005130084B5A742AF095FABDE8104001F028BDD5
S2140051400448BDE810402AF08EBA00BF2AA3030028
S214005150FC690020A064002070B50024184D194E8C
S2140051603378A34217DC0024174D184E3378A34239
S21400517017DC0024164D174E3378A34217DC00F0D8
S214005180B9FE0128144818D12AF06BFABDE8704021
S214005190124800F0C1BE2846FFF722FE01346035F3
S2140051A0DEE728462AF043FA01343435DEE728469F
S2140051B02AF076FA01343835DEE72AF054FAE5E7C5
S2140051C068210020D35A002088250020D45A0020C9
S2140051D0381F0020D25A0020A06400201151000081
S2140051E02DE9F04F87B0FFF75DFFAE4B05A805939E
S2140051F02AF07AFA054615F00DFDAB4CC2B21F2A0E
S214005200627004D9A94814F0F7FC00F0D9FB2946CF
S214005210A01C15F093FF05A82AF066FA054615F0BF
S214005220F9FCC2B21F2A84F8212001D9A048EAE777
S214005230294604F1220015F081FF05A82AF054FA49
S214005240002604462578002D40F09F80994CFFF7F5
S21400525083FF2378DFF89CA2DFF89C82964F0093AA
S2140052609AF8003098F800203978944814F0C4FC76
S2140052703A7898F800109AF8000053180344DFF8BC
S21400528064B220782C4603445846DBB2AA4200F3A8
S214005290A982012B38BF0123894E02933246002390
S2140052A035464FF482714FF6FF74029801339842E8
S2140052B013705180948002F10C02F6DC814B804919
S2140052C07948AB6000F0E8FEE879AB68DFF810924A
S2140052D000EB400003EB800000F0B8FCEB79B9F877
S2140052E000200133A242EB7103D07549764800F0E6
S2140052F0D5FF4FF6FF73B9F800207149D21A18BFD0
S2140053000122724801F086FB4FF000096D4C3A7896
S2140053104A4500F36F8200264FF00C096C4ADFF80E
S214005320A0B198F800003978B04200F3978246188A
S2140053300C21002501FB06B19AF800009423A84230
S214005340644A00F3A9820C253E7898F800300027BE
S2140053504FF070081E44064405FB06B5DFF89CA116
S214005360544B1B78BB4200F3AA820299544800F0C3
S214005370FBFC059B4B491A468B4240F0B3825648CD
S21400538007B0BDE8F04F14F037BC532D0FD163784B
S2140053904C2B40F01A81A378502B40F01681012246
S2140053A04E4B1A7005A82AF09FF904464AE7422D8C
S2140053B00BD16378542B55D1A01C00F0E5FB484B6D
S2140053C0188018462AF091F8ECE7582D34D8412D6D
S2140053D0E8D9433D152DE5D801A353F825F000BFC5
S2140053E059570000A5530000A5530000A553000020
S2140053F0A5530000A55300004B550000A553000020
S214005400A5530000015500004B540000A5530000B2
S214005410A5530000A5530000A55300004B560000FE
S214005420CB550000A5530000A5530000A55300006F
S214005430A5530000B7560000692DB3D1601C2AF0B2
S21400544060F980B22AF09AF9ACE71B4B0120197874
S2140054500023244A994202F1A402A3DD02F8A20C1A
S2140054600133F7E7601C00F08FFB0546E01C2AF0CE
S2140054706EF901210246284600F0D4FA60211A4847
S2140054801A4C03785943621865524FF4FA61118238
S2140054904FF448715161322151831549116501332A
S2140054A003707FE75A550020B463002049A3030029
S2140054B060A30300CE5A0020D15A002070A3030038
S2140054C0981600201017002048160020D01500203F
S2140054D09C1B0020E0190020C0A30300CD5A00202A
S2140054E0FC6900209C1C0020D35A00206821002064
S2140054F0D3F60200CF5A0020D05A00209018002081
S214005500601C00F041FB002234268046C34F114643
S21400551000F088FA3878C24D06FB00F325F80380C1
S214005520EA18E3781046693B18BF012393702AF007
S2140055307EF83B78002103FB06550126B94A334422
S2140055401560516016743B702CE7601C00F01CFB65
S21400555000221146804600F065FA3422AF4DB04F67
S214005560287802FB00F327F80380F918E37808464A
S214005570693B18BF01238B702AF059F8AA4A00230A
S2140055801146906BB8B901EB831134232A7802FBDD
S21400559003738B635EB9A34A3346114652F8040B75
S2140055A078B93422287800FB027241F823202B7841
S2140055B001332B70F6E60133042B02F14002E0D1F2
S2140055C0E8E70133042BE9D1F1E7601C00F0DCFAD0
S2140055D08046E01C2AF0BBF801210246404600F057
S2140055E021FA6021914F924D3A78A42051436B18CE
S2140055F025F801804FF44871198259613221598388
S2140056008C49DFF854C29965E1788B4C642904BF55
S21400561001219970237858430CEB00010CF80030F8
S2140056204FF40070488003200871887102EB420036
S21400563005EB401532200133DBB201324B718D6031
S21400564081F8A0003A702370ACE6601C00F09CFA6B
S21400565000224FF038088146784F114600F0E2F9F4
S2140056603B78774D08FB03F325F803904FF00109CC
S214005670EA1882F80490E3786BB1E01C00F084FA34
S21400568000220446114600F0CDF93B7808FB035390
S2140056905C8083F806906B48634A037899015354FC
S2140056A0397802EB8314C1EBC10205EBC2026263D8
S2140056B04A1C3A70F3E6601C00F066FA0746E01CE7
S2140056C000F062FA0546601D2AF041F804460246DC
S2140056D00121384600F0A6F922466024284601211A
S2140056E000F0A0F9DFF844C1514A9CF800304FF0B2
S2140056F0320804FB03F017524FF44877DFF834E122
S21400570011180F824F61A1F81A80C1F858E0591C91
S214005710C9B24C431019155394244B4D0782476168
S214005720A0F81A80C0F858E0981C8CF8000028787A
S214005730464F444303EB430301EB410107EB040CE4
S21400574002EB431302EB41123855CCF80430CCF888
S21400575008200130287025E6601C00F015FA074680
S214005760E01C00F011FA002205461146384600F00B
S21400577059F9002238241146284600F053F92F48DC
S2140057802F4A03784FF0010E04FB03FC02EB0C01DA
S21400579022F80C704FF0000C81F804E081F806C087
S2140057A003EB0E01C9B24C43171915539C1C047029
S2140057B07024274D87F806C0287887F804E044430D
S2140057C0244FC3EBC303C1EBC10107EB040C02EB90
S2140057D0C30302EBC1023855CCF80430CCF80820DD
S2140057E07044B7E7467901358E4284BF0471447130
S2140057F0A4304BE5B9F1000F06D016F8052C02EBE5
S214005800420204EB8204B4603146584601F0A2FC22
S21400581009F101090BF1A40B0C3678E5D45A0020E7
S21400582088250020A06400209C1B0020D35A00205E
S21400583068210020FD500000D15A0020D25A0020D6
S214005840381F0020D05A0020CF5A0020E019002030
S214005850CE5A0020901800209C1C002071180AD0F8
S214005860481E09FB00B0C07900EB400004EB800442
S21400587009FB01B08460104609FB0151039201F058
S21400588043FA39781C48314409FB015100F0BAFF4D
S214005890039A0136403244E5F54218BF11F8050C6C
S2140058A003911EBF00EB400004EB80048C6003FBFA
S2140058B0052000F0B7FE039901350C313CE5F742B0
S2140058C018BF15F8053C29461CBF03EB430304EB41
S2140058D0830408FB07A018BFAC6000F079FD013711
S2140058E00C353DE513F8011D00297FF443AD3B213F
S2140058F002F8011C3EE500BF2C1F002007B5012161
S21400590021200DF1070200F057F918B99DF807207D
S214005910024B1A7003B05DF804FB00BF466A002015
S21400592007B5064B8DF80700187001210DF1070228
S214005930212000F051F903B05DF804FB466A002010
S21400594007B5022101200DF1060200F035F938B93D
S214005950044814F051F9BDF8060003B05DF804FBE6
S2140059600020FAE7DDA3030007B50221ADF8060024
S2140059700DF10602012000F02FF9014610B1034890
S21400598014F03AF903B05DF804FB00BFFEA3030071
S21400599010B5FFF7D5FF04460146074814F02CF96A
S2140059A00121064814F028F924B9BDE8104001206A
S2140059B0FFF7DABF10BD00BF2EA4030040A403000B
S2140059C008B5044814F018F900F016F929F0DAFEC4
S2140059D029F0D5FE56A4030038B50446084D094BF9
S2140059E028462B6000F03EF9002C18BF21462846BA
S2140059F0BDE8384008BF4FF4967129F0CDBE00BF11
S214005A008C26002021F7020010B5044C237823B919
S214005A10034834F01DF90123237010BDD65A002028
S214005A206842040073B506460D461446FFF7ECFFC1
S214005A300E4A330AD35C8DF805608DF804307DB1CC
S214005A40012C04D0032C09D00022012101E02246BB
S214005A50022101A802F0B4F802B070BD0022F7E7F8
S214005A6004212A460DEB0100F4E700BFE53F0400E1
S214005A7007B5064A030AD35C8DF8050001A88DF821
S214005A80043002F0D1F803B05DF804FBE53F0400F3
S214005A9007B5064A030AD35C8DF8050001A88DF801
S214005AA0043002F0EDF803B05DF804FBE53F0400B7
S214005AB007B50A4A030AD35C8DF805008DF8043052
S214005AC000230DF1030101A88DF8033002F004F95C
S214005AD09DF8030003B05DF804FB00BFE53F04003B
S214005AE02DE9F043214C85B0064688469146FFF7DF
S214005AF08BFF23781BB902F047F8012323701C4A5A
S214005B00330AD35C30228DF80C300023194F8DF801
S214005B100D6002FB03F4395DE51901BB01233B551B
S214005B204FF0FF3304F1100013493844AB606E8029
S214005B30C5F80480C5F80C9009F034F804F10801A3
S214005B40042239440D4B009503A802F0F3F8A96827
S214005B5002460B4814F050F805B0BDE8F083013358
S214005B60102BD6D1074814F047F8F5E7D55A002091
S214005B70E53F0400B42600202FF7020041F702009C
S214005B8063A4030091A4030080B10278A2F141034C
S214005B90032B0BD840783038C0B2082806D8054BFF
S214005BA0134413F8413C40EA032070474FF6FF7059
S214005BB0704700BFE53F040008B50B4642B10146FA
S214005BC00448006803F0FAF9BDE8084029F0D0BDA3
S214005BD0022008BD0C65002008B50B4642B1014600
S214005BE00448006803F072FBBDE8084029F0C0BD19
S214005BF0022008BD0C650020F0B50026124F8DB0BF
S214005C00FF2300930A223346386802A92AF036FC9E
S214005C10C0B102AB1D4603EB800404E055F8043B1C
S214005C20B34228BF5E1CAC423868E9D9296803F045
S214005C30D3FC0028F2D02D28F0D00DB0BDE8F040FF
S214005C4029F096BD0DB0F0BD0C65002028B1034BC1
S214005C500360034B43600023836070471900000312
S214005C60B4640020FF2307B50021044A00930830DF
S214005C7008F01CFF03B05DF804FB00BF93F70200BA
S214005C800B460449024608680349097808B129F01A
S214005C90A7BD7047C0290020D85A0020F7B50C468B
S214005CA018B12921194834F027F8246823685E794A
S214005CB05F8830463946FFF7E3FFF0B18568E5B107
S214005CC0A089227D3946904291BF0020801AA368A1
S214005CD080B294BF03469B18E27C00903046A847EB
S214005CE00138032803D8DFE800F0080F0B0D002466
S214005CF020462DF05AFE204600E0812003B0F0BD7D
S214005D008024F5E79324F3E78724F1E7B9A403009A
S214005D10F8B515460D4A044610680D4A0B4611782C
S214005D2050B1224629F05CFD034628B100210C271D
S214005D30C678B14201DB0020F8BD07FB01F45A68C3
S214005D401019125BAA42F7D00131F2E7C0290020F1
S214005D50D85A002008B5034B1B6803B198470020AB
S214005D6008BD00BFBC2900202DE9F74F04460D46AC
S214005D700026454B454F1860454B197033010021EE
S214005D80F85C01360FF05CFF0C2EF7D10C2D28BF07
S214005D900C254FF0000901953C4EDFF800A13D4D63
S214005DA0DFF8FC80019B4B4502DC03B0BDE8F08FBA
S214005DB023784FF0000B337063887380A388B3801A
S214005DC0A379C6F80880B371E379C8F8005088F85C
S214005DD004304FF00003A768A8F80630E3795B4567
S214005DE00ADC012116F8100B0FF02AFF08F108084C
S214005DF009F101090C34D5E74FF0000338886B81B0
S214005E002880FB784FF0000C2B81BA78C5F804A0E8
S214005E10002A00920CBF802240222A7379680AF179
S214005E200C02634513DC03EB43030AEB830ABB68EF
S214005E3043B1009A4FF6FF71B2FA82F2164B52093E
S214005E402DF043FD14350BF1010B0C37C6E7B1F806
S214005E5000E00CF1010C22F80CEC91F802E00C3298
S214005E6002F816EC91F804E00C3102F815EC11F883
S214005E7009ECBEF1010F14BF4FF0100E4FF0110EDB
S214005E8002F814ECCDE700BFC0290020F84000203F
S214005E90D85A0020C42F00209D5C0000C429002092
S214005EA044320020014B1860704700BFB82900201C
S214005EB0014B1860704700BFBC29002070B51288DF
S214005EC005460E46FFF724FF044670B10279049992
S214005ED0806814F0F5FF064B1B680BB9002070BDF8
S214005EE03146284622889847F8E78620F7E700BF1D
S214005EF0B829002008B50EF03FFF022806D001287A
S214005F0006D0044B18784000C0B208BD0120FCE75C
S214005F100220FAE7D75A0020014B1860704700BFEE
S214005F20B4290020034B1A781AB901221A700AF015
S214005F3083BF7047D75A00200022064B10B51A7050
S214005F40054B1C682CB1FFF7D5FF2346BDE8104073
S214005F50184710BDD75A0020B429002037B504468C
S214005F60002832D00EF008FF022830D160892EF0CB
S214005F707EF8E079237A003818BF0120012B637A77
S214005F8008BF40F008000BB140F0100063890BB169
S214005F9040F00400257CA188A2790DB1E36873B9AE
S214005FA00C4B10F029FA2178084610F0A1FA2DF0D3
S214005FB087FB002814BF0320002003B030BDCDE9C6
S214005FC00035054B10F018FAEDE70220F5E7012042
S214005FD0F3E700BF4FF5030018C5030008B50DF042
S214005FE089F8014630B1044813F006FEBDE80840C3
S214005FF00DF024BC08BD00BF2BA50300034B044ACC
S2140060005B7C012103201370FFF7E6BDA06400202F
S214006010D95A002010B50446FFF7F0FFB4F57F4FBD
S2140060200BD100240F4B1A8813449C70FFF712F80C
S2140060302046BDE81040FFF7CFBC4FF601739C42E8
S21400604004D1BDE81040084829F0F3BA4FF60273B1
S2140060509C4205D1BDE81040044B1878FFF760BCA1
S21400606010BD00BF58550020A0640020466A0020DE
S21400607010B5074C012122460320FFF79DFD28B9E5
S2140060802378044A003B18BF0123537410BD00BF99
S214006090D95A0020A0640020F8B5564B564C1A88F2
S2140060A04FF6FF739A4218BF03234FF0080218BF3B
S2140060B02370524B36251A70322230265A70DA7008
S2140060C0DA714FF400121D711D724D4D9E70C5643D
S2140060D04C4D5E7105654C4D332685654B4D4264CF
S2140060E0C5654B4D012245664A4D9E7185664A4DF3
S2140060F086180567494DC6674567202580F878509D
S21400610080F8845000F12105C0F88850444E454D73
S21400611080F84820C0F88C5080F8542080F8602022
S21400612080F86C20C0F8806080F89020C0F894401A
S214006130C0F8B8303C4B3D4CC0F8BC300223C0F829
S21400614098403B4C80F8C030C0F8A4400F24394B30
S21400615080F8A840C0F8C430374B384CC0F8C83078
S2140061608223C0F8AC40364C80F8CC30C0F8B04043
S2140061700924344B344DC0F8D030344B80F8B4404A
S214006180C0F8D4302C7C324B80F89C20C0F8A0009D
S21400619080F8D820C0F8DC3044B12E4B80F8E420DC
S2140061A0C0F8E03005F11103C0F8E8304FF0000CFD
S2140061B0CA798E6802EB42039F00443006EB8303E5
S2140061C026F807C0586001200D349870DC7013184C
S2140061D0CB71FFF793FBFFF74BFFFFF78BFE012812
S2140061E006D12B7C23B1BDE8F840174829F021BA28
S2140061F0F8BD00BFFC690020476A0020DA5A00207C
S214006200FD3F040001002000FC3F040002002000C7
S214006210FB3F040003002000FA3F04000400420095
S2140062200500420007003000FDFF210012001001AB
S21400623000404200F83F040000FF4401E93F04002C
S2140062400600420058550020A064002002FF2001EE
S214006250466A002001FF100113B504460E4829F0D7
S2140062604FF96422C0F30F43637083B2B3FBF2F3BB
S214006270A07823702022012129F0D4FAA0782122C8
S214006280012129F0CFFA4EF66021201D02B0BDE8AC
S214006290104029F081BA00BFFC6900200B7870B569
S2140062A083704CF61E0303804FF02013C362012355
S2140062B080F8303080F83C30C3180364124B044634
S2140062C043640223114A80F84830114B8263C3644A
S2140062D04063CA798D6802EB420305EB830004F144
S2140062E02C0646600B4E45F8236000238360531C43
S2140062F0CB71094B201DC4E90134FFF7B3FC2046DF
S214006300BDE87040FFF7A8BFFDFF21002100200078
S214006310FE3F04000100010359620000437B044A6B
S2140063200121137000781130C0B2FFF755BC00BFD2
S214006330E45A002038B504460078054D11302A4648
S2140063400121C0B2FFF738FC08B92B78637338BD5B
S214006350E45A0020024B53F8200029F03FBB00BF50
S214006360A4320020012908B506D0022907D049B971
S21400637029F02BFB002008BD29F02AFBFAE729F0BC
S2140063802AFBF7E7024813F037FC0120F3E700BFCB
S21400639058A5030010B4054C114654F820001A46C0
S2140063A0BDF804305DF8044BFFF7DCBFA4320020D4
S2140063B0002310B5044683810364A0F844304830B7
S2140063C0FFF750FC014BC4E9123410BDC3F90200BC
S2140063D038B504460B781A4A43700D4642F8230037
S2140063E0FFF7E6FF2046FFF7A5FF4FF440132361B3
S2140063F00123144A2375A261134A84F82030E2610F
S214006400124A84F82C306262114A84F83830A2624C
S21400641004F10C0222630F4A04F10D036263E36386
S214006420EA79A86802EB420300EB830110344C6063
S214006430094C40F82340094B8B60531CEB7138BD68
S214006440A4320020E35A002008002000486A0020FA
S21400645000FF300001FF10010201010495630000F7
S21400646010B47024427B0D48013A012904FB020057
S21400647006D0022908D059B95DF8044B29F0A5BA10
S2140064805DF8044B29F0A4BA5DF8044B29F0A3BAD2
S21400649003485DF8044B13F0AFBB00BF9018002014
S2140064A074A50300B0F85C302DE9F0418B42044639
S2140064B00E4638D0437B077C8BB31C4A12789A4230
S2140064C02DD370251A4A013B05FB032390F80F8055
S2140064D01B7B424629F090FAB845054601D1FF28B5
S2140064E01FD13A463146204694F8903029F084FA77
S2140064F02F460546552212216078A4F85C6029F0E4
S21400650091F9FF2F03D039462046FFF7A9FFFF2D4C
S21400651009D029462046BDE8F04129F0ADBAFF254E
S214006520DFE70746E6E7BDE8F08100BFCE5A002069
S2140065309018002041688268C978D27849B112B1B3
S2140065400321FFF7AFBF837B002B0CBF0121022185
S214006550F7E72AB1837B002B0CBF02210121F0E76D
S214006560014813F049BB00BF85A50300037BD3B1E8
S2140065704368DA7812B18268D278A2B91B7933B14F
S214006580837B002B0CBF04210521FFF78BBF83689C
S2140065901B792BB1837B002B0CBF05210421F4E76C
S2140065A0014813F029BB7047B7A50300084A437B90
S2140065B005211370837B5370C37B9370037CD37069
S2140065C0037B137100780E30C0B2FFF705BB00BF27
S2140065D0E55A002038B5044600780C4D0E302A46A1
S2140065E00521C0B2FFF7E8FA20B1BDE838400848F8
S2140065F013F002BB2B7863736B78A373AB78E373EB
S214006600EB7823742B79237338BD00BFE55A00203E
S214006610F3A50300024B53F8200029F077BA00BF19
S214006620CC320020F8B504460B78424A43700D463B
S21400663042F82300404E29F087FAFFF7CBFF626846
S214006640A3683E483E49D6641165D4655065C3E9E3
S2140066501410DE64DC654FF0987302266361012334
S21400666004F10C01E16137491032216204F10D0199
S214006670A16235492376E16204F10E016163334974
S21400668084F82430A16304F10F012164304984F8B2
S2140066903030616404F11001E1642E4984F83C3026
S2140066A084F84830216584F85460A265E879A968C2
S2140066B000EB400201EB820704F1140CC7F804C09B
S2140066C04FF4817C244F41F82270C218D2B202EBFC
S2140066D0420241F822C001EB820700227A601F4A7C
S2140066E084F8703022661E4A84F88830A2661D4AF6
S2140066F01D4BE2661D4AC4F88C3062671C4A83193B
S214006700A26704F15C02C4F88020DBB2194A03EBEE
S2140067104303C4F8842084F8646084F87C6001EB4A
S214006720830260345460144A033041F82320E87131
S214006730F8BD00BFCC32002035650000CFFA02005D
S2140067406D65000001002001020010010300300109
S214006750040030010500210101FC01064A00210069
S21400676000400400510010000240040003400400F2
S214006770550021006F0018001200010470B50D4688
S2140067800646144613460A4601461A4813F034FADB
S21400679025B92046BDE87040FFF73CBC072D05D163
S2140067A021463046BDE8704000F098BC4FF60143E5
S2140067B09D4205D121463046BDE87040FFF72ABF0E
S2140067C0062D05D121463046BDE8704000F056BA89
S2140067D0B5F5817F05D121463046BDE87040FFF70C
S2140067E0B9BD202D04D12046BDE8704000F0EAB8BF
S2140067F070BD00BF22A603000148FFF753BB00BFD1
S2140068007D6700004FF4C01330B5036001230371A9
S214006810074B8C688360CA7902EB420304EB83055E
S2140068206860044844F82300531CCB7130BD00BF99
S21400683004400400040001010368064A0C211360AA
S2140068404368536003891381438922205381FFF7ED
S214006850C3B900BFF432002010B50368044686B002
S214006860FBB1114813F0C8F9A37B104A8DF8043029
S2140068704FF48273ADF806300123CDE902230023DE
S21400688001A804938DF81430FFF768FB2046618951
S21400689029F06AF92046FA2150F8143B594328F0AB
S2140068A07BFF06B010BD00BF55A603002000000108
S2140068B010B5064C236843B1054813F09DF92068CF
S2140068C0BDE81040418929F04FB910BD00330020C3
S2140068D076A6030070B5354910460C68BDF8102042
S2140068E0002C5DD003285BD8DFE800F0021E2744AA
S2140068F0002B59D0022A57D91D78B3F80160291EFB
S21400690018BF012132462A4813F076F92DB13146D8
S214006910204629F029F9002070BDE573FA20636847
S214006920584328F0BEFFF6E7224813F065F9E37BEC
S214006930002B37D00023E373F0E7002B34D0032A74
S21400694032D91D681C48294613F056F91B4B2A1FDE
S2140069509A4201D90220DFE723689D42FAD82389AC
S2140069609D42F7D3E37B6560B3B9FA20684328F00D
S21400697098FF11E0002BCFD0012ACDD91D881048F2
S214006980294613F039F9002DE4D063689D42E1D81A
S214006990E37B2581002BE8D12046FFF74DFFBAE7C1
S2140069A00120B9E70420B7E70320B5E7003300204D
S2140069B099A60300D0A60300EFA60300FCFF6D0017
S2140069C01AA7030038B5104B1C68E4B1A0B92546D9
S2140069D055F8141B0D4813F00FF9284628F0E1FE71
S2140069E0236823B1FA212846594328F0D5FE2046CD
S2140069F0BDE83840FFF720BF032804D1618904486A
S214006A0013F0FAF8F3E738BD0033002045A703007B
S214006A1073A7030070B53D4B0D4604460978186011
S214006A20002A6ED101231A46A1730021E1730121C9
S214006A30A1814FF46151C4E900132823344E22810A
S214006A400C21324622206381FFF7B6F858B9D6E902
S214006A500013994207D33289934221BFC4E9001339
S214006A607389228163812B4B2B4AE363042384F8CA
S214006A70403084F84C30E3182365284BA2646365E5
S214006A80022304F10802E265254A84F8583022669B
S214006A9004F10A02A266234A84F8643084F870304F
S214006AA004F10C03E26663676464EA79A86802EBA3
S214006AB0420300EB830104F13C064E601A4E40F898
S214006AC02360FA26194B1A488B60531CEB71FFF7AC
S214006AD0EFF9208904F11405704328F0E2FE61897D
S214006AE0204629F041F8134B2846C4E90534FFF741
S214006AF0B9F8216849B128467143BDE8704028F0CE
S214006B004BBE4FF4F07302228EE770BD00330020B8
S214006B10F4320020000023010100230002002100BF
S214006B2003002101FDFF210020000105D5680000BB
S214006B30B168000059680000134B10B51C680CB310
S214006B40E37BEBB128F031FE2369C01A002809DB8D
S214006B500E4813F051F80023FA20E3736368584395
S214006B6028F09FFEE37B5BB12489FA235C4328F080
S214006B70A6FEA04206D02046BDE8104028F091BEF2
S214006B806468F2E710BD00BF00330020A0A7030032
S214006B9038B50024044D55F8040B08B128F0F7FF6B
S214006BA001340A2CF7D138BD04330020042908B577
S214006BB00AD172B16BB113781BB929F013F8002013
S214006BC008BD29F005F8FAE7034813F015F8012088
S214006BD0F6E70320F4E700BFDAA7030010B4054C7D
S214006BE0114654F820001A46BDF804305DF8044BF0
S214006BF0FFF7DCBF043300200229024608B50ED09A
S214006C0004D839B9104628F0EDFF06E04029F9D03F
S214006C10412907D1104628F0DBFF002008BD28F0E8
S214006C20EBFFFAE7024812F0E7FF0120F6E700BFA5
S214006C30FAA7030010B4054C114654F820001A4673
S214006C40BDF804305DF8044BFFF7D6BF04330020D0
S214006C50426B094B52791A7082785A70C2789A70D1
S214006C60826B12B190F83C20DA700078042109306B
S214006C70014AC0B2FEF7B0BFEA5A0020024B53F8F2
S214006C80200028F0D5BF00BF0433002038B50446E6
S214006C900078084D09302A460421C0B2FEF78CFF62
S214006CA030B96B78A370AB78E370EB7884F83C303F
S214006CB038BD00BFEA5A002038B504460078114DAA
S214006CC009302A460421C0B2FEF776FFC8B9A37879
S214006CD02A78022B0CD004D863B9204628F082FF0D
S214006CE001E0FF2B0AD02046BDE8384028F04FBF11
S214006CF0002AF2D1204628F06BFFF4E7002AF9D1EB
S214006D00EBE738BDEA5A0020F8B504460B78284A67
S214006D100D4642F823004370FFF7B8FF636B254A21
S214006D205C631A632046FFF7C7FF204628F02FFF54
S214006D304FF4801363600123626BA66B0532E2603A
S214006D401D4A23722261A21C2375A26166B11B4AEA
S214006D5084F82030E261E21C6262194A84F82C3022
S214006D6004F13C03A26223630627EA79A96802EBD2
S214006D704203002E21F8237001EB83000CBF022390
S214006D800423C370012383700E4B04348360531CAA
S214006D904460DBB20C4C03EB430341F8234001EBA9
S214006DA0830000234360094B02328360EA71F8BD1A
S214006DB0043300200DFC02000340300101FF3001C7
S214006DC002FF1001356C000008000100DD6B0000BA
S214006DD028B1034B1B78834234BF00200120704744
S214006DE0D05A002008B5427901461046FFF7F0FF5A
S214006DF0A8B1CB780A48013A042B00EB82100ED8D3
S214006E00012B08D81BB9BDE8084028F0E1BEBDE854
S214006E10084028F0E7BEBDE8084028F0EDBE08BDF3
S214006E209C1B002008B5427901461046FFF7D0FFAC
S214006E30A8B1CB780A48013A042B00EB82100ED892
S214006E40012B08D81BB9BDE8084028F0CBBEBDE82A
S214006E50084028F0BDBEBDE8084028F0CDBE08BDFD
S214006E609C1B002010B586B00446FFF743F80128A7
S214006E7030D1E278042A2DD8DFE802F0133234034A
S214006E80030061790846FFF7A3FF58B31648032AA4
S214006E9000EB811050F80C3C58791DD1003818BF13
S214006EA0012063784FF480728DF804304FF48273BB
S214006EB0ADF806300623ADF8083001238DF80B3008
S214006EC000238DF80A0001A8CDE903238DF81430BD
S214006ED0FFF744F806B010BDB0FA80F04009E0E7CE
S214006EE00020DEE70220DCE79C1B002010B586B001
S214006EF00446FEF7FFFF012830D1E278042A2DD899
S214006F00DFE802F013133203030061790846FFF747
S214006F105FFF48B31548032A00EB811050F80C3C7D
S214006F205B791DD11A1E18BF012263788DF80A20DE
S214006F308DF804304FF48273ADF806300623ADF8B2
S214006F40083001234FF480728DF80B30002301A81F
S214006F50CDE903238DF81430FFF700F806B010BD16
S214006F60B3FA83F25209E0E70222DEE79C1B002018
S214006F7010B586B00446FEF7BDFF012812D163782F
S214006F80094A8DF804304FF48273ADF806304FF49A
S214006F908073CDE90223002301A804938DF81430F2
S214006FA0FEF7DCFF06B010BD0800070110B586B07E
S214006FB00446FEF79FFF012820D16278104B8DF81B
S214006FC004204FF4827294F8A01094F8A10059702F
S214006FD01870ADF8062004934FF480720223094916
S214006FE001A88DF81430CDE90212FEF7B7FF94F829
S214006FF0A130013B18BF012384F8A13006B010BDB4
S214007000EE5A00200800050110B58378044603B345
S2140070100379022B0AD142791046FFF7D9FE28B130
S2140070200C48013A00EB821028F0E6FDA379022B0B
S21400703002D12046FFF716FF2046FFF7B7FF0223D0
S2140070406078A4F86C305522BDE81040122128F074
S214007050E9BB10BD9C1B00204388094A0821138009
S2140070608388538083681B8A938090F8A03093713E
S2140070708379D37100780430C0B2FEF7ADBD00BF8F
S214007080DA55002038B50D4604460178114812F04E
S214007090B3FD4FF602739D420ED10F4B1B782BB9F2
S2140070A063712046BDE83840FFF7D6BF62790AB163
S2140070B09342F6D20123F3E7B5F57F4FF1D1204690
S2140070C028F013FEA378022B0CBF01220022A3682F
S2140070D09A70E6E716A80300D05A0020024B53F831
S2140070E02000FFF7CFBF00BF2C33002038B5044682
S2140070F00078144D04302A460821C0B2FEF75CFD25
S21400710020B1BDE83840104812F076BD2B88638069
S2140071106B88E978A380AA88A3681A82AB7984F87A
S214007120A030EB79A371094B1B780BB9637138BD9E
S21400713009B19942FBD9064812F05EFD2378013367
S214007140F4E700BFDA55002030A80300D05A00202C
S21400715059A80300F8B504460B78474A0D4642F88E
S21400716023004370FFF7C2FFA268444BD465D36484
S214007170434B02265365434BA11C13654FF4401343
S214007180E36001236161E1623F49103221632265B9
S214007190211D3E4AA1633E483E49626504F1A002B5
S2140071A0A061E163E265E01C611D3B4A2062616408
S2140071B03A483B492266A21D2374237784F8283078
S2140071C084F8343084F84030A16484F84C6084F845
S2140071D0583084F864306062A266E879AA6800EBEA
S2140071E0400102EB810704F10C0CC7F804C04FF015
S2140071F0060C2C4F42F82170C118C9B201EB4101B0
S21400720042F821C002EB810700217960264F84F8FE
S21400721080302767254F84F89830A767244F254B82
S214007220E767254F84F8746084F88C60C4F89C3057
S21400723004F16C06831CC4F88470C4F890601F4F79
S2140072401F4EDBB203EB4303C4F89460C4F88870A7
S21400725002EB83067034746008261A4C42F823400A
S214007260C31CDBB203EB430302EB8304043042F897
S21400727023606160E871F8BD2C33002057FC0200E3
S21400728099FC02000970000001FF300104FF200194
S2140072901000300102FF200105FF300100FF300121
S2140072A003FF2101070001084A00210006400400F0
S2140072B05100100008400400094004005500210059
S2140072C06F0018001200010400239B6AB3F5804F7C
S2140072D003D21968064A914203D0002303708360E4
S2140072E07047012202709A689B694260F7E700BF08
S2140072F007B0CD5E024B034A1A602AF07EB800BF84
S2140073000000002002020FF073B53F4B04461A78C7
S2140073101AB102221A7002B070BDCDE90022002810
S214007320F9D001261E7032F0F5FB384D384B186048
S21400733017F044FA2B785BB902F0F2F940B93548F9
S2140073400823354A3549006801F038FE00B92E702A
S214007350334B5A68E260334A9A601A6E22605A6E5D
S2140073606260D3F87021A2601B6E5C042CD52E4A96
S214007370D368D807FCD42D4B1A68531C29D04FF479
S214007380801393402A4A13660423294C4FF0804208
S21400739023664FF480632366102323664FF400535E
S2140073A06846236601A92266636628F0B6FC009B41
S2140073B02366019B63662B78002BACD0164B1A68AD
S2140073C022665B686366A6E71A4AD368D907FCD4C8
S2140073D0D1E7194B1B78002BD6D1184B5A68144BA3
S2140073E012B94FF480121A66154A526812B94FF451
S2140073F000121A66134B5B68002BC5D14FF480024F
S2140074000B4B1A66C0E700BFF15A0020F25A002064
S214007410643300200C6500206833002000710800EB
S2140074200080004455CEAC0000000440D864002024
S2140074300090004400000450F05A002000800550E0
S21400744000C005500000065038B5224D04462B7883
S214007450012B02D001232B7038BD0028FCD028F069
S21400746081FC013009D028F07DFC40F201139842DF
S21400747003D0194AD368DB07FCD42268174B1A6678
S21400748062685A66A268C3F87021E268D40744BFEF
S21400749000229A60124B1A68013213D1114A1278F0
S2140074A082B911494968C80748BF1A600F4A52682E
S2140074B0D10744BF01221A600D4A5268D20744BF62
S2140074C002221A6017F082F90A4B186832F01DFB88
S2140074D00023C0E7F15A002000000440008000446A
S2140074E0D8640020F05A00200080055000C00550E7
S2140074F0000006506433002070B50024A36AB3F57C
S214007500804F23D21A68134B9A421FD1124E3378FB
S21400751013F0FD0518D14FF480341048FFF7F4FE41
S214007520032004F0CBF90E4B0320DC6004F0AAF92C
S2140075300C4B1C61AB6ADB69984704460748FFF7AB
S21400754083FF0CB901233370204670BD4FF481745D
S214007550FAE700BF07B0CD5EF05A00205433002093
S21400756000A000440090004413B5204B1B7803B9DC
S214007570FEE700231E4CCDE900336A4608231D496A
S214007580206801F01BFDF8B91B4AD2F84031D2F84A
S21400759040211F2B4FF0010311D9203A9340019A46
S2140075A01A43019208236A461249206801F08EFEAB
S2140075B0124B134A1A6029F020FF02B010BD934008
S2140075C0009A1A430092EDE72D28F1D10A4AD2F824
S2140075D04031D2F840211F2B4FF0010385BF203ADF
S2140075E093409340019398BF0093DBE7F15A002045
S2140075F00C65002000710800008000440000002098
S2140076000B020FF038B50025AB6A0446B3F5804F81
S21400761010D21B6BB3F5804F0CD20748FFF774FEF1
S214007620AB6A20461B6B5B689847BDE8384002484B
S214007630FFF70ABF38BD00BF7033002013B5002423
S214007640A36A0190B3F5804F13D21B6BB3F5804F3E
S2140076500FD20948FFF758FEA36A01211B6B01A849
S2140076609B69984704460448FFF7EEFE204602B0A2
S21400767010BD4FF48174F9E77033002070B5002612
S214007680B36A0446B3F5804F0D4612D21B6BB3F5B2
S214007690804F0ED20848FFF737FEB36A20461B6BB2
S2140076A029469B69984704460348FFF7CDFE2046C7
S2140076B070BD4FF48174FAE77033002070B5002671
S2140076C0B36A0446B3F5804F0D4612D21B6BB3F572
S2140076D0804F0ED20848FFF717FEB36A20461B6B92
S2140076E02946DB69984704460348FFF7ADFE204667
S2140076F070BD4FF48174FAE770330020F8B50027A8
S214007700BB6A0446B3F5804F0D46164611D21B6B76
S2140077107BB10948FFF7F8FDBB6A20461B6B324673
S21400772029465B6A984704460348FFF78DFE2046C5
S214007730F8BD4FF40174FAE77033002070B50026E8
S214007740B36A0446B3F5804F0D4612D21B6BB3F5F1
S214007750804F0ED20848FFF7D7FDB36A20461B6B52
S21400776029469B6A984704460348FFF76DFE204665
S21400777070BD4FF40174FAE770330020F0B50027AF
S214007780BB6A0446B3F5804F0D461646ADF5337D0D
S21400779020D21B6BB3F5804F1CD21048FFF7B4FD08
S2140077A0BB6A20461B6B40F2C1225B6A01A9984760
S2140077B0044630B10948FFF747FE20460DF5337DF5
S2140077C0F0BD836A32461B6B2946DB6A01A89847E0
S2140077D00446EFE74FF40174EFE700BF7033002074
S2140077E010B50024A36AB3F5804F10D21B6BB3F517
S2140077F0804F0CD20748FFF787FDA36A1B6B1B6BF5
S214007800984704460348FFF71FFE204610BD012494
S214007810FBE700BF70330020F0B58FB0044601A828
S2140078200E461546FFF7EEFE9DF80C30012B12D1E2
S214007830B5F5402F27D8B4F5402F24D86319B3F5F3
S214007840402F20D821462A46304613F077FC0024E5
S21400785020460FB0F0BD0027BB6AB3F5804F15D2A7
S2140078601B6BB3F5804F11D20A48FFF74DFDBB6A7C
S2140078702A461B6B314620465B6B984704460548F4
S214007880FFF7E2FDE4E740F20244E1E740F20114CC
S214007890DEE700BF70330020F0B58FB0044601A8C5
S2140078A00E461546FFF7AEFE9DF80C30012B1FD195
S2140078B0B5F5402F06D8B4F5402F03D86319B3F5B5
S2140078C0402F13D940F2024420460FB0F0BDE258D4
S2140078D0013225D104339D42F9D82A463146204646
S2140078E028F070FA0028EDD00024EDE70023F2E738
S2140078F00027BB6AB3F5804F15D21B6BB3F5804FDC
S21400790011D20A48FFF700FDBB6A2A461B6B3146B8
S21400791020469B6B984704460448FFF795FDD3E73F
S21400792040F20344D0E740F20114CDE77033002064
S21400793070B58EB0044601A80D46FFF763FE9DF8AD
S2140079400C30012B22D144EA0503C3F30C03002BB1
S21400795033D1B5F5402F04D940F2024420460EB08C
S21400796070BDB4F5402FF7D82544B5F5402FF3D8B1
S214007970204604F5005428F01EFAAC4202D0002837
S214007980F6D1E9E70028E7D00024E7E70026B36A47
S214007990B3F5804F14D21B6BB3F5804F10D20A4854
S2140079A0FFF7B2FCB36A29461B6B2046DB6B984791
S2140079B004460548FFF748FDD0E740F20444CDE70B
S2140079C040F20114CAE700BF70330020BFF34F8FA8
S2140079D00549064BCA6802F4E0621343CB60BFF366
S2140079E04F8F00BFFDE700BF00ED00E00400FA0582
S2140079F070B5D0B1C9B10E4E431E013913F8014F10
S214007A002046325D02F00302012A11F8012F08BF5A
S214007A1004F12000B55C05F00305012D08BF2032F7
S214007A20801A01D1002CE9D170BD0120FCE700BF0F
S214007A30DD6704000348044A0449121A921028F02D
S214007A400DBA00BF34410000D04200000C62002096
S214007A5008B5154B83F30A8800F030F8FFF7EAFF05
S214007A60124B13498B4212D30020124B12498B4201
S214007A7018D3FDF737F9186850F82240586840F8D0
S214007A802240013298688242F5D30C33EAE700229E
S214007A90F8E71C6844F8220001325C68A242F8D37A
S214007AA00833E4E70022F8E7080000207C8C040096
S214007AB0888C0400888C0400888C0400124B134ABF
S214007AC070B59A60D3F88820114D42F47002C3F85E
S214007AD088206FF0010205F50054226641F2FF721D
S214007AE062660222C3F8D020BFF34F8FBFF36F8FBA
S214007AF04FF44036032003F0E1FE0320E66003F077
S214007B00C1FE2E6170BD00BF00ED00E00040000029
S214007B1000800044014B1860704700BFE0640020FE
S214007B20054B1860054B1B6F03F00703032B01D1B1
S214007B3030F048B9704700BFE8640020008000506D
S214007B402DE9F04104464FF001080C250D4E0CB906
S214007B50BDE8F08194FAA4F0B0FA80F00F2808FA95
S214007B6000F2C8BF103824EA0204CABF05FB006250
S214007B7005FB0062B4325768002FE8D09168C0B2A7
S214007B80B847E4E78033002008B50C4832F060F8C8
S214007B90192003F085FE28B1192003F08FFE192066
S214007BA003F070FE1A2003F07BFE28B11A2003F0C3
S214007BB085FE1A2003F066FE002008BD6842040019
S214007BC02DE9F0410E461746054618B30F2923D86F
S214007BD00378DBB1013BDBB2022B19D8104AD35C29
S214007BE06A78D340DB0717D50E4BD3F81043ACB9F1
S214007BF031F090FF80463A462846314602F0BEFBFA
S214007C00404631F082FF2046BDE8F0817F23E7E75B
S214007C100023E5E72224F6E72124F4E70224F2E72E
S214007C205C40040000C0035010B5044610B303784F
S214007C30E3B1013BDBB2022B1AD8104AD35C627860
S214007C40D340DB0718D531F065FF01226178237831
S214007C508A4030214B4341F2100103F1A04303F563
S214007C6070335A5031F051FF002010BD7F23E6E7F5
S214007C700023E4E72220F8E72120F6E75C40040032
S214007C8010B5044610B30378E3B1013BDBB2022B18
S214007C901AD8104AD35C6278D340DB0718D531F087
S214007CA039FF0122617823788A4030214B4342F223
S214007CB0100103F1A04303F570335A5031F025FF4D
S214007CC0002010BD7F23E6E70023E4E72220F8E744
S214007CD02120F6E75C40040038B50D46044618B38C
S214007CE011B30378E3B1013BDBB2022B1AD8104A7A
S214007CF0D35C6278D340DB0718D531F00BFF302217
S214007D002378534303F1A04303F570335B6962782D
S214007D10D34003F001032B7031F0F7FE002038BD8E
S214007D207F23E6E70023E4E72220F8E72120F6E7B2
S214007D305C4004002DE9F0410D4616469846044680
S214007D4000284FD000294DD00178002940D04B1E86
S214007D50DBB2022B3ED8254AD25C6378DA40D207E3
S214007D6001D4FF2940D1022E01D9042E3CD131F096
S214007D70D1FE23780746FF2B05D0324620462968D9
S214007D8002F042FB28602B68013309D12378FF2BD1
S214007D9006D1174B6078D3F8241428F09EFD28608F
S214007DA029684B1C18D00C23124A03FB0122069BA1
S214007DB0C2F8048093602378FF2B04D001230E4A78
S214007DC08B40C2F82434384631F09FFE002007E08E
S214007DD07F22C2E70022C0E7384631F096FE2D200B
S214007DE0BDE8F0812220FBE72120F9E75C40040093
S214007DF000C003508033002000D0035008B502F0C6
S214007E00B3FA044B00F05530C3F82004BDE8084030
S214007E10FFF796BE00E0035008B502F0A5FA044B43
S214007E2000F0AA30C3F82004BDE80840FFF788BE7B
S214007E3000E003502DE9F04F144605460E469B46DB
S214007E40C36B87B001225B6902A960689847EB6B39
S214007E5001225B6903A93046984702A828F0FDFB7B
S214007E60074648B10023A37563754FF0FF33A36040
S214007E70002007B0BDE8F08F03A828F0FBFB012325
S214007E80A375237E04EBC303DE611F846368B342DD
S214007E900ED1206003A828F00FFC4FF0FF332075AA
S214007EA0A360237D043B022B26D80023A375DFE7BF
S214007EB023681A1A53425341A37503A828F0FCFB03
S214007EC0237D834218BFA77503A828F0D7FB074673
S214007ED002A828F0D3FB874218BF002303A818BFC8
S214007EE0A37528F0D3FB074602A828F0CFFB8742ED
S214007EF01CBF0023A375D4E703A828F0BFFB80B1FE
S214007F00EB6B022230465B6904A9984704A828F068
S214007F10C4FB0346207D032839D8DFE800F0383854
S214007F20040903A8F3E7CC22237E04EBC3031A84D8
S214007F3001F06EFC109B187003A8277E28F092FBB9
S214007F4004EBC70787F82200237E03A804EBC303CD
S214007F50B3F8209093F8227028F090FB804603A890
S214007F6028F094FB8246B8F1000F15D0EB6B022286
S214007F7030465B6904A9984704A828F053FB60754F
S214007F80637D6BB90023A3754FF0000838E0227EAE
S214007F9004EBC2021384CBE703A828F02EFBEEE71F
S214007FA094F81680B8F1000FEED0B9F1000F09D1A1
S214007FB0DFB10123E375637E002B4FD1012F42D141
S214007FC0677614E06B6C06EB0A015A4286EA0100FB
S214007FD010421CBF0022A2755A1E0A409B1A9945E1
S214007FE0D0D8A37D002BE3D1CEE7E37D43B94FF095
S214007FF000084B4652463146284628F079F8A060DD
S214008000A27D12B123694B4423611A49237E097865
S21400801099422AD901332376BBF1000F27D032B319
S214008020E37D23B3B8F1000F21D1032F1FD0A16841
S2140080304B1C1CD0109B2246009328460123FFF7BA
S214008040F9FEA07513E095F8343063B9EB6A013396
S214008050CFD1032FCDD10123A376C8E7012FCFD0F0
S214008060032FC4D1F7E79846C3E70023A375A07D86
S214008070FFE600BF804004002DE9F04F0E4698460C
S21400808000238BB004464FF0FF31104617468DF89C
S214008090133001F0A7FBB6F5801F20D2314605AAA3
S2140080A004F1080028F02BFA451C014603D1237C76
S2140080B0BBB92D2010E0384601F094FB012239466A
S2140080C020460DF1130328F065F80028EFD09DF840
S2140080D0133088F8003000200BB0BDE8F08FB01CDD
S2140080E0E5D1E56A691C36D12046616A27F046FF6D
S2140080F00546B31C18BF0123DFF8CC900193636AD2
S214008100626C0293236805A902FB053AE36B05221D
S2140081105B695046984705A828F03AFB28F05DFBB7
S214008120504628F065FB4FF0000B824601464B1C7C
S21400813005D0636C81EA0A025B42134211D02946DD
S214008140204627F01BFF029BAB422CD0BBF1000F52
S2140081502CD10546D3E72368ED1A636CB5FBF3F51F
S214008160C7E7484601F03EFB0DF11303494620469B
S214008170019A28F00FF8034690B1B21C03D0D9F844
S2140081800020B2420CD19DF8132003930D4B88F8C3
S214008190002049461A68384612F0D0FF039B9B46DB
S2140081A0D9F80810C3E7BBF1000F82D0B6F5801FE0
S2140081B091D2314698F800307A6804F1080001F050
S2140081C03FFA88E77C4004005C3B00202DE9F34141
S2140081D00446174698460E46184D816AE36A8B4257
S2140081E001D04B1C02D102B0BDE8F081284601F058
S2140081F0F9FA0122294620460DF1070327F0CAFFA7
S21400820038B14346294620469DF80720B84700283F
S214008210E9D0A9684A1C04D16968204627F03BFFCC
S2140082200146012EDAD16B6881EA0302636C5B4279
S2140082301A4218BF4FF0FF31D0E700BF303B002096
S2140082402DE9F04F4FF0FF334FF6FF72002504463E
S21400825000F10806C0E909238BB0C3620562056316
S2140082603046884628F01CF9204627F057FE60BBAB
S2140082702046414627F0D2FE204627F04FFE60BB40
S2140082805E200BB0BDE8F08F2368E26B606C576928
S21400829000FB0530052205A9B84705A828F078FA9E
S2140082A0012807460CD12946204627F088FE012FD4
S2140082B0024600D101322946204627F04EFE03E052
S2140082C028F090FA0028EED10135E3699D42DBD311
S2140082D0204627F023FE0028CAD000254FF0FF399D
S2140082E04FF6FF73CA46A846C4E90853E3699845A3
S2140082F00AD3A5EB0905012D2CD84FF6FF72636A49
S21400830093423CD16720BCE72368E26B606C5769F8
S21400831000FB0830052205A9B84705A828F038FA5A
S214008320834605A828F00BFA0746584628F055FA63
S21400833068B1574538BFC4F82480B94528BFB94648
S214008340BD4238BF3D46BA46236A0133236208F170
S2140083500108CBE74FF6FF7300256362E3699D4291
S214008360CBD2676C2068E36B052207FB05005B69D0
S21400837005A9984705A828F0E2F90135EEE7E26B73
S214008380676C2068694607FB030055690522A84705
S214008390684628F0D4F9626A2368606C4B4D00FB8F
S2140083A0023028F025FA4FF0FF33A062E3622A4637
S2140083B06FF00101204605ABFFF75EFE002846D1B0
S2140083C0AD6829462046E56227F084FD206320B983
S2140083D02046E16A27F05FFEE0622946204627F045
S2140083E05AFE0546A36A9D4233D1204627F045FD36
S2140083F000278046B946E36999453CD3B84559D924
S2140084002046616A27F0BAFD0026054604F1400AB8
S214008410B74212D8626C2368694602FB0539E36BE3
S21400842005225B6948469847684628F088F953460F
S21400843002464946E06B28F0DDF92946204627F03B
S2140084409DFD0136B0450546E2D1642019E7A56AD0
S214008450B7E72946204627F03DFD236B294603440F
S21400846007462363204627F016FE0546002FB9D19F
S214008470C4E90B07B6E7636C2568052203FB0955BC
S214008480E36B05A95B692846984705A828F080F99C
S21400849028F0A3F958B1284628F0AAF90146204644
S2140084A027F018FD636C143B984208BF013709F1AA
S2140084B00109A0E7304627F0F3FF002320461946BF
S2140084C0034AFFF783FE0020DBE600BF883B002060
S2140084D0830103002DE9F041036B9046826B076829
S2140084E09A4288BF8363426C436A90B002FB03776C
S2140084F0C36B0E46052201A95B69044638469847B9
S21400850001A828F045F901280146307057D0656C5F
S214008510E26B2368606AD2F814C005FB00300522BF
S21400852006A9E04706A828F033F901284FF0000511
S21400853023D0D4E90A3201219342CDE90B458DF8C8
S21400854034800E958DF83C102AD11946204627F027
S214008550A2FD236B626C14339B1AE06223630C9BB0
S21400856053B99DF83C303BB1626A616C2368E06B9E
S21400857001FB023128F0C4F80C9DE36B05225B6911
S21400858001A93846984701A828F002F93070284615
S214008590236BA26B9A4288BFA36310B0BDE8F0813C
S2140085A0237C33B91C490BAA04F1080001F096F8A5
S2140085B0D5E72046194A0BABFFF708FECFE7237C2A
S2140085C023BB2246164904F1080001F087F8616AC9
S2140085D0204627F0F4FC616A421C204627F0BDFCCA
S2140085E0054620B9236B626C1344143B2363204674
S2140085F0A16A27F050FD2368A062C01A636CB0FB26
S214008600F3F06062204627F089FDB6E70023204697
S214008610044AFFF7DBFDDAE7798D0000F58C0000F1
S2140086201D020300B901030073B50D46D11E4A4270
S2140086301C461B7E4A419A4226D1296823689942E5
S21400864022D3636899421FD8114E0DF107033246B4
S214008650FFF712FDC0B972686B689A4214D19DF894
S2140086600730DA1E53425341227E93420CD163698F
S21400867001336361D4E90323934205D22968A268D3
S21400868042F8231001332361012002B070BD00BF01
S214008690883B00202DE9F04F9B4689B09DF8483076
S2140086A09046514A0193136907465B450D46C0F054
S2140086B09580D94653680093B9F1000F7BD0FB6BC9
S2140086C001225B6905A90098984705A827F0D2FF04
S2140086D0454B1B68984240F0848005A827F0D6FFDB
S2140086E00428064615D105A827F0D7FF009B0446A8
S2140086F01E44019B002B3ED1804512D91C46A8EB98
S21400870000083846009927F0C6FCA9EB040900903B
S214008710D2E7FB6B02225B69009806A9984706A879
S214008720E2E7A0EB08045C4528BF5C46032C464401
S214008730ABEB040B1DD9FB6B294630465B69A208E0
S214008740984724F0030304F0030A1E441D44DDF892
S2140087500480BAF1000FD4D0FB6B012206A9304684
S2140087605B6998475246284606A912F0E7FC55442E
S214008770C7E7A246EBE7824600F0030302932B18F6
S21400878003930644039BA6EB0A00A3EB0A05029B91
S2140087909A4514D1BAF1000FB3D0FB6B012206A99B
S2140087A05B6998475246284606A912F083FE0028C1
S2140087B0DDD04FF03609484609B0BDE8F08FFB6BB8
S2140087C0012206A95B6998470422284606A912F0EA
S2140087D071FE0028EDD1AAF1040AD3E74FF0630931
S2140087E0E9E74FF06F09E6E7B43B00202DE9F041DA
S2140087F00F4616469846044688B060B390F8345044
S214008800FDB1012127F07FFB00210E9BCDE905116C
S214008810CDE902379DF83C30CDF804808DF81C3049
S214008820237C04968BB90D4901AA04F1080000F0D8
S21400883055FFDDE90553E06B002E08BF1D4627F007
S214008840FBFC284608B0BDE8F0812046044A01AB90
S214008850FFF7BCFCEDE70546F3E700BFE7010300C2
S214008860298600007FB590F84260044601920DF11B
S2140088700B030A463046114927F0E6FC012E054652
S214008880E36B17D132465B6903A998479DF80B1036
S214008890039B019A59B19BB243EA02430122284640
S2140088A00393E36B03A99B69984704B070BD62F31A
S2140088B00F03F3E701229B6901A9F5E7B43B00200B
S2140088C02DE9F04F99B00E460D920A69416C0B9354
S2140088D01439D31DB3FBF1F3013302EBC302036B70
S2140088E004469342C0F001820023DFF80494089304
S2140088F0E36A48461946059300F074FFD6E9033745
S21400890007930B9B022B4DD1CC2F40F0D7810D9BAC
S2140089103BB13146204627F0EDFC656C14900120F3
S21400892044E00120079B656C1B68149300F001006F
S21400893000280CBF04230823782F0E9349D8059AE5
S2140089406B1E1340ED1A3B1D9D423CD2002F3DD0BE
S214008950082D3ED80023042506934FF0040A3368FA
S21400896006990B98C9F80030C9F8107027F0A8FED1
S2140089704FEA9A030F93059B89F81400039300238C
S21400898009930C9304930A93616C039B4A1E1A4046
S2140089908B1A27B35544AB4223D8236B5B1A134478
S2140089A023632FE1782F656CB9D8F07D0D9B002BE3
S2140089B0BCD0E36B01225B69706816A9984716A8BD
S2140089C027F05CFEB4E700250695C6E70425069763
S2140089D0C3E7012300254FF0080A0693BFE7534577
S2140089E0DBD3A3EB0A029742039BB84628BF904608
S2140089F09742534428D90122D9F8101089F8172035
S214008A008F4226D10399C9F80410049299F81720CA
S214008A100AB399F818100398CA1C09EBC2025060F2
S214008A2004980131A2F80880907289F81810B8F1FD
S214008A30000F07D00B9A022A40F08180099A72B183
S214008A40012209929B46ABE0049A002A18BF032233
S214008A50DBE70222D9E7039AC9F80420E7E70C9A75
S214008A604244032AEED9E26B1846956914A90122FE
S214008A700993A847099B05460028E1D03D2D40F004
S214008A801E8104F1080303932368059A606CA2EB29
S214008A90030ABAFBF0FA00FB0A3027F0A9FEE16AE7
S214008AA08046204627F0F7FAA26A824200F00F813D
S214008AB0626CD9F80830511E0B40216B2768891A62
S214008AC00B442363089BE062DF1BB7FBF2F7BA4553
S214008AD040F0FA80059BB3EB080A12D0E36B4FEA2E
S214008AE09A0241469B6998478346E36A059A53442F
S214008AF0E362236B03989B1A4344236327F0D0FC5E
S214008B00DA462368616CE06B01FB073127F0E5FD70
S214008B10204627F003FA204627F000FB2063BAF130
S214008B20000F00F0D4803269616CD31D1439B3FB9A
S214008B30F1F3013302EBC3029042A5D2BFE00D9AD7
S214008B40002A77D1B8F1030F4FEA98026ED9E16B8D
S214008B5018468D6907991093A847109B0546C0B91B
S214008B6018F0030515D0079A28F0030B02EB0B014B
S214008B709B444FF0FF3215A815922A46109312F028
S214008B80DDFAE26B5846956915A90122A847054605
S214008B90109B9B46079A42440792002D40F08B801C
S214008BA0049B16A80193069B009399F8142043464D
S214008BB0316800F0CDFDE36B0F9A9B69039816A908
S214008BC09847039A051E089B18BF1346089343460A
S214008BD052462046039927F08BFA236B08F10302CE
S214008BE0A3EB0A0322F003029B1AC9F808002363CA
S214008BF0002D7FF443AF0C9BA7EB080743440C9370
S214008C00CDF80CB02046039927F045FA00250390CE
S214008C10002F7FF4B9AE364A3168936804F1080035
S214008C20E36252680B9B00F00BFD49E09B4645460D
S214008C3007999EE79B4606F120021092F27D706827
S214008C40A2B1002296F818C00A99D5B2AC4511D93F
S214008C50109D02F1010E35F832508D4228D90E983B
S214008C6006EBC2020144D069084403E00E9A0A9952
S214008C700A441044E26B15A9556901221193A847CE
S214008C80159A0A9B1392E26B0433956958460122A3
S214008C9013A90A93A847119B054603EB0802A2EB0B
S214008CA00B02042A7FF679AF28B90BF1040BC5E74F
S214008CB07246491BC9E7CDF820B088E770252F46D5
S214008CC0384619B0BDE8F08F4FF0000A19E7326950
S214008CD0616CD31D1439B3FBF1F3013302EBC3020D
S214008CE0236B9342BFF404AEE9E71C27E8E700BF16
S214008CF05C3B0020032A2DE9F34106460D46174645
S214008D001C4606D1237A012B23D0012002B0BDE8F1
S214008D10F081DFF86080096842460DF10703FFF72F
S214008D20ABF960600028EDD19DF80720237A032A6E
S214008D30E8D0D8F804106A689142E3D1012B29697B
S214008D40D4F80CC007D172690CEB0103934202D928
S214008D502074207CDAE708316144E1603B4601225A
S214008D6029463046FFF7ACFD60600028CAD00020D8
S214008D70CCE700BF883B00202DE9F341089C032A7E
S214008D801746266806D1237A012B24D0012002B08C
S214008D90BDE8F081DFF89080304642460DF10703CB
S214008DA0FFF76AF960600028EDD12568D8F804005E
S214008DB0A96AD5F844C04840CCF100031840227A8E
S214008DC0E1D1012A09D1E268D8F81030134472695B
S214008DD0934202D92074207CD9E72868EB6A1B1AD4
S214008DE0081AB3FBFCF3B0FBFCF083420BD1706CAB
S214008DF0F36A421E1340326B121A1344284633633A
S214008E0027F049F9E862D8F81020E36808321344DE
S214008E10E36001223B4604492068FFF751FD60608D
S214008E200028B0D00020B2E7883B00202DE9F041B2
S214008E300025604B0E46D3F8008004461D6018B926
S214008E4021252846BDE8F08190F8347007B30A68FB
S214008E5003689A4240F0A3804A6843689A4240F00A
S214008E609E808A6883689A4240F09980CA68C36880
S214008E709A4240F094800A6943699A4240F08F8093
S214008E808A69C36B9A4240F08A804B698361D8E74F
S214008E9068223946856B11F0C1FFD6E902123368A5
S214008EA004F1080023607368A56363603369636137
S214008EB07369A36127F006FBB36904F14000E3631E
S214008EC09B68984720B9676C17B16368B3FBF7F7E0
S214008ED094F84330E761002BB2D00023656C23661C
S214008EE0002D64D0002F62D02368B3FBF5F205FB9B
S214008EF01233002B55D16668B6FBF5F305FB1363FA
S214008F00002B4ED1204626F0D5FFA3690433034438
S214008F109E4248D340F634726369CC3B934244D8B1
S214008F20B5F5805F43D30321204626F0ECFFD4E955
S214008F300001E36B1B6898470546E36B0220DB687D
S214008F409847CDB941462046FFF77AF9642805468A
S214008F5004D141462046FFF773F90546666C5DB9B5
S214008F60236A2046143E5E4326F0A4FFA36904331A
S214008F7003449E4238BF5A25002D0CBF0123002310
S214008F8084F8343007D1D4E900010B4A1368013362
S214008F90136027F031FBE06B27F04EF951E75D25B3
S214008FA04FE759254DE75A254BE75F2549E75B25EF
S214008FB047E700BFEC340020E83400202DE9FF41ED
S214008FC00C4616461F46054680B390F834307BB3F1
S214008FD0B1F5801F2ED2DFF86080012126F093FFC6
S214008FE02146424628460DF10F03FFF745F8044692
S214008FF070B99DF80F30012B11D1D8F81030BB4254
S21400900012D10246009031462846FFF743FB04463D
S214009010E86B27F011F9204604B0BDE8F081022B7A
S21400902014BF2D246024F3E76324F1E72124F2E73C
S2140090301124F0E72924EEE7B43B00202DE9F043A5
S21400904085B00C4617461E460546DDF8308098B3B8
S21400905090F8343093B3B1F5801F31D2DFF86490C6
S214009060012126F050FF21464A4628460DF10F03FF
S214009070FFF702F8044688B99DF80F30012B14D18B
S214009080D9F8102006EB08039A4213D30090434603
S214009090324639462846FFF7FDFA0446E86B27F0C5
S2140090A0CBF8204605B0BDE8F083022B14BF2D2474
S2140090B06024F3E76324F1E72124F2E71124F0E7C4
S2140090C02924EEE7B43B002073B50C461646054649
S2140090D030B390F834302BB3B1F5801F24D2012181
S2140090E026F011FF21462846104A0DF10703FEF729
S2140090F0C3FF044680B99DF80730032B0CD0022B23
S2140091000CD12846094927F0F5F83060E86B27F0BF
S21400911093F8204602B070BD2D24F7E76124F5E7EA
S2140091202124F6E71124F4E72924F2E7B43B0020D3
S2140091302DE9F3411E4600230C46174605463360CC
S21400914050B390F834304BB3B1F5801F28D2DFF817
S2140091505480012126F0D7FE2146424628460DF1CE
S2140091600703FEF789FF0446A0B99DF80730032BD6
S21400917010D0022B03BF01233B600423D8F8103025
S21400918018BF38603360E86B27F056F8204602B008
S214009190BDE8F0812D24F6E72124F7E71124F5E752
S2140091A02924F3E7B43B002073B50446056B26F08C
S2140091B081FE636E03449D422CBF0023012385423B
S2140091C094BF00252D1A207C84F85030656584F8FD
S2140091D05800A8B100230C4E1A46194620460096A1
S2140091E027F04CF9002305461A46194620460096F5
S2140091F027F04DF9E3682844984294BF0020C01A2F
S214009200E06502B070BD00BFFFFF0F002DE9F34719
S2140092101E4643690446B342884617469DF8289082
S2140092204ED300258DF80750204626F043FED4F88E
S21400923030A082450AD2236AB5EB430F06D200223D
S21400924020460DF10701FFF745F9B8B39DF8073042
S214009250012B05D1002220460DF10701FFF73AF950
S214009260B9F1030F06D03146204626F013FE256BD3
S214009270854227D3144D4FF0FF31284600F0B2FA4E
S2140092804B46294600222046C5E90376C5F80080ED
S214009290FFF716FB236E054663B12046FFF784FFF3
S2140092A094F8503013B994F858301BB1236E04F17B
S2140092B050009847284602B0BDE8F0870135B3E76E
S2140092C06225F7E71C25F5E7883B00202DE9FF41DE
S2140092D00F4690461E46054698B390F8343093B332
S2140092E0B1F5801F31D21A4C022126F00CFE224620
S2140092F0394628460DF10F03FEF7BEFE024678B14A
S214009300012342460093394633462846FFF77EFF40
S2140093100446E86B26F090FF204604B0BDE8F081D6
S2140093209DF80F30012BEBD12169B142E8D10093B3
S214009330414633462846FFF7ADF904460028DFD1FC
S214009340E7E72124E8E71124E6E72924E4E700BF5D
S214009350B43B00202DE9F04790F8423086B0012B50
S21400936005460391A1EB020740F0AA80FF2F03D821
S2140093701E464FF0640807E00226012B14BF4FF08C
S21400938032084FF06408013600244FF6FF79DFF804
S21400939044A195F84230012B14BF322364239C422B
S2140093A002D35FFA88F40DE005AB22465146284604
S2140093B026F07EFF95F84230012B059B34D14B45B5
S2140093C02DD1E4B295F84230012B14BF322264222C
S2140093D0121BB24217D3012E39D10022012B05975A
S2140093E08DF8132027D1082205A90DF1130027F0C8
S2140093F01BFA9DF81330059A42EA032221462846B6
S214009400FFF730FA40B10223324900932846CC23B6
S214009410096803AAFFF7FAFE06B0BDE8F087DBB2DC
S21400942003B902340134B4E7591CCAD09BB2002BEE
S214009430F8D10134F6E7102205A90DF1130027F044
S214009440F3F99DF81330059A42EA0342D6E7039AE9
S214009450012B059223D10823202205A90DF1130024
S2140094608DF8133027F0E0F99DF8132012022146FC
S2140094702846FFF7F7F995F84230611C012BC9B270
S2140094801AD10028BFD12846BDF81420FFF7EAF904
S2140094900028B8D10234BDF81620E1B2AFE7102399
S2140094A0202205A90DF113008DF8133027F0BCF922
S2140094B09DF813201204DAE70028A4D1059A9EE747
S2140094C0B7F5803F4FF00106BFF457AF4FF03208B4
S2140094D05AE700BFB43B002070B586B00E4605467E
S2140094E00392A0B390F834309BB3B1F5801F32D20C
S2140094F0022126F008FD31462846184A0DF11703CA
S214009500FEF7BAFD044618B99DF81730032B0ED1A6
S2140095100223314600932846CC2303AAFFF776FEA3
S2140095200446E86B26F088FE204606B070BD022B87
S2140095300BD10A49284626F0DDFE039902468142F1
S214009540EFD02846FFF706FFEAE76124E9E7212483
S214009550EAE71124E8E72924E6E700BFB43B002049
S214009560F7B50C461646054668B390F8343063B334
S214009570B1F5801F2BD2022126F0C5FC21462846D5
S214009580144A0DF10703FEF777FDC0B99DF80730C2
S214009590032B14D0022B14D10E49284626F0AAFE1F
S2140095A0471C024639462846FFF7D4FE044606B155
S2140095B03760E86B26F040FE204603B0F0BD2D2451
S2140095C0F7E76124F5E72124F6E71124F4E72924D8
S2140095D0F2E700BFB43B002030B50C46054685B028
S2140095E028B390F8343023B3B1F5801F23D202217C
S2140095F026F089FC0DF10F03214628460F4AFEF798
S2140096003BFD034688B99DF80F20032A0DD00322A0
S2140096102146009202462846FFF7F8FD0446E86B0E
S21400962026F00AFE204605B030BD2D24F7E721249B
S214009630F8E71124F6E72924F4E700BFB43B00203E
S2140096402DE9F043466886B3056898464FF0000C4F
S214009650A946AE4655F83C400CF1010CC4F313077E
S214009660013401D0B94217D0B4450EF1080EF1D13D
S2140096702F46002403E0B44207F1080712D055F83D
S214009680343001340133F6D1C1F3130141EA0851F5
S214009690C7E90012BDE8F08341EA0851CEE900129E
S2140096A0BDE8F083B8F1030F03D101230372BDE8D0
S2140096B0F083002303E0B34209F10809F5D055F81A
S2140096C033400133C4F30754032CF4D1C1F313031E
S2140096D043EA0853C9E90032BDE8F0832DE9F041BA
S2140096E00646406882B0B8B10F46904600243368FC
S2140096F053F8345003EBC403C5F30752C5F3130104
S214009700013506D05B683046CDF80080B84718B102
S214009710706801348442EAD302B0BDE8F08100BF2D
S214009720024B1968024B1868FFF780BBEC640020F8
S2140097300C65002008B530F0E0F9014B186008BD54
S214009740E03B0020014B186830F0D2B9E03B002027
S21400975073B504462248012A00EAC1119DF8185044
S21400976023F07C4007D9961E012E28D9073303F034
S2140097707F03194308E09DF81C300A43DB0603F01C
S214009780C053134343F060410023C4E900108DF832
S2140097900730B5B1202221460DF1070027F044F826
S2140097A01A220DF10700211D27F03EF808206368F5
S2140097B09DF8072043EA8263636002B070BD1143E0
S2140097C0E2E71B220DF10700214627F02DF823685B
S2140097D09DF80720042043EAC2632360EDE700BF3C
S2140097E080FFFF0738B5094B0D461A68002104466E
S2140097F011F014FB00234FF0FF322383C4E9002549
S2140098002361A260E382A37638BD00BF7C400400DB
S2140098100138C0B205289ABF014B185C012070477A
S214009820814004002DE9F0410746154600240E4607
S214009830596888B0490A012922464FEA510104F1C5
S2140098400104F8D8DC78997824031B88C90201F44F
S214009850006104F480540C43C3F30A035203234408
S21400986092B24FF000089C18274B6FEA044403930B
S21400987025F07843ED4302A90DF107001B22029361
S2140098808DF8078026F0D0FF9DF80720029B02A9DE
S21400989043EAC2630DF107001B2225F078450493C6
S2140098A002958DF8078026F0BFFF9DF80720029BE3
S2140098B06FEA144443EAC26305934FF0FF330794FC
