S01B00006275696C642F72656C656173652F7A69676265652E73333714
S21400600008100020258E000035D1000085550300BD
S214006010855503003DD1000045D10000855503009D
S21400602085550300855503008555030085550300F7
S21400603049D10000B8960400855503008555030035
S214006040855503008555030085550300F588000037
S21400605085550300855503008555030085550300C7
S21400606085550300855503008555030085550300B7
S214006070B5D60000855503008555030085550300F9
S2140060808555030085550300855503008555030097
S2140060908555030085550300855503008555030087
S2140060A085550300F1910000D1910000855503004D
S2140060B0855503008D15020085550300F11F02006B
S2140060C07FAD03007BAD0300CD17020095AD030046
S2140060D083AD0300C11F020087AD0300312002001C
S2140060E09D260200990302009D20020085550300AC
S2140060F08555030085550300855503008555030027
S2140061008555030085550300855503008555030016
S2140061108555030085550300855503008555030006
S21400612085550300855503008555030085550300F6
S21400613085550300855503008555030085550300E6
S21400614082B030BF074BD3F8F030DB0704D500230E
S2140061500193019B052B01DD02B07047019B0133C3
S214006160F6E700BF00ED00E0F0B5114A114C124E04
S21400617000F00105E3695F0713D40DB9334213D16C
S21400618003EA00078F4207D10B4A1A40002A14BFC1
S2140061906FF001000020F0BD013AEBD16FF0020075
S2140061A0F9E74FF0FF30F6E76FF00100F3E700BFC6
S2140061B08096980000000350020001000B4B70B55B
S2140061C0D96911F480310DD101244FF48072084E44
S2140061D0084DF46020462C641A61FFF7C5FF34644E
S2140061E0EC6070BD6FF00100FBE700BF00000350DD
S2140061F000100350002003504FF4003238B50F4B08
S2140062000F4C9A6641F671330122E569E3630D4B44
S2140062100021DA60022360612120236105F48035C5
S214006220FFF7A2FF10B92120FFF79EFF0122064BC1
S214006230DA600DB10023E36338BD00BF0090005064
S21400624000000350001003500020035070B5134C9C
S2140062506061E3695B071ED40E4656F8043B8D1852
S214006260A361AE420BD10423002121202361FFF756
S2140062707BFF58B9BDE870402120FFF775BF0821A5
S2140062800846FFF771FF10B10423236170BD56F86E
S214006290043BA361E5E74FF0FF30F7E7000003504B
S2140062A02DE9F84315464FF40032184B89469A6696
S2140062B041F6713203F51C33DF69DA6301220646C4
S2140062C003F58053DFF84C8007F48037DA6055B961
S2140062D0284601220E4BDA601FB10022A3F50053B8
S2140062E0DA63BDE8F88306F5005404EA0804A41B44
S2140062F0AC4228BF2C46494622463046FFF7A6FF4A
S2140063000028E6D12644A1442D1BE0E7009000506B
S20C0063100020035000E0FFFF2F
S2140063182DE9F04F4FF0FD0BC9B09A460DF11B0959
S2140063289DF8503108AFCDF80C90CDF808B001971D
S214006338059303890446009383790E469046418860
S2140063488288407810F062FE054650B10090A38817
S214006358002062883A4911F09DF9284649B0BDE800
S214006368F08F99F8000031F0DEFF38B12846A38890
S2140063786288344911F08EF98D25EEE75A4639467B
S21400638899F8000031F077FF8346002851D0529BD9
S2140063981BB1BDF84C3198424BD8002399F80090B1
S2140063A80793A9F14102012A5FFA8BF123D83846F0
S2140063B80139254ADFF898C05FFA81FE734513DB7A
S2140063C8059B04210792C3B907AF18221F489FED03
S2140063D81A7B02FB060420460A460830394684ED36
S2140063E8027B15F0D9FF11E010F8011F0133514068
S2140063F80CFB01F2E2E7059B33B123464A463846D2
S21400640800960EF02BFDA8E70829DED9B8F1000F94
S21400641801D088F80090BAF1000F01D0AAF800B0B1
S214006428529B002B99D05A46184608A915F0B4FF77
S21400643893E7012591E700BF000000000000000078
S21400644874400400A9400400C59D1C8180100020EB
S21400645893010001000000002DE9F04F93B0CDE94C
S2140064680A32DDE91C530E9353EC102BCDE90801D4
S214006478104619468DED060B1E9E15F017FA80B1CC
S214006488DDE906014FF0FF32C54B15F037FA40B983
S214006498DDE906014FF0FF326FF4801315F010FAAD
S2140064A870B1DDE908019DED060B0E9B1E96CDE941
S2140064B81C53DDE90A3213B0BDE8F04F00F088B986
S2140064C80022DDE90601002315F0FAF9002800F09D
S2140064D83381DDE906A303F1004BCBF30A5016F42B
S2140064E88063A0F2FF3008BF06250F9314F00CFF58
S2140064F89BA3D3E9002314F071FF9BA3D3E90023E1
S21400650814F0B6FDCBF31304894644F07F51804659
S2140065180022A44B504641F4401114F0A7FD94A362
S214006528D3E9002314F05AFF02460B464046494674
S21400653814F09EFD15F0ECF9044614F0E5FE8EA363
S214006548D3E900238046894614F048FF0022964B7C
S21400655814F08EFD15F0DCF989A3D3E9002307466D
S2140065684946404614F03AFF80463846894614F0B5
S214006578CBFE85A3D3E9002314F030FF02460B4672
S2140065884046494614F072FD02460B46CDE90C23F8
S21400659814F024FFDDE90C23804689461046194688
S2140065A814F066FD0022CDE91001804B40464946AE
S2140065B815F03EF800227E4B14F05AFD02460B46B4
S2140065C84046494615F034F800227A4B14F050FD40
S2140065D802460B464046494615F02AF8DDE90C23E4
S2140065E88046894600204FF0804114F03FFD024661
S2140065F80B464046494614F03BFD02460B46DDE98D
S214006608100115F015F807F2FF3700226A4B14F050
S2140066182FFD00223B0514F0E1FE52465B468046FD
S214006628894615F06BF9002840F08980CDE90C8979
S21400663804F16303C62B8CBF0527042731051BD539
S21400664853A3D3E900235046594615F04DF90028C0
S2140066587FD051A3D3E900235046594615F030F9A8
S214006668002876D00027A542C6BF2C1B04F1FF35AC
S21400667800253C4646F480660E9B9F422CBF4FF092
S2140066880008A3EB070816F0020903D0002F18BF6E
S2140066984FF000083CB1DDE90C235046594614F08B
S2140066A8C7FF82468B46DDE906010022002315F067
S2140066B807F910B10BF100439B46DDE9080126F403
S2140066C80063CDE90183DDE90A324BEC10AB009597
S2140066D800F07EF802465FB3DDE9091316F0200FD6
S2140066E800F10105089E0CBF65204520B047DDE98E
S2140066F808010523002205930A23002CCDE902325F
S21400670807F1FF374FEAD473B8BF64422A460193AD
S21400671804970A9B009433F076FD0246B9F1000F01
S21400672806D00B9BC41A0B9B1A190E9BA34245D87E
S214006738104613B0BDE8F08FDDE906ABCDE60022C3
S214006748404649461A4B14F073FF013CCDE90C014C
S2140067586EE7002D90D00F9B002B8DD0013D8BE768
S214006768FB799F501344D33FB3C8608B288AC63F33
S21400677861436F63A787D23F71A379094F930A4095
S2140067881655B5BBB16B0240EF39FAFE422EE63F0E
S2140067982D431CEBE2361A3F0000000080842E4191
S2140067A8FFFFEF7F0000F83F0000E03F00002C40AE
S2140067B800002440000018400000F03F2020DDE9DB
S2140067C80913089DA8470134ADE700BF0000000084
S2140067D82DE9F04F5BEC10AB97B0CDE90501DDE98C
S2140067E82058CDE90723504652465B465946229F15
S2140067F815F05CF870B90323CDE902870193AA4B1C
S2140068080093DDE90501DDE9072333F02EFC17B018
S214006818BDE8F08F4FF0FF326FF4801350465946AC
S21400682815F04EF828B10423CDE9028701939F4B53
S214006838E6E74FF0FF32504659469D4B15F05EF896
S21400684868B19C4A07F00403002B08BF03229A4B42
S2140068581CBF13460422CDE902870192D0E75046B2
S2140068688DA3D3E90023594615F048F838B98CA308
S214006878D3E900235046594615F022F868B1DDE9F9
S2140068880723DDE905014BEC10ABCDE92187209500
S21400689817B0BDE8F04FFFF7DFBD002200235046D3
S2140068A8594615F00DF8002800F091805B465246D0
S2140068B80020002114F0DAFB012382468B46099358
S2140068C817F4806400F08580092D40F28580002446
S2140068D830210EABA5F109020134202C03F8011B68
S2140068E8A5EB040901D09442F6D15946504615F056
S2140068F80FF8724B054603EBC90393ED007B8DED4D
S2140069080A7B14F001FD02460B465046594614F021
S214006918ADFBDDE90A2314F061FD02460B46CDE91E
S2140069280C2315F01DF8064614F0DEFC02460B464E
S214006938DDE90C0114F09AFB02460B46CDE90C2360
S21400694800225F4B14F0DAFF002848D001363046A4
S21400695814F0CAFC02460B46DDE90A0114F0BAFF39
S21400696808B100260135B9F1000F45D1284614F0C4
S214006978CBFC02460B465046594614F077FB0022DD
S2140069884F4B14F09DFF10B9E90700D501350A21D1
S2140069980EAB1A19202C0AD095FBF1F001FB105506
S2140069A8303502F8015B013405460028F2D107F0BD
S2140069B80302012A55D1B8F1000F52D0099A12B92C
S2140069C817F00C0F01D008F1FF38302240E009908C
S2140069D876E74FF0060988E7A946002485E70022EF
S2140069E8DDE90C01364B14F06BFF0028BBD10EB165
S2140069F8F007B8D50136B6E70A210EAB1A19202CCF
S214006A080DD0B6FBF1F001FB1063092E03F130033D
S214006A1809F1FF3904F1010402F8013B11D83021CD
S214006A28A1440EAA202CB2D04C4504F101030AD189
S214006A3804F158020DEB02042E2204F8202C1C4602
S214006A48A5E70646DBE7A1541C46EBE71A550134D2
S214006A58444506D2202CF9D1CDE9028701940EAB25
S214006A68CEE6202CF8D0099B3BB12D2204F1580322
S214006A786B4403F8202C0134EEE77A0704D504F1BA
S214006A8858032B226B44F4E73B07E5D504F158037B
S214006A9820226B44EDE700BF0000000065CDCD4125
S214006AA80000000065CDCDC1635E0400675E04008B
S214006AB8FFFFEF7F5A5E04005F5E0400B0A5040087
S214006AC80000E03F0000000070B58EB02C220021C8
S214006AD803A815F0D1FA64234FF002320893CDE9E3
S214006AE805230B2301218DF834305B4B8DF81010ED
S214006AF81D880D4040F0A980084637F057FE0A2248
S214006B08564B574C1A704FF42873ADF812304FF0A6
S214006B18FF332360534B54491B8820460B82534B44
S214006B28534A1B68CD828B61524B0D621B884B8281
S214006B38514B1B68CB611BF079FB20B14FF41B71DE
S214006B484E4838F003FF0521206834F0BAF920B122
S214006B5840F27D21494838F0F9FE206814F042FAE0
S214006B68474B2068196833F026FD0C2538F086FA5E
S214006B786843099038F082FA68430DEB05010790E0
S214006B88206815F015FF20B140F295213B4838F0F3
S214006B98DDFE25681EF0E6F800220146284633F09A
S214006BA882FD20B140F29721344838F0CFFE40F2FB
S214006BB80353344D344E2B80052396F90000AB70F2
S214006BC87F2801D11BF01AFE3378EB7038F056FA9E
S214006BD800EB80008000A88038F050FA0023C00040
S214006BE84FF0FF31E880AB604FF0FF3018A3D3E9D1
S214006BF8002337F02DFF2549206833F00DFD206867
S214006C0802A934F005FA20B14FF434711B4838F065
S214006C189DFE042220680DEB020133F0A1FC042837
S214006C2804D040F2D721154838F090FE01A901207B
S214006C3833F06CF806F0BEFA01201CF071FA2FF05B
S214006C4805FA1CF097FA1BF071FD0EB070BD00BF78
S214006C580A0020FF420300009A540020EC5B002044
S214006C68CC4C0020D4BE040008630020DCBE040020
S214006C78DDE70300D2BE0400D8BE040092950400E7
S214006C8850600020C04C00201766002051E8030022
S214006C980348044B834202D0034B03B1184770479E
S214006CA84C6600204C66002000000000064B074992
S214006CB8C91A891048BF0131491003D0044B0BB1DB
S214006CC801481847704700BF4C6600204C660020F5
S214006CD80000000010B5064C237843B9FFF7D8FF2C
S214006CE8044B13B10448AFF300800123237010BD92
S214006CF8701600200000000014FA040008B5044BC3
S214006D081BB104490448AFF30080BDE80840CDE74E
S214006D18000000007416002014FA0400A3F5803A58
S214006D28704700BF154B002B08BF114B9D46FFF759
S214006D38F5FF00218B460F461148124A121A15F025
S214006D489BF90C4B002B00D098470B4B002B00D020
S214006D5898470020002104000D000B4815F0D2FCCF
S214006D6815F062F9200029002EF09FFA15F0B8FCFD
S214006D7800000800000000000000000008100020C6
S214006D8808100020505C002075C7010038B500F0D8
S214006D9813FF012805D000F00FFF022801D000F0ED
S214006DA823FF064D2B783BB900F006FF0128044662
S214006DB802D12EF071FA2C7038BD00BF865500201F
S214006DC870B50C46088800F0FBFC94F8443005467D
S214006DD8834214D004F11C0630462EF0F9F984F8E4
S214006DE844502EF0F9F93221A06430462EF0EBF923
S214006DF894F844100248BDE8704014F01FB870BDFF
S214006E08B0FD030010B50446008800F0D9FCA3784E
S214006E1884F84400834202BF0123E3702371074BC2
S214006E2804F11C00C4E9073400F0A4FD22462088BB
S214006E380349BDE8104000F0DBBC00BFAB4F0300C1
S214006E48C96D000070B5C37804460D461646002B7B
S214006E5832D1C1B11F4813F0F1FFE36CA6600BB145
S214006E68E06D9847E368F61A63699E4221D2217E50
S214006E7819480131C9B2217613F0E0FFA36D13B1AA
S214006E88217EE06D9847E5702EF0A6F90DB32379BC
S214006E98FBB9A268238A801A83421AD201230F48B4
S214006EA8237113F0CBFF236D9BB1E06DBDE87040F6
S214006EB8184701232376E6E70029E4D1084813F0AB
S214006EC8BDFF636DE6602571002BDCD0E06D98474A
S214006ED8D9E770BDCDFD0300DEFD03000CFE030000
S214006EE8F9FD0300F8B51E46838804460D46174686
S214006EF80BB18680F8BD817800882EF073F80123E0
S214006F08E370084BE5802781A680C4E903340C3477
S214006F18204600F02FFD29462046BDE8F8402EF012
S214006F2852B900BFF74F0300816810B5B1FA81F176
S214006F380446490900882EF0CCF8A168A088B1FA62
S214006F4881F149092EF0C5F8034B1A68A24204BF1E
S214006F5800221A6010BD00BF8C160020C36870B5EA
S214006F680446A3B100880E4E04F11005336813B129
S214006F780C4B1B786BB1217A2EF0ABF864210A4BC8
S214006F88346023612846BDE870402EF01CB980881E
S214006F98E9E7064813F052FF054B32212361F1E773
S214006FA88C16002087550020316F000022FE030053
S214006FB8656F000010B50446E0B10F4813F03EFFB9
S214006FC80123E360636853B9217A20882EF081F89C
S214006FD8A36B7BB1E06B0121BDE810401847204643
S214006FE8FFF7A2FF04F110002EF0F2F82046FFF794
S214006FF8B5FFEDE710BD00BF58FE030010B5044608
S214007008F8B1104813F01AFF0023E36063686BB901
S214007018A1682088B1FA81F149092EF05AF8A36BC5
S2140070287BB1E06B0021BDE8104018472046FFF70B
S2140070387BFF04F110002EF0CBF82046FFF78EFFFA
S214007048EDE710BD63FE030010B5044668B10748B7
S21400705813F0F4FEE36820461BB1BDE81040FFF7C6
S214007068CDBFBDE81040FFF7A5BF10BD6FFE0300FB
S21400707810B50E4C0E48214613F0E0FE82210D484E
S21400708813F0DCFE82210220A21E00F02DFC014631
S21400709830B134F8022C0848BDE8104013F0CEBED4
S2140070A80648BDE8104013F0C9BE00BF1E4E0020BB
S2140070B87EFE030099FE0300A4FE0300E8FE03001C
S2140070C838B5114C82212246022000F0FDFBA51C93
S2140070D8014688B122880D4813F0B0FE2A460C4BAC
S2140070E803F12C0153F8040B8B4242F8040BF9D138
S2140070F81B7813702C23238035F8021C054A064893
S214007108BDE8384013F09ABE1C4E0020F3FE03007C
S21400711873FF03001E4E002051FF030010B50446FF
S2140071280146084813F08AFE012C074805D12DF0C1
S214007138B6FFBDE8104000F005BFBDE810402DF0D2
S214007148B0BF00BFA0FF0300B45F002070B50024E6
S214007158184D194E3378A34217DC0024174D184EE5
S2140071683378A34217DC0024164D174E3378A34213
S21400717817DC00F021FD0128144818D12DF08FFFE8
S214007188BDE87040124800F029BD2846FFF73AFED1
S21400719801346035DEE728462DF067FF01343435C4
S2140071A8DEE728462DF09AFF01344035DEE72DF05D
S2140071B878FFE5E7641D00208B550020441F00205B
S2140071C88C550020241C00208A550020B45F00201F
S2140071D8257100002DE9F74FFFF772FFB24B01A8A3
S2140071E801932DF09FFF064614F042FEAF4CC2B244
S2140071F81F2A627004D9AE4813F020FE00F080FA09
S2140072083146A01C15F0C8F801A82DF08BFF0646DD
S21400721814F02EFEC2B21F2A84F8212001D9A548F0
S214007228EAE7314604F1220015F0B6F801A82DF079
S21400723879FF002604462378002B5ED1DFF8B0924B
S214007248DFF8888299F80010012900F0C081FFF75E
S2140072587DFF99F8002098F80010974813F0EEFD87
S21400726899F8003098F80060DFF854A21E44F6B289
S214007278012E38BF01265246002357464FF4827027
S2140072884FF6FF7101339E4213705080918002F1D1
S2140072980C02F7DC0025894C89498448BC6000F05C
S2140072A847FDF879BB6800EB400003EB800000F070
S2140072B855FBFB79DFF818B20133FB7198F80030FC
S2140072C8AB4200F390814FF0000A0C25DFF81CB2A1
S2140072D899F80010514500F399813146784800F036
S2140072E8ABFB019B70491A468B4240F0AD8175484E
S2140072F803B0BDE8F04F13F0A1BD532B0FD1637850
S2140073084C2B40F0F780A378502B40F0F3800122F6
S2140073186D4B1A7001A82DF005FF04468BE729D897
S214007328412BF7D9423B102BF4D801A252F823F090
S214007338A97300001D7300001D7300001D73000074
S2140073481D7300001D7300001D73000031740000DB
S2140073581D7300001D730000E57300008F730000A6
S2140073681D7300001D7300001D7300001D730000D0
S21400737877750000692BCDD1601C2DF0E0FE80B239
S2140073882DF013FFC6E7514B012019780023504A09
S214007398994202F1A402BDDD02F8A20C0133F7E718
S2140073A8601C00F079FA0746E01C2DF0E7FE012184
S2140073B80246384600F0BEF960224648464C037836
S2140073C85A43A118A75241F288320A824FF44872EB
S2140073D84A61424A01330A6503709BE7601C00F065
S2140073E85BFA00224FF0340881463D4F114600F004
S2140073F8A1F938783B4E08FB00F326F80390F218FC
S214007408E3781046693B18BF012393702DF02DFED4
S2140074183B78354A03FB0866002116600126516052
S214007428167433443B7075E7601C00F035FA00228A
S2140074381146814600F07EF93422294F294D3878C6
S21400744802FB00F325F80390E918E3780846693B41
S21400745818BF01238B702DF008FE244A002311461E
S214007468906BB0B901EB831134233A7802FB0353CF
S2140074788B635EB91C4A3346114652F8040B70B942
S2140074883422387800FB025241F823203B78013337
S214007498C8E70133042B02F14002E1D1E9E70133E2
S2140074A8042BEAD1F2E700BF1E4E0020D45E00206F
S2140074B8BFFF0300D6FF0300E6FF030008170020FF
S2140074C8901600201B0004008755002089550020D0
S2140074D8881900208B550020641D002017510300D2
S2140074E88C550020441F0020B45F00208818002018
S2140074F888550020601C00F0CFF98046E01C2DF06F
S2140075083DFE01210246404600F014F96023534F21
S214007518534C3A78534D5343E01824F803802B789D
S21400752841F28831002B18BF4FF4487101824FF49E
S21400753848714161A4205843DFF83CE10EEB000196
S2140075480EF800304FF400704880032008718871E8
S21400755802EB420004EB401432200133DBB2013266
S2140075684B718C6081F8A0003A702B70D2E6601CD4
S21400757800F092F9002281463B4D114600F0DAF8F9
S2140075882B783A4F9A0147F80290012207EB8313AB
S2140075989A60E3785BB1E01C00F07EF900220446AE
S2140075A8114600F0C7F82B7807EB83135C60304968
S2140075B8304A0B789C0102EB831013552A78013366
S2140075C807EB8217013247632A700B70A2E698F819
S2140075D80000294A984202F1A4027FF738AE02F862
S2140075E89F1C0133F6E73DB11AF8053C03EB43034D
S2140075F804EB8304CAF808405146584600F020FFBA
S21400760801350BF1A40B0AF10C0A57E698F800109E
S2140076185144481E05FB007005FB0171C07900EB5C
S214007628400004EB800458468C6000F01BFD98F878
S21400763800101248514405FB017100F069FC0AF17C
S214007648010A0BF1400B43E613F8011D00297FF4ED
S21400765849AE3B2102F8011C44E600BF8B550020CA
S214007668641D0020895500208A550020241C00200F
S214007678885500208818002088190020181C00202B
S21400768807B5022101200DF1060200F01DF938B9F0
S214007698044813F0D3FBBDF8060003B05DF804FBFE
S2140076A80020FAE73800040007B50221ADF8060006
S2140076B80DF10602012000F017F9014610B1034843
S2140076C813F0BCFB03B05DF804FB00BF59000400D0
S2140076D810B5FFF7D5FF04460146074813F0AEFB82
S2140076E80121064813F0AAFB24B9BDE81040012082
S2140076F8FFF7DABF10BD00BF890004009B00040036
S21400770808B5044813F09AFB00F0FEF82DF051FD7A
S2140077182DF04CFDB100040010B5044C237823B9B5
S214007728034838F0B0F80123237010BD8E550020AA
S214007738B498040073B506460D461446FFF7ECFFEA
S2140077480E4A330AD35C8DF805608DF804307DB197
S214007758012C04D0032C09D00022012101E0224686
S214007768022101A801F012FC02B070BD0022F7E762
S21400777804212A460DEB0100F4E700BF97960400A3
S21400778807B5064A030AD35C8DF8050001A88DF8EC
S214007798043001F02FFC03B05DF804FB9796040054
S2140077A807B5064A030AD35C8DF8050001A88DF8CC
S2140077B8043001F04BFC03B05DF804FB9796040018
S2140077C807B50A4A030AD35C8DF805008DF804301D
S2140077D800230DF1030101A88DF8033001F062FCC7
S2140077E89DF8030003B05DF804FB00BF97960400FD
S2140077F82DE9F043214C85B0064688469146FFF7AA
S2140078088BFF23781BB901F0A5FB012323701C4AC4
S214007818330AD35C30228DF80C300023194F8DF8CC
S2140078280D6002FB03F4395DE51901BB01233B55E6
S2140078384FF0FF3304F1100013493844AB606E80F4
S214007848C5F80480C5F80C9008F0F4FB04F10801AC
S214007858042239440D4B009503A801F051FCA96891
S21400786802460B4813F0EAFA05B0BDE8F083013388
S214007878102BD6D1074813F0E1FAF5E78D5500200E
S21400788897960400482000206551030077510300AE
S214007898BE000400EC00040080B10278A2F14103A7
S2140078A8032B0BD840783038C0B2082806D8054BCA
S2140078B8134413F8413C40EA032070474FF6FF7024
S2140078C8704700BF9796040008B50B4642B10146BC
S2140078D80448006802F05CFDBDE808402DF05FBC77
S2140078E8022008BD4860002008B50B4642B1014694
S2140078F80448006802F0D4FEBDE808402DF04FBCEE
S214007908022008BD48600020F0B50026124F8DB052
S214007918FF2300930A223346386802A92EF03FF95F
S214007928C0B102AB1D4603EB800404E055F8043BE7
S214007938B34228BF5E1CAC423868E9D9296803F010
S21400794835F80028F2D02D28F0D00DB0BDE8F0406C
S2140079582DF025BC0DB0F0BD4860002028B1034BC3
S2140079680360034B436000238360704719000003DD
S214007978C85F0020FF2307B50021044A009308309B
S21400798808F0DCFA03B05DF804FB00BFC951030039
S2140079980B460449024608680349097808B12DF0E1
S2140079A822BC70475023002090550020F8B50C469E
S2140079B818B122210E4837F0C9FF246823685E797B
S2140079C85F8830463946FFF7E3FF08B98120F8BDDF
S2140079D88568002DFAD0A368E27C3046F9B2A8473D
S2140079E804460028F2D131F00AFA2046EFE700BF35
S2140079F814010400F8B515460D4A044610680D4AE9
S214007A080B46117850B122462DF0EDFB034628B1FF
S214007A1800210C27C678B14201DB0020F8BD07FB21
S214007A2801F45A681019125BAA42F7D00131F2E73E
S214007A3850230020905500202DE9F74F04460D46A8
S214007A480026454B454F1860454B197033010021F9
S214007A58F85C01360FF0C8F80C2EF7D10C2D28BFAD
S214007A680C254FF0000901953C4EDFF800A13D4D6E
S214007A78DFF8FC80019B4B4502DC03B0BDE8F08FC5
S214007A8823784FF0000B337063887380A388B38025
S214007A98A379C6F80880B371E379C8F8005088F867
S214007AA804304FF00003A768A8F80630E3795B4572
S214007AB80ADC012116F8100B0FF096F808F10808F2
S214007AC809F101090C34D5E74FF0000338886B81BB
S214007AD82880FB784FF0000C2B81BA78C5F804A0F4
S214007AE8002A00920CBF802240222A7379680AF185
S214007AF80C02634513DC03EB43030AEB830ABB68FB
S214007B0843B1009A4FF6FF71B2FA82F2164B520949
S214007B1831F005F914350BF1010B0C37C6E7B1F84F
S214007B2800E00CF1010C22F80CEC91F802E00C32A3
S214007B3802F816EC91F804E00C3102F815EC11F88E
S214007B4809ECBEF1010F14BF4FF0100E4FF0110EE6
S214007B5802F814ECCDE700BF50230020E8390020D7
S214007B689055002054290020B579000054230020A1
S214007B78D42B0020014B1860704700BF4C23002010
S214007B8870B5128805460E46FFF734FF044670B1F6
S214007B9802790499806814F0C1FA064B1B680BB981
S214007BA8002070BD28462288F1B29847F8E786205C
S214007BB8F7E700BF4C23002008B50EF0B1F80228FE
S214007BC806D0012806D0044B18784000C0B208BD7D
S214007BD80120FCE70220FAE78F550020014B1860C9
S214007BE8704700BF48230020034B1A781AB90122B1
S214007BF81A700AF09BB870478F5500200022064B73
S214007C0810B51A70054B1C682CB1FFF7D5FF234634
S214007C18BDE81040184710BD8F55002048230020A7
S214007C2837B50446002832D00EF07AF8022830D14C
S214007C38608931F061FCE079237A003818BF0120AA
S214007C48012B637A08BF40F008000BB140F0100023
S214007C5863890BB140F00400257CA188A2790DB198
S214007C68E36873B90C4B0FF09BFB217808460FF0BE
S214007C7813FC30F04BFF002814BF0320002003B08D
S214007C8830BDCDE90035054B0FF08AFBEDE7022045
S214007C98F5E70120F3E700BF8D4D0400901C0400B3
S214007CA8034B044A5B7C012103201370FFF71CBEBC
S214007CB8B45F00209155002010B50446FFF7F0FF8A
S214007CC8B4F57F4F10D10D4B1A88134400229A70D2
S214007CD8FFF7CEF90A48FFF74DFEBDE810404FF40F
S214007CE8967107482DF06FBA4FF601739C4204D17F
S214007CF8BDE8104003482DF0BAB910BD1C4E002050
S214007D08EC5F0020B45F002010B5074C0121224626
S214007D180320FFF7D9FD28B92378044A003B18BF8B
S214007D280123537410BD00BF91550020B45F002096
S214007D380822F8B530244B4B1A7032229C70352432
S214007D485A70DA709A7139221C7131241A724FF4FB
S214007D5800125C71DC71444C4264C464434C0122DA
S214007D680465434C85188465424CC567C465424C17
S214007D78424D4466424CC0F880508466414C80F8B8
S214007D8848200467404C80F854204467202480F834
S214007D98784080F8844000F12104C0F888403B4CC5
S214007DA880F86020C0F88C40394C80F86C20C0F809
S214007DB89440384C80F89020C0F8984080F89C2072
S214007DC8354CC0F8B830354BC0F8A440C0F8BC30C5
S214007DD80F24022380F8A84080F8C030304C314B7E
S214007DE8C0F8AC40C0F8C4302F4C304BC0F8B04098
S214007DF8C0F8C830092482232D4D80F8B44080F896
S214007E08CC302C7C2B4BC0F8A000C0F8D03044B146
S214007E18294B80F8D820C0F8D43005F11103C0F8F3
S214007E28DC304FF0000CCA798E6802EB42039F00E4
S214007E38443006EB830326F807C0586001200C344C
S214007E489870DC701318CB71FFF75EFFFFF7B4FE6F
S214007E58012806D12B7C23B1BDE8F84014482DF044
S214007E6806B9F8BD92550020B0960400010020001F
S214007E78AF96040002002000AE96040005004200FB
S214007E8803002000AD9604000400420007003000FE
S214007E98AC9604001200100100404200FDFF2100CD
S214007EA89B960400AA9604000600420000FF4401C0
S214007EB8B45F00201C4E002001FF100170B50D466F
S214007EC80646144613460A4601460D4812F0B6FF03
S214007ED825B92046BDE87040FFF7EEBE072D05D150
S214007EE821463046BDE8704000F070BA062D05D130
S214007EF821463046BDE8704000F06EB870BD00BF41
S214007F08860104000148FFF735BE00BFC57E0000A5
S214007F184FF4C01330B5036001230371074B8C6818
S214007F288360CA7902EB420304EB83056860044861
S214007F3844F82300531CCB7130BD00BFB196040033
S214007F480400010138B50024044D55F8040B08B1A7
S214007F582DF0C0F901340A2CF7D138BD342C002096
S214007F680229024608B50ED004D839B910462DF0B5
S214007F78DCF906E04029F9D0412907D110462DF052
S214007F88CAF9002008BD2DF0DAF9FAE7014812F020
S214007F9855FFF6E7B901040011461A46024B53F896
S214007FA82000FFF7DDBF00BF342C0020426B094BD2
S214007FB8D2681A7082785A70C2789A70826B12B138
S214007FC890F83C20DA70007804210930014AC0B2E3
S214007FD8FFF78ABC9B550020024B53F820002DF073
S214007FE8CAB900BF342C002038B504460078084DBE
S214007FF809302A460421C0B2FFF766FC30B96B7810
S214008008A370AB78E370EB7884F83C3038BD00BFDB
S2140080189B55002038B504460078114D09302A468D
S2140080280421C0B2FFF750FCC8B9A3782A78022BFF
S2140080380CD004D863B920462DF077F901E0FF2B61
S2140080480AD02046BDE838402DF044B9002AF2D1BF
S21400805820462DF060F9F4E7002AF9D1EBE738BDA1
S2140080689B550020F8B504460B78224A0D4642F880
S21400807823004370FFF7B8FF636B1F4ADC639A63FD
S2140080882046FFF7C7FF20462DF024F94FF480134B
S214008098636004232372636BA06B0C33E360174B97
S2140080A8A21C23610123A261237560B1144A84F8D7
S2140080B82030E261E21C6262124A84F82C3004F135
S2140080C83C03A26223630627E979AE6801EB410305
S2140080D8002826F8237006EB83020CBF022304232D
S2140080E8D37001239370084B043493604B1C546080
S2140080F8EB71F8BD342C00205B53030003403001BD
S21400810801FF300102FF1001A17F000002464179FD
S214008118D37808480139042B00EB811008D8012BC6
S21400812804D80BB92DF0F7B82DF0FFB82DF007B925
S214008138704700BF8818002002464179D37808485F
S2140081480139042B00EB811008D8012B04D80BB991
S2140081582DF0EBB82DF0DFB82DF0F1B8704700BF62
S2140081688818002030B587B004464579FFF724FD07
S214008178012822D1E2786B1E042A1ED8DFE802F016
S2140081880431031F2800104663784FF480728DF878
S21400819804304FF48273ADF806300623ADF8083085
S2140081A801238DF80B3000238DF80A0001A8CDE9CD
S2140081B803238DF81430FFF733FD07B030BD0A4AA5
S2140081C802EB83135B6BD868003818BF0120DBE727
S2140081D8054A02EB83135B6BD868B0FA80F0400957
S2140081E8D2E70020D0E700BF8818002030B587B057
S2140081F804464579FFF7E0FC012829D1E3786A1E92
S214008208042B25D8DFE803F00B0B0B032600164BD0
S21400821803EB82135B6BDB68003B18BF01236278B5
S2140082288DF80A308DF804204FF482720123ADF8D9
S214008238062006228DF80B30ADF8082000234FF4F0
S214008248807201A8CDE903238DF81430FFF7E8FC07
S21400825807B030BD044B03EB82135B6BDB68B3FAE5
S21400826883F35B09DBE700BF8818002010B586B0EB
S2140082780446FFF7A1FC012812D16378094A8DF855
S21400828804304FF48273ADF806304FF48073CDE9AE
S2140082980223002301A804938DF81430FFF7C0FCCE
S2140082A806B010BD0800070110B586B00446FFF7F3
S2140082B883FC012820D16278104B8DF804204FF4F7
S2140082C8827294F8A01094F8A10059701870ADF84E
S2140082D8062004934FF480720223094901A88DF8FA
S2140082E81430CDE90212FFF79BFC94F8A130013B4D
S2140082F818BF012384F8A13006B010BD9F55002092
S2140083080800050110B583780446E3B10379022B0B
S21400831806D143790C48013B00EB83102DF00FF88B
S214008328A379022B02D12046FFF71CFF2046FFF751
S214008338BBFF02236078A4F86C305522BDE81040D5
S21400834812212CF072BF10BD881800204388094AF5
S214008358082113808388538083681B8A938090F84B
S214008368A03093718379D37100780430C0B2FFF7D8
S214008378BBBA00BF9E4E002038B50D4604460178AD
S214008388104812F05BFD4FF602739D420CD16379DC
S2140083981BB10D4A12789A4201D201236371204616
S2140083A8BDE83840FFF7D2BFB5F57F4FF7D1204676
S2140083B82DF043F8A378022B0CBF01220022A368F5
S2140083C89A70ECE7CF01040088550020024B53F85A
S2140083D82000FFF7D1BF00BF5C2C002038B504464C
S2140083E80078134D04302A460821C0B2FFF76CFA0D
S2140083F820B1BDE838400F4812F020BD2B886380B6
S2140084086B88E978A380AA88A3681A82AB7984F86F
S214008418A030EB79A37119B1074B1B788B4205D2B4
S214008428064812F00BFD23780133637138BD00BF90
S2140084389E4E0020E9010400885500201202040020
S214008448F8B504460B78484A0D4642F823004370B0
S214008458FFF7C4FFA268454B0226D364444BA11C11
S2140084685365444B44481365444B04F10C0CC2E96D
S21400847816344FF44013E36001236161E16240491A
S214008488103221632265211D3E4AA1633E4962657A
S21400849804F1A002A061E163E265E01C611D3B4AAD
S2140084A8206261643A483B492266A21D23742377FA
S2140084B884F8283084F8343084F84030A16484F88E
S2140084C84C6084F8583084F864306062A266E879B4
S2140084D8AA6800EB400102EB8107C7F804C04FF01A
S2140084E8060C2D4F42F82170C118C9B201EB4101A4
S2140084F842F821C002EB810700217960274F84F8F3
S21400850880302767264F84F89830A767254F264B74
S214008518E767264F84F8746084F88C60C4F89C304B
S21400852804F16C06831CC4F88470C4F89060204F6D
S214008538204EDBB203EB4303C4F89460C4F888709B
S21400854802EB83067034746008261B4C42F82340FE
S214008558C31CDBB203EB430302EB8304043042F88C
S21400856823606160E871F8BD5C2C0020AF530300FF
S214008578F15303000D83000010003001A5530300DB
S21400858801FF300104FF200102FF200105FF300132
S21400859800FF300103FF2101070001084A002100FF
S2140085A8B296040051001000B4960400B596040074
S2140085B8550021006F0018001200010400239B6A72
S2140085C8B3F5C04F03D21968064A914203D0002378
S2140085D8037083607047012202709A689B69426044
S2140085E8F7E700BF07B0CD5E024B034A1A602EF0CD
S2140085F8EEB800BF0000002002020FF073B5534B20
S21400860804461A781AB102221A7002B070BDCDE973
S21400861800220028F9D001261E7037F013F94C4DB9
S2140086284C4B186016F00CFE2B785BB902F062FA19
S21400863840B949480823494A4949006801F0A8FE54
S21400864800B92E70474B5A6E62619B6E464AA3610C
S2140086584FF40043936603F188435968E161434940
S2140086689960196E2160596E6160D3F87011A16027
S214008678196CE160596C21613D49086C1864496CB5
S2140086885964012151664FF4005191661A6E5604DA
S21400869836D53849CA68D407FCD45B6E5A0434D534
S2140086A8354AD36B13F0430FFBD1344B1A68531C6F
S2140086B831D04FF400139340314A13660423304CEC
S2140086C8684623664FF480632366102323664FF4B8
S2140086D8005323664FF0804323664FF4804301A976
S2140086E863662CF0C2FE009B2366019B63662B78AC
S2140086F8002B8AD0194B1A6822665B68636684E783
S2140087082049CA68D007FCD4C7E71F4AD36B13F0C2
S214008718430FFBD1C9E71D4B1B78002BCED14FF476
S2140087288072114B5A661A4A52681AB94FF40011E9
S214008738134A11664FF400725A66164B5B68002B94
S214008748BCD14FF480020E4B1A66B7E7A25500203C
S214008758A3550020A42C002048600020A82C002048
S21400876800710800008000500090005055CEAC0004
S21400877800C00054000004400000024C14600020B2
S21400878800900044000004500000025CA155002040
S21400879800C005500000065070B52C4D04462E78D3
S2140087A8012E02D001232B7070BD0028FCD02CF0BF
S2140087B881FE01300BD02CF07DFE40F2011398426A
S2140087C805D0234B234A5E66D368DE07FCD4224BCB
S2140087D822491B6E13F0040F4FF4005314BF1C4AB3
S2140087E81F4A9366CA6B12F04302FBD121681A4BE4
S2140087F8196661685966A168C3F87011E16819645A
S21400880821695964E169C80748BF9A60154B1A6818
S21400881801320DD1144A127852B914494968C90769
S21400882848BF1A60124A5268D20744BF01221A602B
S2140088386269104B5A66A2699A6616F009FD0E4BD5
S214008848186836F0FAFF0023ADE700BFA2550020EF
S2140088580090004000000440008000440000024CE5
S2140088680090005014600020A155002000C005505C
S2140088780000065000800050A42C002070B500248C
S214008888A36AB3F5C04F23D21A68134B9A421FD176
S214008898124E337813F0FD0518D14FF48034104883
S2140088A8FFF7ACFE032004F031FA0E4B0320DC6021
S2140088B804F010FA0C4B1C61AB6ADB699847044657
S2140088C80748FFF769FF0CB901233370204670BDCF
S2140088D84FF48174FAE700BF07B0CD5EA1550020BB
S2140088E8842C002000A000440090004413B5204BC0
S2140088F81B7803B9FEE700231E4CCDE900336A4611
S21400890808231D49206801F043FDF8B91B4AD2F830
S2140089184031D2F840211F2B4FF0010311D9203ADD
S2140089289340019A1A43019208236A46124920681E
S21400893801F0B6FE124B134A1A602DF048FF02B03B
S21400894810BD9340009A1A430092EDE72D28F1D106
S2140089580A4AD2F84031D2F840211F2B4FF00103C3
S21400896885BF203A93409340019398BF0093DBE776
S214008978A2550020486000200071080000800044CE
S214008988000000200B020FF038B50025AB6A04463D
S214008998B3F5C04F10D21B6BB3F5C04F0CD20748C7
S2140089A8FFF72CFEAB6A20461B6B5B689847BDE852
S2140089B838400248FFF7F0BE38BD00BFB02C002094
S2140089C813B50024A36A0190B3F5C04F13D21B6BEE
S2140089D8B3F5C04F0FD20948FFF710FEA36A01216E
S2140089E81B6B01A89B69984704460448FFF7D4FE0A
S2140089F8204602B010BD4FF48174F9E7B02C002071
S214008A0870B50026B36A0446B3F5C04F0D4612D2B9
S214008A181B6BB3F5C04F0ED20848FFF7EFFDB36ADD
S214008A2820461B6B29469B69984704460348FFF770
S214008A38B3FE204670BD4FF48174FAE7B02C0020D0
S214008A4870B50026B36A0446B3F5C04F0D4612D279
S214008A581B6BB3F5C04F0ED20848FFF7CFFDB36ABD
S214008A6820461B6B2946DB69984704460348FFF7F0
S214008A7893FE204670BD4FF48174FAE7B02C0020B0
S214008A88F8B50027BB6A0446B3F5C04F0D46164630
S214008A9811D21B6B7BB10948FFF7B0FDBB6A2046B5
S214008AA81B6B324629465B6A984704460348FFF71D
S214008AB873FE2046F8BD4FF40174FAE7B02C002088
S214008AC870B50026B36A0446B3F5C04F0D4612D2F9
S214008AD81B6BB3F5C04F0ED20848FFF78FFDB36A7D
S214008AE820461B6B29469B6A984704460348FFF7AF
S214008AF853FE204670BD4FF40174FAE7B02C0020F0
S214008B08F0B50027BB6A0446B3F5C04F0D461646B7
S214008B18ADF5177D20D21B6BB3F5C04F1CD210489D
S214008B28FFF76CFDBB6A20461B6B40F251225B6A5E
S214008B3801A99847044630B10948FFF72DFE20469C
S214008B480DF5177DF0BD836A32461B6B2946DB6A36
S214008B5801A898470446EFE74FF40174EFE700BF13
S214008B68B02C002010B50024A36AB3F5C04F10D26D
S214008B781B6BB3F5C04F0CD20748FFF73FFDA36A3F
S214008B881B6B1B6B984704460348FFF705FE2046F9
S214008B9810BD0124FBE700BFB02C0020F0B58FB055
S214008BA8044601A80E461546FFF7EEFE9DF80C3063
S214008BB8012B12D1B5F5002F27D8B4F5002F24D8ED
S214008BC86319B3F5002F20D821462A46304613F0FD
S214008BD8E3FB002420460FB0F0BD0027BB6AB3F5C0
S214008BE8C04F15D21B6BB3F5C04F11D20A48FFF71A
S214008BF805FDBB6A2A461B6B314620465B6B9847C9
S214008C0804460548FFF7C8FDE4E740F20244E1E7FA
S214008C1840F20114DEE700BFB02C0020F0B58FB09C
S214008C28044601A80E461546FFF7AEFE9DF80C3022
S214008C38012B1FD1B5F5002F06D8B4F5002F03D8A1
S214008C486319B3F5002F13D940F2024420460FB03B
S214008C58F0BDE258013225D104339D42F9D82A46A0
S214008C683146204600F082F80028EDD00024EDE7D3
S214008C780023F2E70027BB6AB3F5C04F15D21B6B7B
S214008C88B3F5C04F11D20A48FFF7B8FCBB6A2A46AC
S214008C981B6B314620469B6B984704460448FFF7F3
S214008CA87BFDD3E740F20344D0E740F20114CDE75A
S214008CB8B02C002070B58EB0044601A80D46FFF70C
S214008CC863FE9DF80C30012B22D144EA0503C3F35A
S214008CD80C03002B33D1B5F5002F04D940F202441B
S214008CE820460EB070BDB4F5002FF7D82544B5F56C
S214008CF8002FF3D8204604F5005400F029F8AC42BB
S214008D0802D00028F6D1E9E70028E7D00024E7E7F4
S214008D180026B36AB3F5C04F14D21B6BB3F5C04F29
S214008D2810D20A48FFF76AFCB36A29461B6B20462E
S214008D38DB6B984704460548FFF72EFDD0E740F260
S214008D480444CDE740F20114CAE700BFB02C002067
S214008D584FF4003208B5044B9A6637F01DF8B0FA9F
S214008D6880F0400908BD00BF00900050134610B5BB
S214008D7862B103439B070BD14FF40034054B9C6646
S214008D8837F00EF8B0FA80F0400910BD0120FCE775
S214008D980020FAE700900050BFF34F8F0549064BB6
S214008DA8CA6802F4E0621343CB60BFF34F8F00BF7C
S214008DB8FDE700BF00ED00E00400FA0570B5D0B18D
S214008DC8C9B10E4E431E013913F8014F2046325DD5
S214008DD802F00302012A11F8012F08BF04F120004F
S214008DE8B55C05F00305012D08BF2032801A01D1B5
S214008DF8002CE9D170BD0120FCE700BFD1BD0400FE
S214008E080348044A0449121A92102CF0B8BB00BF53
S214008E184061000018630000EC5C002008B5154BA4
S214008E2883F30A8800F030F8FFF7EAFF124B13497D
S214008E388B4212D30020124B12498B4218D3FDF7EF
S214008E4871FF186850F82240586840F822400132EE
S214008E5898688242F5D30C33EAE70022F8E71C68E4
S214008E6844F8220001325C68A242F8D30833E4E7EB
S214008E780022F8E7080000201CFA040028FA04007C
S214008E8828FA040028FA04004FF40041134B144A49
S214008E9870B59A60D3F88820124D42F47002C3F871
S214008EA88820114A05F5005491664FF0FF32226675
S214008EB84FF6DF7262660222C3F8D020BFF34F8FE8
S214008EC8BFF36F8F4FF44036032003F01FFF0320D5
S214008ED8E66003F0FFFE2E6170BD00BF00ED00E007
S214008EE8006000000080004400900050054B1860A9
S214008EF8054B1B6F03F00703032B01D134F048BD65
S214008F08704700BF24600020008000502DE9F04123
S214008F1804464FF001080C250D4E0CB9BDE8F0814B
S214008F2894FAA4F0B0FA80F00F2808FA00F2C8BF46
S214008F38103824EA0204CABF05FB006205FB00627B
S214008F48B4325768002FE8D09168C0B2B847E4E753
S214008F58D02C002008B50C4836F095FC192003F0F4
S214008F68C7FE28B1192003F0D1FE192003F0B2FE7F
S214008F781A2003F0BDFE28B11A2003F0C7FE1A20F7
S214008F8803F0A8FE002008BDB49804002DE9F041BF
S214008F980E461746054618B30F2923D80378DBB1C3
S214008FA8013BDBB2022B19D8104AD35C6A78D3404F
S214008FB8DB0717D50E4BD3F81043ACB936F042FC96
S214008FC880463A462846314602F0DCFD404636F0F2
S214008FD834FC2046BDE8F0817F23E7E70023E5E779
S214008FE82224F6E72124F4E70224F2E7089704008F
S214008FF800C0035010B5044610B30378E3B1013B34
S214009008DBB2022B1AD8104AD35C6278D340DB074F
S21400901818D536F017FC0122617823788A4030216B
S2140090284B4341F2100103F1A04303F570335A5045
S21400903836F003FC002010BD7F23E6E70023E4E7B4
S2140090482220F8E72120F6E70897040010B5044622
S21400905810B30378E3B1013BDBB2022B1AD8104AEF
S214009068D35C6278D340DB0718D536F0EBFB0122D9
S214009078617823788A4030214B4342F2100103F18D
S214009088A04303F570335A5036F0D7FB002010BDC6
S2140090987F23E6E70023E4E72220F8E72120F6E727
S2140090A80897040038B50D46044618B311B303787C
S2140090B8E3B1013BDBB2022B1AD8104AD35C6278C4
S2140090C8D340DB0718D536F0BDFB30222378534350
S2140090D803F1A04303F570335B696278D34003F06D
S2140090E801032B7036F0A9FB002038BD7F23E6E786
S2140090F80023E4E72220F8E72120F6E70897040093
S2140091082DE9F0410D4616469846044600284FD0ED
S21400911800294DD00178002940D04B1EDBB2022B27
S2140091283ED8254AD25C6378DA40D20701D4FF29B4
S21400913840D1022E01D9042E3CD136F083FB237889
S2140091480746FF2B05D032462046296802F060FD08
S21400915828602B68013309D12378FF2B06D1174BDB
S2140091686078D3F824142CF055FF286029684B1C27
S21400917818D00C23124A03FB0122069BC2F804806F
S21400918893602378FF2B04D001230E4A8B40C2F845
S2140091982434384636F051FB002007E07F22C2E729
S2140091A80022C0E7384636F048FB2D20BDE8F0819F
S2140091B82220FBE72120F9E70897040000C00350A7
S2140091C8D02C002000D0035008B502F0D1FC054B87
S2140091D800F0553020F05020C3F82004BDE80840C1
S2140091E8FFF794BE00E0035008B502F0C1FC054B3B
S2140091F800F0AA3020F0A020C3F82004BDE80840FC
S214009208FFF784BE00E003502DE9F04F14460546EC
S2140092180E469B46C36B87B001225B6902A960684D
S2140092289847EB6B01225B6903A93046984702A86A
S2140092382CF0A4FD074648B10023A37563754FF0CC
S214009248FF33A360002007B0BDE8F08F03A82CF01A
S214009258A2FD0123A375237E04EBC303DE611F84EE
S2140092686368B3420ED1206003A82CF0B6FD4FF019
S214009278FF332075A360237D043B022B26D80023EA
S214009288A375DFE723681A1A53425341A37503A848
S2140092982CF0A3FD237D834218BFA77503A82CF0E6
S2140092A87EFD074602A82CF07AFD874218BF0023E9
S2140092B803A818BFA3752CF07AFD074602A82CF061
S2140092C876FD87421CBF0023A375D4E703A82CF0BD
S2140092D866FD80B1EB6B022230465B6904A99847AD
S2140092E804A82CF06BFD0346207D032839D8DFE858
S2140092F800F03838040903A8F3E7CC22237E04EBF1
S214009308C3031A8401F06EFC109B187003A8277E0E
S2140093182CF039FD04EBC70787F82200237E03A844
S21400932804EBC303B3F8209093F822702CF037FDB3
S214009338804603A82CF03BFD8246B8F1000F15D0F6
S214009348EB6B022230465B6904A9984704A82CF008
S214009358FAFC6075637D6BB90023A3754FF00008AF
S21400936838E0227E04EBC2021384CBE703A82CF075
S214009378D5FCEEE794F81680B8F1000FEED0B9F1F8
S214009388000F09D1DFB10123E375637E002B4FD1AF
S214009398012F42D1677614E06B6C06EB0A015A423D
S2140093A886EA010010421CBF0022A2755A1E0A4017
S2140093B89B1A9945D0D8A37D002BE3D1CEE7E37D51
S2140093C843B94FF000084B465246314628462CF023
S2140093D820FAA060A27D12B123694B4423611A4982
S2140093E8237E097899422AD901332376BBF1000FE8
S2140093F827D032B3E37D23B3B8F1000F21D1032F72
S2140094081FD0A1684B1C1CD0109B224600932846F0
S2140094180123FFF7F9FEA07513E095F8343063B919
S214009428EB6A0133CFD1032FCDD10123A376C8E74A
S214009438012FCFD0032FC4D1F7E79846C3E7002300
S214009448A375A07DFFE600BF2C9704002DE9F04F1A
S2140094580E46984600238BB004464FF0FF31104660
S21400946817468DF8133001F0A7FBB6F5801F20D2FB
S214009478314605AA04F108002CF0D2FB451C01462B
S21400948803D1237CBBB92D2010E0384601F094FBAD
S2140094980122394620460DF113032CF00CFA002859
S2140094A8EFD09DF8133088F8003000200BB0BDE8E8
S2140094B8F08FB01CE5D1E56A691C36D12046616A92
S2140094C82CF0EDF80546B31C18BF0123DFF8CC9046
S2140094D80193636A626C0293236805A902FB053A46
S2140094E8E36B05225B695046984705A82CF0E1FC1B
S2140094F82CF004FD50462CF00CFD4FF0000B824675
S21400950801464B1C05D0636C81EA0A025B42134293
S21400951811D0294620462CF0C2F8029BAB422CD02C
S214009528BBF1000F2CD10546D3E72368ED1A636C10
S214009538B5FBF3F5C7E7484601F03EFB0DF113030C
S21400954849462046019A2CF0B6F9034690B1B21C5B
S21400955803D0D9F80020B2420CD19DF8132003930B
S2140095680D4B88F8002049461A68384612F014FF52
S214009578039B9B46D9F80810C3E7BBF1000F82D0BF
S214009588B6F5801F91D2314698F800307A6804F113
S214009598080001F03FFA88E728970400AC3400205A
S2140095A82DE9F3410446174698460E46184D816A3B
S2140095B8E36A8B4201D04B1C02D102B0BDE8F081B1
S2140095C8284601F0F9FA0122294620460DF107033C
S2140095D82CF071F938B14346294620469DF80720F5
S2140095E8B8470028E9D0A9684A1C04D1696820460B
S2140095F82CF0E2F80146012EDAD16B6881EA030204
S214009608636C5B421A4218BF4FF0FF31D0E700BFC9
S214009618803400202DE9F04F4FF0FF334FF6FF72ED
S2140096280025044600F10806C0E909238BB0C3628A
S21400963805620563304688462CF0C3FA20462BF0B0
S214009648FEFF60BB204641462CF079F820462BF0FA
S214009658F6FF60BB5E200BB0BDE8F08F2368E26BB8
S214009668606C576900FB0530052205A9B84705A8B0
S2140096782CF01FFC012807460CD1294620462CF062
S2140096882FF8012F024600D10132294620462BF03A
S214009698F5FF03E02CF037FC0028EED10135E3692E
S2140096A89D42DBD320462BF0CAFF0028CAD00025EF
S2140096B84FF0FF394FF6FF73CA46A846C4E9085369
S2140096C8E36998450AD3A5EB0905012D2CD84FF672
S2140096D8FF72636A93423CD16720BCE72368E26B5B
S2140096E8606C576900FB0830052205A9B84705A82D
S2140096F82CF0DFFB834605A82CF0B2FB074658463D
S2140097082CF0FCFB68B1574538BFC4F82480B9452F
S21400971828BFB946BD4238BF3D46BA46236A01331C
S214009728236208F10108CBE74FF6FF730025636252
S214009738E3699D42CBD2676C2068E36B052207FB82
S21400974805005B6905A9984705A82CF089FB013533
S214009758EEE7E26B676C2068694607FB030055690D
S2140097680522A84768462CF07BFB626A2368606C73
S2140097784B4D00FB02302CF0CCFB4FF0FF33A062C1
S214009788E3622A466FF00101204605ABFFF75EFE4E
S214009798002846D1AD6829462046E5622BF02BFF07
S2140097A8206320B92046E16A2CF006F8E0622946D4
S2140097B820462CF001F80546A36A9D4233D1204680
S2140097C82BF0ECFE00278046B946E36999453CD362
S2140097D8B84559D92046616A2BF061FF0026054630
S2140097E804F1400AB74212D8626C2368694602FB45
S2140097F80539E36B05225B694846984768462CF0AE
S2140098082FFB534602464946E06B2CF084FB29465C
S21400981820462BF044FF0136B0450546E2D16420C9
S21400982819E7A56AB7E7294620462BF0E4FE236B1E
S214009838294603440746236320462BF0BDFF05460A
S214009848002FB9D1C4E90B07B6E7636C2568052273
S21400985803FB0955E36B05A95B692846984705A8E5
S2140098682CF027FB2CF04AFB58B128462CF051FB6D
S214009878014620462BF0BFFE636C143B984208BF97
S214009888013709F10109A0E730462CF09AF90023C0
S21400989820461946034AFFF783FE0020DBE600BF92
S2140098A8D8340020AD5803002DE9F041036B9046EC
S2140098B8826B07689A4288BF8363426C436A90B09B
S2140098C802FB0377C36B0E46052201A95B690446B3
S2140098D83846984701A82CF0ECFA01280146307063
S2140098E857D0656CE26B2368606AD2F814C005FB33
S2140098F80030052206A9E04706A82CF0DAFA012867
S2140099084FF0000523D0D4E90A3201219342CDE96D
S2140099180B458DF834800E958DF83C102AD11946E3
S21400992820462BF049FF236B626C14339B1AE062C7
S21400993823630C9B53B99DF83C303BB1626A616C5B
S2140099482368E06B01FB02312CF06BFA0C9DE36B8D
S21400995805225B6901A93846984701A82CF0A9FAA0
S21400996830702846236BA26B9A4288BFA36310B058
S214009978BDE8F081237C33B91C490BAA04F1080022
S21400998801F096F8D5E72046194A0BABFFF708FE14
S214009998CFE7237C23BB2246164904F1080001F0D2
S2140099A887F8616A20462BF09BFE616A421C2046B7
S2140099B82BF064FE054620B9236B626C1344143BF7
S2140099C823632046A16A2BF0F7FE2368A062C01A1C
S2140099D8636CB0FBF3F0606220462BF030FFB6E70E
S2140099E800232046044AFFF7DBFDDAE755A100000E
S2140099F8D1A0000047590300E358030073B50D468D
S214009A08D11E4A421C461B7E4A419A4226D12968E4
S214009A182368994222D3636899421FD8114E0DF1E4
S214009A2807033246FFF712FDC0B972686B689A42A0
S214009A3814D19DF80730DA1E53425341227E9342D2
S214009A480CD1636901336361D4E90323934205D2D9
S214009A582968A26842F8231001332361012002B066
S214009A6870BD00BFD83400202DE9F04F9B4689B062
S214009A789DF848309046514A0193136907465B455E
S214009A880D46C0F09580D94653680093B9F1000F8B
S214009A987BD0FB6B01225B6905A90098984705A84F
S214009AA82CF079F9454B1B68984240F0848005A84D
S214009AB82CF07DF90428064615D105A82CF07EF969
S214009AC8009B04461E44019B002B3ED1804512D9BC
S214009AD81C46A8EB0008384600992BF06DFEA9EB4B
S214009AE804090090D2E7FB6B02225B69009806A97E
S214009AF8984706A8E2E7A0EB08045C4528BF5C4642
S214009B08032C4644ABEB040B1DD9FB6B29463046A9
S214009B185B69A208984724F0030304F0030A1E446E
S214009B281D44DDF80480BAF1000FD4D0FB6B012287
S214009B3806A930465B6998475246284606A912F099
S214009B482BFC5544C7E7A246EBE7824600F0030322
S214009B5802932B1803930644039BA6EB0A00A3EB79
S214009B680A05029B9A4514D1BAF1000FB3D0FB6BD5
S214009B78012206A95B6998475246284606A912F0AC
S214009B88C7FD0028DDD04FF03609484609B0BDE8C5
S214009B98F08FFB6B012206A95B69984704222846CA
S214009BA806A912F0B5FD0028EDD1AAF1040AD3E7FC
S214009BB84FF06309E9E74FF06F09E6E70435002040
S214009BC82DE9F0410F4616469846044688B060B31D
S214009BD890F83450FDB101212BF026FD00210E9B94
S214009BE8CDE90511CDE902379DF83C30CDF8048063
S214009BF88DF81C30237C04968BB90D4901AA04F114
S214009C08080000F055FFDDE90553E06B002E08BF9D
S214009C181D462BF0A2FE284608B0BDE8F081204677
S214009C28044A01ABFFF7BCFCEDE70546F3E700BFC7
S214009C3811590300059A00007FB590F84260044663
S214009C4801920DF10B030A46304611492BF08DFEA2
S214009C58012E0546E36B17D132465B6903A9984780
S214009C689DF80B10039B019A59B19BB243EA024335
S214009C78012228460393E36B03A99B69984704B01F
S214009C8870BD62F30F03F3E701229B6901A9F5E7AC
S214009C98043500202DE9F04F99B00E460D920A695A
S214009CA8416C0B931439D31DB3FBF1F3013302EB6C
S214009CB8C302036B04469342C0F001820023DFF818
S214009CC804940893E36A48461946059300F074FF1F
S214009CD8D6E9033707930B9B022B4DD1CC2F40F0C8
S214009CE8D7810D9B3BB1314620462BF094FE656C20
S214009CF81490012044E00120079B656C1B681493B0
S214009D0800F0010000280CBF04230823782F0E93C8
S214009D1849D8059A6B1E1340ED1A3B1D9D423CD24E
S214009D28002F3DD0082D3ED80023042506934FF07B
S214009D38040A336806990B98C9F80030C9F81070F9
S214009D482CF04FF84FEA9A030F93059B89F81400F6
S214009D580393002309930C9304930A93616C039B63
S214009D684A1E1A408B1A27B35544AB4223D8236B96
S214009D785B1A134423632FE1782F656CB9D8F07DFE
S214009D880D9B002BBCD0E36B01225B69706816A99B
S214009D98984716A82CF003F8B4E700250695C6E7FA
S214009DA804250697C3E7012300254FF0080A069303
S214009DB8BFE75345DBD3A3EB0A029742039BB8469B
S214009DC828BF90469742534428D90122D9F8101044
S214009DD889F817208F4226D10399C9F804100492EF
S214009DE899F817200AB399F818100398CA1C09EBB3
S214009DF8C202506004980131A2F80880907289F86F
S214009E081810B8F1000F07D00B9A022A40F081808C
S214009E18099A72B1012209929B46ABE0049A002A7D
S214009E2818BF0322DBE70222D9E7039AC9F8042001
S214009E38E7E70C9A4244032AEED9E26B184695697E
S214009E4814A901220993A847099B05460028E1D0D2
S214009E583D2D40F01E8104F1080303932368059AFC
S214009E68606CA2EB030ABAFBF0FA00FB0A302CF08F
S214009E7850F8E16A804620462BF09EFCA26A824291
S214009E8800F00F81626CD9F80830511E0B40216B28
S214009E982768891A0B442363089BE062DF1BB7FB1D
S214009EA8F2F7BA4540F0FA80059BB3EB080A12D0E1
S214009EB8E36B4FEA9A0241469B6998478346E36AF2
S214009EC8059A5344E362236B03989B1A434423631F
S214009ED82BF077FEDA462368616CE06B01FB0731EE
S214009EE82BF08CFF20462BF0AAFB20462BF0A7FC75
S214009EF82063BAF1000F00F0D4803269616CD31D7C
S214009F081439B3FBF1F3013302EBC3029042A5D236
S214009F18BFE00D9A002A77D1B8F1030F4FEA9802EE
S214009F286ED9E16B18468D6907991093A847109B60
S214009F380546C0B918F0030515D0079A28F0030B94
S214009F4802EB0B019B444FF0FF3215A815922A46E8
S214009F58109312F021FAE26B5846956915A901226A
S214009F68A8470546109B9B46079A42440792002D31
S214009F7840F08B80049B16A80193069B009399F8E3
S214009F8814204346316800F0CDFDE36B0F9A9B69B9
S214009F98039816A99847039A051E089B18BF1346E8
S214009FA8089343465246204603992BF032FC236B0F
S214009FB808F10302A3EB0A0322F003029B1AC9F86E
S214009FC808002363002D7FF443AF0C9BA7EB08071C
S214009FD843440C93CDF80CB0204603992BF0ECFBC9
S214009FE800250390002F7FF4B9AE364A316893688F
S214009FF804F10800E36252680B9B00F00BFD49E091
S21400A0089B46454607999EE79B4606F12002109216
S21400A018F27D7068A2B1002296F818C00A99D5B2E7
S21400A028AC4511D9109D02F1010E35F832508D421B
S21400A03828D90E9806EBC2020144D069084403E00A
S21400A0480E9A0A990A441044E26B15A9556901222A
S21400A0581193A847159A0A9B1392E26B04339569E5
S21400A0685846012213A90A93A847119B054603EBF5
S21400A0780802A2EB0B02042A7FF679AF28B90BF187
S21400A088040BC5E77246491BC9E7CDF820B088E738
S21400A09870252F46384619B0BDE8F08F4FF0000AF5
S21400A0A819E73269616CD31D1439B3FBF1F3013338
S21400A0B802EBC302236B9342BFF404AEE9E71C2706
S21400A0C8E8E700BFAC340020032A2DE9F341064632
S21400A0D80D4617461C4606D1237A012B23D00120AD
S21400A0E802B0BDE8F081DFF86080096842460DF1ED
S21400A0F80703FFF7ABF960600028EDD19DF807204D
S21400A108237A032AE8D0D8F804106A689142E3D183
S21400A118012B2969D4F80CC007D172690CEB01032E
S21400A128934202D92074207CDAE708316144E16062
S21400A1383B46012229463046FFF7ACFD6060002802
S21400A148CAD00020CCE700BFD83400202DE9F34160
S21400A158089C032A1746266806D1237A012B24D0A2
S21400A168012002B0BDE8F081DFF890803046424614
S21400A1780DF10703FFF76AF960600028EDD125683E
S21400A188D8F80400A96AD5F844C04840CCF10003C2
S21400A1981840227AE1D1012A09D1E268D8F81030AD
S21400A1A813447269934202D92074207CD9E7286840
S21400A1B8EB6A1B1A081AB3FBFCF3B0FBFCF08342ED
S21400A1C80BD1706CF36A421E1340326B121A13449A
S21400A1D8284633632BF0F0FAE862D8F81020E368D4
S21400A1E808321344E36001223B4604492068FFF71F
S21400A1F851FD60600028B0D00020B2E7D8340020B7
S21400A2082DE9F0410025604B0E46D3F80080044641
S21400A2181D6018B921252846BDE8F08190F83470ED
S21400A22807B30A6803689A4240F0A3804A684368FE
S21400A2389A4240F09E808A6883689A4240F09980E5
S21400A248CA68C3689A4240F094800A6943699A4289
S21400A25840F08F808A69C36B9A4240F08A804B69C7
S21400A2688361D8E768223946856B11F005FFD6E981
S21400A2780212336804F1080023607368A5636360FC
S21400A288336963617369A3612BF0ADFCB36904F1AC
S21400A2984000E3639B68984720B9676C17B163680A
S21400A2A8B3FBF7F794F84330E761002BB2D00023EE
S21400A2B8656C2366002D64D0002F62D02368B3FB3C
S21400A2C8F5F205FB1233002B55D16668B6FBF5F39D
S21400A2D805FB1363002B4ED120462BF07CF9A369AF
S21400A2E8043303449E4248D340F634726369CC3B39
S21400A2F8934244D8B5F5805F43D3032120462BF01C
S21400A30893F9D4E90001E36B1B6898470546E36BAD
S21400A3180220DB689847CDB941462046FFF77AF910
S21400A3286428054604D141462046FFF773F90546DA
S21400A338666C5DB9236A2046143E5E432BF04BF9E3
S21400A348A369043303449E4238BF5A25002D0CBF28
S21400A3580123002384F8343007D1D4E900010B4ADE
S21400A3681368013313602BF0D8FCE06B2BF0F5FA7A
S21400A37851E75D254FE759254DE75A254BE75F25F9
S21400A38849E75B2547E700BF3C2E0020382E002013
S21400A3982DE9FF410C4616461F46054680B390F841
S21400A3A834307BB3B1F5801F2ED2DFF860800121F0
S21400A3B82BF03AF92146424628460DF10F03FFF7DF
S21400A3C845F8044670B99DF80F30012B11D1D8F81E
S21400A3D81030BB4212D10246009031462846FFF79D
S21400A3E843FB0446E86B2BF0B8FA204604B0BDE8F9
S21400A3F8F081022B14BF2D246024F3E76324F1E7D1
S21400A4082124F2E71124F0E72924EEE7043500209A
S21400A4182DE9F04385B00C4617461E460546DDF87E
S21400A428308098B390F8343093B3B1F5801F31D2AA
S21400A438DFF8649001212BF0F7F821464A462846B3
S21400A4480DF10F03FFF702F8044688B99DF80F30A0
S21400A458012B14D1D9F8102006EB08039A4213D31F
S21400A46800904346324639462846FFF7FDFA04462A
S21400A478E86B2BF072FA204605B0BDE8F083022B95
S21400A48814BF2D246024F3E76324F1E72124F2E7C0
S21400A4981124F0E72924EEE70435002073B50C46AE
S21400A4A81646054630B390F834302BB3B1F5801F06
S21400A4B824D201212BF0B8F821462846104A0DF17F
S21400A4C80703FEF7C3FF044680B99DF80730032B41
S21400A4D80CD0022B0CD1284609492BF09CFA306088
S21400A4E8E86B2BF03AFA204602B070BD2D24F7E749
S21400A4F86124F5E72124F6E71124F4E72924F2E796
S21400A508043500202DE9F3411E4600230C46174665
S21400A5180546336050B390F834304BB3B1F5801F1E
S21400A52828D2DFF8548001212BF07EF821464246D7
S21400A53828460DF10703FEF789FF0446A0B99DF8E3
S21400A5480730032B10D0022B03BF01233B600423E4
S21400A558D8F8103018BF38603360E86B2BF0FDF978
S21400A568204602B0BDE8F0812D24F6E72124F7E75F
S21400A5781124F5E72924F3E70435002073B50446CB
S21400A588056B2BF028F8636E03449D422CBF00230E
S21400A5980123854294BF00252D1A207C84F850306C
S21400A5A8656584F85800A8B100230C4E1A4619466B
S21400A5B8204600962BF0F3FA002305461A4619465D
S21400A5C8204600962BF0F4FAE3682844984294BF95
S21400A5D80020C01AE06502B070BD00BFFFFF0F0084
S21400A5E82DE9F3471E4643690446B3428846174694
S21400A5F89DF828904ED300258DF8075020462AF05F
S21400A608EAFFD4F830A082450AD2236AB5EB430F96
S21400A61806D2002220460DF10701FFF745F9B8B328
S21400A6289DF80730012B05D1002220460DF10701C1
S21400A638FFF73AF9B9F1030F06D0314620462AF05B
S21400A648BAFF256B854227D3144D4FF0FF312846B5
S21400A65800F0B2FA4B46294600222046C5E90376A2
S21400A668C5F80080FFF716FB236E054663B1204643
S21400A678FFF784FF94F8503013B994F858301BB19C
S21400A688236E04F150009847284602B0BDE8F087CC
S21400A6980135B3E76225F7E71C25F5E7D83400202F
S21400A6A82DE9FF410F4690461E46054698B390F89A
S21400A6B8343093B3B1F5801F31D21A4C02212AF0F8
S21400A6C8B3FF2246394628460DF10F03FEF7BEFEB5
S21400A6D8024678B101234246009339463346284657
S21400A6E8FFF77EFF0446E86B2BF037F9204604B0E8
S21400A6F8BDE8F0819DF80F30012BEBD12169B142FE
S21400A708E8D10093414633462846FFF7ADF904469C
S21400A7180028DFD1E7E72124E8E71124E6E7292423
S21400A728E4E700BF043500202DE9F04790F84230F2
S21400A73886B0012B05460391A1EB020740F0AA80DC
S21400A748FF2F03D81E464FF0640807E00226012BA9
S21400A75814BF4FF032084FF06408013600244FF655
S21400A768FF79DFF844A195F84230012B14BF322355
S21400A77864239C4202D35FFA88F40DE005AB2246B8
S21400A788514628462BF025F995F84230012B059BB3
S21400A79834D14B452DD1E4B295F84230012B14BF85
S21400A7A832226422121BB24217D3012E39D100225C
S21400A7B8012B05978DF8132027D1082205A90DF13E
S21400A7C813002BF0C2FB9DF81330059A42EA0322C9
S21400A7D821462846FFF730FA40B102233249009353
S21400A7E82846CC23096803AAFFF7FAFE06B0BDE898
S21400A7F8F087DBB203B902340134B4E7591CCAD077
S21400A8089BB2002BF8D10134F6E7102205A90DF10A
S21400A81813002BF09AFB9DF81330059A42EA034280
S21400A828D6E7039A012B059223D10823202205A9EF
S21400A8380DF113008DF813302BF087FB9DF81320CD
S21400A848120221462846FFF7F7F995F84230611CB0
S21400A858012BC9B21AD10028BFD12846BDF814204A
S21400A868FFF7EAF90028B8D10234BDF81620E1B29D
S21400A878AFE71023202205A90DF113008DF8133039
S21400A8882BF063FB9DF813201204DAE70028A4D106
S21400A898059A9EE7B7F5803F4FF00106BFF457AF1D
S21400A8A84FF032085AE700BF0435002070B586B06E
S21400A8B80E4605460392A0B390F834309BB3B1F524
S21400A8C8801F32D202212AF0AFFE31462846184AA7
S21400A8D80DF11703FEF7BAFD044618B99DF81730B0
S21400A8E8032B0ED10223314600932846CC2303AA15
S21400A8F8FFF776FE0446E86B2BF02FF8204606B0E6
S21400A90870BD022B0BD10A4928462BF084F8039910
S21400A91802468142EFD02846FFF706FFEAE76124A1
S21400A928E9E72124EAE71124E8E72924E6E700BF57
S21400A93804350020F7B50C461646054668B390F869
S21400A948343063B3B1F5801F2BD202212AF06CFE97
S21400A95821462846144A0DF10703FEF777FDC0B9CD
S21400A9689DF80730032B14D0022B14D10E49284625
S21400A9782BF051F8471C024639462846FFF7D4FE06
S21400A988044606B13760E86B2AF0E7FF204603B0B6
S21400A998F0BD2D24F7E76124F5E72124F6E7112416
S21400A9A8F4E72924F2E700BF0435002030B50C464A
S21400A9B8054685B028B390F8343023B3B1F5801F28
S21400A9C823D202212AF030FE0DF10F032146284635
S21400A9D80F4AFEF73BFD034688B99DF80F20032A69
S21400A9E80DD003222146009202462846FFF7F8FDBE
S21400A9F80446E86B2AF0B1FF204605B030BD2D248A
S21400AA08F7E72124F8E71124F6E72924F4E700BF3E
S21400AA18043500202DE9F043466886B30568984655
S21400AA284FF0000CA946AE4655F83C400CF1010C18
S21400AA38C4F31307013401D0B94217D0B4450EF158
S21400AA48080EF1D12F46002403E0B44207F10807A8
S21400AA5812D055F8343001340133F6D1C1F313015E
S21400AA6841EA0851C7E90012BDE8F08341EA0851F7
S21400AA78CEE90012BDE8F083B8F1030F03D1012335
S21400AA880372BDE8F083002303E0B34209F1080926
S21400AA98F5D055F833400133C4F30754032CF4D1EA
S21400AAA8C1F3130343EA0853C9E90032BDE8F0834B
S21400AAB82DE9F0410646406882B0B8B10F46904688
S21400AAC80024336853F8345003EBC403C5F3075225
S21400AAD8C5F31301013506D05B683046CDF8008013
S21400AAE8B84718B1706801348442EAD302B0BDE8AA
S21400AAF8F08100BF024B1968024B1868FFF780BB4D
S21400AB08286000204860002008B534F08EFE014B0F
S21400AB18186008BD30350020014B186834F080BE38
S21400AB283035002073B504462248012A00EAC111D0
S21400AB389DF8185023F07C4007D9961E012E28D978
S21400AB48073303F07F03194308E09DF81C300A43D7
S21400AB58DB0603F0C053134343F060410023C4E907
S21400AB6800108DF80730B5B1202221460DF10700F8
S21400AB782BF0EBF91A220DF10700211D2BF0E5F951
S21400AB88082063689DF8072043EA8263636002B082
S21400AB9870BD1143E2E71B220DF1070021462BF09A
S21400ABA8D4F923689DF80720042043EAC26323608B
S21400ABB8EDE700BF80FFFF0738B5094B0D461A685A
S21400ABC80021044611F058FA00234FF0FF32238381
S21400ABD8C4E900252361A260E382A37638BD00BFDE
S21400ABE8289704000138C0B205289ABF014B185CA4
S21400ABF8012070472D9704002DE9F04107461546B9
S21400AC0800240E46596888B0490A012922464FEAA8
S21400AC18510104F10104F8D8DC78997824031B88DC
S21400AC28C90201F4006104F480540C43C3F30A0318
S21400AC385203234492B24FF000089C18274B6FEA41
S21400AC480444039325F07843ED4302A90DF1070069
S21400AC581B2202938DF807802BF077F99DF80720C2
S21400AC68029B02A943EAC2630DF107001B2225F0E6
S21400AC787845049302958DF807802BF066F99DF8C1
S21400AC880720029B6FEA144443EAC26305934FF019
S21400AC98FF330794069307A9BB69012206F1100043
S21400ACA89847BB6905A90446012206F1080098479B
S21400ACB8BB69404518BF044604A90122301D9847C1
S21400ACC80122404518BF0446BB69304603A9984789
S21400ACD8404508BF204608B0BDE8F08101009AB29A
S21400ACE8044BD3F88420D206FBD4D3F88400C0F3F0
S21400ACF8811070470040005038B5184B0546D3F809
S21400AD0824010C4600F00700062823D8DFE800F0E8
S21400AD18040A121A1E0E1600012305B1286004B193
S21400AD28236038BD32F014FE0523F6E732F010FE35
S21400AD380623F2E732F046FE0323EEE732F042FE41
S21400AD480423EAE732F03AFE0223E6E734F080FD11
S21400AD580723E2E700231846DFE700BF008000501D
S21400AD6838B5104B0546D3F800310C4603F00303FC
S21400AD78022B0BD0032B0DD0012B0FD132F022FE65
S21400AD88032305B1286004B1236038BD32F020FEE5
S21400AD980823F6E734F05CFD0723F2E701230020DA
S21400ADA8EFE700BF0080005038B5104B0546D3F8D3
S21400ADB820310C4603F00303022B0BD0032B0DD0D7
S21400ADC8012B0FD132F0C4FD052305B1286004B16C
S21400ADD8236038BD32F0F6FD0323F6E732F0EEFDC9
S21400ADE80223F2E701230020EFE700BF00800050AF
S21400ADF838B5104B0546D3F840310C4603F003032C
S21400AE08022B0BD0032B0DD0012B0FD134F022FDD3
S21400AE18092305B1286004B1236038BD32F0D8FD97
S21400AE280823F6E734F019FD0B23F2E70123002088
S21400AE38EFE700BF0080005038B5104B0546D3F842
S21400AE4860310C4603F00303022B0BD0032B0DD006
S21400AE58012B0FD134F0FEFC092305B1286004B19C
S21400AE68236038BD32F0B4FD0823F6E734F0F5FC6D
S21400AE780B23F2E701230020EFE700BF0080005015
S21400AE8873B50D4600210E4B0191D3F88041064656
S21400AE9804F00304012C09D0022C0CD00C460EB189
S21400AEA8019B336005B12C6002B070BD01A8FFF7A6
S21400AEB87BFF0F24F3E732F081FD0190EFE700BF38
S21400AEC80080005038B5104B0546D3F840320C4683
S21400AED803F00303022B0BD0032B0DD0012B0FD14D
S21400AEE834F0B8FC092305B1286004B1236038BDE6
S21400AEF832F06EFD0823F6E734F0AFFC0B23F2E7DA
S21400AF0800231846EFE700BF0080005038B5144B02
S21400AF180546D3F800020C4600F0070004281BD8A4
S21400AF28DFE800F003090D111500012305B12860BC
S21400AF3804B1236038BD34F08DFC0923F6E732F0FF
S21400AF4847FD0823F2E734F088FC0B23EEE732F0DF
S21400AF581FFD0E23800AE9E700231846E6E700BF30
S21400AF680080005010B40D4C0B46D4F8204204F074
S21400AF780304012C0AD0022C0CD008B10021016071
S21400AF880BB100221A605DF8044B70475DF8044B5D
S21400AF98FFF70ABF5DF8044BFFF72ABF0080005092
S21400AFA8B0F5207F1FD009D8B0F5007F15D003D89C
S21400AFB868B1B0F5C07F0AD000200CE0B0F5607F1D
S21400AFC8FAD10B4BD3F88000C0F3011003E0084B0E
S21400AFD8186FC0F3033001307047054BD3F8900064
S21400AFE8C0F30460F7E7024B186FC0F38020F2E75F
S21400AFF8008000504FF400320E4B014610B500207A
S21400B0089A66FFF7CDFF484341F671320A490B4B63
S21400B018884294BF00200120DC69DA639A6822F42B
S21400B028401242EA00529A60E20344BF0022DA6302
S21400B03810BD00BF00900050005A62020000035086
S21400B0485F2898BF094B4FEA501294BF53F8223036
S21400B058074B00F01F0029B103F5805301228240F8
S21400B0681A60704703F50053F8E700BF34970400EA
S21400B078608200501FB50021B0F5807F044601911C
S21400B08800F0068100F29D80612800F295801F2856
S21400B09805D8002840F0928032F07AFCDCE0A0F177
S21400B0A82004412C00F28A8001A353F824F000BF44
S21400B0B8A1B0000065B20000A1B0000065B20000B3
S21400B0C885B2000085B2000085B2000085B2000097
S21400B0D865B2000065B200003FB20000F9B100009A
S21400B0E8BBB20000C5B20000F9B1000065B20000AE
S21400B0F865B2000065B20000C5B10000C5B1000029
S21400B108C5B10000C5B10000C5B10000C5B100005A
S21400B1188FB200001BB2000065B2000065B20000E6
S21400B12865B20000D9B20000CFB2000065B20000D8
S21400B138C5B10000C5B10000C5B10000C5B100002A
S21400B148C5B10000C5B10000C5B10000C5B100001A
S21400B158C5B10000C5B10000C5B10000C5B100000A
S21400B168C5B10000A1B00000C5B10000A1B0000044
S21400B178A1B00000A1B0000085B20000C5B1000073
S21400B188C5B10000C5B10000C5B10000C5B10000DA
S21400B198C5B10000C5B10000C5B10000C5B10000CA
S21400B1A8C5B10000C5B10000C5B10000C5B10000BA
S21400B1B8A1B00000A1B0000080284BD0019804B0D0
S21400B1C810BDB0F5A06F5ED028D8B0F5607F50D01F
S21400B1D819D8B0F5007F4CD004D8B0F5C07F3FF43E
S21400B1E85BAFEBE7B0F5207F38D0B0F5407FE5D110
S21400B1F832F0CEFB02464FF42070FFF7D1FEB2FBCA
S21400B208F0F2520833E0B0F5806F37D0B0F5906FA3
S21400B218D4D1002101A8FFF76FFDCFE7B0F5E06FA6
S21400B22851D00DD8B0F5C06F43D0B0F5D06F45D02B
S21400B238B0F5B06FC2D1002101A8FFF721FEBDE727
S21400B248B0F5F06F44D0B0F5086FB7D101A8FFF796
S21400B25887FDB3E732F082FB0190AFE732F098FB48
S21400B26802464FF42070FFF79BFEB2FBF0F2019205
S21400B278A4E732F073FB02462046F4E7002101A853
S21400B288FFF792FD9AE7002101A8FFF76BFE95E706
S21400B2984FF0E02302911B695B0705D532F078FB77
S21400B2A80290029B019389E703A902A8FFF7A0FD75
S21400B2B8F7E7002101A8FFF79BFD7FE7002101A81B
S21400B2C8FFF724FE7AE7002101A8FFF7FBFD75E7E4
S21400B2D8002101A8FFF7B0FD70E700BF08B5802081
S21400B2E8FFF7C8FE034B98429EBF4FF48032024BCE
S21400B2F81A6708BD005A620200A000501FB5034630
S21400B3080020B3F5807F01906FD027D8382B00F047
S21400B31882800BD8243B092B0FD8092B0DD8DFE8E1
S21400B32803F05F5F5F5F0C0C5A0C3675522B57D0D4
S21400B33807D83D2B3AD03E2B72D0019805B05DF861
S21400B34804FB802BF9D1394B1B6F03F00703013B35
S21400B358032BF2D8DFE803F03D36393BB3F5D06F60
S21400B36854D019D8B3F5A06F55D00AD8B3F5806F66
S21400B37836D0B3F5906FE0D1002001A9FFF7BCFCEA
S21400B388DBE7B3F5B06F26D0B3F5C06FD5D1002094
S21400B39801A9FFF72DFDD0E7B3F5006FECD00AD86A
S21400B3A8B3F5E06F3CD0B3F5F06FC6D1002001A925
S21400B3B8FFF742FDC1E7B3F5086FBED101A9FFF755
S21400B3C8CFFCBAE705230193B7E70323FBE7072378
S21400B3D8F9E70223F7E7002001A9FFF751FDACE7DC
S21400B3E8002001A9FFF7E0FCA7E74FF0E023029052
S21400B3F81B695B0705D532F0CBFA0C230393039B36
S21400B408E1E703A902A8FFF7F3FCF8E7002001A983
S21400B418FFF77CFD91E7002001A9FFF7A3FD8CE765
S21400B428002001A9FFF74EFD87E700BF0080005007
S21400B4384FF40022034B5A66012203F580439A62B2
S21400B448704700BF0090005070B504468020FFF794
S21400B45855FF032800F082804FF40022444B022157
S21400B4685A6645F60E03434AC2F88030424B996244
S21400B478012103F580539962936DD903FCD4D4E96E
S21400B48800131B0543EA0163E17B94F823500B4342
S21400B498217B43EA0143617B43EA0133A17B43EA0C
S21400B4A8811313619169D4E904031B0643EA806398
S21400B4B801F000410B43A17EE07E0B43217E43EA68
S21400B4C80143617E43EA01239361E169136A002917
S21400B4D823F00D0343EA010314BF0121002143EAC8
S21400B4E8800343EAC103136294F8203094F82200DC
S21400B4F8916A4FEA431332D194F8216021F0330160
S21400B50843EA06130B4343F0010393621B49194BA6
S21400B5189A6D31EA0202FBD1022217498A621A653D
S21400B5289A6D5200FCD41A69A16822F4700242EAA5
S21400B53801521A614FF000420F4B9A6118B9022265
S21400B54803F580539A6215B901220D4B9A6294F856
S21400B55824301BB1074B0B4AC3F8802070BD21F07E
S21400B568330129430B4343EA40039362EFE700BFE6
S21400B5780090005000C0005000D00050030001406A
S21400B58800E00050F1A7FFFF014B93F90000704759
S21400B598A5550020014B1880704700BF786500202D
S21400B5A8B0F5207F10B50C4642D008D8B0F5007F1D
S21400B5B833D003D888B1B0F5C07F0ED010BDB0F533
S21400B5C8607FFBD11F4A4C1ED2F8803023F0300330
S21400B5D843EA0413C2F88030F0E72AF0D4FC2AF0D5
S21400B5E8E0FC4FF48031184B164A1967136F013C7C
S21400B5F823F4704343EA0433136732F0C9F9044668
S21400B608FFF76EFBC0F1020120462AF0C4FC00F0EA
S21400B61835F8BDE81040FFF761BE0A4A4C1ED2F85E
S21400B628903023F0F85343EA0463C2F89030C5E735
S21400B638044A4C1E136F23F4806343EA842313677B
S21400B648BCE700BF008000500090005008B50121FC
S21400B658022000F0E1F84FF42070FFF7A1FC054B3C
S21400B66818702AF090FC2AF09CFC4FF48032024BAB
S21400B6781A6708BDA45500200090005008B54FF47E
S21400B688C070FFF7F7FCBDE808400449884294BF3D
S21400B698012102214FF42070FFF782BF80F0FA02E2
S21400B6A838B5044632F074F90546FFF719FBC0F1C1
S21400B6B8020128462AF06FFC0121002000F0ECF871
S21400B6C82CB1FFF7DBFFBDE83840FFF707BE034B9A
S21400B6D84FF420701978FFF763FFF4E7A4550020AD
S21400B6E810B5224B70B94FF40031214A18605166E4
S21400B6F802F598325268012A03D11E4AD2F8002170
S21400B7081A6010BD1B68002BFBD01B4A5268012A22
S21400B718F7D0184A8020C2F80031FFF7EFFD052859
S21400B7281FD14FF4C070FFF73BFC0128044604D134
S21400B73802214FF4C070FFF733FF07220F4B1A6140
S21400B7480122A3F580535A600B4A1369DB07FCD520
S21400B758012CD6D12146BDE810404FF4C070FFF743
S21400B7681FBF0122064B5A60CBE700BF34350020C6
S21400B778009000500080005000C0015000E00150CA
S21400B78800D00150044A4178536F23F4407343EACB
S21400B79801235367704700BF0040005010B50446A9
S21400B7A810B10020FFF79CFF124A136943F0040308
S21400B7B8136132F063FC2AF0F9FB0F4B5B6E5B01FA
S21400B7C842BF0E4B0E4AC3F8202434F02EF834F04D
S21400B7D8DFFA34F025F82AF0EAFB01F077FE1CB908
S21400B7E8BDE8104032F0D4B80120BDE81040FFF79D
S21400B7F877BF00BF00ED00E00080005000E0035077
S21400B8080000FF0F034A0179D36E23F030030B4381
S21400B818D366704700400050F8B504461C4BD3F872
S21400B8288420D106FBD4D3F88430C3F381139C421A
S21400B8382CD032F093F8012C064602D121462AF085
S21400B848AAFB33F0F2FF4FF00072124B07465A6617
S21400B85820462AF0B3FB4FF480630D4D621E9340DA
S21400B8682B676B6E9A0103D4D5F884309B060AD5ED
S21400B878384633F0D5FF022C08D13046BDE8F840EC
S21400B88800212AF088BBD5F88430EAE7F8BD00BF67
S21400B898004000500060005010B50C4608B932F061
S21400B8A85DF8074B21461B783BB1064B984204D8F7
S21400B8B80120BDE81040FFF7AFBF0220F9E700BF40
