S01B00006275696C642F72656C656173652F7A69676265652E73333714
S21400400008100020CD76000059B900007341030067
S2140040107341030061B9000069B9000073410300F1
S21400402073410300734103007341030073410300AF
S2140040306DB90000B48504007341030073410300AA
S214004040734103007341030073410300E5710000F0
S214004050734103007341030073410300734103007F
S21400406073410300734103006DBE000073410300FB
S214004070734103007341030073410300734103005F
S214004080734103007341030073410300734103004F
S214004090734103007341030073410300734103003F
S2140040A073410300957A0000797A0000734103009B
S2140040B0734103007341030073410300BD0D02000A
S2140040C02F9C03002B9C030021050200459C030047
S2140040D0339C03007D0D0200379C0300B1F1010004
S2140040E0FD0D02007341030073410300734103009A
S2140040F073410300734103007341030073410300DF
S21400410073410300734103007341030073410300CE
S21400411073410300734103007341030073410300BE
S21400412073410300734103007341030073410300AE
S20800413073410300CF
S214004134F0B5114A114C124E00F00105E3695F0711
S21400414413D40DB9334213D103EA00078F4207D1C3
S2140041540B4A1A40002A14BF6FF001000020F0BD7D
S214004164013AEBD16FF00200F9E74FF0FF30F6E7C3
S2140041746FF00100F3E700BF80969800000003503C
S214004184020001000B4B70B5D96911F480310DD1D2
S21400419401244FF48072084E084DF46020462C64C7
S2140041A41A61FFF7C5FF3464EC6070BD6FF0010060
S2140041B4FBE700BF0000035000100350002003502C
S2140041C438B541F6713301220C4C0021E569E363EE
S2140041D40B4B05F48035DA600223606121202361ED
S2140041E4FFF7A6FF10B92120FFF7A2FF0122054B17
S2140041F4DA600DB10023E36338BD00BF000003504E
S214004204001003500020035070B5134C6061E3693E
S2140042145B071ED40E4656F8043B8D18A361AE42C7
S2140042240BD10423002121202361FFF781FF58B915
S214004234BDE870402120FFF77BBF08210846FFF742
S21400424477FF10B10423236170BD56F8043BA361C5
S214004254E5E74FF0FF30F7E7000003502DE9F84399
S214004264154641F67132164B8946DF69DA63012238
S214004274064603F58053DFF8508007F48037DA608B
S21400428455B9284601220F4BDA601FB10022A3F568
S2140042940053DA63BDE8F88306F5005404EA08041C
S2140042A4A41BAC4228BF2C46494622463046FFF79C
S2140042B4ABFF0028E6D12644A1442D1BE0E700BF4F
S2100042C4000003500020035000E0FFFF45
S2140042D02DE9F04F4FF0FD0BC9B09A460DF11B09C2
S2140042E09DF8503108AFCDF80C90CDF808B0019786
S2140042F0059303890446009383790E4690464188C9
S2140043008288407811F078FA054650B10090A3886C
S214004310002062883A4911F0B3FD284649B0BDE84E
S214004320F08F99F8000032F0A0FF38B12846A38835
S2140043306288344911F0A4FD8D25EEE75A463946C9
S21400434099F8000032F039FF8346002851D0529B7E
S2140043501BB1BDF84C3198424BD8002399F8009019
S2140043600793A9F14102012A5FFA8BF123D8384658
S2140043700139254ADFF898C05FFA81FE734513DBE2
S214004380059B04210792C3B907AF18221F489FED6B
S2140043901A7B02FB060420460A460830394684ED9E
S2140043A0027B16F0C3FA11E010F8011F01335140EA
S2140043B00CFB01F2E2E7059B33B123464A4638463A
S2140043C000960FF041F9A8E70829DED9B8F1000FEA
S2140043D001D088F80090BAF1000F01D0AAF800B01A
S2140043E0529B002B99D05A46184608A916F09EFAFA
S2140043F093E7012591E700BF0000000000000000E1
S214004400692F04009E2F0400C59D1C81801000208B
S21400441093010001000000002DE9F04F93B0CDE9B4
S2140044200A32DDE91C530E9353EC102BCDE908013C
S214004430104619468DED060B1E9E15F001FD80B147
S214004440DDE906014FF0FF32C54B15F021FD40B9FE
S214004450DDE906014FF0FF326FF4801315F0FAFC29
S21400446070B1DDE908019DED060B0E9B1E96CDE9A9
S2140044701C53DDE90A3213B0BDE8F04F00F088B9EE
S2140044800022DDE90601002315F0E4FC002800F018
S2140044903381DDE906A303F1004BCBF30A5016F493
S2140044A08063A0F2FF3008BF06250F9315F0F6F9DB
S2140044B09BA3D3E9002315F05BFA9BA3D3E9002363
S2140044C015F0A0F8CBF31304894644F07F518046DC
S2140044D00022A44B504641F4401115F091F894A3E5
S2140044E0D3E9002315F044FA02460B4640464946F7
S2140044F015F088F815F0D6FC044615F0CFF98EA313
S214004500D3E900238046894615F032FA0022964BFE
S21400451015F078F815F0C6FC89A3D3E90023074602
S2140045204946404615F024FA80463846894615F036
S214004530B5F985A3D3E9002315F01AFA02460B460F
S2140045404046494615F05CF802460B46CDE90C237A
S21400455015F00EFADDE90C2380468946104619460A
S21400456015F050F80022CDE91001804B4046494630
S21400457015F028FB00227E4B15F044F802460B4649
S2140045804046494615F01EFB00227A4B15F03AF8D5
S21400459002460B464046494615F014FBDDE90C235F
S2140045A08046894600204FF0804115F029F80246E3
S2140045B00B464046494615F025F802460B46DDE90F
S2140045C0100115F0FFFA07F2FF3700226A4B15F0CC
S2140045D019F800223B0515F0CBF952465B4680469B
S2140045E0894615F055FC002840F08980CDE90C89F5
S2140045F004F16303C62B8CBF0527042731051BD5A2
S21400460053A3D3E900235046594615F037FC00283B
S2140046107FD051A3D3E900235046594615F01AFC23
S214004620002876D00027A542C6BF2C1B04F1FF3514
S21400463000253C4646F480660E9B9F422CBF4FF0FA
S2140046400008A3EB070816F0020903D0002F18BFD6
S2140046504FF000083CB1DDE90C235046594615F0F2
S214004660B1FA82468B46DDE906010022002315F0EA
S214004670F1FB10B10BF100439B46DDE9080126F47F
S2140046800063CDE90183DDE90A324BEC10AB0095FF
S21400469000F07EF802465FB3DDE9091316F0200F3E
S2140046A000F10105089E0CBF65204520B047DDE9F6
S2140046B008010523002205930A23002CCDE90232C7
S2140046C007F1FF374FEAD473B8BF64422A46019316
S2140046D004970A9B009434F022FC0246B9F1000FBE
S2140046E006D00B9BC41A0B9B1A190E9BA34245D8E7
S2140046F0104613B0BDE8F08FDDE906ABCDE600222C
S214004700404649461A4B15F05DFA013CCDE90C01CE
S2140047106EE7002D90D00F9B002B8DD0013D8BE7D0
S214004720FB799F501344D33FB3C8608B288AC63F9B
S21400473061436F63A787D23F71A379094F930A40FD
S2140047401655B5BBB16B0240EF39FAFE422EE63F76
S2140047502D431CEBE2361A3F0000000080842E41F9
S214004760FFFFEF7F0000F83F0000E03F00002C4016
S21400477000002440000018400000F03F2020DDE943
S2140047800913089DA8470134ADE700BF00000000EC
S2140047902DE9F04F5BEC10AB97B0CDE90501DDE9F4
S2140047A02058CDE90723504652465B465946229F7D
S2140047B015F046FB70B90323CDE902870193AA4B97
S2140047C00093DDE90501DDE9072334F0DAFA17B0D6
S2140047D0BDE8F08F4FF0FF326FF480135046594615
S2140047E015F038FB28B10423CDE9028701939F4BCF
S2140047F0E6E74FF0FF32504659469D4B15F048FB12
S21400480068B19C4A07F00403002B08BF03229A4BAA
S2140048101CBF13460422CDE902870192D0E750461A
S2140048208DA3D3E90023594615F032FB38B98CA383
S214004830D3E900235046594615F00CFB68B1DDE974
S2140048400723DDE905014BEC10ABCDE92187209568
S21400485017B0BDE8F04FFFF7DFBD0022002350463B
S214004860594615F0F7FA002800F091805B4652464C
S2140048700020002114F0C4FE012382468B460993D3
S21400488017F4806400F08580092D40F285800024AE
S21400489030210EABA5F109020134202C03F8011BD0
S2140048A0A5EB040901D09442F6D15946504615F0BE
S2140048B0F9FA724B054603EBC90393ED007B8DEDC9
S2140048C00A7B14F0EBFF02460B465046594614F09E
S2140048D097FEDDE90A2315F04BF802460B46CDE9B4
S2140048E00C2315F007FB064614F0C8FF02460B46DD
S2140048F0DDE90C0114F084FE02460B46CDE90C23DC
S21400490000225F4B15F0C4FA002848D00136304626
S21400491014F0B4FF02460B46DDE90A0115F0A4FACE
S21400492008B100260135B9F1000F45D1284614F02C
S214004930B5FF02460B465046594614F061FE00226B
S2140049404F4B15F087FA10B9E90700D501350A2153
S2140049500EAB1A19202C0AD095FBF1F001FB10556E
S214004960303502F8015B013405460028F2D107F025
S2140049700302012A55D1B8F1000F52D0099A12B994
S21400498017F00C0F01D008F1FF38302240E00990F4
S21400499076E74FF0060988E7A946002485E7002257
S2140049A0DDE90C01364B15F055FA0028BBD10EB1E7
S2140049B0F007B8D50136B6E70A210EAB1A19202C37
S2140049C00DD0B6FBF1F001FB1063092E03F13003A6
S2140049D009F1FF3904F1010402F8013B11D8302136
S2140049E0A1440EAA202CB2D04C4504F101030AD1F2
S2140049F004F158020DEB02042E2204F8202C1C466B
S214004A00A5E70646DBE7A1541C46EBE71A5501343A
S214004A10444506D2202CF9D1CDE9028701940EAB8D
S214004A20CEE6202CF8D0099B3BB12D2204F158038A
S214004A306B4403F8202C0134EEE77A0704D504F122
S214004A4058032B226B44F4E73B07E5D504F15803E3
S214004A5020226B44EDE700BF0000000065CDCD418D
S214004A600000000065CDCDC1584D04005C4D04002B
S214004A70FFFFEF7F4F4D0400544D0400E894040000
S214004A800000E03F0000000070B58EB02C22002130
S214004A9003A815F0BBFD64234FF002320893CDE95E
S214004AA005230B2301218DF834305B4B8DF8101055
S214004AB01D880D4040F0A980084638F0EFFC0A2219
S214004AC0564B574C1A704FF42873ADF812304FF00F
S214004AD0FF332360534B54491B8820460B82534BAD
S214004AE0534A1B68CD828B61524B0D621B884B82EA
S214004AF0514B1B68CB611CF0F7F920B14FF41B71CA
S214004B004E4839F009FE0521206834F0F1FB20B14B
S214004B1040F27D21494839F0FFFD206814F02CFD55
S214004B20474B2068196834F0A6FC0C2539F01EF9AE
S214004B306843099039F01AF968430DEB05010790B0
S214004B40206816F025FC20B140F295213B4839F04C
S214004B50E3FD25681EF072FD00220146284634F06B
S214004B6002FD20B140F29721344839F0D5FD40F2DD
S214004B700353344D344E2B80052396F90000AB705A
S214004B807F2801D11CF0A6FA3378EB7039F0EEF8E6
S214004B9000EB80008000A88039F0E8F80023C00011
S214004BA04FF0FF31E880AB604FF0FF3018A3D3E939
S214004BB0002338F0C5FD2549206834F08DFC2068B8
S214004BC002A935F0A9F820B14FF434711B4839F02A
S214004BD0A3FD042220680DEB020134F021FC04281A
S214004BE004D040F2D721154839F096FD01A90120DE
S214004BF034F02CF806F0F4FE01201CF0FDFE30F038
S214004C0014F81CF023FF1CF0FDF90EB070BD00BFB9
S214004C100A0020FF42030000425C00209863002048
S214004C20745400201AAE0400546A002020AE04001B
S214004C30C5D4030018AE04001CAE0400878404002C
S214004C40A467002068540020706D002039D503004A
S214004C500348044B834202D0034B03B11847704706
S214004C60A46D0020A46D002000000000064B07493C
S214004C70C91A891048BF0131491003D0044B0BB143
S214004C8001481847704700BFA46D0020A46D00209F
S214004C900000000010B5064C237843B9FFF7D8FF94
S214004CA0044B13B10448AFF300800123237010BDFA
S214004CB06816002000000000C0D1040008B5044BB0
S214004CC01BB104490448AFF30080BDE80840CDE7B7
S214004CD0000000006C160020C0D10400A3F5803A46
S214004CE0704700BF154B002B08BF114B9D46FFF7C2
S214004CF0F5FF00218B460F461148124A121A15F08E
S214004D0085FC0C4B002B00D098470B4B002B00D09B
S214004D1098470020002104000D000B4815F0BCFF4A
S214004D2015F04CFC200029002EF072FF15F0A2FFB3
S214004D30000008000000000000000000081000202E
S214004D4008100020FC63002001AD010007B501211A
S214004D5020200DF1070200F027FF50B1012120208E
S214004D600DF107028DF8071000F02EFF03B05DF876
S214004D7004FB9DF807100129F8D00122084814F01A
S214004D8033FB01210DF1070220208DF8071000F0FB
S214004D901BFF2EF0C1FE4FF4FA6000F015FEE5E7AB
S214004DA068EB030038B501F097F8012805D001F04C
S214004DB093F8022801D001F0A7F8064D2B783BB9EE
S214004DC001F08AF80128044602D12EF018FF2C7054
S214004DD038BD00BF2E5D002010B50446008800F0E8
S214004DE05FFEA37884F84400834202BF0123E37089
S214004DF02371074B04F11C00C4E9073400F02AFFB6
S214004E00224620880349BDE8104000F061BE00BF7E
S214004E10FB380300C538030070B5C37804460D465A
S214004E201646002B34D1D1B1214814F0DDFA012307
S214004E30E370E36CA6600BB1E06D9847E368F61A82
S214004E4063699E4221D2217E1A480131C9B2217679
S214004E5014F0CAFAA36D13B1217EE06D9847E57091
S214004E602EF06DFE15B3237903BBA268238A801A41
S214004E7083421BD801231048237114F0B5FA236D22
S214004E80A3B1E06DBDE87040184701232376E6E73E
S214004E900029E4D1094814F0A7FA636DE660E570CE
S214004EA02571002BDBD0E06D9847D8E770BD00BFBA
S214004EB090EB0300A1EB0300CFEB0300BCEB030079
S214004EC0F8B51E46838804460D4617460BB1868005
S214004ED0F8BD817800882EF031FD0123E370084B81
S214004EE0E5802781A680C4E903340C34204600F010
S214004EF0B1FE29462046BDE8F8402EF017BE00BF9A
S214004F004739030010B501790446B1FA81F10088EB
S214004F1049092EF08AFD21796088B1FA81F14909A4
S214004F202EF083FD034B1A68A24204BF00221A60CB
S214004F3010BD00BF8416002070B543790446A3B1A7
S214004F4000880E4E04F10805336813B10C4B1B782D
S214004F506BB121792EF069FD64210A4B3460A360A1
S214004F602846BDE870402EF0E1BD4088E9E70648D7
S214004F7014F03AFA054B3221A360F1E784160020BC
S214004F802F5D0020054F0000E5EB0300394F0000C1
S214004F9010B50446E0B10F4814F026FA01236371F9
S214004FA0A37953B9217920882EF03FFD236B7BB17E
S214004FB0606B0121BDE8104018472046FFF7A2FFAE
S214004FC004F108002EF0B7FD2046FFF7B5FFEDE729
S214004FD010BD00BF1BEC030010B50446F8B1104826
S214004FE014F002FA00236371A3796BB92179208843
S214004FF0B1FA81F149092EF018FD236B7BB1606B85
S2140050000021BDE8104018472046FFF77BFF04F15B
S21400501008002EF090FD2046FFF78EFFEDE710BD4E
S21400502026EC030010B5044668B1074814F0DCF916
S214005030637920461BB1BDE81040FFF7CDBFBDE841
S2140050401040FFF7A5BF10BD32EC030010B50E4CA4
S2140050500E48214614F0C8F982210D4814F0C4F910
S21400506082210220A21E00F0AFFD014630B134F8C6
S214005070022C0848BDE8104014F0B6B90648BDE852
S214005080104014F0B1B900BFC655002041EC030033
S2140050905CEC030067EC0300ABEC030038B5124C85
S2140050A082212246022000F07FFDA51C014698B111
S2140050B022880E4814F098F92A460D4B03F1240175
S2140050C053F8040B8B4242F8040BF9D119889B78ED
S2140050D0118093702623238035F8021C054A064863
S2140050E0BDE8384014F080B9C4550020B6EC030083
S2140050F036ED0300C655002014ED0300034B1B7865
S2140051001BB18B4201D82EF007BD7047106D0020F2
S21400511010B5044601460D4814F066F9012C0FD16F
S2140051200B4B0C481A884FF6FF739A421EBF00229C
S214005130084B5A742EF05FFCBDE8104001F066BBC9
S2140051400448BDE810402EF058BC00BF5DED0300DB
S214005150C46C00203067002070B50024184D194E2E
S2140051603378A34217DC0024174D184E3378A34239
S21400517017DC0024164D174E3378A34217DC00F0D8
S214005180ABFE0128144818D12EF035FCBDE870405F
S214005190124800F0B3BE2846FFF71EFE0134603505
S2140051A0DEE728462EF00DFC01343435DEE72846CF
S2140051B02EF040FC01343835DEE72EF01EFCE5E725
S2140051C0A8210020355D0020C8250020365D00207F
S2140051D0781F0020345D0020306700201151000049
S2140051E02DE9F04F87B0FFF759FFBA4B05A8059396
S2140051F02EF044FC054615F005F9B74CC2B21F2A3E
S214005200627004D9B54814F0EFF800F0D1FB2946D7
S214005210A01C15F08BFB05A82EF030FC054615F0FB
S214005220F1F8C2B21F2A84F8212001D9AC48EAE777
S214005230294604F1220015F079FB05A82EF01EFC85
S214005240002604462578002D40F09280A54CFFF7F6
S21400525083FF2378DFF8D4A2DFF8D482A24E00932F
S2140052609AF8003098F800203178A04814F0BCF87E
S214005270327898F800109AF80000531803449C4FB0
S21400528020782C4603443846DBB2AA4200F3A182BB
S214005290012B38BF0123DFF860B202935A46002381
S2140052A05D464FF482714FF6FF74029801339842C0
S2140052B013705180948002F10C02F6DC8D4B8E49FF
S2140052C08548AB6000F0DAFEE879AB6800EB40009A
S2140052D003EB800000F0B2FCEB790133EB71874BF7
S2140052E01B88A34203D08449854800F0C9FF4FF0CD
S2140052F00009804C32784A4500F3748200274FF04C
S2140053000C09804ADFF8F0B198F800003178B8420E
S21400531000F37D8247180C21002501FB07B19AF89F
S21400532000009423A842784A00F38F820C2598F850
S214005330003000274FF070083678DFF8F8A11E44DA
S214005340064405FB06B5674B1B78BB4200F3B282EA
S2140053500299694800F000FD059B5E491A468B429B
S21400536040F0BB82694807B0BDE8F04F14F03CB887
S214005370532D0FD163784C2B40F01E81A378502B11
S21400538040F01A810122624B1A7005A82EF076FBB7
S214005390044657E7422D0BD16378542B54D1A01CFA
S2140053A000F0EAFB554B188018462EF068FAECE73A
S2140053B0582D33D8412DE8D9433D152DE5D801A306
S2140053C053F825F0475700008B5300008B5300001E
S2140053D08B5300008B5300008B53000039550000A0
S2140053E08B5300008B530000895400002F5400009C
S2140053F08B5300008B5300008B5300008B53000030
S21400540039560000B95500008B5300008B5300003E
S2140054108B5300008B530000A5560000692DB4D1B5
S214005420601C2EF038FB80B22EF072FBADE72E4BE0
S2140054300120197800232E4A994202F1A402A4DD25
S21400544002F8A20C0133F7E7601C00F095FB054656
S214005450E01C2EF046FB01210246284600F0DAFA50
S21400546060212C482C4C03785943621865524FF43F
S214005470FA6111824FF448715161322151832749F4
S21400548011650133037080E7601C00F075FB002295
S21400549034268046224F114600F0BCFA3878214D5B
S2140054A006FB00F325F80380EA18E3781046693B0C
S2140054B018BF012393702EF084FA3B78002103FB7B
S2140054C006550126184A33441560516016743B7021
S2140054D05BE700BFC6550020446600207CED030055
S2140054E093ED0300305D0020335D0020A3ED030044
S2140054F0DC1C002050170020D8160020C46C0020AA
S21400550088160020DC1B0020201A0020F3ED030084
S2140055102F5D0020355D0020A8210020673A03009B
S214005520365D0020C825002030670020315D002051
S214005530325D0020D0180020601C00F01DFB002209
S2140055401146804600F066FA3422C94DC94F2878C5
S21400555002FB00F327F80380F918E3780846693B56
S21400556018BF01238B702EF02CFAC34A0023114675
S214005570906BB8B901EB831134232A7802FB0373CE
S2140055808B635EB9BD4A3346114652F8040B78B9B0
S2140055903422287800FB027241F823202B7801334E
S2140055A02B70F2E60133042B02F14002E0D1E8E76B
S2140055B00133042BE9D1F1E7601C00F0DDFA8046E8
S2140055C0E01C2EF08EFA01210246404600F022FA38
S2140055D06021AB4FAB4D3A78A42051436B1825F8A9
S2140055E001804FF448711982596132215983A649C6
S2140055F0DFF8BCC29965E178A44C642904BF012198
S2140056009970237858430CEB00010CF800304FF4E7
S2140056100070488003200871887102EB420005EB99
S214005620401532200133DBB201324B718D6081F8B8
S214005630A0003A702370A8E6601C00F09DFA0022D5
S2140056404FF038088146924F114600F0E3F93B7858
S214005650904D08FB03F325F803904FF00109EA1874
S21400566082F80490E3786BB1E01C00F085FA002223
S2140056700446114600F0CEF93B7808FB03535C80E5
S21400568083F8069084487C4A037899015354397805
S21400569002EB8314C1EBC10205EBC20262634A1C33
S2140056A03A70EEE6601C00F067FA0746E01C00F071
S2140056B063FA0546601D2EF014FA044602460121E0
S2140056C0384600F0A7F9224660242846012100F05B
S2140056D0A1F9DFF8ACC16B4A9CF800304FF03208F5
S2140056E004FB03F017524FF44877DFF89CE11118DB
S2140056F00F824F61A1F81A80C1F858E0591CC9B250
S2140057004C43101915539424644D07824761A0F842
S2140057101A80C0F858E0981C8CF800002878604F73
S214005720444303EB430301EB410107EB040C02EB9C
S214005730431302EB41123855CCF80430CCF808205D
S2140057400130287021E6601C00F016FA0746E01CBF
S21400575000F012FA002205461146384600F05AF9C3
S214005760002238241146284600F054F94848494A91
S21400577003784FF0010E04FB03FC02EB0C0122F849
S2140057800C704FF0000C81F804E081F806C003EBC3
S2140057900E01C9B24C43171915539C1C0470702493
S2140057A0404D87F806C0287887F804E044433E4F0B
S2140057B0C3EBC303C1EBC10107EB040C02EBC3034D
S2140057C002EBC1023855CCF80430CCF808207044FF
S2140057D0B7E790F805C001358C4584BF0471447165
S2140057E0A43052E5B9F1000F07D01BF8052C02EBE8
S2140057F0420204EB8204CBF808405946384601F0D2
S214005800E7FA09F10109A4370BF10C0B72E57918D8
S2140058100AD0481E09FB00B0C07900EB400004EB3C
S214005820800409FB01B08460104609FB0151039215
S21400583001F0A8F831781D48394409FB015100F001
S214005840CBFF039A013740325EE5FD4218BF11F8E0
S214005850050C03911EBF00EB400004EB80048C6037
S21400586003FB052000F0D0FE039901350C3156E508
S214005870365D0020C8250020DC1B00203067002095
S214005880355D0020A8210020FD500000335D00207B
S214005890345D0020781F0020325D0020315D00203E
S2140058A0201A0020305D0020D01800206C1F002039
S2140058B0DC1C0020F74218BF15F8053C29461CBF23
S2140058C003EB430304EB830408FB07A018BFAC609C
S2140058D000F070FD01370C3535E513F8011D002981
S2140058E07FF43BAD3B2102F8011C36E507B50121EC
S2140058F021200DF1070200F057F918B99DF807208E
S214005900024B1A7003B05DF804FB00BF106D002058
S21400591007B5064B8DF80700187001210DF1070238
S214005920212000F051F903B05DF804FB106D002053
S21400593007B5022101200DF1060200F035F938B94D
S214005940044813F051FDBDF8060003B05DF804FBF3
S2140059500020FAE710EE030007B50221ADF80600B6
S2140059600DF10602012000F02FF9014610B10348A0
S21400597013F03AFD03B05DF804FB00BF31EE030000
S21400598010B5FFF7D5FF04460146074813F02CFD77
S2140059900121064813F028FD24B9BDE81040012077
S2140059A0FFF7DABF10BD00BF61EE030073EE030021
S2140059B008B5044813F018FD00F016F92EF0ACF800
S2140059C02EF0A7F889EE030038B50446084D094BBB
S2140059D028462B6000F03EF9002C18BF21462846CA
S2140059E0BDE8384008BF4FF496712EF09FB800BF50
S2140059F0CC260020B53A030010B5044C237823B912
S214005A00034838F035FE0123237010BD385D0020B2
S214005A101088040073B506460D461446FFF7ECFFE3
S214005A200E4A330AD35C8DF805608DF804307DB1DC
S214005A30012C04D0032C09D00022012101E02246CB
S214005A40022101A801F0FAFE02B070BD0022F7E7BD
S214005A5004212A460DEB0100F4E700BF8C85040004
S214005A6007B5064A030AD35C8DF8050001A88DF831
S214005A70043001F017FF03B05DF804FB8C850400CA
S214005A8007B5064A030AD35C8DF8050001A88DF811
S214005A90043001F033FF03B05DF804FB8C8504008E
S214005AA007B50A4A030AD35C8DF805008DF8043062
S214005AB000230DF1030101A88DF8033001F04AFF21
S214005AC09DF8030003B05DF804FB00BF8C8504005E
S214005AD02DE9F043214C85B0064688469146FFF7EF
S214005AE08BFF23781BB901F08DFE012323701C4A1F
S214005AF0330AD35C30228DF80C300023194F8DF812
S214005B000D6002FB03F4395DE51901BB01233B552B
S214005B104FF0FF3304F1100013493844AB606E8039
S214005B20C5F80480C5F80C9008F07AFE04F1080168
S214005B30042239440D4B009503A801F039FFA968EB
S214005B4002460B4813F050FC05B0BDE8F083013365
S214005B50102BD6D1074813F047FCF5E7375D002039
S214005B608C850400F4260020C33A0300D53A0300CF
S214005B7096EE0300C4EE030080B10278A2F1410362
S214005B80032B0BD840783038C0B2082806D8054B0F
S214005B90134413F8413C40EA032070474FF6FF7069
S214005BA0704700BF8C85040008B50B4642B101461D
S214005BB00448006803F040F8BDE808402DF0A2BF96
S214005BC0022008BD9C67002008B50B4642B101467E
S214005BD00448006803F0B8F9BDE808402DF092BF0D
S214005BE0022008BD9C670020F0B50026124F8DB03D
S214005BF0FF2300930A223346386802A92EF0CAFD16
S214005C00C0B102AB1D4603EB800404E055F8043B2C
S214005C10B34228BF5E1CAC423868E9D9296803F055
S214005C2019FB0028F2D02D28F0D00DB0BDE8F040CA
S214005C302DF068BF0DB0F0BD9C67002028B1034B67
S214005C400360034B43600023836070471900000322
S214005C5044670020FF2307B50021044A009308305C
S214005C6008F062FD03B05DF804FB00BF273B0300AD
S214005C700B460449024608680349097808B12DF026
S214005C8065BF7047002A00203A5D0020F7B50C4635
S214005C9018B12921194838F03FFD246823685E7939
S214005CA05F8830463946FFF7E3FFF0B18568E5B117
S214005CB0A089227D3946904291BF0020801AA368B1
S214005CC080B294BF03469B18E27C00903046A847FB
S214005CD00138032803D8DFE800F0080F0B0D002476
S214005CE0204632F02CF8204600E0812003B0F0BDBC
S214005CF08024F5E79324F3E78724F1E7ECEE03002E
S214005D00F8B515460D4A044610680D4A0B4611783C
S214005D1050B122462DF01AFF034628B100210C2769
S214005D20C678B14201DB0020F8BD07FB01F45A68D3
S214005D301019125BAA42F7D00131F2E7002A0020C0
S214005D403A5D002008B5034B1B6803B19847002056
S214005D5008BD00BFFC2900202DE9F74F04460D467C
S214005D600026454B454F1860454B197033010021FE
S214005D70F85C01360FF02EFB0C2EF7D10C2D28BF49
S214005D800C254FF0000901953C4EDFF800A13D4D73
S214005D90DFF8FC80019B4B4502DC03B0BDE8F08FCA
S214005DA023784FF0000B337063887380A388B3802A
S214005DB0A379C6F80880B371E379C8F8005088F86C
S214005DC004304FF00003A768A8F80630E3795B4577
S214005DD00ADC012116F8100B0FF0FCFA08F108088F
S214005DE009F101090C34D5E74FF0000338886B81C0
S214005DF02880FB784FF0000C2B81BA78C5F804A0F9
S214005E00002A00920CBF802240222A7379680AF189
S214005E100C02634513DC03EB43030AEB830ABB68FF
S214005E2043B1009A4FF6FF71B2FA82F2164B52094E
S214005E3031F015FF14350BF1010B0C37C6E7B1F83E
S214005E4000E00CF1010C22F80CEC91F802E00C32A8
S214005E5002F816EC91F804E00C3102F815EC11F893
S214005E6009ECBEF1010F14BF4FF0100E4FF0110EEB
S214005E7002F814ECCDE700BF002A0020C84000203E
S214005E803A5D0020043000208D5C0000042A0020CB
S214005E9084320020014B1860704700BFF8290020AC
S214005EA070B5128805460E46FFF72AFF044670B105
S214005EB002790499806814F0FBFB064B1B680BB94B
S214005EC0002070BD3146284622889847F8E786208D
S214005ED0F7E700BFF829002008B50EF017FB0228E8
S214005EE006D0012806D0044B18784000C0B208BD82
S214005EF00120FCE70220FAE7395D0020014B18601C
S214005F00704700BFF4290020034B1A781AB9012203
S214005F101A700AF001BB7047395D00200022064B5C
S214005F2010B51A70054B1C682CB1FFF7D5FF234639
S214005F30BDE81040184710BD395D0020F429002048
S214005F4037B50446002832D00EF0E0FA022830D1E9
S214005F50608932F071FAE079237A003818BF0120A0
S214005F60012B637A08BF40F008000BB140F0100028
S214005F7063890BB140F00400257CA188A2790DB19D
S214005F80E36873B90C4B0FF001FE217808460FF05A
S214005F9079FE31F05DFD002814BF0320002003B019
S214005FA030BDCDE90035054B0FF0F0FDEDE70220E2
S214005FB0F5E70120F3E700BF823C0400850B0400F0
S214005FC008B50CF007FC014630B1044813F00CFA93
S214005FD0BDE808400CF0A2BF08BD00BF5EEF03009E
S214005FE0034B044A5B7C012103201370FFF7ECBDD2
S214005FF0306700203B5D002010B50446FFF7F0FF39
S214006000B4F57F4F0BD100240F4B1A8813449C70B5
S214006010FFF71CF82046BDE81040FFF7D5BC4FF64A
S21400602001739C4204D1BDE8104008482DF0CBBC5B
S2140060304FF602739C4205D1BDE81040044B187819
S214006040FFF766BC10BD00BFC455002030670020B7
S214006050106D002010B5074C012122460320FFF7E3
S214006060A3FD28B92378044A003B18BF01235374C4
S21400607010BD00BF3B5D002030670020F8B5564BD2
S214006080564C1A884FF6FF739A4218BF03234FF0F8
S214006090080218BF2370524B36251A70322230265B
S2140060A05A70DA70DA714FF400121D711D724D4D80
S2140060B09E70C5644C4D5E7105654C4D33268565F6
S2140060C04B4D4264C5654B4D012245664A4D9E7157
S2140060D085664A4D86180567494DC667456720257B
S2140060E080F8785080F8845000F12105C0F8885078
S2140060F0444E454D80F84820C0F88C5080F8542017
S21400610080F8602080F86C20C0F8806080F89020CE
S214006110C0F89440C0F8B8303C4B3D4CC0F8BC309A
S2140061200223C0F898403B4C80F8C030C0F8A4402A
S2140061300F24394B80F8A840C0F8C430374B384C91
S214006140C0F8C8308223C0F8AC40364C80F8CC305B
S214006150C0F8B0400924344B344DC0F8D030344B2E
S21400616080F8B440C0F8D4302C7C324B80F89C20A9
S214006170C0F8A00080F8D820C0F8DC3044B12E4B20
S21400618080F8E420C0F8E03005F11103C0F8E830EC
S2140061904FF0000CCA798E6802EB42039F00443031
S2140061A006EB830326F807C0586001200D3498706C
S2140061B0DC701318CB71FFF799FBFFF74BFFFFF767
S2140061C08BFE012806D12B7C23B1BDE8F84017488A
S2140061D02DF0F9BBF8BD00BFC46C0020116D002087
S2140061E03C5D0020A585040001002000A485040075
S2140061F002002000A385040003002000A2850400FE
S214006200040042000500420007003000FDFF2100A8
S2140062101200100100404200A085040000FF440167
S2140062209085040006004200C45500203067002018
S21400623002FF2001106D002001FF100113B5044677
S2140062400E482DF027FB6422C0F30F43637083B221
S214006250B3FBF2F3A0782370202201212DF098FCE6
S214006260A078212201212DF093FC4EF66021201DFE
S21400627002B0BDE810402DF059BC00BFC46C002031
S2140062800B7870B583704CF61E0303804FF0201316
S214006290C362012380F8303080F83C30C3180364B2
S2140062A0124B044643640223114A80F84830114BCF
S2140062B08263C3644063CA798D6802EB420305EBD0
S2140062C0830004F12C0646600B4E45F8236000233D
S2140062D08360531CCB71094B201DC4E90134FFF7C2
S2140062E0B9FC2046BDE87040FFF7A8BFFDFF2100BF
S2140062F021002000A6850400010001033D62000085
S214006300437B044A0121137000781130C0B2FFF7B6
S2140063105BBC00BF465D002038B504460078054DDE
S21400632011302A460121C0B2FFF73EFC08B92B788F
S214006330637338BD465D0020024B53F820002DF0F5
S214006340ECBC00BFE4320020012908B506D00229C3
S21400635007D049B92DF0D8FC002008BD2DF0D7FC99
S214006360FAE72DF0D7FCF7E7024813F03DF80120D6
S214006370F3E700BF8BEF030010B4054C114654F84A
S21400638020001A46BDF804305DF8044BFFF7DCBF6A
S214006390E4320020002310B5044683810364A0F88D
S2140063A044304830FFF756FC014BC4E9123410BDA8
S2140063B0013D030038B504460B781A4A43700D4673
S2140063C042F82300FFF7E6FF2046FFF7A5FF4FF44D
S2140063D0401323610123144A2375A261134A84F8EB
S2140063E02030E261124A84F82C306262114A84F846
S2140063F03830A26204F10C0222630F4A04F10D0346
S2140064006263E363EA79A86802EB420300EB830168
S21400641010344C60094C40F82340094B8B60531CE9
S214006420EB7138BDE4320020455D002008002000F6
S214006430126D002000FF300001FF10010201010470
S2140064407963000010B47024427B0D48013A01299C
S21400645004FB020006D0022908D059B95DF8044BA7
S2140064602DF052BC5DF8044B2DF051BC5DF8044B8A
S2140064702DF050BC03485DF8044B12F0B5BF00BFCA
S214006480D0180020A7EF0300B0F85C302DE9F041EB
S2140064908B4204460E4638D0437B077C8BB31C4A9F
S2140064A012789A422DD370251A4A013B05FB032326
S2140064B090F80F801B7B42462DF03DFCB845054604
S2140064C001D1FF281FD13A463146204694F8903035
S2140064D02DF031FC2F460546552212216078A4F88F
S2140064E05C602DF055FBFF2F03D039462046FFF7A2
S2140064F0A9FFFF2D09D029462046BDE8F0412DF022
S2140065005ABCFF25DFE70746E6E7BDE8F08100BF97
S214006510305D0020D018002041688268C978D278A3
S21400652049B112B10321FFF7AFBF837B002B0CBF2D
S21400653001210221F7E72AB1837B002B0CBF022141
S2140065400121F0E7014812F04FBF00BFB8EF03008B
S214006550037BD3B14368DA7812B18268D278A2B9E5
S2140065601B7933B1837B002B0CBF04210521FFF779
S2140065708BBF83681B792BB1837B002B0CBF052157
S2140065800421F4E7014812F02FBF7047EAEF03003A
S214006590084A437B05211370837B5370C37B93703B
S2140065A0037CD370037B137100780E30C0B2FFF704
S2140065B00BBB00BF475D002038B5044600780C4D85
S2140065C00E302A460521C0B2FFF7EEFA20B1BDE82C
S2140065D03840084812F008BF2B7863736B78A373B3
S2140065E0AB78E373EB7823742B79237338BD00BF45
S2140065F0475D002026F00300024B53F820002DF0E4
S21400660024BC00BF0C330020F8B504460B78424A81
S21400661043700D4642F82300404E2DF034FCFFF741
S214006620CBFF6268A3683E483E49D6641165D465D0
S2140066305065C3E91410DE64DC654FF098730226DB
S2140066406361012304F10C01E161374910322162D4
S21400665004F10D01A16235492376E16204F10E01D1
S2140066606163334984F82430A16304F10F01216487
S214006670304984F83030616404F11001E1642E4939
S21400668084F83C3084F84830216584F85460A2656C
S214006690E879A96800EB400201EB820704F1140CCC
S2140066A0C7F804C04FF4817C244F41F82270C2180A
S2140066B0D2B202EB420241F822C001EB820700226E
S2140066C07A601F4A84F8703022661E4A84F8883042
S2140066D0A2661D4A1D4BE2661D4AC4F88C306267EE
S2140066E01C4A8319A26704F15C02C4F88020DBB25E
S2140066F0194A03EB4303C4F8842084F8646084F8E2
S2140067007C6001EB830260345460144A033041F825
S2140067102320E871F8BD00BF0C3300201965000087
S2140067200D3E03005165000001002001020010012B
S21400673003003001040030010500210101FC0106C0
S2140067404A002100A885040051001000AA85040014
S214006750AB850400550021006F00180012000104EC
S21400676070B50D460646144613460A4601461648B8
S21400677012F03AFE25B92046BDE87040FFF73CBC53
S214006780072D05D121463046BDE8704000F0E4BA3A
S2140067904FF601439D4205D121463046BDE8704084
S2140067A0FFF72ABF062D05D121463046BDE87040CA
S2140067B000F0A2B8B5F5817F05D121463046BDE888
S2140067C07040FFF7B9BD70BD55F003000148FFF7F4
S2140067D061BB00BF616700004FF4C01330B50360B3
S2140067E001230371074B8C688360CA7902EB42036E
S2140067F004EB83056860044844F82300531CCB71FF
S21400680030BD00BFAC8504000400010138B500248B
S214006810044D55F8040B08B12DF045FB01340A2C45
S214006820F7D138BD34330020042908B50AD172B137
S2140068306BB113781BB92DF061FB002008BD2DF05D
S21400684053FBFAE7034812F0CFFD0120F6E70320DA
S214006850F4E700BF88F0030010B4054C114654F866
S21400686020001A46BDF804305DF8044BFFF7DCBF85
S214006870343300200229024608B50ED004D839B9B0
S21400688010462DF03BFB06E04029F9D0412907D100
S21400689010462DF029FB002008BD2DF039FBFAE745
S2140068A0024812F0A1FD0120F6E700BFA8F00300A1
S2140068B010B4054C114654F820001A46BDF80430B2
S2140068C05DF8044BFFF7D6BF34330020426B094B0C
S2140068D052791A7082785A70C2789A70826B12B1A6
S2140068E090F83C20DA70007804210930014AC0B2E2
S2140068F0FFF76AB94C5D0020024B53F820002DF0DC
S21400690023BB00BF3433002038B504460078084D5A
S21400691009302A460421C0B2FFF746F930B96B7831
S214006920A370AB78E370EB7884F83C3038BD00BFDA
S2140069304C5D002038B504460078114D09302A46D3
S2140069400421C0B2FFF730F9C8B9A3782A78022B21
S2140069500CD004D863B920462DF0D0FA01E0FF2B06
S2140069600AD02046BDE838402DF09DBA002AF2D164
S21400697020462DF0B9FAF4E7002AF9D1EBE738BD46
S2140069804C5D0020F8B504460B78284A0D4642F8C0
S21400699023004370FFF7B8FF636B254A5C631A63F6
S2140069A02046FFF7C7FF20462DF07DFA4FF48013F0
S2140069B063600123626BA66B0532E2601D4A237298
S2140069C02261A21C2375A26166B11B4A84F820309E
S2140069D0E261E21C6262194A84F82C3004F13C033E
S2140069E0A26223630627EA79A96802EB4203002E17
S2140069F021F8237001EB83000CBF02230423C3702D
S214006A00012383700E4B04348360531C4460DBB256
S214006A100C4C03EB430341F8234001EB83000023B7
S214006A204360094B02328360EA71F8BD34330020BC
S214006A30253F03000340300101FF300102FF100133
S214006A40B1680000080001005968000028B1034B37
S214006A501B78834234BF002001207047325D00203F
S214006A6008B5427901461046FFF7F0FFA8B1CB788B
S214006A700A48013A042B00EB82100ED8012B08D8E6
S214006A801BB9BDE808402DF02FBABDE808402DF030
S214006A9035BABDE808402DF03BBA08BDDC1B002027
S214006AA008B5427901461046FFF7D0FFA8B1CB786B
S214006AB00A48013A042B00EB82100ED8012B08D8A6
S214006AC01BB9BDE808402DF019BABDE808402DF006
S214006AD00BBABDE808402DF01BBA08BDDC1B002031
S214006AE010B586B00446FFF7F7F9012830D1E278F2
S214006AF0042A2DD8DFE802F013323403030061794C
S214006B000846FFF7A3FF58B31648032A00EB811088
S214006B1050F80C3C58791DD1003818BF0120637816
S214006B204FF480728DF804304FF48273ADF806305F
S214006B300623ADF8083001238DF80B3000238DF8BE
S214006B400A0001A8CDE903238DF81430FFF7F8F901
S214006B5006B010BDB0FA80F04009E0E70020DEE79E
S214006B600220DCE7DC1B002010B586B00446FFF7E9
S214006B70B3F9012830D1E278042A2DD8DFE802F0F4
S214006B8013133203030061790846FFF75FFF48B32B
S214006B901548032A00EB811050F80C3C5B791DD198
S214006BA01A1E18BF012263788DF80A208DF804306B
S214006BB04FF48273ADF806300623ADF80830012393
S214006BC04FF480728DF80B30002301A8CDE9032323
S214006BD08DF81430FFF7B4F906B010BDB3FA83F29F
S214006BE05209E0E70222DEE7DC1B002010B586B083
S214006BF00446FFF771F9012812D16378094A8DF827
S214006C0004304FF48273ADF806304FF48073CDE94C
S214006C100223002301A804938DF81430FFF790F99F
S214006C2006B010BD0800070110B586B00446FFF791
S214006C3053F9012820D16278104B8DF804204FF4C8
S214006C40827294F8A01094F8A10059701870ADF8EC
S214006C50062004934FF480720223094901A88DF898
S214006C601430CDE90212FFF76BF994F8A130013B1E
S214006C7018BF012384F8A13006B010BD505D002077
S214006C800800050110B58378044603B30379022B88
S214006C900AD142791046FFF7D9FE28B10C48013ACE
S214006CA000EB82102DF034F9A379022B02D1204696
S214006CB0FFF716FF2046FFF7B7FF02236078A4F819
S214006CC06C305522BDE8104012212CF061BF10BD7B
S214006CD0DC1B00204388094A0821138083885380E0
S214006CE083681B8A938090F8A03093718379D37160
S214006CF000780430C0B2FEF767BF00BF46560020DB
S214006D0038B50D4604460178114812F06DFB4FF673
S214006D1002739D420ED10F4B1B782BB96371204630
S214006D20BDE83840FFF7D6BF62790AB19342F6D283
S214006D300123F3E7B5F57F4FF1D120462DF061F939
S214006D40A378022B0CBF01220022A3689A70E6E704
S214006D50C4F00300325D0020024B53F82000FFF71A
S214006D60CFBF00BF5C33002038B504460078144D12
S214006D7004302A460821C0B2FEF716FF20B1BDE84F
S214006D803840104812F030BB2B8863806B88E97857
S214006D90A380AA88A3681A82AB7984F8A030EB791E
S214006DA0A371094B1B780BB9637138BD09B19942C1
S214006DB0FBD9064812F018FB23780133F4E700BF2E
S214006DC046560020DEF00300325D002007F1030087
S214006DD0F8B504460B78474A0D4642F82300437040
S214006DE0FFF7C2FFA268444BD465D364434B022628
S214006DF05365434BA11C13654FF44013E360012316
S214006E006161E1623F49103221632265211D3E4ADD
S214006E10A1633E483E49626504F1A002A061E163B9
S214006E20E265E01C611D3B4A206261643A483B49CA
S214006E302266A21D2374237784F8283084F8343021
S214006E4084F84030A16484F84C6084F8583084F8A4
S214006E5064306062A266E879AA6800EB400102EB43
S214006E60810704F10C0CC7F804C04FF0060C2C4F39
S214006E7042F82170C118C9B201EB410142F821C0A5
S214006E8002EB810700217960264F84F8803027675F
S214006E90254F84F89830A767244F254BE767254F82
S214006EA084F8746084F88C60C4F89C3004F16C0636
S214006EB0831CC4F88470C4F890601F4F1F4EDBB26A
S214006EC003EB4303C4F89460C4F8887002EB8306AF
S214006ED07034746008261A4C42F82340C31CDBB298
S214006EE003EB430302EB8304043042F82360616043
S214006EF0E871F8BD5C3300206F3F0300B13F03002C
S214006F00856C000001FF300104FF200110003001F5
S214006F1002FF200105FF300100FF300103FF2101C1
S214006F20070001084A002100AE8504005100100049
S214006F30B0850400B1850400550021006F001800DC
S214006F401200010400239B6AB3F5804F03D2196830
S214006F50064A914203D000230370836070470122E3
S214006F6002709A689B694260F7E700BF07B0CD5E83
S214006F70024B034A1A602EF0CCBB00BF0000002074
S214006F8002020FF073B53F4B04461A781AB102227C
S214006F901A7002B070BDCDE900220028F9D0012693
S214006FA01E7037F0C7FA384D384B186016F0FEFFE3
S214006FB02B785BB902F0F2F940B935480823354A18
S214006FC03549006801F038FE00B92E70334B5A6818
S214006FD0E260334A9A601A6E22605A6E6260D3F894
S214006FE07021A2601B6E5C042CD52E4AD368D8078D
S214006FF0FCD42D4B1A68531C29D04FF480139340B1
S2140070002A4A13660423294C4FF0804223664FF425
S21400701080632366102323664FF400536846236676
S21400702001A9226663662DF004F8009B2366019B87
S21400703063662B78002BACD0164B1A6822665B680A
S2140070406366A6E71A4AD368D907FCD4D1E7194B7A
S2140070501B78002BD6D1184B5A68144B12B94FF434
S21400706080121A66154A526812B94FF400121A6650
S214007070134B5B68002BC5D14FF480020B4B1A668E
S214007080C0E700BF535D0020545D0020943300200D
S2140070909C670020983300200071080000800044A0
S2140070A055CEAC0000000440686700200090004405
S2140070B000000450525D00200080055000C00550BE
S2140070C00000065038B5224D04462B78012B02D01E
S2140070D001232B7038BD0028FCD02CF0CFFF0130E8
S2140070E009D02CF0CBFF40F20113984203D0194A86
S2140070F0D368DB07FCD42268174B1A6662685A66A8
S214007100A268C3F87021E268D40744BF00229A60E0
S214007110124B1A68013213D1114A127882B91149FA
S2140071204968C80748BF1A600F4A5268D10744BF6B
S21400713001221A600D4A5268D20744BF02221A6022
S21400714016F03CFF0A4B186837F0EFF90023C0E74B
S214007150535D002000000440008000446867002063
S214007160525D00200080055000C00550000006500B
S2140071709433002070B50024A36AB3F5804F23D261
S2140071801A68134B9A421FD1124E337813F0FD053E
S21400719018D14FF480341048FFF7F4FE032004F0B3
S2140071A0CBF90E4B0320DC6004F0AAF90C4B1C61F3
S2140071B0AB6ADB69984704460748FFF783FF0CB9BC
S2140071C001233370204670BD4FF48174FAE700BF88
S2140071D007B0CD5E525D00208433002000A000443E
S2140071E00090004413B5204B1B7803B9FEE700233C
S2140071F01E4CCDE900336A4608231D49206801F07D
S2140072001BFDF8B91B4AD2F84031D2F840211F2B9B
S2140072104FF0010311D9203A9340019A1A43019284
S21400722008236A461249206801F08EFE124B134A64
S2140072301A602EF06EFA02B010BD9340009A1A4300
S2140072400092EDE72D28F1D10A4AD2F84031D2F863
S21400725040211F2B4FF0010385BF203A93409340F7
S214007260019398BF0093DBE7535D00209C670020E6
S2140072700071080000800044000000200B020FF0A0
S21400728038B50025AB6A0446B3F5804F10D21B6BA9
S214007290B3F5804F0CD20748FFF774FEAB6A204662
S2140072A01B6B5B689847BDE838400248FFF70ABF8B
S2140072B038BD00BFA033002013B50024A36A019098
S2140072C0B3F5804F13D21B6BB3F5804F0FD209482E
S2140072D0FFF758FEA36A01211B6B01A89B6998471C
S2140072E004460448FFF7EEFE204602B010BD4FF4F9
S2140072F08174F9E7A033002070B50026B36A04460F
S214007300B3F5804F0D4612D21B6BB3F5804F0ED2ED
S2140073100848FFF737FEB36A20461B6B29469B6971
S214007320984704460348FFF7CDFE204670BD4FF44D
S2140073308174FAE7A033002070B50026B36A0446CD
S214007340B3F5804F0D4612D21B6BB3F5804F0ED2AD
S2140073500848FFF717FEB36A20461B6B2946DB6911
S214007360984704460348FFF7ADFE204670BD4FF42D
S2140073708174FAE7A0330020F8B50027BB6A0446FC
S214007380B3F5804F0D46164611D21B6B7BB10948EC
S214007390FFF7F8FDBB6A20461B6B324629465B6A40
S2140073A0984704460348FFF78DFE2046F8BD4FF485
S2140073B00174FAE7A033002070B50026B36A0446CD
S2140073C0B3F5804F0D4612D21B6BB3F5804F0ED22D
S2140073D00848FFF7D7FDB36A20461B6B29469B6A11
S2140073E0984704460348FFF76DFE204670BD4FF4ED
S2140073F00174FAE7A0330020F0B50027BB6A044604
S214007400B3F5804F0D461646ADF5337D20D21B6B87
S214007410B3F5804F1CD21048FFF7B4FDBB6A204678
S2140074201B6B40F2C1225B6A01A99847044630B143
S2140074300948FFF747FE20460DF5337DF0BD836A09
S21400744032461B6B2946DB6A01A898470446EFE7DD
S2140074504FF40174EFE700BFA033002010B50024FE
S214007460A36AB3F5804F10D21B6BB3F5804F0CD2D6
S2140074700748FFF787FDA36A1B6B1B6B98470446FC
S2140074800348FFF71FFE204610BD0124FBE700BFA0
S214007490A0330020F0B58FB0044601A80E4615466E
S2140074A0FFF7EEFE9DF80C30012B12D1B5F5402FFC
S2140074B027D8B4F5402F24D86319B3F5402F20D829
S2140074C021462A46304613F031FA002420460FB0F3
S2140074D0F0BD0027BB6AB3F5804F15D21B6BB3F522
S2140074E0804F11D20A48FFF74DFDBB6A2A461B6B38
S2140074F0314620465B6B984704460548FFF7E2FD99
S214007500E4E740F20244E1E740F20114DEE700BFA0
S214007510A0330020F0B58FB0044601A80E461546ED
S214007520FFF7AEFE9DF80C30012B1FD1B5F5402FAE
S21400753006D8B4F5402F03D86319B3F5402F13D9F6
S21400754040F2024420460FB0F0BDE258013225D189
S21400755004339D42F9D82A46314620462CF0BEFD1B
S2140075600028EDD00024EDE70023F2E70027BB6AF1
S214007570B3F5804F15D21B6BB3F5804F11D20A4876
S214007580FFF700FDBB6A2A461B6B314620469B6B05
S214007590984704460448FFF795FDD3E740F20344B6
S2140075A0D0E740F20114CDE7A033002070B58EB0CE
S2140075B0044601A80D46FFF763FE9DF80C30012B2C
S2140075C022D144EA0503C3F30C03002B33D1B5F5EF
S2140075D0402F04D940F2024420460EB070BDB4F5E8
S2140075E0402FF7D82544B5F5402FF3D8204604F5AC
S2140075F000542CF06CFDAC4202D00028F6D1E9E72E
S2140076000028E7D00024E7E70026B36AB3F5804FEA
S21400761014D21B6BB3F5804F10D20A48FFF7B2FCAA
S214007620B36A29461B6B2046DB6B98470446054821
S214007630FFF748FDD0E740F20444CDE740F20114DE
S214007640CAE700BFA0330020BFF34F8F0549064BA3
S214007650CA6802F4E0621343CB60BFF34F8F00BFEB
S214007660FDE700BF00ED00E00400FA0570B5D0B1FC
S214007670C9B10E4E431E013913F8014F2046325D44
S21400768002F00302012A11F8012F08BF04F12000BE
S214007690B55C05F00305012D08BF2032801A01D124
S2140076A0002CE9D170BD0120FCE700BF09AD040045
S2140076B00348044A0449121A92102CF05BBD00BF1E
S2140076C034410000D04200009864002008B5154BF5
S2140076D083F30A8800F030F8FFF7EAFF124B1349ED
S2140076E08B4212D30020124B12498B4218D3FDF75F
S2140076F0F9FA186850F82240586840F822400132DB
S21400770098688242F5D30C33EAE70022F8E71C6853
S21400771044F8220001325C68A242F8D30833E4E75A
S2140077200022F8E708000020C8D10400D4D10400E5
S214007730D4D10400D4D10400124B134A70B59A6019
S214007740D3F88820114D42F47002C3F888206FF0F9
S214007750010205F50054226641F2FF7262660222BB
S214007760C3F8D020BFF34F8FBFF36F8F4FF4403670
S214007770032003F0E1FE0320E66003F0C1FE2E6165
S21400778070BD00BF00ED00E0004000000080004437
S214007790014B1860704700BF70670020054B1860EB
S2140077A0054B1B6F03F00703032B01D134F074BFA6
S2140077B0704700BF78670020008000502DE9F04138
S2140077C004464FF001080C250D4E0CB9BDE8F081BB
S2140077D094FAA4F0B0FA80F00F2808FA00F2C8BFB6
S2140077E0103824EA0204CABF05FB006205FB0062EB
S2140077F0B4325768002FE8D09168C0B2B847E4E7C3
S214007800B033002008B50C4836F032FF192003F0DC
S21400781085FE28B1192003F08FFE192003F070FEB4
S2140078201A2003F07BFE28B11A2003F085FE1A20EA
S21400783003F066FE002008BD108804002DE9F04124
S2140078400E461746054618B30F2923D80378DBB132
S214007850013BDBB2022B19D8104AD35C6A78D340BE
S214007860DB0717D50E4BD3F81043ACB936F062FEE3
S21400787080463A462846314602F0BEFB404636F081
S21400788054FE2046BDE8F0817F23E7E70023E5E7C6
S2140078902224F6E72124F4E70224F2E70486040013
S2140078A000C0035010B5044610B30378E3B1013BA3
S2140078B0DBB2022B1AD8104AD35C6278D340DB07BF
S2140078C018D536F037FE0122617823788A403021B9
S2140078D04B4341F2100103F1A04303F570335A50B5
S2140078E036F023FE002010BD7F23E6E70023E4E702
S2140078F02220F8E72120F6E70486040010B50446A7
S21400790010B30378E3B1013BDBB2022B1AD8104A5E
S214007910D35C6278D340DB0718D536F00BFE012225
S214007920617823788A4030214B4342F2100103F1FC
S214007930A04303F570335A5036F0F7FD002010BD13
S2140079407F23E6E70023E4E72220F8E72120F6E796
S2140079500486040038B50D46044618B311B3037800
S214007960E3B1013BDBB2022B1AD8104AD35C627833
S214007970D340DB0718D536F0DDFD3022237853439D
S21400798003F1A04303F570335B696278D34003F0DC
S21400799001032B7036F0C9FD002038BD7F23E6E7D3
S2140079A00023E4E72220F8E72120F6E70486040017
S2140079B02DE9F0410D4616469846044600284FD05D
S2140079C000294DD00178002940D04B1EDBB2022B97
S2140079D03ED8254AD25C6378DA40D20701D4FF2924
S2140079E040D1022E01D9042E3CD136F0A3FD2378D7
S2140079F00746FF2B05D032462046296802F042FB98
S214007A0028602B68013309D12378FF2B06D1174B4A
S214007A106078D3F824142DF0ECF8286029684B1C05
S214007A2018D00C23124A03FB0122069BC2F80480DE
S214007A3093602378FF2B04D001230E4A8B40C2F8B4
S214007A402434384636F071FD002007E07F22C2E776
S214007A500022C0E7384636F068FD2D20BDE8F081EC
S214007A602220FBE72120F9E70486040000C003502B
S214007A70B033002000D0035008B502F0B3FA044B30
S214007A8000F05530C3F82004BDE80840FFF796BE66
S214007A9000E0035008B502F0A5FA044B00F0AA3047
S214007AA0C3F82004BDE80840FFF788BE00E0035096
S214007AB02DE9F04F144605460E469B46C36B87B02D
S214007AC001225B6902A960689847EB6B01225B693B
S214007AD003A93046984702A82CF04BFF074648B14A
S214007AE00023A37563754FF0FF33A360002007B033
S214007AF0BDE8F08F03A82CF049FF0123A375237E71
S214007B0004EBC303DE611F846368B3420ED12060BA
S214007B1003A82CF05DFF4FF0FF332075A360237D94
S214007B20043B022B26D80023A375DFE723681A1A26
S214007B3053425341A37503A82CF04AFF237D83428A
S214007B4018BFA77503A82CF025FF074602A82CF03F
S214007B5021FF874218BF002303A818BFA3752CF087
S214007B6021FF074602A82CF01DFF87421CBF0023FA
S214007B70A375D4E703A82CF00DFF80B1EB6B0222AF
S214007B8030465B6904A9984704A82CF012FF034608
S214007B90207D032839D8DFE800F03838040903A828
S214007BA0F3E7CC22237E04EBC3031A8401F06EFCB9
S214007BB0109B187003A8277E2CF0E0FE04EBC70786
S214007BC087F82200237E03A804EBC303B3F82090B3
S214007BD093F822702CF0DEFE804603A82CF0E2FE1E
S214007BE08246B8F1000F15D0EB6B022230465B6977
S214007BF004A9984704A82CF0A1FE6075637D6BB9B4
S214007C000023A3754FF0000838E0227E04EBC20282
S214007C101384CBE703A82CF07CFEEEE794F81680DE
S214007C20B8F1000FEED0B9F1000F09D1DFB1012392
S214007C30E375637E002B4FD1012F42D1677614E0A7
S214007C406B6C06EB0A015A4286EA010010421CBF22
S214007C500022A2755A1E0A409B1A9945D0D8A37DC9
S214007C60002BE3D1CEE7E37D43B94FF000084B4647
S214007C705246314628462CF0C7FBA060A27D12B1C2
S214007C8023694B4423611A49237E097899422AD9ED
S214007C9001332376BBF1000F27D032B3E37D23B345
S214007CA0B8F1000F21D1032F1FD0A1684B1C1CD0A8
S214007CB0109B2246009328460123FFF7F9FEA07585
S214007CC013E095F8343063B9EB6A0133CFD1032F54
S214007CD0CDD10123A376C8E7012FCFD0032FC4D17F
S214007CE0F7E79846C3E70023A375A07DFFE600BF2D
S214007CF0288604002DE9F04F0E46984600238BB0E8
S214007D0004464FF0FF31104617468DF8133001F049
S214007D10A7FBB6F5801F20D2314605AA04F108005D
S214007D202CF079FD451C014603D1237CBBB92D20E0
S214007D3010E0384601F094FB0122394620460DF14A
S214007D4013032CF0B3FB0028EFD09DF8133088F80F
S214007D50003000200BB0BDE8F08FB01CE5D1E56A1E
S214007D60691C36D12046616A2CF094FA0546B31C8D
S214007D7018BF0123DFF8CC900193636A626C02930C
S214007D80236805A902FB053AE36B05225B695046AA
S214007D90984705A82CF088FE2CF0ABFE50462CF039
S214007DA0B3FE4FF0000B824601464B1C05D0636CB9
S214007DB081EA0A025B42134211D0294620462CF083
S214007DC069FA029BAB422CD0BBF1000F2CD10546C2
S214007DD0D3E72368ED1A636CB5FBF3F5C7E74846AF
S214007DE001F03EFB0DF1130349462046019A2CF0A4
S214007DF05DFB034690B1B21C03D0D9F80020B24216
S214007E000CD19DF8132003930D4B88F800204946AB
S214007E101A68384612F08AFD039B9B46D9F808106C
S214007E20C3E7BBF1000F82D0B6F5801F91D2314672
S214007E3098F800307A6804F1080001F03FFA88E705
S214007E40248604008C3B00202DE9F34104461746A7
S214007E5098460E46184D816AE36A8B4201D04B1C49
S214007E6002D102B0BDE8F081284601F0F9FA0122FD
S214007E70294620460DF107032CF018FB38B143467F
S214007E80294620469DF80720B8470028E9D0A9686B
S214007E904A1C04D1696820462CF089FA0146012E56
S214007EA0DAD16B6881EA0302636C5B421A4218BF40
S214007EB04FF0FF31D0E700BF603B00202DE9F04FC8
S214007EC04FF0FF334FF6FF720025044600F1080618
S214007ED0C0E909238BB0C362056205633046884655
S214007EE02CF06AFC20462CF0A5F960BB20464146E3
S214007EF02CF020FA20462CF09DF960BB5E200BB0DB
S214007F00BDE8F08F2368E26B606C576900FB0530B4
S214007F10052205A9B84705A82CF0C6FD0128074686
S214007F200CD1294620462CF0D6F9012F024600D166
S214007F300132294620462CF09CF903E02CF0DEFDA9
S214007F400028EED10135E3699D42DBD320462CF0B4
S214007F5071F90028CAD000254FF0FF394FF6FF739D
S214007F60CA46A846C4E90853E36998450AD3A5EB70
S214007F700905012D2CD84FF6FF72636A93423CD157
S214007F806720BCE72368E26B606C576900FB08302B
S214007F90052205A9B84705A82CF086FD834605A846
S214007FA02CF059FD074658462CF0A3FD68B15745FE
S214007FB038BFC4F82480B94528BFB946BD4238BF8B
S214007FC03D46BA46236A0133236208F10108CBE72F
S214007FD04FF6FF7300256362E3699D42CBD2676C60
S214007FE02068E36B052207FB05005B6905A9984737
S214007FF005A82CF030FD0135EEE7E26B676C2068D3
S214008000694607FB030055690522A84768462CF019
S21400801022FD626A2368606C4B4D00FB02302CF038
S21400802073FD4FF0FF33A062E3622A466FF0010152
S214008030204605ABFFF75EFE002846D1AD68294610
S2140080402046E5622CF0D2F8206320B92046E16A8B
S2140080502CF0ADF9E062294620462CF0A8F905463A
S214008060A36A9D4233D120462CF093F80027804621
S214008070B946E36999453CD3B84559D92046616A63
S2140080802CF008F90026054604F1400AB74212D83B
S214008090626C2368694602FB0539E36B05225B695F
S2140080A04846984768462CF0D6FC53460246494652
S2140080B0E06B2CF02BFD294620462CF0EBF8013621
S2140080C0B0450546E2D1642019E7A56AB7E7294618
S2140080D020462CF08BF8236B29460344074623637F
S2140080E020462CF064F90546002FB9D1C4E90B07E9
S2140080F0B6E7636C2568052203FB0955E36B05A903
S2140081005B692846984705A82CF0CEFC2CF0F1FCBD
S21400811058B128462CF0F8FC014620462CF066F8AC
S214008120636C143B984208BF013709F10109A0E7C8
S21400813030462CF041FB002320461946034AFFF741
S21400814083FE0020DBE600BFB83B00209B44030014
S2140081502DE9F041036B9046826B07689A4288BF10
S2140081608363426C436A90B002FB0377C36B0E4690
S214008170052201A95B6904463846984701A82CF0F9
S21400818093FC01280146307057D0656CE26B23687B
S214008190606AD2F814C005FB0030052206A9E04745
S2140081A006A82CF081FC01284FF0000523D0D4E966
S2140081B00A3201219342CDE90B458DF834800E95A5
S2140081C08DF83C102AD1194620462CF0F0F8236B87
S2140081D0626C14339B1AE06223630C9B53B99DF8C0
S2140081E03C303BB1626A616C2368E06B01FB023194
S2140081F02CF012FC0C9DE36B05225B6901A9384646
S214008200984701A82CF050FC30702846236BA26BD0
S2140082109A4288BFA36310B0BDE8F081237C33B9CF
S2140082201C490BAA04F1080001F096F8D5E7204691
S214008230194A0BABFFF708FECFE7237C23BB224689
S214008240164904F1080001F087F8616A20462CF010
S21400825042F8616A421C20462CF00BF8054620B90D
S214008260236B626C1344143B23632046A16A2CF0F4
S2140082709EF82368A062C01A636CB0FBF3F06062DD
S21400828020462CF0D7F8B6E700232046044AFFF72E
S214008290DBFDDAE7F589000071890000354503004B
S2140082A0D144030073B50D46D11E4A421C461B7EC0
S2140082B04A419A4226D129682368994222D36368A4
S2140082C099421FD8114E0DF107033246FFF712FDF3
S2140082D0C0B972686B689A4214D19DF80730DA1EEE
S2140082E053425341227E93420CD16369013363614A
S2140082F0D4E90323934205D22968A26842F82310E2
S21400830001332361012002B070BD00BFB83B0020DE
S2140083102DE9F04F9B4689B09DF848309046514A6B
S2140083200193136907465B450D46C0F09580D94614
S21400833053680093B9F1000F7BD0FB6B01225B6999
S21400834005A90098984705A82CF020FB454B1B680C
S214008350984240F0848005A82CF024FB04280646AA
S21400836015D105A82CF025FB009B04461E44019B56
S214008370002B3ED1804512D91C46A8EB0008384693
S21400838000992CF014F8A9EB04090090D2E7FB6BD7
S21400839002225B69009806A9984706A8E2E7A0EBC8
S2140083A008045C4528BF5C46032C4644ABEB040B34
S2140083B01DD9FB6B294630465B69A208984724F016
S2140083C0030304F0030A1E441D44DDF80480BAF1DA
S2140083D0000FD4D0FB6B012206A930465B69984794
S2140083E05246284606A912F0A1FA5544C7E7A24607
S2140083F0EBE7824600F0030302932B180393064430
S214008400039BA6EB0A00A3EB0A05029B9A4514D130
S214008410BAF1000FB3D0FB6B012206A95B6998473F
S2140084205246284606A912F03DFC0028DDD04FF043
S2140084303609484609B0BDE8F08FFB6B012206A955
S2140084405B6998470422284606A912F02BFC0028F0
S214008450EDD1AAF1040AD3E74FF06309E9E74FF03C
S2140084606F09E6E7E43B00202DE9F0410F4616468B
S2140084709846044688B060B390F83450FDB10121A8
S2140084802BF0CDFE00210E9BCDE90511CDE902377C
S2140084909DF83C30CDF804808DF81C30237C049683
S2140084A08BB90D4901AA04F1080000F055FFDDE97B
S2140084B00553E06B002E08BF1D462CF049F82846F1
S2140084C008B0BDE8F0812046044A01ABFFF7BCFCCB
S2140084D0EDE70546F3E700BFFF440300A582000072
S2140084E07FB590F84260044601920DF10B030A46F0
S2140084F0304611492CF034F8012E0546E36B17D1AF
S21400850032465B6903A998479DF80B10039B019AB6
S21400851059B19BB243EA0243012228460393E36B18
S21400852003A99B69984704B070BD62F30F03F3E795
S21400853001229B6901A9F5E7E43B00202DE9F04FF5
S21400854099B00E460D920A69416C0B931439D31DEF
S214008550B3FBF1F3013302EBC302036B0446934211
S214008560C0F001820023DFF804940893E36A4846CB
S2140085701946059300F074FFD6E9033707930B9B63
S214008580022B4DD1CC2F40F0D7810D9B3BB131460D
S21400859020462CF03BF8656C1490012044E0012046
S2140085A0079B656C1B68149300F0010000280CBF45
S2140085B004230823782F0E9349D8059A6B1E134080
S2140085C0ED1A3B1D9D423CD2002F3DD0082D3ED8D3
S2140085D00023042506934FF0040A336806990B9887
S2140085E0C9F80030C9F810702CF0F6F94FEA9A0373
S2140085F00F93059B89F814000393002309930C93AB
S21400860004930A93616C039B4A1E1A408B1A27B385
S2140086105544AB4223D8236B5B1A134423632FE1E4
S214008620782F656CB9D8F07D0D9B002BBCD0E36B22
S21400863001225B69706816A9984716A82CF0AAF95B
S214008640B4E700250695C6E704250697C3E7012389
S21400865000254FF0080A0693BFE75345DBD3A3EB8C
S2140086600A029742039BB84628BF90469742534457
S21400867028D90122D9F8101089F817208F4226D160
S2140086800399C9F80410049299F817200AB399F8C8
S21400869018100398CA1C09EBC202506004980131F6
S2140086A0A2F80880907289F81810B8F1000F07D069
S2140086B00B9A022A40F08180099A72B1012209922F
S2140086C09B46ABE0049A002A18BF0322DBE702228F
S2140086D0D9E7039AC9F80420E7E70C9A4244032A2C
S2140086E0EED9E26B1846956914A901220993A847AA
S2140086F0099B05460028E1D03D2D40F01E8104F17F
S214008700080303932368059A606CA2EB030ABAFB7E
S214008710F0FA00FB0A302CF0F7F9E16A80462046B2
S2140087202BF045FEA26A824200F00F81626CD9F8F7
S2140087300830511E0B40216B2768891A0B442363AF
S214008740089BE062DF1BB7FBF2F7BA4540F0FA8001
S214008750059BB3EB080A12D0E36B4FEA9A02414638
S2140087609B6998478346E36A059A5344E362236B02
S21400877003989B1A434423632CF01EF8DA462368BA
S214008780616CE06B01FB07312CF033F920462BF0CF
S21400879051FD20462BF04EFE2063BAF1000F00F08C
S2140087A0D4803269616CD31D1439B3FBF1F3013305
S2140087B002EBC3029042A5D2BFE00D9A002A77D101
S2140087C0B8F1030F4FEA98026ED9E16B18468D692F
S2140087D007991093A847109B0546C0B918F00305E3
S2140087E015D0079A28F0030B02EB0B019B444FF0C1
S2140087F0FF3215A815922A46109312F097F8E26BEE
S2140088005846956915A90122A8470546109B9B4620
S214008810079A42440792002D40F08B80049B16A8CE
S2140088200193069B009399F814204346316800F0A4
S214008830CDFDE36B0F9A9B69039816A99847039A98
S214008840051E089B18BF134608934346524620460B
S21400885003992BF0D9FD236B08F10302A3EB0A035F
S21400886022F003029B1AC9F808002363002D7FF448
S21400887043AF0C9BA7EB080743440C93CDF80CB012
S214008880204603992BF093FD00250390002F7FF4DC
S214008890B9AE364A3168936804F10800E36252685C
S2140088A00B9B00F00BFD49E09B46454607999EE76B
S2140088B09B4606F120021092F27D7068A2B100225B
S2140088C096F818C00A99D5B2AC4511D9109D02F198
S2140088D0010E35F832508D4228D90E9806EBC202AA
S2140088E00144D069084403E00E9A0A990A441044E9
S2140088F0E26B15A9556901221193A847159A0A9BA0
S2140089001392E26B043395695846012213A90A9321
S214008910A847119B054603EB0802A2EB0B02042AAC
S2140089207FF679AF28B90BF1040BC5E77246491BF1
S214008930C9E7CDF820B088E770252F46384619B02D
S214008940BDE8F08F4FF0000A19E73269616CD31D5D
S2140089501439B3FBF1F3013302EBC302236B9342EA
S214008960BFF404AEE9E71C27E8E700BF8C3B002015
S214008970032A2DE9F34106460D4617461C4606D146
S214008980237A012B23D0012002B0BDE8F081DFF866
S2140089906080096842460DF10703FFF7ABF9606097
S2140089A00028EDD19DF80720237A032AE8D0D8F8CE
S2140089B004106A689142E3D1012B2969D4F80CC0EF
S2140089C007D172690CEB0103934202D92074207C14
S2140089D0DAE708316144E1603B4601222946304629
S2140089E0FFF7ACFD60600028CAD00020CCE700BFCF
S2140089F0B83B00202DE9F341089C032A1746266859
S214008A0006D1237A012B24D0012002B0BDE8F081E4
S214008A10DFF89080304642460DF10703FFF76AF90B
S214008A2060600028EDD12568D8F80400A96AD5F85A
S214008A3044C04840CCF100031840227AE1D1012A14
S214008A4009D1E268D8F8103013447269934202D90B
S214008A502074207CD9E72868EB6A1B1A081AB3FB37
S214008A60FCF3B0FBFCF083420BD1706CF36A421E41
S214008A701340326B121A1344284633632BF097FCCC
S214008A80E862D8F81020E36808321344E360012255
S214008A903B4604492068FFF751FD60600028B0D0CF
S214008AA00020B2E7B83B00202DE9F0410025604BDE
S214008AB00E46D3F8008004461D6018B921252846C6
S214008AC0BDE8F08190F8347007B30A6803689A42EC
S214008AD040F0A3804A6843689A4240F09E808A68C5
S214008AE083689A4240F09980CA68C3689A4240F008
S214008AF094800A6943699A4240F08F808A69C36B02
S214008B009A4240F08A804B698361D8E768223946EA
S214008B10856B11F07BFDD6E90212336804F108007C
S214008B2023607368A5636360336963617369A361D7
S214008B302BF054FEB36904F14000E3639B6898474A
S214008B4020B9676C17B16368B3FBF7F794F8433046
S214008B50E761002BB2D00023656C2366002D64D03D
S214008B60002F62D02368B3FBF5F205FB1233002B0F
S214008B7055D16668B6FBF5F305FB1363002B4ED1A3
S214008B8020462BF023FBA369043303449E4248D3BC
S214008B9040F634726369CC3B934244D8B5F5805FA7
S214008BA043D3032120462BF03AFBD4E90001E36BC4
S214008BB01B6898470546E36B0220DB689847CDB9EB
S214008BC041462046FFF77AF96428054604D1414617
S214008BD02046FFF773F90546666C5DB9236A2046A2
S214008BE0143E5E432BF0F2FAA369043303449E421C
S214008BF038BF5A25002D0CBF0123002384F83430DB
S214008C0007D1D4E900010B4A1368013313602BF037
S214008C107FFEE06B2BF09CFC51E75D254FE7592566
S214008C204DE75A254BE75F2549E75B2547E700BF39
S214008C301C350020183500202DE9FF410C4616464D
S214008C401F46054680B390F834307BB3B1F5801FDD
S214008C502ED2DFF8608001212BF0E1FA2146424651
S214008C6028460DF10F03FFF745F8044670B99DF846
S214008C700F30012B11D1D8F81030BB4212D102466A
S214008C80009031462846FFF743FB0446E86B2BF07E
S214008C905FFC204604B0BDE8F081022B14BF2D24F3
S214008CA06024F3E76324F1E72124F2E71124F0E7D8
S214008CB02924EEE7E43B00202DE9F04385B00C467E
S214008CC017461E460546DDF8308098B390F83430D7
S214008CD093B3B1F5801F31D2DFF8649001212BF0F9
S214008CE09EFA21464A4628460DF10F03FFF702F882
S214008CF0044688B99DF80F30012B14D1D9F81020FE
S214008D0006EB08039A4213D3009043463246394690
S214008D102846FFF7FDFA0446E86B2BF019FC2046C0
S214008D2005B0BDE8F083022B14BF2D246024F3E7C2
S214008D306324F1E72124F2E71124F0E72924EEE783
S214008D40E43B002073B50C461646054630B390F853
S214008D5034302BB3B1F5801F24D201212BF05FFAFB
S214008D6021462846104A0DF10703FEF7C3FF0446C6
S214008D7080B99DF80730032B0CD0022B0CD1284667
S214008D8009492BF043FC3060E86B2BF0E1FB2046F2
S214008D9002B070BD2D24F7E76124F5E72124F6E73D
S214008DA01124F4E72924F2E7E43B00202DE9F341FF
S214008DB01E4600230C4617460546336050B390F80F
S214008DC034304BB3B1F5801F28D2DFF85480012130
S214008DD02BF025FA2146424628460DF10703FEF7FA
S214008DE089FF0446A0B99DF80730032B10D0022B4C
S214008DF003BF01233B600423D8F8103018BF386047
S214008E003360E86B2BF0A4FB204602B0BDE8F0818F
S214008E102D24F6E72124F7E71124F5E72924F3E7C4
S214008E20E43B002073B50446056B2BF0CFF9636E68
S214008E3003449D422CBF00230123854294BF002596
S214008E402D1A207C84F85030656584F85800A8B147
S214008E5000230C4E1A461946204600962BF09AFC24
S214008E60002305461A461946204600962BF09BFC22
S214008E70E3682844984294BF0020C01AE06502B018
S214008E8070BD00BFFFFF0F002DE9F3471E46436984
S214008E900446B342884617469DF828904ED30025D0
S214008EA08DF8075020462BF091F9D4F830A0824573
S214008EB00AD2236AB5EB430F06D2002220460DF1F4
S214008EC00701FFF745F9B8B39DF80730012B05D128
S214008ED0002220460DF10701FFF73AF9B9F1030F1A
S214008EE006D0314620462BF061F9256B854227D304
S214008EF0144D4FF0FF31284600F0B2FA4B46294693
S214008F0000222046C5E90376C5F80080FFF716FB69
S214008F10236E054663B12046FFF784FF94F8503071
S214008F2013B994F858301BB1236E04F150009847DB
S214008F30284602B0BDE8F0870135B3E76225F7E7BB
S214008F401C25F5E7B83B00202DE9FF410F4690466B
S214008F501E46054698B390F8343093B3B1F5801F9B
S214008F6031D21A4C02212BF05AF9224639462846AD
S214008F700DF10F03FEF7BEFE024678B1012342460E
S214008F800093394633462846FFF77EFF0446E86BD3
S214008F902BF0DEFA204604B0BDE8F0819DF80F30D5
S214008FA0012BEBD12169B142E8D10093414633460B
S214008FB02846FFF7ADF904460028DFD1E7E721246D
S214008FC0E8E71124E6E72924E4E700BFE43B0020B5
S214008FD02DE9F04790F8423086B0012B0546039104
S214008FE0A1EB020740F0AA80FF2F03D81E464FF0E1
S214008FF0640807E00226012B14BF4FF032084FF03A
S2140090006408013600244FF6FF79DFF844A195F88E
S2140090104230012B14BF322364239C4202D35FFAF2
S21400902088F40DE005AB2246514628462BF0CCFAD4
S21400903095F84230012B059B34D14B452DD1E4B237
S21400904095F84230012B14BF32226422121BB24222
S21400905017D3012E39D10022012B05978DF8132046
S21400906027D1082205A90DF113002BF069FD9DF804
S2140090701330059A42EA032221462846FFF730FAC3
S21400908040B10223324900932846CC23096803AA3C
S214009090FFF7FAFE06B0BDE8F087DBB203B902348C
S2140090A00134B4E7591CCAD09BB2002BF8D1013466
S2140090B0F6E7102205A90DF113002BF041FD9DF8EF
S2140090C01330059A42EA0342D6E7039A012B05922B
S2140090D023D10823202205A90DF113008DF81330A3
S2140090E02BF02EFD9DF81320120221462846FFF78E
S2140090F0F7F995F84230611C012BC9B21AD1002845
S214009100BFD12846BDF81420FFF7EAF90028B8D1E9
S2140091100234BDF81620E1B2AFE71023202205A9DD
S2140091200DF113008DF813302BF00AFD9DF8132077
S2140091301204DAE70028A4D1059A9EE7B7F5803F27
S2140091404FF00106BFF457AF4FF032085AE700BFA2
S214009150E43B002070B586B00E4605460392A0B3E9
S21400916090F834309BB3B1F5801F32D202212BF039
S21400917056F831462846184A0DF11703FEF7BAFD91
S214009180044618B99DF81730032B0ED1022331463A
S21400919000932846CC2303AAFFF776FE0446E86B26
S2140091A02BF0D6F9204606B070BD022B0BD10A492B
S2140091B028462BF02BFA039902468142EFD0284628
S2140091C0FFF706FFEAE76124E9E72124EAE711242E
S2140091D0E8E72924E6E700BFE43B0020F7B50C46A5
S2140091E01646054668B390F8343063B3B1F5801F71
S2140091F02BD202212BF013F821462846144A0DF1F3
S2140092000703FEF777FDC0B99DF80730032B14D08F
S214009210022B14D10E4928462BF0F8F9471C0246BB
S21400922039462846FFF7D4FE044606B13760E86B99
S2140092302BF08EF9204603B0F0BD2D24F7E761240D
S214009240F5E72124F6E71124F4E72924F2E700BF26
S214009250E43B002030B50C46054685B028B390F8B0
S214009260343023B3B1F5801F23D202212AF0D7FF72
S2140092700DF10F03214628460F4AFEF73BFD034635
S21400928088B99DF80F20032A0DD0032221460092AC
S21400929002462846FFF7F8FD0446E86B2BF058F91F
S2140092A0204605B030BD2D24F7E72124F8E7112429
S2140092B0F6E72924F4E700BFE43B00202DE9F0435D
S2140092C0466886B3056898464FF0000CA946AE4639
S2140092D055F83C400CF1010CC4F31307013401D0DF
S2140092E0B94217D0B4450EF1080EF1D12F4600242E
S2140092F003E0B44207F1080712D055F834300134C1
S2140093000133F6D1C1F3130141EA0851C7E900124F
S214009310BDE8F08341EA0851CEE90012BDE8F083CB
S214009320B8F1030F03D101230372BDE8F0830023D5
S21400933003E0B34209F10809F5D055F8334001338C
S214009340C4F30754032CF4D1C1F3130343EA0853C0
S214009350C9E90032BDE8F0832DE9F04106464068D1
S21400936082B0B8B10F4690460024336853F83450A4
S21400937003EBC403C5F30752C5F31301013506D04A
S2140093805B683046CDF80080B84718B17068013485
S2140093908442EAD302B0BDE8F08100BF024B1968F0
S2140093A0024B1868FFF780BB7C6700209C67002094
S2140093B008B535F0B2F8014B186008BD103C002027
S2140093C0014B186835F0A4B8103C002073B504466D
S2140093D02248012A00EAC1119DF8185023F07C406B
S2140093E007D9961E012E28D9073303F07F031943A9
S2140093F008E09DF81C300A43DB0603F0C053134315
S21400940043F060410023C4E900108DF80730B5B181
S214009410202221460DF107002BF092FB1A220DF1B7
S2140094200700211D2BF08CFB082063689DF80720A1
S21400943043EA8263636002B070BD1143E2E71B2219
S2140094400DF1070021462BF07BFB23689DF80720D3
S214009450042043EAC2632360EDE700BF80FFFF07F6
S21400946038B5094B0D461A680021044611F0CEF8AF
S21400947000234FF0FF322383C4E900252361A26056
S214009480E382A37638BD00BF248604000138C0B24C
S21400949005289ABF014B185C0120704729860400F6
S2140094A02DE9F0410746154600240E46596888B057
S2140094B0490A012922464FEA510104F10104F8D86D
S2140094C0DC78997824031B88C90201F4006104F44F
S2140094D080540C43C3F30A035203234492B24FF062
S2140094E000089C18274B6FEA0444039325F0784342
S2140094F0ED4302A90DF107001B2202938DF80780A9
S2140095002BF01EFB9DF80720029B02A943EAC263CC
S2140095100DF107001B2225F07845049302958DF87F
S21400952007802BF00DFB9DF80720029B6FEA144482
S21400953043EAC26305934FF0FF330794069307A9E7
S214009540BB69012206F110009847BB6905A90446CD
S214009550012206F108009847BB69404518BF04463B
S21400956004A90122301D98470122404518BF044631
S214009570BB69304603A99847404508BF204608B057
S214009580BDE8F08101009AB238B5104B0546D3F815
S21400959000310C4603F00303022B0BD0032B0DD037
S2140095A0012B0FD133F092F8032305B1286004B1E4
S2140095B0236038BD33F0D4F80723F6E734F0C0FF55
S2140095C00623F2E701230020EFE700BF00800050EB
S2140095D038B5134B0546D3F820010C4600F00700BB
S2140095E004281AD8DFE800F003090D11150001233E
S2140095F005B1286004B1236038BD33F02DF804238C
S214009600F6E733F063F80323F2E733F065F8052353
S214009610EEE733F057F80223EAE700231846E7E7B9
S2140096200080005038B5104B0546D3F840310C4644
S21400963003F00303022B0BD0032B0DD0012B0FD10D
S21400964034F080FF082305B1286004B1236038BDDC
S21400965033F086F80723F6E734F077FF0923F2E7BE
S21400966001230020EFE700BF0080005038B5104B04
S2140096700546D3F860310C4603F00303022B0BD0EB
S214009680032B0DD0012B0FD134F05CFF082305B15E
S214009690286004B1236038BD33F062F80723F6E78C
S2140096A034F053FF0923F2E701230020EFE700BF61
S2140096B00080005041F6713210B5104C104BA0429D
S2140096C094BF00240124D969DA639A6801F48031D2
S2140096D022F4401242EA04529A600A4A90420A4A27
S2140096E0D2F818028CBF40F0020020F00200C2F848
S2140096F0180209B10022DA6310BD00BF005A6202E8
S2140097000000035080F0FA0200C007502E4B98422B
S2140097104AD022D82D4B984240D014D82C4B984291
S21400972039D00AD82B4B984232D02B4B98422FD0A8
S2140097302A4B98422CD000207047294B9842FAD1E9
S214009740284B186F7047284B98422AD0274B9842D0
S214009750F1D1244BD3F880007047254B98422BD08C
S21400976009D8244B984223D0234B9842E3D11D4B73
S214009770D3F88C007047214B984221D003F5740330
S21400978003F510539842D6D1164BD3F8980070477D
S214009790144B986D7047134B586E7047114B586FAB
S2140097A07047104B986F70470E4BD3F88400704785
S2140097B00C4BD3F8880070470A4BD3F890007047DC
S2140097C0084BD3F8940070470048E8010024F400E2
S2140097D0C0CF6A0080841E0000093D0040420F0092
S2140097E0405DC6000080E00FC0EA210180BA8C010F
S2140097F0007E560380D54302006CDC020090D00346
S21400980037B50C460021114B0191D3F8803105463F
S21400981003F00303022B0ED0032B11D0012B03D130
S21400982001A8FFF7D5FE0D210DB1019B2B6004B1F9
S214009830216003B030BD32F04FFF05210190F3E701
S21400984032F040FF02210190EEE700BF008000509A
S21400985038B5104B0546D3F840320C4603F00303E8
S214009860022B0BD0032B0DD0012B0FD134F06AFE48
S214009870082305B1286004B1236038BD32F070FFBC
S2140098800723F6E734F061FE0923F2E700231846C3
S214009890EFE700BF0080005038B5144B0546D3F8FC
S2140098A000020C4600F0070004281BD8DFE800F092
S2140098B003090D111500012305B1286004B12360CA
