S01B00006275696C642F72656C656173652F7A69676265652E73333714
S21400400008100020017500008DB700000BF80200B4
S2140040100BF8020095B700009DB700000BF80200F1
S2140040200BF802000BF802000BF802000BF8020077
S214004030A1B70000683804000BF802000BF8020075
S2140040400BF802000BF802000BF8020019700000D3
S2140040500BF802000BF802000BF802000BF8020047
S2140040600BF802000BF80200A1BC00000BF80200DF
S2140040700BF802000BF802000BF802000BF8020027
S2140040800BF802000BF802000BF802000BF8020017
S2140040900BF802000BF802000BF802000BF8020007
S2140040A00BF80200C9780000AD7800000BF802009B
S2140040B00BF802000BF802000BF802007D1002005D
S2140040C0EB510300E7510300E10702000152030031
S2140040D0EF5103003D100200F351030071F401009C
S2140040E0BD1002000BF802000BF802000BF80200ED
S2140040F00BF802000BF802000BF802000BF80200A7
S2140041000BF802000BF802000BF802000BF8020096
S2140041100BF802000BF802000BF802000BF8020086
S2140041200BF802000BF802000BF802000BF8020076
S2080041300BF8020081
S214004134F0B5114A114C124E00F00105E3695F0711
S21400414413D40DB9334213D103EA00078F4207D1C3
S2140041540B4A1A40002A14BF6FF001000020F0BD7D
S214004164013AEBD16FF00200F9E74FF0FF30F6E7C3
S2140041746FF00100F3E700BF80969800000003503C
S214004184020001000B4B70B5D96911F480310DD1D2
S21400419401244FF48072084E084DF46020462C64C7
S2140041A41A61FFF7C5FF3464EC6070BD6FF0010060
S2140041B4FBE700BF0000035000100350002003502C
S2140041C438B541F6713301220C4C0021E569E363EE
S2140041D40B4B05F48035DA600223606121202361ED
S2140041E4FFF7A6FF10B92120FFF7A2FF0122054B17
S2140041F4DA600DB10023E36338BD00BF000003504E
S214004204001003500020035070B5134C6061E3693E
S2140042145B071ED40E4656F8043B8D18A361AE42C7
S2140042240BD10423002121202361FFF781FF58B915
S214004234BDE870402120FFF77BBF08210846FFF742
S21400424477FF10B10423236170BD56F8043BA361C5
S214004254E5E74FF0FF30F7E7000003502DE9F84399
S214004264154641F67132164B8946DF69DA63012238
S214004274064603F58053DFF8508007F48037DA608B
S21400428455B9284601220F4BDA601FB10022A3F568
S2140042940053DA63BDE8F88306F5005404EA08041C
S2140042A4A41BAC4228BF2C46494622463046FFF79C
S2140042B4ABFF0028E6D12644A1442D1BE0E700BF4F
S2100042C4000003500020035000E0FFFF45
S2140042D02DE9F04F4FF0FD0BC9B09A460DF11B09C2
S2140042E09DF8503108AFCDF80C90CDF808B0019786
S2140042F0059303890446009383790E4690464188C9
S2140043008288407811F006FC054650B10090A388DC
S214004310002062883A4911F041FF284649B0BDE8BE
S214004320F08F99F800002EF0B0FA38B12846A3882E
S2140043306288344911F032FF8D25EEE75A46394639
S21400434099F800002EF049FA8346002851D0529B77
S2140043501BB1BDF84C3198424BD8002399F8009019
S2140043600793A9F14102012A5FFA8BF123D8384658
S2140043700139254ADFF898C05FFA81FE734513DBE2
S214004380059B04210792C3B907AF18221F489FED6B
S2140043901A7B02FB060420460A460830394684ED9E
S2140043A0027B16F023FC11E010F8011F0133514088
S2140043B00CFB01F2E2E7059B33B123464A4638463A
S2140043C000960FF029FBA8E70829DED9B8F1000F00
S2140043D001D088F80090BAF1000F01D0AAF800B01A
S2140043E0529B002B99D05A46184608A916F0FEFB99
S2140043F093E7012591E700BF0000000000000000E1
S2140044005DE1030092E10300C59D1C818010002041
S21400441093010001000000002DE9F04F93B0CDE9B4
S2140044200A32DDE91C530E9353EC102BCDE908013C
S214004430104619468DED060B1E9E15F061FE80B1E6
S214004440DDE906014FF0FF32C54B15F081FE40B99D
S214004450DDE906014FF0FF326FF4801315F05AFEC7
S21400446070B1DDE908019DED060B0E9B1E96CDE9A9
S2140044701C53DDE90A3213B0BDE8F04F00F088B9EE
S2140044800022DDE90601002315F044FE002800F0B6
S2140044903381DDE906A303F1004BCBF30A5016F493
S2140044A08063A0F2FF3008BF06250F9315F056FB79
S2140044B09BA3D3E9002315F0BBFB9BA3D3E9002302
S2140044C015F000FACBF31304894644F07F5180467A
S2140044D00022A44B504641F4401115F0F1F994A384
S2140044E0D3E9002315F0A4FB02460B464046494696
S2140044F015F0E8F915F036FE044615F02FFB8EA3EE
S214004500D3E900238046894615F092FB0022964B9D
S21400451015F0D8F915F026FE89A3D3E9002307463F
S2140045204946404615F084FB80463846894615F0D5
S21400453015FB85A3D3E9002315F07AFB02460B464C
S2140045404046494615F0BCF902460B46CDE90C2319
S21400455015F06EFBDDE90C238046894610461946A9
S21400456015F0B0F90022CDE91001804B40464946CF
S21400457015F088FC00227E4B15F0A4F902460B4687
S2140045804046494615F07EFC00227A4B15F09AF913
S21400459002460B464046494615F074FCDDE90C23FE
S2140045A08046894600204FF0804115F089F9024682
S2140045B00B464046494615F085F902460B46DDE9AE
S2140045C0100115F05FFC07F2FF3700226A4B15F06A
S2140045D079F900223B0515F02BFB52465B468046D8
S2140045E0894615F0B5FD002840F08980CDE90C8994
S2140045F004F16303C62B8CBF0527042731051BD5A2
S21400460053A3D3E900235046594615F097FD0028DA
S2140046107FD051A3D3E900235046594615F07AFDC2
S214004620002876D00027A542C6BF2C1B04F1FF3514
S21400463000253C4646F480660E9B9F422CBF4FF0FA
S2140046400008A3EB070816F0020903D0002F18BFD6
S2140046504FF000083CB1DDE90C235046594615F0F2
S21400466011FC82468B46DDE906010022002315F088
S21400467051FD10B10BF100439B46DDE9080126F41D
S2140046800063CDE90183DDE90A324BEC10AB0095FF
S21400469000F07EF802465FB3DDE9091316F0200F3E
S2140046A000F10105089E0CBF65204520B047DDE9F6
S2140046B008010523002205930A23002CCDE90232C7
S2140046C007F1FF374FEAD473B8BF64422A46019316
S2140046D004970A9B00942FF0F6FE0246B9F1000FED
S2140046E006D00B9BC41A0B9B1A190E9BA34245D8E7
S2140046F0104613B0BDE8F08FDDE906ABCDE600222C
S214004700404649461A4B15F0BDFB013CCDE90C016D
S2140047106EE7002D90D00F9B002B8DD0013D8BE7D0
S214004720FB799F501344D33FB3C8608B288AC63F9B
S21400473061436F63A787D23F71A379094F930A40FD
S2140047401655B5BBB16B0240EF39FAFE422EE63F76
S2140047502D431CEBE2361A3F0000000080842E41F9
S214004760FFFFEF7F0000F83F0000E03F00002C4016
S21400477000002440000018400000F03F2020DDE943
S2140047800913089DA8470134ADE700BF00000000EC
S2140047902DE9F04F5BEC10AB97B0CDE90501DDE9F4
S2140047A02058CDE90723504652465B465946229F7D
S2140047B015F0A6FC70B90323CDE902870193AA4B36
S2140047C00093DDE90501DDE907232FF0AEFD17B004
S2140047D0BDE8F08F4FF0FF326FF480135046594615
S2140047E015F098FC28B10423CDE9028701939F4B6E
S2140047F0E6E74FF0FF32504659469D4B15F0A8FCB1
S21400480068B19C4A07F00403002B08BF03229A4BAA
S2140048101CBF13460422CDE902870192D0E750461A
S2140048208DA3D3E90023594615F092FC38B98CA322
S214004830D3E900235046594615F06CFC68B1DDE913
S2140048400723DDE905014BEC10ABCDE92187209568
S21400485017B0BDE8F04FFFF7DFBD0022002350463B
S214004860594615F057FC002800F091805B465246EA
S2140048700020002115F024F8012382468B46099378
S21400488017F4806400F08580092D40F285800024AE
S21400489030210EABA5F109020134202C03F8011BD0
S2140048A0A5EB040901D09442F6D15946504615F0BE
S2140048B059FC724B054603EBC90393ED007B8DED67
S2140048C00A7B15F04BF902460B465046594614F043
S2140048D0F7FFDDE90A2315F0ABF902460B46CDE9F2
S2140048E00C2315F067FC064615F028F902460B4621
S2140048F0DDE90C0114F0E4FF02460B46CDE90C237B
S21400490000225F4B15F024FC002848D001363046C4
S21400491015F014F902460B46DDE90A0115F004FC11
S21400492008B100260135B9F1000F45D1284615F02B
S21400493015F902460B465046594614F0C1FF0022B0
S2140049404F4B15F0E7FB10B9E90700D501350A21F2
S2140049500EAB1A19202C0AD095FBF1F001FB10556E
S214004960303502F8015B013405460028F2D107F025
S2140049700302012A55D1B8F1000F52D0099A12B994
S21400498017F00C0F01D008F1FF38302240E00990F4
S21400499076E74FF0060988E7A946002485E7002257
S2140049A0DDE90C01364B15F0B5FB0028BBD10EB186
S2140049B0F007B8D50136B6E70A210EAB1A19202C37
S2140049C00DD0B6FBF1F001FB1063092E03F13003A6
S2140049D009F1FF3904F1010402F8013B11D8302136
S2140049E0A1440EAA202CB2D04C4504F101030AD1F2
S2140049F004F158020DEB02042E2204F8202C1C466B
S214004A00A5E70646DBE7A1541C46EBE71A5501343A
S214004A10444506D2202CF9D1CDE9028701940EAB8D
S214004A20CEE6202CF8D0099B3BB12D2204F158038A
S214004A306B4403F8202C0134EEE77A0704D504F122
S214004A4058032B226B44F4E73B07E5D504F15803E3
S214004A5020226B44EDE700BF0000000065CDCD418D
S214004A600000000065CDCDC180FE030084FE03007B
S214004A70FFFFEF7F77FE03007CFE030098470400ED
S214004A800000E03F0000000070B58EB02C22002130
S214004A9003A815F01BFF64234FF002320893CDE9FC
S214004AA005230B2301218DF834305B4B8DF8101055
S214004AB01D880D4040F0A980084633F05FFD0A22AD
S214004AC0564B574C1A704FF42873ADF812304FF00F
S214004AD0FF332360534B54491B8820460B82534BAD
S214004AE0534A1B68CD828B61524B0D621B884B82EA
S214004AF0514B1B68CB611CF057FB20B14FF41B7168
S214004B004E4834F0D3FD052120682FF0CFFE20B1AB
S214004B1040F27D21494834F0C9FD206814F08CFE2F
S214004B20474B206819682FF084FF0C2534F08EF967
S214004B306843099034F08AF968430DEB0501079045
S214004B40206816F085FD20B140F295213B4834F0F0
S214004B50ADFD25681EF060FD0022014628462FF0B8
S214004B60E0FF20B140F29721344834F09FFD40F238
S214004B700353344D344E2B80052396F90000AB705A
S214004B807F2801D11CF006FC3378EB7034F05EF918
S214004B9000EB80008000A88034F058F90023C000A5
S214004BA04FF0FF31E880AB604FF0FF3018A3D3E939
S214004BB0002333F035FE254920682FF06BFF206870
S214004BC002A930F087FB20B14FF434711B4834F053
S214004BD06DFD042220680DEB02012FF0FFFE042875
S214004BE004D040F2D721154834F060FD01A9012019
S214004BF02FF000FB06F00EFE01201DF04FF82BF004
S214004C0060FB1DF075F81CF05DFB0EB070BD00BFBC
S214004C100A0020FF42030000125900203D600020D9
S214004C203853002046610400F46600204C610400FE
S214004C30A585030044610400486104004937040068
S214004C403C6400202C530020BF6900201986030016
S214004C500348044B834202D0034B03B11847704706
S214004C60EC690020EC69002000000000064B0749B4
S214004C70C91A891048BF0131491003D0044B0BB143
S214004C8001481847704700BFEC690020EC69002017
S214004C900000000010B5064C237843B9FFF7D8FF94
S214004CA0044B13B10448AFF300800123237010BDFA
S214004CB0B015002000000000CC84040008B5044BAA
S214004CC01BB104490448AFF30080BDE80840CDE7B7
S214004CD000000000B4150020CC840400A3F5803A40
S214004CE0704700BF154B002B08BF114B9D46FFF7C2
S214004CF0F5FF00218B460F461148124A121A15F08E
S214004D00E5FD0C4B002B00D098470B4B002B00D03A
S214004D1098470020002104000D000B4816F01CF9EF
S214004D2015F0ACFD200029002AF0BEFA16F002F9B4
S214004D30000008000000000000000000081000202E
S214004D400810002094600020C1AF010007B50121C3
S214004D5020200DF1070200F007FF58B102230121C1
S214004D6020200DF107028DF8073000F00DFF03B08C
S214004D705DF804FB9DF807100229F8D002220948C6
S214004D8014F092FC022301210DF1070220208DF879
S214004D90073000F0F9FE2AF00BFA4FF4FA6000F044
S214004DA0F3FDE4E7E89A030038B501F055F801286A
S214004DB005D001F051F8022801D001F065F8064D43
S214004DC02B783BB901F048F80128044602D12AF0B6
S214004DD062FA2C7038BD00BFF059002070B50C4642
S214004DE0088800F03DFE94F844300546834214D00F
S214004DF004F11C0630462AF0EAF984F844502AF0FA
S214004E00EAF93221A06430462AF0DCF994F844101E
S214004E100248BDE8704014F047BC70BD109B03000C
S214004E2010B50446008800F01BFEA37884F8440002
S214004E30834202BF0123E3702371074B04F11C0079
S214004E40C4E9073400F0E6FE224620880349BDE8A0
S214004E50104000F01DBE00BF9BEF0200DD4D0000BD
S214004E6070B5C37804460D461646002B34D1D1B132
S214004E70214814F019FC0123E370E36CA6600BB123
S214004E80E06D9847E368F61A63699E4221D2217E58
S214004E901A480131C9B2217614F006FCA36D13B18D
S214004EA0217EE06D9847E5702AF095F915B32379D1
S214004EB003BBA268238A801A83421BD201231048B0
S214004EC0237114F0F1FB236DA3B1E06DBDE87040D3
S214004ED0184701232376E6E70029E4D1094814F0B1
S214004EE0E3FB636DE660E5702571002BDBD0E06DBB
S214004EF09847D8E770BD00BF2D9B03003E9B03007C
S214004F006C9B0300599B0300F8B51E468388044635
S214004F100D4617460BB18680F8BD817800882AF0CA
S214004F205DF80123E370084BE5802781A680C4E97D
S214004F3003340C34204600F06DFE29462046BDE8BA
S214004F40F8402AF03FB900BFE7EF020010B501793C
S214004F500446B1FA81F1008849092AF0B6F82179A9
S214004F606088B1FA81F149092AF0AFF8034B1A6854
S214004F70A24204BF00221A6010BD00BFCC1500205C
S214004F8070B543790446A3B100880E4E04F10805B7
S214004F90336813B10C4B1B786BB121792AF095F866
S214004FA064210A4B3460A3602846BDE870402AF0AE
S214004FB009B94088E9E7064814F076FB054B32212C
S214004FC0A360F1E7CC150020F15900204D4F0000FA
S214004FD0829B0300814F000010B50446E0B10F48E5
S214004FE014F062FB01236371A37953B921792088F9
S214004FF02AF06BF8236B7BB1606B0121BDE8104093
S21400500018472046FFF7A2FF04F108002AF0DFF851
S2140050102046FFF7B5FFEDE710BD00BFB89B0300C5
S21400502010B50446F8B1104814F03EFB0023637137
S214005030A3796BB921792088B1FA81F149092AF060
S21400504044F8236B7BB1606B0021BDE81040184725
S2140050502046FFF77BFF04F108002AF0B8F8204648
S214005060FFF78EFFEDE710BDC39B030010B50446A7
S21400507068B1074814F018FB637920461BB1BDE8F9
S2140050801040FFF7CDBFBDE81040FFF7A5BF10BD2D
S214005090CF9B030010B50E4C0E48214614F004FBBF
S2140050A082210D4814F000FB82210220A21E00F08F
S2140050B06BFD014630B134F8022C0848BDE81040BC
S2140050C014F0F2BA0648BDE8104014F0EDBA00BF7E
S2140050D07E540020DE9B0300F99B0300049C030023
S2140050E0489C030038B5124C82212246022000F06C
S2140050F03BFDA51C014698B122880E4814F0D4FA50
S2140051002A460D4B03F1340153F8040B8B4242F848
S214005110040BF9D119889B7811809370362323806D
S21400512035F8021C054A0648BDE8384014F0BCBAFB
S2140051307C540020539C0300D39C03007E54002024
S214005140B19C0300034B1B781BB18B4201D82AF09D
S2140051502FB870476669002010B504460146084817
S21400516014F0A2FA012C074805D129F094FFBDE8F7
S214005170104001F099BABDE8104029F08EBF00BF7C
S2140051800A9D0300C863002070B50024184D194E10
S2140051903378A34217DC0024174D184E3378A34209
S2140051A017DC0024164D174E3378A34217DC00F0A8
S2140051B053FE0128144818D129F06DFFBDE8704051
S2140051C0124800F05BBE2846FFF72AFE0134603521
S2140051D0DEE7284629F045FF01343435DEE7284669
S2140051E029F078FF01343835DEE729F056FFE5E789
S2140051F0A0200020F7590020C0240020F8590020E5
S214005200701E0020F6590020C86300205951000087
S2140052102DE9F04F87B0FFF765FFAC4B05A8059367
S21400522029F07CFF054615F04DFAA94CC2B21F2A9C
S214005230627004D9A74814F037FA00F099FB2946A3
S214005240A01C15F0D3FC05A829F068FF054615F04C
S21400525039FAC2B21F2A84F8212001D99E48EAE70B
S214005260294604F1220015F0C1FC05A829F056FFD6
S214005270002604462578002D40F08480974CFFF7E2
S21400528083FF2378DFF894A2DFF89482944E00938D
S2140052909AF8003098F800203178924814F004FA12
S2140052A098F800203378904F13449AF800204FF473
S2140052B08270134422784FF6FF711344DBB2012B41
S2140052C038BF01233A4602932B463D46029C0133E3
S2140052D09C4213705080918002F10C02F6DC4FF075
S2140052E0000B824C80497A48AC6000F087FEE87973
S2140052F0AB6800EB400003EB800000F07FFCEB792E
S214005300DFF8FC910133EB7133785B4500F34A829A
S21400531000274FF00C09764ADFF8CCB198F8000069
S2140053203178B84200F3528247180C21002501FB61
S21400533007B19AF800009423A8426E4A00F36482EC
S2140053400C2598F8003000274FF070083678DFF804
S214005350D4A11E44064405FB06B5604B1B78BB4231
S21400536000F365820299604800F0B6FC059B574939
S2140053701A468B4240F06E825F4807B0BDE8F04F99
S21400538014F092B9532D0FD163784C2B40F00C815A
S214005390A378502B40F008810122584B1A7005A8BC
S2140053A029F0BCFE044665E7582D35D8412DF6D9C0
S2140053B0423D162DF3D801A353F825F045540000BE
S2140053C0195700009F5300009F5300009F53000092
S2140053D09F5300009F530000295500009F53000074
S2140053E09F530000815400002B5400009F53000080
S2140053F09F5300009F5300009F5300001756000065
S214005400A95500009F5300009F5300009F530000C3
S2140054109F53000083560000692DC0D1601C29F000
S2140054208AFE80B229F0C0FEB9E72D4B012019781C
S2140054300023334A994202F1A402B0DD02F8A20C1E
S2140054400133F7E7601C00F077FB0546E01C29F007
S21400545094FE01210246284600F0BCFA6022294844
S214005460294C03785A43A118A5524FF4FA620A82CF
S2140054704FF448724A61254A0A65013303708EE785
S214005480601C00F059FB002234268046204F11464F
S21400549000F0A0FA38781F4D06FB00F325F80380CD
S2140054A0EA18E3781046693B18BF0123937029F089
S2140054B0D8FD3B78002103FB06550126164A3344E7
S2140054C01560516016743B7069E700BF7E5400207B
S2140054D0DC620020299D0300409D0300F259002055
S2140054E0F5590020509D0300D015002048160020D6
S2140054F0D41A002018190020A09D0300F15900209E
S214005500D41B0020F7590020A020002007F102003D
S214005510F8590020C0240020C8630020F35900205A
S214005520F4590020C8170020601C00F005FB00227C
S2140055301146804600F04EFA3422CB4DCB4F2878E9
S21400554002FB00F327F80380F918E3780846693B66
S21400555018BF01238B7029F084FDC54A002311462D
S214005560906BB8B901EB831134232A7802FB0373DE
S2140055708B635EB9BF4A3346114652F8040B78B9BE
S2140055803422287800FB027241F823202B7801335E
S2140055902B7004E70133042B02F14002E0D1E8E768
S2140055A00133042BE9D1F1E7601C00F0C5FA074689
S2140055B0E01C29F0E2FD01210246384600F00AFA16
S2140055C06023AD4DAD4C2A78A4205343E118E75232
S2140055D04FF44873AA4F0B824B61AA4BDFF8C8C240
S2140055E08B653B7858430CEB00010CF800304FF409
S2140055F00070488003200871887102EB420004EBBB
S214005600401432200133DBB201324B718C6081F8DA
S214005610A0002A7057E7601C00F08EFA00224FF0B8
S21400562038088146984F114600F0D4F93B78974DDC
S21400563008FB03F325F803904FF00109EA1882F8F7
S2140056400490E3786BB1E01C00F076FA0022044682
S214005650114600F0BFF93B7808FB03535C8083F8E3
S21400566006908B48824A037899015354397802EBA6
S2140056708314C1EBC10205EBC20262634A1C3A7096
S214005680FBE6601C00F058FA0746E01C00F054FAEF
S2140056900546601D29F071FD044602460121384684
S2140056A000F098F9224660242846012100F092F97D
S2140056B0DFF8C4C1714A9CF80030DFF8C8E104FB8B
S2140056C003F0111817524FF44870C1F858E00882DA
S2140056D04861591CC9B24C431719155394246D4D93
S2140056E038827861981C8CF800002878C7F858E053
S2140056F04443694F03EB430301EB410107EB040C02
S21400570002EB431302EB41123855CCF80430CCF8C8
S21400571008200130287042E6601C00F00DFA0746AB
S214005720E01C00F009FA002205461146384600F053
S21400573051F9002238241146284600F04BF9524809
S214005740524A03784FF0010E04FB03FC02EB0C01F7
S21400575022F80C704FF0000C81F804E081F806C0C7
S21400576003EB0E01C9B24C43171915539C1C047069
S21400577070244A4D87F806C0287887F804E044432A
S214005780474FC3EBC303C1EBC10107EB040C02EBAD
S214005790C30302EBC1023855CCF80430CCF808201D
S2140057A07044B7E7BBF1000F06D017F8053C03EBD3
S2140057B0430304EB8304BC603946484601F022FAF2
S2140057C00BF1010B09F1A4090C379DE579180AD0F5
S2140057D0481E09FB00B0C07900EB400004EB8004D3
S2140057E009FB01B08460104609FB0151039201F0E9
S2140057F00BF831782B48394409FB015100F03AFF89
S214005800039A0137403289E5FD4218BF11F8050CAE
S21400581003911EBF00EB400004EB80048C6003FB8A
S214005820052000F03FFE039901350C3181E5F74273
S21400583018BF15F8053C29461CBF03EB430304EBD1
S214005840830408FB07A018BFAC6000F001FD013719
S2140058500C3582E513F8011D00297FF488AD3B2145
S21400586002F8011C83E500BFF8590020C024002080
S214005870D41A0020C8630020F7590020A02000207A
S214005880F559002045510000F6590020701E0020F2
S214005890F4590020F359002018190020F25900206E
S2140058A0C8170020641E0020D41B002007B5012165
S2140058B021200DF1070200F057F918B99DF80720CE
S2140058C0024B1A7003B05DF804FB00BF6669002047
S2140058D007B5064B8DF80700187001210DF1070279
S2140058E0212000F051F903B05DF804FB6669002042
S2140058F007B5022101200DF1060200F035F938B98E
S214005900044813F0D1FEBDF8060003B05DF804FBB2
S2140059100020FAE7BD9D030007B50221ADF806009A
S2140059200DF10602012000F02FF9014610B10348E0
S21400593013F0BAFE03B05DF804FB00BFDE9D030063
S21400594010B5FFF7D5FF04460146074813F0ACFE36
S2140059500121064813F0A8FE24B9BDE81040012036
S214005960FFF7DABF10BD00BF0E9E0300209E0300A7
S21400597008B5044813F098FE00F016F929F018FC54
S21400598029F013FC369E030038B50446084D094B33
S21400599028462B6000F03EF9002C18BF214628460A
S2140059A0BDE8384008BF4FF4967129F00BBC00BF25
S2140059B0C425002055F1020010B5044C237823B905
S2140059C0034833F01FFE0123237010BDFA59002050
S2140059D0C43A040073B506460D461446FFF7ECFFBE
S2140059E00E4A330AD35C8DF805608DF804307DB11D
S2140059F0012C04D0032C09D00022012101E022460C
S214005A00022101A801F034FE02B070BD0022F7E7C3
S214005A1004212A460DEB0100F4E700BF40380400DD
S214005A2007B5064A030AD35C8DF8050001A88DF871
S214005A30043001F051FE03B05DF804FB403804006A
S214005A4007B5064A030AD35C8DF8050001A88DF851
S214005A50043001F06DFE03B05DF804FB403804002E
S214005A6007B50A4A030AD35C8DF805008DF80430A2
S214005A7000230DF1030101A88DF8033001F084FE28
S214005A809DF8030003B05DF804FB00BF4038040037
S214005A902DE9F043214C85B0064688469146FFF72F
S214005AA08BFF23781BB901F0C7FD012323701C4A26
S214005AB0330AD35C30228DF80C300023194F8DF852
S214005AC00D6002FB03F4395DE51901BB01233B556C
S214005AD04FF0FF3304F1100013493844AB606E807A
S214005AE0C5F80480C5F80C9008F0B4FD04F1080170
S214005AF0042239440D4B009503A801F073FEA968F3
S214005B0002460B4813F0D0FD05B0BDE8F083013324
S214005B10102BD6D1074813F0C7FDF5E7F95900203A
S214005B2040380400EC2500205BF102006DF1020015
S214005B30439E0300719E030080B10278A2F14103E8
S214005B40032B0BD840783038C0B2082806D8054B4F
S214005B50134413F8413C40EA032070474FF6FF70A9
S214005B60704700BF4038040008B50B4642B10146F6
S214005B700448006802F07AFFBDE8084029F00EBB32
S214005B80022008BD3464002008B50B4642B1014629
S214005B900448006803F0F2F8BDE8084029F0FEBAB1
S214005BA0022008BD34640020F0B50026124F8DB0E8
S214005BB0FF2300930A223346386802A92AF036F9F2
S214005BC0C0B102AB1D4603EB800404E055F8043B6D
S214005BD0B34228BF5E1CAC423868E9D9296803F096
S214005BE053FA0028F2D02D28F0D00DB0BDE8F040D2
S214005BF029F0D4BA0DB0F0BD3464002028B1034BB0
S214005C000360034B43600023836070471900000362
S214005C10DC630020FF2307B50021044A0093083008
S214005C2008F09CFC03B05DF804FB00BFBFF1020067
S214005C300B460449024608680349097808B129F06A
S214005C40D1BA7047F4280020FC590020F8B50C465D
S214005C5018B122210E4833F029FD246823685E79A6
S214005C605F8830463946FFF7E3FF08B98120F8BD64
S214005C708568002DFAD0A368E27C39463046A847EE
S214005C8004460028F2D12DF06AFB2046EFE700BF5D
S214005C90999E0300F8B515460D4A044610680D4A4D
S214005CA00B46117850B1224629F09CFA034628B1DB
S214005CB000210C27C678B14201DB0020F8BD07FBA7
S214005CC001F45A681019125BAA42F7D00131F2E7C4
S214005CD0F4280020FC5900202DE9F74F04460D4615
S214005CE00026454B454F1860454B1970330100217F
S214005CF0F85C01360FF0FCFC0C2EF7D10C2D28BFFB
S214005D000C254FF0000901953C4EDFF800A13D4DF3
S214005D10DFF8FC80019B4B4502DC03B0BDE8F08F4A
S214005D2023784FF0000B337063887380A388B380AA
S214005D30A379C6F80880B371E379C8F8005088F8EC
S214005D4004304FF00003A768A8F80630E3795B45F7
S214005D500ADC012116F8100B0FF0CAFC08F108083F
S214005D6009F101090C34D5E74FF0000338886B8140
S214005D702880FB784FF0000C2B81BA78C5F804A079
S214005D80002A00920CBF802240222A7379680AF10A
S214005D900C02634513DC03EB43030AEB830ABB6880
S214005DA043B1009A4FF6FF71B2FA82F2164B5209CF
S214005DB02DF065FA14350BF1010B0C37C6E7B1F878
S214005DC000E00CF1010C22F80CEC91F802E00C3229
S214005DD002F816EC91F804E00C3102F815EC11F814
S214005DE009ECBEF1010F14BF4FF0100E4FF0110E6C
S214005DF002F814ECCDE700BFF42800201C40002079
S214005E00FC590020F82E00204D5C0000F8280020E9
S214005E1078310020014B1860704700BFF028002042
S214005E2070B5128805460E46FFF734FF044670B17B
S214005E3002790499806814F09BFD064B1B680BB929
S214005E40002070BD3146284622889847F8E786200D
S214005E50F7E700BFF028002008B50EF0E5FC0228A2
S214005E6006D0012806D0044B18784000C0B208BD02
S214005E700120FCE70220FAE7FB590020014B1860DE
S214005E80704700BFEC280020034B1A781AB901228D
S214005E901A700AF029BD7047FB5900200022064BF5
S214005EA010B51A70054B1C682CB1FFF7D5FF2346BA
S214005EB0BDE81040184710BDFB590020EC28002014
S214005EC037B50446002832D00EF0AEFC022830D19A
S214005ED060892DF0A6FDE079237A003818BF0120EE
S214005EE0012B637A08BF40F008000BB140F01000A9
S214005EF063890BB140F00400257CA188A2790DB11E
S214005F00E36873B90C4B0FF0CFFF2178084610F00A
S214005F1047F82DF0ADF8002814BF0320002003B08A
S214005F2030BDCDE90035054B0FF0BEFFEDE7022092
S214005F30F5E70120F3E700BFAAED030073BD0300F9
S214005F4008B50CF02FFE014630B1044813F0ACFB48
S214005F50BDE808400DF0CAB908BD00BF0B9F03009E
S214005F60034B044A5B7C012103201370FFF70CBE31
S214005F70C8630020FD59002010B50446FFF7F0FF67
S214005F80B4F57F4F0BD100240F4B1A8813449C7036
S214005F90FFF780F82046BDE81040FFF7F5BC4FF647
S214005FA001739C4204D1BDE81040084829F05BB854
S214005FB04FF602739C4205D1BDE81040044B18789A
S214005FC0FFF786BC10BD00BF7C540020C8630020CD
S214005FD06669002010B5074C012122460320FFF712
S214005FE0C3FD28B92378044A003B18BF0123537425
S214005FF010BD00BFFD590020C86300200822F8B578
S2140060003224504B1A7030225C70DC7036249A7042
S2140060105A7133221C7131249A711A724FF400128D
S214006020DC71494C4264C464484C01220465484C07
S21400603085188465474CC567C465474C474D44661C
S214006040474CC0F880508466464C80F84820046769
S214006050454C80F854204467202480F8784080F827
S214006060844000F12104C0F88840404C80F860204D
S214006070C0F88C403E4C80F86C20C0F894403D4CF4
S21400608080F89020C0F8984080F89C20C0F8B8307F
S214006090394B3A4CC0F8BC300223C0F8A4400F2459
S2140060A080F8C030364B80F8A840C0F8C430354B76
S2140060B0354CC0F8C8308223C0F8AC40334C80F86A
S2140060C0CC30C0F8B0400924314B324DC0F8D03047
S2140060D0314B80F8B440C0F8D4302C7C2F4BC0F83D
S2140060E0A00080F8D820C0F8DC3044B12C4B80F8F3
S2140060F0E420C0F8E03005F11103C0F8E8304FF0B6
S214006100000CCA798E6802EB42039F00443006EB0F
S214006110830326F807C0586001200D349870DC70A1
S2140061201318CB71FFF7C2FBFFF754FFFFF794FE7F
S214006130012806D12B7C23B1BDE8F840154828F08D
S21400614092BFF8BDFE5900205A3804000100200016
S21400615059380400020020005838040005004200A8
S21400616003002000573804000400420007003000F7
S2140061705638040012001001FDFF210000404200C6
S2140061805438040000FF440144380400060042006E
S2140061907C540020C863002002FF200166690020AE
S2140061A001FF1001437B044A01211370007811306F
S2140061B0C0B2FFF7E9BC00BF085A002038B5044655
S2140061C00078054D11302A460121C0B2FFF7CCFCFD
S2140061D008B92B78637338BD085A0020024B53F871
S2140061E0200029F0E6B800BFD8310020012908B504
S2140061F006D0022907D049B929F0D2F8002008BDF8
S21400620029F0D1F8FAE729F0D1F8F7E7024813F0B9
S2140062104BFA0120F3E700BF389F030011461A46E9
S214006220024B53F82000FFF7E1BF00BFD831002033
S214006230002310B5044683810364A0F84430483038
S214006240FFF7E8FC014BC4E9123410BD99F30200D5
S21400625038B504460B781A4A43700D4642F82300B8
S214006260FFF7E6FF2046FFF7A9FF4FF44013236130
S2140062700123144A2375A261134A84F82030E26190
S214006280124A84F82C306262114A84F83830A262CE
S21400629004F10C0222630F4A04F10D036263E36308
S2140062A0EA79A86802EB420300EB830110344C60E5
S2140062B0094C40F82340094B8B60531CEB7138BDEA
S2140062C0D8310020075A0020080020006769002007
S2140062D000FF300001FF1001020101041D620000F2
S2140062E010B47024427B0D48013A012904FB0200D9
S2140062F006D0022908D059B95DF8044B29F050B8E9
S2140063005DF8044B29F04FB85DF8044B29F04EB801
S21400631003485DF8044B13F0C7B900BFC817002048
S214006320549F0300B0F85C302DE9F0418B420446E0
S2140063300E4638D0437B077C8BB31C4A12789A42B1
S2140063402DD370251A4A013B05FB032390F80F80D6
S2140063501B7B424629F03BF8B845054601D1FF288D
S2140063601FD13A463146204694F8903029F02FF84F
S2140063702F460546552212216078A4F85C6028F066
S21400638053FFFF2F03D039462046FFF7A9FFFF2D06
S21400639009D029462046BDE8F04129F058B8FF2527
S2140063A0DFE70746E6E7BDE8F08100BFF2590020C8
S2140063B0C817002041688268C978D27849B112B1FE
S2140063C00321FFF7AFBF837B002B0CBF0121022107
S2140063D0F7E72AB1837B002B0CBF02210121F0E7EF
S2140063E0014813F061B900BF659F0300037BD3B17A
S2140063F04368DA7812B18268D278A2B91B7933B1D1
S214006400837B002B0CBF04210521FFF78BBF83681D
S2140064101B792BB1837B002B0CBF05210421F4E7ED
S214006420014813F041B97047979F0300084A437B21
S21400643005211370837B5370C37B9370037CD370EA
S214006440037B137100780E30C0B2FFF79DBB00BF10
S214006450095A002038B5044600780C4D0E302A46FE
S2140064600521C0B2FFF780FB20B1BDE838400848E0
S21400647013F01AB92B7863736B78A373AB78E37356
S214006480EB7823742B79237338BD00BF095A00209C
S214006490D39F0300024B53F8200029F022B800BF18
S2140064A000320020F8B504460B78424A43700D4689
S2140064B042F82300404E29F032F8FFF7CBFF62681F
S2140064C0A3683E483E49D6641165D4655065C3E965
S2140064D01410DE64DC654FF09873022663610123B6
S2140064E004F10C01E16137491032216204F10D011B
S2140064F0A16235492376E16204F10E0161633349F6
S21400650084F82430A16304F10F012164304984F833
S2140065103030616404F11001E1642E4984F83C30A7
S21400652084F84830216584F85460A265E879A96843
S21400653000EB400201EB820704F1140CC7F804C01C
S2140065404FF4817C244F41F82270C218D2B202EB7D
S214006550420241F822C001EB820700227A601F4AFD
S21400656084F8703022661E4A84F88830A2661D4A77
S2140065701D4BE2661D4AC4F88C3062671C4A8319BC
S214006580A26704F15C02C4F88020DBB2194A03EB70
S2140065904303C4F8842084F8646084F87C6001EBCC
S2140065A0830260345460144A033041F82320E871B3
S2140065B0F8BD00BF00320020B5630000A5F402005D
S2140065C0ED6300000100200102001001030030010D
S2140065D0040030010500210101FC01064A002100EB
S2140065E05C380400510010005E3804005F38040078
S2140065F0550021006F0018001200010470B50D460A
S2140066000646144613460A460146164813F04CF84A
S21400661025B92046BDE87040FFF7AEBC072D05D172
S21400662021463046BDE8704000F0B2BA4FF601434E
S2140066309D4205D121463046BDE87040FFF72ABF8F
S214006640062D05D121463046BDE8704000F096B8CC
S214006650B5F5817F05D121463046BDE87040FFF78D
S214006660BDBD70BD02A003000148FFF7D3BB00BF4D
S214006670FD6500004FF4C01330B5036001230371BD
S214006680074B8C688360CA7902EB420304EB8305F0
S2140066906860044844F82300531CCB7130BD00BF2B
S2140066A0603804000400010138B50024044D55F894
S2140066B0040B08B128F043FF01340A2CF7D138BD8B
S2140066C028320020042908B509D15AB113781BB91D
S2140066D028F060FF002008BD28F052FFFAE70248C5
S2140066E012F0E2FF0120F6E735A0030011461A4635
S2140066F0024B53F82000FFF7E5BF00BF283200200A
S2140067000229024608B50ED004D839B9104628F03A
S21400671041FF06E04029F9D0412907D1104628F06C
S2140067202FFF002008BD28F03FFFFAE7024812F0CE
S214006730BBFF0120F6E700BF55A0030011461A462E
S214006740024B53F82000FFF7DBBF00BF28320020C3
S214006750426B094B52791A7082785A70C2789A70D6
S214006760826B12B190F83C20DA7000780421093070
S214006770014AC0B2FFF708BA0E5A0020024B53F87F
S214006780200028F02DBF00BF2832002038B5044670
S2140067900078084D09302A460421C0B2FFF7E4F914
S2140067A030B96B78A370AB78E370EB7884F83C3044
S2140067B038BD00BF0E5A002038B504460078114D8B
S2140067C009302A460421C0B2FFF7CEF9C8B9A3782B
S2140067D02A78022B0CD004D863B9204628F0DAFEBB
S2140067E001E0FF2B0AD02046BDE8384028F0A7BEBF
S2140067F0002AF2D1204628F0C3FEF4E7002AF9D199
S214006800EBE738BD0E5A0020F8B504460B78284A48
S2140068100D4642F823004370FFF7B8FF636B254A26
S2140068205C631A632046FFF7C7FF204628F087FE02
S2140068304FF4801363600123626BA66B0532E2603F
S2140068401D4A23722261A21C2375A26166B11B4AEF
S21400685084F82030E261E21C6262194A84F82C3027
S21400686004F13C03A26223630627EA79A96802EBD7
S2140068704203002E21F8237001EB83000CBF022395
S2140068800423C370012383700E4B04348360531CAF
S2140068904460DBB20C4C03EB430341F8234001EBAE
S2140068A0830000234360094B02328360EA71F8BD1F
S2140068B028320020BDF502000340300101FF300100
S2140068C002FF10013D67000008000100ED660000B1
S2140068D002464179D37808480139042B00EB811031
S2140068E008D8012B04D80BB928F04ABE28F052BEAF
S2140068F028F05ABE704700BFD41A002002464179DD
S214006900D37808480139042B00EB811008D8012BF6
S21400691004D80BB928F03EBE28F032BE28F044BE9C
S214006920704700BFD41A002030B587B004464579BA
S214006930FFF792FA012822D1E2786B1E042A1ED8AD
S214006940DFE802F00431031F2800104663784FF496
S21400695080728DF804304FF48273ADF8063006234B
S214006960ADF8083001238DF80B3000238DF80A00AF
S21400697001A8CDE903238DF81430FFF7A1FA07B07C
S21400698030BD0A4A02EB83135B6B5B79181E18BF97
S2140069900120DBE7054A02EB83135B6B5B79B3FAF6
S2140069A083F04009D2E70020D0E700BFD41A0020C9
S2140069B030B587B004464579FFF74EFA012829D14D
S2140069C0E3786A1E042B25D8DFE803F00B0B0B03D5
S2140069D02600164B03EB82135B6B5B79003B18BFFC
S2140069E0012362788DF80A308DF804204FF4827205
S2140069F00123ADF8062006228DF80B30ADF80820EE
S214006A0000234FF4807201A8CDE903238DF81430DB
S214006A10FFF756FA07B030BD044B03EB82135B6BEF
S214006A205B79B3FA83F35B09DBE700BFD41A002077
S214006A3010B586B00446FFF70FFA012812D1637826
S214006A40094A8DF804304FF48273ADF806304FF4DF
S214006A508073CDE90223002301A804938DF8143037
S214006A60FFF72EFA06B010BD0800070110B586B075
S214006A700446FFF7F1F9012820D16278104B8DF813
S214006A8004204FF4827294F8A01094F8A100597074
S214006A901870ADF8062004934FF48072022309495B
S214006AA001A88DF81430CDE90212FFF709FA94F820
S214006AB0A130013B18BF012384F8A13006B010BDF9
S214006AC0125A00200800050110B583780446E3B189
S214006AD00379022B06D143790C48013B00EB831067
S214006AE028F062FDA379022B02D12046FFF71CFF97
S214006AF02046FFF7BBFF02236078A4F86C305522CF
S214006B00BDE81040122128F08FBB10BDD41A00201B
S214006B104388094A082113808388538083681B8A28
S214006B20938090F8A03093718379D3710078043005
S214006B30C0B2FFF729B800BFFE54002038B50D4696
S214006B4004460178104812F0AFFD4FF602739D42DE
S214006B500CD163791BB10D4A12789A4201D20123F7
S214006B6063712046BDE83840FFF7D2BFB5F57F4FCA
S214006B70F7D1204628F091FDA378022B0CBF012206
S214006B800022A3689A70ECE771A00300F459002075
S214006B90024B53F82000FFF7D1BF00BF5032002051
S214006BA038B504460078134D04302A460821C0B292
S214006BB0FEF7DAFF20B1BDE838400F4812F074BD8A
S214006BC02B8863806B88E978A380AA88A3681A82DA
S214006BD0AB7984F8A030EB79A37119B1074B1B7819
S214006BE08B4205D2064812F05FFD237801336371AD
S214006BF038BD00BFFE5400208BA00300F4590020CF
S214006C00B4A00300F8B504460B78474A0D4642F890
S214006C1023004370FFF7C4FFA268444BD465D364D7
S214006C20434B02265365434BA11C13654FF4401398
S214006C30E36001236161E1623F491032216322650E
S214006C40211D3E4AA1633E483E49626504F1A0020A
S214006C50A061E163E265E01C611D3B4A206261645D
S214006C603A483B492266A21D2374237784F82830CD
S214006C7084F8343084F84030A16484F84C6084F89A
S214006C80583084F864306062A266E879AA6800EB3F
S214006C90400102EB810704F10C0CC7F804C04FF06A
S214006CA0060C2C4F42F82170C118C9B201EB410105
S214006CB042F821C002EB810700217960264F84F854
S214006CC080302767254F84F89830A767244F254BD8
S214006CD0E767254F84F8746084F88C60C4F89C30AD
S214006CE004F16C06831CC4F88470C4F890601F4FCF
S214006CF01F4EDBB203EB4303C4F89460C4F88870FD
S214006D0002EB83067034746008261A4C42F823405F
S214006D10C31CDBB203EB430302EB8304043042F8EC
S214006D2023606160E871F8BD5032002007F602006B
S214006D3049F60200C96A000001FF300104FF200185
S214006D401000300102FF200105FF300100FF300176
S214006D5003FF2101070001084A00210062380400F1
S214006D605100100064380400653804005500210006
S214006D706F0018001200010400239B6AB3F5804FD1
S214006D8003D21968064A914203D000230370836039
S214006D907047012202709A689B694260F7E700BF5D
S214006DA007B0CD5E024B034A1A6029F0FEBF00BF53
S214006DB00000002002020FF073B53F4B04461A781D
S214006DC01AB102221A7002B070BDCDE90022002866
S214006DD0F9D001261E7032F077FB384D384B18601C
S214006DE017F044FA2B785BB902F0F2F940B935484F
S214006DF00823354A3549006801F038FE00B92E7080
S214006E00334B5A68E260334A9A601A6E22605A6EB2
S214006E106260D3F87021A2601B6E5C042CD52E4AEB
S214006E20D368D807FCD42D4B1A68531C29D04FF4CE
S214006E30801393402A4A13660423294C4FF080425D
S214006E4023664FF480632366102323664FF40053B3
S214006E506846236601A92266636628F036FC009B16
S214006E602366019B63662B78002BACD0164B1A6802
S214006E7022665B686366A6E71A4AD368D907FCD41D
S214006E80D1E7194B1B78002BD6D1184B5A68144BF8
S214006E9012B94FF480121A66154A526812B94FF4A6
S214006EA000121A66134B5B68002BC5D14FF48002A4
S214006EB00B4B1A66C0E700BF155A0020165A002072
S214006EC088320020346400208C32002000710800D4
S214006ED00080004455CEAC00000004400064002052
S214006EE00090004400000450145A00200080055012
S214006EF000C005500000065038B5224D04462B78D9
S214006F00012B02D001232B7038BD0028FCD028F0BE
S214006F1001FC013009D028F0FDFB40F20113984235
S214006F2003D0194AD368DB07FCD42268174B1A66CD
S214006F3062685A66A268C3F87021E268D40744BF44
S214006F4000229A60124B1A68013213D1114A127845
S214006F5082B911494968C80748BF1A600F4A526883
S214006F60D10744BF01221A600D4A5268D20744BFB7
S214006F7002221A6017F082F90A4B186832F09FFA5C
S214006F800023C0E7155A002000000440008000449B
S214006F9000640020145A00200080055000C00550F0
S214006FA0000006508832002070B50024A36AB3F5AE
S214006FB0804F23D21A68134B9A421FD1124E337851
S214006FC013F0FD0518D14FF480341048FFF7F4FE97
S214006FD0032004F0CBF90E4B0320DC6004F0AAF982
S214006FE00C4B1C61AB6ADB69984704460748FFF701
S214006FF083FF0CB901233370204670BD4FF48174B3
S214007000FAE700BF07B0CD5E145A002078320020A1
S21400701000A000440090004413B5204B1B7803B931
S214007020FEE700231E4CCDE900336A4608231D49BF
S214007030206801F01BFDF8B91B4AD2F84031D2F89F
S21400704040211F2B4FF0010311D9203A9340019A9B
S2140070501A43019208236A461249206801F08EFE00
S214007060124B134A1A6029F0A0FE02B010BD9340DE
S214007070009A1A430092EDE72D28F1D10A4AD2F879
S2140070804031D2F840211F2B4FF0010385BF203A34
S21400709093409340019398BF0093DBE7155A002076
S2140070A034640020007108000080004400000020C6
S2140070B00B020FF038B50025AB6A0446B3F5804FD7
S2140070C010D21B6BB3F5804F0CD20748FFF774FE47
S2140070D0AB6A20461B6B5B689847BDE838400248A1
S2140070E0FFF70ABF38BD00BF9432002013B5002456
S2140070F0A36A0190B3F5804F13D21B6BB3F5804F94
S2140071000FD20948FFF758FEA36A01211B6B01A89E
S2140071109B69984704460448FFF7EEFE204602B0F7
S21400712010BD4FF48174F9E79432002070B5002644
S214007130B36A0446B3F5804F0D4612D21B6BB3F507
S214007140804F0ED20848FFF737FEB36A20461B6B07
S21400715029469B69984704460348FFF7CDFE20461C
S21400716070BD4FF48174FAE79432002070B50026A3
S214007170B36A0446B3F5804F0D4612D21B6BB3F5C7
S214007180804F0ED20848FFF717FEB36A20461B6BE7
S2140071902946DB69984704460348FFF7ADFE2046BC
S2140071A070BD4FF48174FAE794320020F8B50027DA
S2140071B0BB6A0446B3F5804F0D46164611D21B6BCC
S2140071C07BB10948FFF7F8FDBB6A20461B6B3246C9
S2140071D029465B6A984704460348FFF78DFE20461B
S2140071E0F8BD4FF40174FAE79432002070B500261B
S2140071F0B36A0446B3F5804F0D4612D21B6BB3F547
S214007200804F0ED20848FFF7D7FDB36A20461B6BA7
S21400721029469B6A984704460348FFF76DFE2046BA
S21400722070BD4FF40174FAE794320020F0B50027E1
S214007230BB6A0446B3F5804F0D461646ADF5337D62
S21400724020D21B6BB3F5804F1CD21048FFF7B4FD5D
S214007250BB6A20461B6B40F2C1225B6A01A99847B5
S214007260044630B10948FFF747FE20460DF5337D4A
S214007270F0BD836A32461B6B2946DB6A01A8984735
S2140072800446EFE74FF40174EFE700BF94320020A6
S21400729010B50024A36AB3F5804F10D21B6BB3F56C
S2140072A0804F0CD20748FFF787FDA36A1B6B1B6B4A
S2140072B0984704460348FFF71FFE204610BD0124EA
S2140072C0FBE700BF94320020F0B58FB0044601A85B
S2140072D00E461546FFF7EEFE9DF80C30012B12D138
S2140072E0B5F5402F27D8B4F5402F24D86319B3F549
S2140072F0402F20D821462A46304613F077FC00243B
S21400730020460FB0F0BD0027BB6AB3F5804F15D2FC
S2140073101B6BB3F5804F11D20A48FFF74DFDBB6AD1
S2140073202A461B6B314620465B6B98470446054849
S214007330FFF7E2FDE4E740F20244E1E740F2011421
S214007340DEE700BF94320020F0B58FB0044601A8F7
S2140073500E461546FFF7AEFE9DF80C30012B1FD1EA
S214007360B5F5402F06D8B4F5402F03D86319B3F50A
S214007370402F13D940F2024420460FB0F0BDE25829
S214007380013225D104339D42F9D82A46314620469B
S21400739028F0F0F90028EDD00024EDE70023F2E70E
S2140073A00027BB6AB3F5804F15D21B6BB3F5804F31
S2140073B011D20A48FFF700FDBB6A2A461B6B31460E
S2140073C020469B6B984704460448FFF795FDD3E795
S2140073D040F20344D0E740F20114CDE79432002097
S2140073E070B58EB0044601A80D46FFF763FE9DF803
S2140073F00C30012B22D144EA0503C3F30C03002B07
S21400740033D1B5F5402F04D940F2024420460EB0E1
S21400741070BDB4F5402FF7D82544B5F5402FF3D806
S214007420204604F5005428F09EF9AC4202D000280D
S214007430F6D1E9E70028E7D00024E7E70026B36A9C
S214007440B3F5804F14D21B6BB3F5804F10D20A48A9
S214007450FFF7B2FCB36A29461B6B2046DB6B9847E6
S21400746004460548FFF748FDD0E740F20444CDE760
S21400747040F20114CAE700BF94320020BFF34F8FDA
S2140074800549064BCA6802F4E0621343CB60BFF3BB
S2140074904F8F00BFFDE700BF00ED00E00400FA05D7
S2140074A070B5D0B1C9B10E4E431E013913F8014F65
S2140074B02046325D02F00302012A11F8012F08BFB0
S2140074C004F12000B55C05F00305012D08BF20324D
S2140074D0801A01D1002CE9D170BD0120FCE700BF65
S2140074E0356004000348044A0449121A921028F032
S2140074F08DB900BF34410000D0420000306100204A
S21400750008B5154B83F30A8800F030F8FFF7EAFF5A
S214007510124B13498B4212D30020124B12498B4256
S21400752018D3FDF7DFFB186850F82240586840F87B
S2140075302240013298688242F5D30C33EAE70022F3
S214007540F8E71C6844F8220001325C68A242F8D3CF
S2140075500833E4E70022F8E708000020D48404009B
S214007560E0840400E0840400E0840400124B134A24
S21400757070B59A60D3F88820114D42F47002C3F8B3
S21400758088206FF0010205F50054226641F2FF7272
S21400759062660222C3F8D020BFF34F8FBFF36F8F0F
S2140075A04FF44036032003F0E1FE0320E66003F0CC
S2140075B0C1FE2E6170BD00BF00ED00E0004000007F
S2140075C000800044014B1860704700BF086400202C
S2140075D0054B1860054B1B6F03F00703032B01D107
S2140075E030F0CAB8704700BF10640020008000501A
S2140075F02DE9F04104464FF001080C250D4E0CB95C
S214007600BDE8F08194FAA4F0B0FA80F00F2808FAEA
S21400761000F2C8BF103824EA0204CABF05FB0062A5
S21400762005FB0062B4325768002FE8D09168C0B2FC
S214007630B847E4E7A432002008B50C4831F0E2FF72
S214007640192003F085FE28B1192003F08FFE1920BB
S21400765003F070FE1A2003F07BFE28B11A2003F018
S21400766085FE1A2003F066FE002008BDC43A04001A
S2140076702DE9F0410E461746054618B30F2923D8C4
S2140076800378DBB1013BDBB2022B19D8104AD35C7E
S2140076906A78D340DB0717D50E4BD3F81043ACB946
S2140076A031F012FF80463A462846314602F0BEFBCD
S2140076B0404631F004FF2046BDE8F0817F23E7E72F
S2140076C00023E5E72224F6E72124F4E70224F2E784
S2140076D0B838040000C0035010B5044610B3037851
S2140076E0E3B1013BDBB2022B1AD8104AD35C6278B6
S2140076F0D340DB0718D531F0E7FE01226178237806
S2140077008A4030214B4341F2100103F1A04303F5B8
S21400771070335A5031F0D3FE002010BD7F23E6E7C9
S2140077200023E4E72220F8E72120F6E7B838040033
S21400773010B5044610B30378E3B1013BDBB2022B6D
S2140077401AD8104AD35C6278D340DB0718D531F0DC
S214007750BBFE0122617823788A4030214B4342F2F7
S214007760100103F1A04303F570335A5031F0A7FE21
S214007770002010BD7F23E6E70023E4E72220F8E799
S2140077802120F6E7B838040038B50D46044618B38D
S21400779011B30378E3B1013BDBB2022B1AD8104ACF
S2140077A0D35C6278D340DB0718D531F08DFE3022EB
S2140077B02378534303F1A04303F570335B69627883
S2140077C0D34003F001032B7031F079FE002038BD62
S2140077D07F23E6E70023E4E72220F8E72120F6E708
S2140077E0B83804002DE9F0410D4616469846044682
S2140077F000284FD000294DD00178002940D04B1EDC
S214007800DBB2022B3ED8254AD25C6378DA40D20738
S21400781001D4FF2940D1022E01D9042E3CD131F0EB
S21400782053FE23780746FF2B05D0324620462968AC
S21400783002F042FB28602B68013309D12378FF2B26
S21400784006D1174B6078D3F8241428F01EFD286064
S21400785029684B1C18D00C23124A03FB0122069BF6
S214007860C2F8048093602378FF2B04D001230E4ACD
S2140078708B40C2F82434384631F021FE002007E061
S2140078807F22C2E70022C0E7384631F018FE2D20DE
S214007890BDE8F0812220FBE72120F9E7B838040094
S2140078A000C00350A432002000D0035008B502F0F8
S2140078B0B3FA044B00F05530C3F82004BDE8084086
S2140078C0FFF796BE00E0035008B502F0A5FA044B99
S2140078D000F0AA30C3F82004BDE80840FFF788BED1
S2140078E000E003502DE9F04F144605460E469B4631
S2140078F0C36B87B001225B6902A960689847EB6B8F
S21400790001225B6903A93046984702A828F07DFB50
S214007910074648B10023A37563754FF0FF33A36095
S214007920002007B0BDE8F08F03A828F07BFB0123FA
S214007930A375237E04EBC303DE611F846368B34232
S2140079400ED1206003A828F08FFB4FF0FF33207580
S214007950A360237D043B022B26D80023A375DFE714
S21400796023681A1A53425341A37503A828F07CFBD8
S214007970237D834218BFA77503A828F057FB074648
S21400798002A828F053FB874218BF002303A818BF9D
S214007990A37528F053FB074602A828F04FFB874242
S2140079A01CBF0023A375D4E703A828F03FFB80B1D3
S2140079B0EB6B022230465B6904A9984704A828F0BE
S2140079C044FB0346207D032839D8DFE800F038382A
S2140079D0040903A8F3E7CC22237E04EBC3031A842E
S2140079E001F06EFC109B187003A8277E28F012FB8F
S2140079F004EBC70787F82200237E03A804EBC30323
S214007A00B3F8209093F8227028F010FB804603A865
S214007A1028F014FB8246B8F1000F15D0EB6B02225B
S214007A2030465B6904A9984704A828F0D3FA607525
S214007A30637D6BB90023A3754FF0000838E0227E03
S214007A4004EBC2021384CBE703A828F0AEFAEEE7F5
S214007A5094F81680B8F1000FEED0B9F1000F09D1F6
S214007A60DFB10123E375637E002B4FD1012F42D196
S214007A70677614E06B6C06EB0A015A4286EA010050
S214007A8010421CBF0022A2755A1E0A409B1A994536
S214007A90D0D8A37D002BE3D1CEE7E37D43B94FF0EA
S214007AA000084B4652463146284627F0F9FFA060AC
S214007AB0A27D12B123694B4423611A49237E0978BB
S214007AC099422AD901332376BBF1000F27D032B36F
S214007AD0E37D23B3B8F1000F21D1032F1FD0A16897
S214007AE04B1C1CD0109B2246009328460123FFF710
S214007AF0F9FEA07513E095F8343063B9EB6A0133EC
S214007B00CFD1032FCDD10123A376C8E7012FCFD045
S214007B10032FC4D1F7E79846C3E70023A375A07DDB
S214007B20FFE600BFDC3804002DE9F04F0E4698460D
S214007B3000238BB004464FF0FF31104617468DF8F1
S214007B40133001F0A7FBB6F5801F20D2314605AAF8
S214007B5004F1080028F0ABF9451C014603D1237C4C
S214007B60BBB92D2010E0384601F094FB01223946BF
S214007B7020460DF1130327F0E5FF0028EFD09DF80F
S214007B80133088F8003000200BB0BDE8F08FB01C32
S214007B90E5D1E56A691C36D12046616A27F0C6FE43
S214007BA00546B31C18BF0123DFF8CC900193636A27
S214007BB0626C0293236805A902FB053AE36B052273
S214007BC05B695046984705A828F0BAFA28F0DDFA0F
S214007BD0504628F0E5FA4FF0000B824601464B1C53
S214007BE005D0636C81EA0A025B42134211D0294633
S214007BF0204627F09BFE029BAB422CD0BBF1000F29
S214007C002CD10546D3E72368ED1A636CB5FBF3F574
S214007C10C7E7484601F03EFB0DF1130349462046F0
S214007C20019A27F08FFF034690B1B21C03D0D9F813
S214007C300020B2420CD19DF8132003930D4B88F818
S214007C40002049461A68384612F0D0FF039B9B4630
S214007C50D9F80810C3E7BBF1000F82D0B6F5801F35
S214007C6091D2314698F800307A6804F1080001F0A5
S214007C703FFA88E7D8380400803A00202DE9F3411F
S214007C800446174698460E46184D816AE36A8B42AC
S214007C9001D04B1C02D102B0BDE8F081284601F0AD
S214007CA0F9FA0122294620460DF1070327F04AFF7C
S214007CB038B14346294620469DF80720B847002895
S214007CC0E9D0A9684A1C04D16968204627F0BBFEA3
S214007CD00146012EDAD16B6881EA0302636C5B42CF
S214007CE01A4218BF4FF0FF31D0E700BF543A0020C9
S214007CF02DE9F04F4FF0FF334FF6FF720025044694
S214007D0000F10806C0E909238BB0C362056205636B
S214007D103046884628F09CF8204627F0D7FD60BB02
S214007D202046414627F052FE204627F0CFFD60BB96
S214007D305E200BB0BDE8F08F2368E26B606C57697D
S214007D4000FB0530052205A9B84705A828F0F8F974
S214007D50012807460CD12946204627F008FE012FA9
S214007D60024600D101322946204627F0CEFD03E028
S214007D7028F010FA0028EED10135E3699D42DBD3E6
S214007D80204627F0A3FD0028CAD000254FF0FF3973
S214007D904FF6FF73CA46A846C4E90853E3699845F8
S214007DA00AD3A5EB0905012D2CD84FF6FF72636A9E
S214007DB093423CD16720BCE72368E26B606C57694E
S214007DC000FB0830052205A9B84705A828F0B8F931
S214007DD0834605A828F08BF90746584628F0D5F9BB
S214007DE068B1574538BFC4F82480B94528BFB9469E
S214007DF0BD4238BF3D46BA46236A0133236208F1C6
S214007E000108CBE74FF6FF7300256362E3699D42E6
S214007E10CBD2676C2068E36B052207FB05005B6925
S214007E2005A9984705A828F062F90135EEE7E26B48
S214007E30676C2068694607FB030055690522A8475A
S214007E40684628F054F9626A2368606C4B4D00FB64
S214007E50023028F0A5F94FF0FF33A062E3622A460D
S214007E606FF00101204605ABFFF75EFE002846D105
S214007E70AD6829462046E56227F004FD206320B958
S214007E802046E16A27F0DFFDE0622946204627F01B
S214007E90DAFD0546A36A9D4233D1204627F0C5FC8D
S214007EA000278046B946E36999453CD3B84559D979
S214007EB02046616A27F03AFD0026054604F1400A8E
S214007EC0B74212D8626C2368694602FB0539E36B39
S214007ED005225B6948469847684628F008F95346E5
S214007EE002464946E06B28F05DF92946204627F011
S214007EF01DFD0136B0450546E2D1642019E7A56AA6
S214007F00B7E72946204627F0BDFC236B29460344E5
S214007F1007462363204627F096FD0546002FB9D175
S214007F20C4E90B07B6E7636C2568052203FB095511
S214007F30E36B05A95B692846984705A828F000F971
S214007F4028F023F958B1284628F02AF90146204699
S214007F5027F098FC636C143B984208BF013709F180
S214007F600109A0E7304627F073FF00232046194694
S214007F70034AFFF783FE0020DBE600BFAC3A002092
S214007F8033FB02002DE9F041036B9046826B0768D5
S214007F909A4288BF8363426C436A90B002FB0377C1
S214007FA0C36B0E46052201A95B690446384698470E
S214007FB001A828F0C5F801280146307057D0656C36
S214007FC0E26B2368606AD2F814C005FB0030052215
S214007FD006A9E04706A828F0B3F801284FF00005E8
S214007FE023D0D4E90A3201219342CDE90B458DF81E
S214007FF034800E958DF83C102AD11946204627F07D
S21400800022FD236B626C14339B1AE06223630C9B85
S21400801053B99DF83C303BB1626A616C2368E06BF3
S21400802001FB023128F044F80C9DE36B05225B69E6
S21400803001A93846984701A828F082F830702846EB
S214008040236BA26B9A4288BFA36310B0BDE8F08191
S214008050237C33B91C490BAA04F1080001F096F8FA
S214008060D5E72046194A0BABFFF708FECFE7237C7F
S21400807023BB2246164904F1080001F087F8616A1E
S214008080204627F074FC616A421C204627F03DFC1F
S214008090054620B9236B626C1344143B23632046C9
S2140080A0A16A27F0D0FC2368A062C01A636CB0FBFC
S2140080B0F3F06062204627F009FDB6E7002320466D
S2140080C0044AFFF7DBFDDAE729880000A5870000F1
S2140080D0CDFB020069FB020073B50D46D11E4A4275
S2140080E01C461B7E4A419A4226D12968236899423B
S2140080F022D3636899421FD8114E0DF1070332460A
S214008100FFF712FDC0B972686B689A4214D19DF8E9
S2140081100730DA1E53425341227E93420CD16369E4
S21400812001336361D4E90323934205D22968A26828
S21400813042F8231001332361012002B070BD00BF56
S214008140AC3A00202DE9F04F9B4689B09DF84830A8
S2140081509046514A0193136907465B450D46C0F0A9
S2140081609580D94653680093B9F1000F7BD0FB6B1E
S21400817001225B6905A90098984705A827F052FFD9
S214008180454B1B68984240F0848005A827F056FFB0
S2140081900428064615D105A827F057FF009B04467D
S2140081A01E44019B002B3ED1804512D91C46A8EBED
S2140081B000083846009927F046FCA9EB0409009011
S2140081C0D2E7FB6B02225B69009806A9984706A8CF
S2140081D0E2E7A0EB08045C4528BF5C46032C464457
S2140081E0ABEB040B1DD9FB6B294630465B69A20836
S2140081F0984724F0030304F0030A1E441D44DDF8E8
S2140082000480BAF1000FD4D0FB6B012206A93046D9
S2140082105B6998475246284606A912F0E7FC554483
S214008220C7E7A246EBE7824600F0030302932B184B
S21400823003930644039BA6EB0A00A3EB0A05029BE6
S2140082409A4514D1BAF1000FB3D0FB6B012206A9F0
S2140082505B6998475246284606A912F083FE002816
S214008260DDD04FF03609484609B0BDE8F08FFB6B0D
S214008270012206A95B6998470422284606A912F03F
S21400828071FE0028EDD1AAF1040AD3E74FF0630986
S214008290E9E74FF06F09E6E7D83A00202DE9F0410C
S2140082A00F4616469846044688B060B390F8345099
S2140082B0FDB1012127F0FFFA00210E9BCDE9051143
S2140082C0CDE902379DF83C30CDF804808DF81C309F
S2140082D0237C04968BB90D4901AA04F1080000F02E
S2140082E055FFDDE90553E06B002E08BF1D4627F05D
S2140082F07BFC284608B0BDE8F0812046044A01AB66
S214008300FFF7BCFCEDE70546F3E700BF97FB02006E
S214008310D98000007FB590F84260044601920DF1C6
S2140083200B030A463046114927F066FC012E054627
S214008330E36B17D132465B6903A998479DF80B108B
S214008340039B019A59B19BB243EA02430122284695
S2140083500393E36B03A99B69984704B070BD62F36F
S2140083600F03F3E701229B6901A9F5E7D83A00203D
S2140083702DE9F04F99B00E460D920A69416C0B93A9
S2140083801439D31DB3FBF1F3013302EBC302036BC5
S21400839004469342C0F001820023DFF80494089359
S2140083A0E36A48461946059300F074FFD6E903379A
S2140083B007930B9B022B4DD1CC2F40F0D7810D9B02
S2140083C03BB13146204627F06DFC656C14900120C9
S2140083D044E00120079B656C1B68149300F00100C5
S2140083E000280CBF04230823782F0E9349D8059A3B
S2140083F06B1E1340ED1A3B1D9D423CD2002F3DD014
S214008400082D3ED80023042506934FF0040A33684F
S21400841006990B98C9F80030C9F8107027F028FEA6
S2140084204FEA9A030F93059B89F8140003930023E1
S21400843009930C9304930A93616C039B4A1E1A409B
S2140084408B1A27B35544AB4223D8236B5B1A1344CD
S21400845023632FE1782F656CB9D8F07D0D9B002B38
S214008460BCD0E36B01225B69706816A9984716A812
S21400847027F0DCFDB4E700250695C6E70425069739
S214008480C3E7012300254FF0080A0693BFE75345CC
S214008490DBD3A3EB0A029742039BB84628BF90465D
S2140084A09742534428D90122D9F8101089F817208A
S2140084B08F4226D10399C9F80410049299F8172020
S2140084C00AB399F818100398CA1C09EBC202506048
S2140084D004980131A2F80880907289F81810B8F153
S2140084E0000F07D00B9A022A40F08180099A72B1D9
S2140084F0012209929B46ABE0049A002A18BF032289
S214008500DBE70222D9E7039AC9F80420E7E70C9ACA
S2140085104244032AEED9E26B1846956914A9012253
S2140085200993A847099B05460028E1D03D2D40F059
S2140085301E8104F1080303932368059A606CA2EB7E
S214008540030ABAFBF0FA00FB0A3027F029FEE16ABC
S2140085508046204627F077FAA26A824200F00F8112
S214008560626CD9F80830511E0B40216B2768891AB7
S2140085700B442363089BE062DF1BB7FBF2F7BA45A8
S21400858040F0FA80059BB3EB080A12D0E36B4FEA83
S2140085909A0241469B6998478346E36A059A534484
S2140085A0E362236B03989B1A4344236327F050FC33
S2140085B0DA462368616CE06B01FB073127F065FD46
S2140085C0204627F083F9204627F080FA2063BAF188
S2140085D0000F00F0D4803269616CD31D1439B3FBF0
S2140085E0F1F3013302EBC3029042A5D2BFE00D9A2D
S2140085F0002A77D1B8F1030F4FEA98026ED9E16BE3
S21400860018468D6907991093A847109B0546C0B970
S21400861018F0030515D0079A28F0030B02EB0B01A0
S2140086209B444FF0FF3215A815922A46109312F07D
S214008630DDFAE26B5846956915A90122A84705465A
S214008640109B9B46079A42440792002D40F08B8071
S214008650049B16A80193069B009399F814204346A2
S214008660316800F0CDFDE36B0F9A9B69039816A95D
S2140086709847039A051E089B18BF1346089343465F
S21400868052462046039927F00BFA236B08F10302A3
S214008690A3EB0A0322F003029B1AC9F8080023631F
S2140086A0002D7FF443AF0C9BA7EB080743440C93C5
S2140086B0CDF80CB02046039927F0C5F900250390A5
S2140086C0002F7FF4B9AE364A3168936804F108008B
S2140086D0E36252680B9B00F00BFD49E09B46454663
S2140086E007999EE79B4606F120021092F27D70687D
S2140086F0A2B1002296F818C00A99D5B2AC4511D995
S214008700109D02F1010E35F832508D4228D90E9890
S21400871006EBC2020144D069084403E00E9A0A99A7
S2140087200A441044E26B15A9556901221193A84723
S214008730159A0A9B1392E26B0433956958460122F8
S21400874013A90A93A847119B054603EB0802A2EB60
S2140087500B02042A7FF679AF28B90BF1040BC5E7A4
S2140087607246491BC9E7CDF820B088E770252F462A
S214008770384619B0BDE8F08F4FF0000A19E73269A5
S214008780616CD31D1439B3FBF1F3013302EBC30262
S214008790236B9342BFF404AEE9E71C27E8E700BF6B
S2140087A0803A0020032A2DE9F34106460D46174677
S2140087B01C4606D1237A012B23D0012002B0BDE847
S2140087C0F081DFF86080096842460DF10703FFF785
S2140087D0ABF960600028EDD19DF80720237A032AC4
S2140087E0E8D0D8F804106A689142E3D1012B2969D1
S2140087F0D4F80CC007D172690CEB0103934202D97E
S2140088002074207CDAE708316144E1603B460122AF
S21400881029463046FFF7ACFD60600028CAD000202D
S214008820CCE700BFAC3A00202DE9F341089C032AB0
S2140088301746266806D1237A012B24D0012002B0E1
S214008840BDE8F081DFF89080304642460DF1070320
S214008850FFF76AF960600028EDD12568D8F80400B3
S214008860A96AD5F844C04840CCF100031840227AE3
S214008870E1D1012A09D1E268D8F8103013447269B0
S214008880934202D92074207CD9E72868EB6A1B1A29
S214008890081AB3FBFCF3B0FBFCF083420BD1706C00
S2140088A0F36A421E1340326B121A1344284633638F
S2140088B027F0C9F8E862D8F81020E36808321344B5
S2140088C0E36001223B4604492068FFF751FD6060E3
S2140088D00028B0D00020B2E7AC3A00202DE9F041E5
S2140088E00025604B0E46D3F8008004461D6018B97C
S2140088F021252846BDE8F08190F8347007B30A6851
S21400890003689A4240F0A3804A6843689A4240F05F
S2140089109E808A6883689A4240F09980CA68C368D5
S2140089209A4240F094800A6943699A4240F08F80E8
S2140089308A69C36B9A4240F08A804B698361D8E7A4
S21400894068223946856B11F0C1FFD6E902123368FA
S21400895004F1080023607368A5636360336963618C
S2140089607369A36127F086FAB36904F14000E363F4
S2140089709B68984720B9676C17B16368B3FBF7F735
S21400898094F84330E761002BB2D00023656C236671
S214008990002D64D0002F62D02368B3FBF5F205FBF0
S2140089A01233002B55D16668B6FBF5F305FB13634F
S2140089B0002B4ED1204626F055FFA369043303440E
S2140089C09E4248D340F634726369CC3B934244D807
S2140089D0B5F5805F43D30321204626F06CFFD4E92B
S2140089E00001E36B1B6898470546E36B0220DB68D3
S2140089F09847CDB941462046FFF77AF964280546E0
S214008A0004D141462046FFF773F90546666C5DB90A
S214008A10236A2046143E5E4326F024FFA3690433EF
S214008A2003449E4238BF5A25002D0CBF0123002365
S214008A3084F8343007D1D4E900010B4A13680133B7
S214008A40136027F0B1FAE06B27F0CEF851E75D250A
S214008A504FE759254DE75A254BE75F2549E75B2544
S214008A6047E700BF103400200C3400202DE9FF41FA
S214008A700C4616461F46054680B390F834307BB346
S214008A80B1F5801F2ED2DFF86080012126F013FF9B
S214008A902146424628460DF10F03FFF745F80446E7
S214008AA070B99DF80F30012B11D1D8F81030BB42A9
S214008AB012D10246009031462846FFF743FB044693
S214008AC0E86B27F091F8204604B0BDE8F081022B51
S214008AD014BF2D246024F3E76324F1E72124F2E792
S214008AE01124F0E72924EEE7D83A00202DE9F043D8
S214008AF085B00C4617461E460546DDF8308098B30E
S214008B0090F8343093B3B1F5801F31D2DFF864901B
S214008B10012126F0D0FE21464A4628460DF10F03D5
S214008B20FFF702F8044688B99DF80F30012B14D1E0
S214008B30D9F8102006EB08039A4213D30090434658
S214008B40324639462846FFF7FDFA0446E86B27F01A
S214008B504BF8204605B0BDE8F083022B14BF2D2449
S214008B606024F3E76324F1E72124F2E71124F0E719
S214008B702924EEE7D83A002073B50C46164605467B
S214008B8030B390F834302BB3B1F5801F24D20121D6
S214008B9026F091FE21462846104A0DF10703FEF7FF
S214008BA0C3FF044680B99DF80730032B0CD0022B78
S214008BB00CD12846094927F075F83060E86B27F095
S214008BC013F8204602B070BD2D24F7E76124F5E7C0
S214008BD02124F6E71124F4E72924F2E7D83A002006
S214008BE02DE9F3411E4600230C4617460546336022
S214008BF050B390F834304BB3B1F5801F28D2DFF86D
S214008C005480012126F057FE2146424628460DF1A3
S214008C100703FEF789FF0446A0B99DF80730032B2B
S214008C2010D0022B03BF01233B600423D8F810307A
S214008C3018BF38603360E86B26F0D6FF204602B0D7
S214008C40BDE8F0812D24F6E72124F7E71124F5E7A7
S214008C502924F3E7D83A002073B50446056B26F0BE
S214008C6001FE636E03449D422CBF00230123854210
S214008C7094BF00252D1A207C84F85030656584F852
S214008C805800A8B100230C4E1A46194620460096F6
S214008C9027F0CCF8002305461A46194620460096CB
S214008CA027F0CDF8E3682844984294BF0020C01A05
S214008CB0E06502B070BD00BFFFFF0F002DE9F3476F
S214008CC01E4643690446B342884617469DF82890D8
S214008CD04ED300258DF80750204626F0C3FDD4F865
S214008CE030A082450AD2236AB5EB430F06D2002293
S214008CF020460DF10701FFF745F9B8B39DF8073098
S214008D00012B05D1002220460DF10701FFF73AF9A5
S214008D10B9F1030F06D03146204626F093FD256BA9
S214008D20854227D3144D4FF0FF31284600F0B2FAA3
S214008D304B46294600222046C5E90376C5F8008042
S214008D40FFF716FB236E054663B12046FFF784FF48
S214008D5094F8503013B994F858301BB1236E04F1D0
S214008D6050009847284602B0BDE8F0870135B3E7C3
S214008D706225F7E71C25F5E7AC3A00202DE9FF4110
S214008D800F4690461E46054698B390F8343093B387
S214008D90B1F5801F31D21A4C022126F08CFD2246F6
S214008DA0394628460DF10F03FEF7BEFE024678B19F
S214008DB0012342460093394633462846FFF77EFF96
S214008DC00446E86B26F010FF204604B0BDE8F081AC
S214008DD09DF80F30012BEBD12169B142E8D1009309
S214008DE0414633462846FFF7ADF904460028DFD152
S214008DF0E7E72124E8E71124E6E72924E4E700BFB3
S214008E00D83A00202DE9F04790F8423086B0012B82
S214008E1005460391A1EB020740F0AA80FF2F03D876
S214008E201E464FF0640807E00226012B14BF4FF0E1
S214008E3032084FF06408013600244FF6FF79DFF859
S214008E4044A195F84230012B14BF322364239C4280
S214008E5002D35FFA88F40DE005AB22465146284659
S214008E6026F0FEFE95F84230012B059B34D14B458B
S214008E702DD1E4B295F84230012B14BF3222642281
S214008E80121BB24217D3012E39D10022012B0597AF
S214008E908DF8132027D1082205A90DF1130027F01D
S214008EA09BF99DF81330059A42EA0322214628468C
S214008EB0FFF730FA40B10223324900932846CC230C
S214008EC0096803AAFFF7FAFE06B0BDE8F087DBB232
S214008ED003B902340134B4E7591CCAD09BB2002B44
S214008EE0F8D10134F6E7102205A90DF1130027F09A
S214008EF073F99DF81330059A42EA0342D6E7039ABF
S214008F00012B059223D10823202205A90DF1130079
S214008F108DF8133027F060F99DF8132012022146D1
S214008F202846FFF7F7F995F84230611C012BC9B2C5
S214008F301AD10028BFD12846BDF81420FFF7EAF959
S214008F400028B8D10234BDF81620E1B2AFE71023EE
S214008F50202205A90DF113008DF8133027F03CF9F7
S214008F609DF813201204DAE70028A4D1059A9EE79C
S214008F70B7F5803F4FF00106BFF457AF4FF0320809
S214008F805AE700BFD83A002070B586B00E460546B0
S214008F900392A0B390F834309BB3B1F5801F32D261
S214008FA0022126F088FC31462846184A0DF11703A0
S214008FB0FEF7BAFD044618B99DF81730032B0ED1FC
S214008FC00223314600932846CC2303AAFFF776FEF9
S214008FD00446E86B26F008FE204606B070BD022B5D
S214008FE00BD10A49284626F05DFE039902468142C7
S214008FF0EFD02846FFF706FFEAE76124E9E72124D9
S214009000EAE71124E8E72924E6E700BFD83A00207B
S214009010F7B50C461646054668B390F8343063B389
S214009020B1F5801F2BD2022126F045FC21462846AA
S214009030144A0DF10703FEF777FDC0B99DF8073017
S214009040032B14D0022B14D10E49284626F02AFEF4
S214009050471C024639462846FFF7D4FE044606B1AA
S2140090603760E86B26F0C0FD204603B0F0BD2D2427
S214009070F7E76124F5E72124F6E71124F4E729242D
S214009080F2E700BFD83A002030B50C46054685B05A
S21400909028B390F8343023B3B1F5801F23D20221D1
S2140090A026F009FC0DF10F03214628460F4AFEF76D
S2140090B03BFD034688B99DF80F20032A0DD00322F6
S2140090C02146009202462846FFF7F8FD0446E86B64
S2140090D026F08AFD204605B030BD2D24F7E7212472
S2140090E0F8E71124F6E72924F4E700BFD83A002071
S2140090F02DE9F043466886B3056898464FF0000CA5
S214009100A946AE4655F83C400CF1010CC4F31307D3
S214009110013401D0B94217D0B4450EF1080EF1D192
S2140091202F46002403E0B44207F1080712D055F892
S214009130343001340133F6D1C1F3130141EA08514A
S214009140C7E90012BDE8F08341EA0851CEE90012F3
S214009150BDE8F083B8F1030F03D101230372BDE825
S214009160F083002303E0B34209F10809F5D055F86F
S21400917033400133C4F30754032CF4D1C1F3130373
S21400918043EA0853C9E90032BDE8F0832DE9F0410F
S2140091900646406882B0B8B10F4690460024336851
S2140091A053F8345003EBC403C5F30752C5F3130159
S2140091B0013506D05B683046CDF80080B84718B158
S2140091C0706801348442EAD302B0BDE8F08100BF83
S2140091D0024B1968024B1868FFF780BB1464002026
S2140091E03464002008B530F062F9014B186008BD01
S2140091F0043B0020014B186830F054B9043B0020B3
S21400920073B504462248012A00EAC1119DF8185099
S21400921023F07C4007D9961E012E28D9073303F089
S2140092207F03194308E09DF81C300A43DB0603F071
S214009230C053134343F060410023C4E900108DF887
S2140092400730B5B1202221460DF1070026F0C4FFF5
S2140092501A220DF10700211D26F0BEFF08206368C4
S2140092609DF8072043EA8263636002B070BD114335
S214009270E2E71B220DF10700214626F0ADFF23682A
S2140092809DF80720042043EAC2632360EDE700BF91
S21400929080FFFF0738B5094B0D461A6800210446C3
S2140092A011F014FB00234FF0FF322383C4E900259E
S2140092B02361A260E382A37638BD00BFD8380400DD
S2140092C00138C0B205289ABF014B185C01207047D0
S2140092D0DD3804002DE9F0410746154600240E4609
S2140092E0596888B0490A012922464FEA510104F11B
S2140092F00104F8D8DC78997824031B88C90201F4A5
S214009300006104F480540C43C3F30A03520323445D
S21400931092B24FF000089C18274B6FEA0444039360
S21400932025F07843ED4302A90DF107001B220293B6
S2140093308DF8078026F050FF9DF80720029B02A9B3
S21400934043EAC2630DF107001B2225F0784504931B
S21400935002958DF8078026F03FFF9DF80720029BB8
S2140093606FEA144443EAC26305934FF0FF33079451
S214009370069307A9BB69012206F110009847BB694E
S21400938005A90446012206F108009847BB69404536
S21400939018BF044604A90122301D98470122404503
S2140093A018BF0446BB69304603A99847404508BF26
S2140093B0204608B0BDE8F08101009AB238B5104BDF
S2140093C00546D3F800310C4603F00303022B0BD0FE
S2140093D0032B0DD0012B0FD12EF0E8F9032305B196
S2140093E0286004B1236038BD2EF02AFA0723F6E77A
S2140093F030F070F80623F2E701230020EFE700BF05
S2140094000080005038B5134B0546D3F820010C46B3
S21400941000F0070004281AD8DFE800F003090D1151
S2140094201500012305B1286004B1236038BD2EF075
S21400943083F90423F6E72EF0B9F90323F2E72EF0BA
S214009440BBF90523EEE72EF0ADF90223EAE7002389
S2140094501846E7E70080005038B5104B0546D3F8AD
S21400946040310C4603F00303022B0BD0032B0DD028
S214009470012B0FD130F030F8082305B1286004B175
S214009480236038BD2EF0DCF90723F6E730F027F826
S2140094900923F2E701230020EFE700BF0080005019
S2140094A038B5104B0546D3F860310C4603F003037D
S2140094B0022B0BD0032B0DD0012B0FD130F00CF864
S2140094C0082305B1286004B1236038BD2EF0B8F932
S2140094D00723F6E730F003F80923F2E7012300201C
S2140094E0EFE700BF0080005041F6713210B5104C17
S2140094F0104BA04294BF00240124D969DA639A680D
S21400950001F4803122F4401242EA04529A600A4A78
S21400951090420A4AD2F818028CBF40F0020020F0AF
S2140095200200C2F8180209B10022DA6310BD00BFBB
S214009530005A62020000035080F0FA0200C0075092
S2140095402E4B98424AD022D82D4B984240D014D861
S2140095502C4B984239D00AD82B4B984232D02B4B02
S21400956098422FD02A4B98422CD000207047294B87
S2140095709842FAD1284B186F7047284B98422AD049
S214009580274B9842F1D1244BD3F880007047254BE7
S21400959098422BD009D8244B984223D0234B98428C
S2140095A0E3D11D4BD3F88C007047214B984221D055
S2140095B003F5740303F510539842D6D1164BD3F82F
S2140095C098007047144B986D7047134B586E704751
S2140095D0114B586F7047104B986F70470E4BD3F86F
S2140095E0840070470C4BD3F8880070470A4BD3F8BA
S2140095F090007047084BD3F8940070470048E80185
S2140096000024F400C0CF6A0080841E0000093D00DC
S21400961040420F00405DC6000080E00FC0EA210116
S21400962080BA8C01007E560380D54302006CDC02B3
S2140096300090D00337B50C460021114B0191D3F8AA
S2140096408031054603F00303022B0ED0032B11D006
S214009650012B03D101A8FFF7D5FE0D210DB1019B0B
S2140096602B6004B1216003B030BD2EF0A5F80521B3
S2140096700190F3E72EF096F802210190EEE700BF86
S2140096800080005038B5104B0546D3F840320C46E3
S21400969003F00303022B0BD0032B0DD0012B0FD1AD
S2140096A02FF01AFF082305B1286004B1236038BDE7
S2140096B02EF0C6F80723F6E72FF011FF0923F2E78E
S2140096C000231846EFE700BF0080005038B5144B63
S2140096D00546D3F800020C4600F0070004281BD805
S2140096E0DFE800F003090D111500012305B128601D
S2140096F004B1236038BD2FF0EFFE0823F6E72EF006
S2140097009FF80723F2E72FF0EAFE0923EEE72EF094
S21400971033F80C23800AE9E700231846E6E700BF83
S2140097200080005038B5144B0546D3F808020C46A6
S21400973000F0070004281BD8DFE800F003090D112D
S2140097401500012305B1286004B1236038BD2FF051
S214009750C3FE0823F6E72EF073F80723F2E72FF090
S214009760BEFE0923EEE72EF007F80C23800AE9E791
S21400977000231846E6E700BF00800050032814D0F8
S21400978005D8012805D0022809D0002005E00F28BA
S214009790FBD1084B186FC0F3013001307047054B02
S2140097A0D3F89000C0F30460F7E7024B186FC0F3DD
S2140097B08020F2E7008000501FB500230193252883
S2140097C017D8DFE800F0131A1D272C363B51565BDE
S2140097D060656A78161A401616561A272C27361A07
S2140097E05127783B3B3B3B2727275B602DF0AAFFA2
S2140097F00190019805B05DF804FB2DF0BDFFF7E77A
S2140098002DF0A0FF02460220FFF7B8FFB2FBF0F2F1
S2140098100192EEE72DF0B0FF02460320F4E72DF0AC
S214009820ABFF02460320FFF7A9FFB2FBF0F2520897
S214009830EEE7002101A8FFF7FDFEDAE7002101A808
S214009840FFF7E0FDD5E702934FF0E0231B695B07C7
S21400985005D52DF091FF0290029B0193C9E703A95D
S21400986002A8FFF7F9FDF7E7002101A8FFF7F4FDCE
S214009870BFE7002101A8FFF713FEBAE7002101A801
S214009880FFF724FFB5E7002101A8FFF74BFFB0E77D
S214009890002101A8FFF792FDABE7094BD3F8803013
S2140098A003F00303022BA8D0032B01D000209FE770
S2140098B02DF082FF9CE7002101A8FFF7E3FE98E762
